{
  "_format": "hh-sol-artifact-1",
  "contractName": "Findup",
  "sourceName": "contracts/findup.sol",
  "abi": [
    {
      "inputs": [
        {
          "internalType": "string",
          "name": "_defaultReferralId",
          "type": "string"
        },
        {
          "internalType": "address",
          "name": "_sharefee",
          "type": "address"
        },
        {
          "internalType": "address",
          "name": "_noblegiftWallet",
          "type": "address"
        },
        {
          "internalType": "address",
          "name": "_owner",
          "type": "address"
        }
      ],
      "stateMutability": "nonpayable",
      "type": "constructor"
    },
    {
      "anonymous": false,
      "inputs": [
        {
          "indexed": false,
          "internalType": "string",
          "name": "purpose",
          "type": "string"
        },
        {
          "indexed": true,
          "internalType": "address",
          "name": "to",
          "type": "address"
        },
        {
          "indexed": false,
          "internalType": "uint256",
          "name": "amount",
          "type": "uint256"
        }
      ],
      "name": "DebugTransfer",
      "type": "event"
    },
    {
      "anonymous": false,
      "inputs": [
        {
          "indexed": false,
          "internalType": "string",
          "name": "userId",
          "type": "string"
        },
        {
          "indexed": false,
          "internalType": "string",
          "name": "uplineId",
          "type": "string"
        },
        {
          "indexed": false,
          "internalType": "uint256",
          "name": "amount",
          "type": "uint256"
        },
        {
          "indexed": false,
          "internalType": "bool",
          "name": "success",
          "type": "bool"
        }
      ],
      "name": "DebugUpline",
      "type": "event"
    },
    {
      "anonymous": false,
      "inputs": [
        {
          "indexed": true,
          "internalType": "address",
          "name": "to",
          "type": "address"
        },
        {
          "indexed": false,
          "internalType": "uint256",
          "name": "amount",
          "type": "uint256"
        }
      ],
      "name": "FundsDistributed",
      "type": "event"
    },
    {
      "anonymous": false,
      "inputs": [
        {
          "indexed": true,
          "internalType": "address",
          "name": "to",
          "type": "address"
        },
        {
          "indexed": false,
          "internalType": "uint256",
          "name": "amount",
          "type": "uint256"
        }
      ],
      "name": "FundsWithdrawn",
      "type": "event"
    },
    {
      "anonymous": false,
      "inputs": [
        {
          "indexed": true,
          "internalType": "string",
          "name": "userId",
          "type": "string"
        },
        {
          "indexed": true,
          "internalType": "address",
          "name": "receiver",
          "type": "address"
        },
        {
          "indexed": false,
          "internalType": "uint256",
          "name": "amount",
          "type": "uint256"
        }
      ],
      "name": "NoblegiftDistribution",
      "type": "event"
    },
    {
      "anonymous": false,
      "inputs": [
        {
          "indexed": true,
          "internalType": "address",
          "name": "previousOwner",
          "type": "address"
        },
        {
          "indexed": true,
          "internalType": "address",
          "name": "newOwner",
          "type": "address"
        }
      ],
      "name": "OwnershipTransferred",
      "type": "event"
    },
    {
      "anonymous": false,
      "inputs": [
        {
          "indexed": true,
          "internalType": "string",
          "name": "userId",
          "type": "string"
        },
        {
          "indexed": true,
          "internalType": "string",
          "name": "referrerId",
          "type": "string"
        },
        {
          "indexed": false,
          "internalType": "uint256",
          "name": "amount",
          "type": "uint256"
        }
      ],
      "name": "ReferralDistribution",
      "type": "event"
    },
    {
      "anonymous": false,
      "inputs": [
        {
          "indexed": true,
          "internalType": "string",
          "name": "userId",
          "type": "string"
        },
        {
          "indexed": false,
          "internalType": "uint256",
          "name": "amount",
          "type": "uint256"
        }
      ],
      "name": "RoyaltyClaimed",
      "type": "event"
    },
    {
      "anonymous": false,
      "inputs": [
        {
          "indexed": true,
          "internalType": "string",
          "name": "userId",
          "type": "string"
        },
        {
          "indexed": false,
          "internalType": "uint256",
          "name": "amount",
          "type": "uint256"
        }
      ],
      "name": "RoyaltyReward",
      "type": "event"
    },
    {
      "anonymous": false,
      "inputs": [
        {
          "indexed": true,
          "internalType": "string",
          "name": "userId",
          "type": "string"
        },
        {
          "indexed": true,
          "internalType": "address",
          "name": "sharefee",
          "type": "address"
        },
        {
          "indexed": false,
          "internalType": "uint256",
          "name": "amount",
          "type": "uint256"
        }
      ],
      "name": "SharefeeDistribution",
      "type": "event"
    },
    {
      "anonymous": false,
      "inputs": [
        {
          "indexed": true,
          "internalType": "address",
          "name": "newSharefee",
          "type": "address"
        }
      ],
      "name": "SharefeeUpdated",
      "type": "event"
    },
    {
      "anonymous": false,
      "inputs": [
        {
          "indexed": true,
          "internalType": "string",
          "name": "userId",
          "type": "string"
        },
        {
          "indexed": true,
          "internalType": "string",
          "name": "sponsorId",
          "type": "string"
        },
        {
          "indexed": false,
          "internalType": "uint256",
          "name": "amount",
          "type": "uint256"
        }
      ],
      "name": "SponsorDistribution",
      "type": "event"
    },
    {
      "anonymous": false,
      "inputs": [
        {
          "indexed": true,
          "internalType": "string",
          "name": "userId",
          "type": "string"
        },
        {
          "indexed": true,
          "internalType": "string",
          "name": "sponsorId",
          "type": "string"
        },
        {
          "indexed": false,
          "internalType": "uint256",
          "name": "amount",
          "type": "uint256"
        }
      ],
      "name": "SponsorReward",
      "type": "event"
    },
    {
      "anonymous": false,
      "inputs": [
        {
          "indexed": false,
          "internalType": "uint256",
          "name": "totalAmount",
          "type": "uint256"
        },
        {
          "indexed": false,
          "internalType": "uint256",
          "name": "totalRecipients",
          "type": "uint256"
        },
        {
          "indexed": false,
          "internalType": "uint256",
          "name": "timestamp",
          "type": "uint256"
        }
      ],
      "name": "TotalRoyaltyDistributed",
      "type": "event"
    },
    {
      "anonymous": false,
      "inputs": [
        {
          "indexed": true,
          "internalType": "string",
          "name": "id",
          "type": "string"
        },
        {
          "indexed": false,
          "internalType": "uint256",
          "name": "newLevel",
          "type": "uint256"
        },
        {
          "indexed": false,
          "internalType": "uint256",
          "name": "cost",
          "type": "uint256"
        }
      ],
      "name": "Upgraded",
      "type": "event"
    },
    {
      "anonymous": false,
      "inputs": [
        {
          "indexed": true,
          "internalType": "string",
          "name": "userId",
          "type": "string"
        },
        {
          "indexed": true,
          "internalType": "string",
          "name": "uplineId",
          "type": "string"
        },
        {
          "indexed": false,
          "internalType": "uint256",
          "name": "amount",
          "type": "uint256"
        }
      ],
      "name": "UplineDistribution",
      "type": "event"
    },
    {
      "anonymous": false,
      "inputs": [
        {
          "indexed": true,
          "internalType": "string",
          "name": "userId",
          "type": "string"
        },
        {
          "indexed": true,
          "internalType": "string",
          "name": "uplineId",
          "type": "string"
        },
        {
          "indexed": false,
          "internalType": "uint256",
          "name": "amount",
          "type": "uint256"
        }
      ],
      "name": "UplineReward",
      "type": "event"
    },
    {
      "anonymous": false,
      "inputs": [
        {
          "indexed": true,
          "internalType": "string",
          "name": "userId",
          "type": "string"
        },
        {
          "indexed": false,
          "internalType": "uint256",
          "name": "newLevel",
          "type": "uint256"
        },
        {
          "indexed": false,
          "internalType": "uint256",
          "name": "amount",
          "type": "uint256"
        }
      ],
      "name": "UserUpgraded",
      "type": "event"
    },
    {
      "inputs": [
        {
          "internalType": "uint256",
          "name": "",
          "type": "uint256"
        }
      ],
      "name": "activity",
      "outputs": [
        {
          "internalType": "string",
          "name": "id",
          "type": "string"
        },
        {
          "internalType": "uint256",
          "name": "level",
          "type": "uint256"
        }
      ],
      "stateMutability": "view",
      "type": "function"
    },
    {
      "inputs": [],
      "name": "checkContractBalance",
      "outputs": [
        {
          "internalType": "uint256",
          "name": "",
          "type": "uint256"
        }
      ],
      "stateMutability": "view",
      "type": "function"
    },
    {
      "inputs": [],
      "name": "claimRoyalty",
      "outputs": [],
      "stateMutability": "nonpayable",
      "type": "function"
    },
    {
      "inputs": [
        {
          "internalType": "string",
          "name": "",
          "type": "string"
        }
      ],
      "name": "claimableRoyalty",
      "outputs": [
        {
          "internalType": "uint256",
          "name": "",
          "type": "uint256"
        }
      ],
      "stateMutability": "view",
      "type": "function"
    },
    {
      "inputs": [
        {
          "internalType": "address",
          "name": "_address",
          "type": "address"
        }
      ],
      "name": "getBalance",
      "outputs": [
        {
          "internalType": "uint256",
          "name": "",
          "type": "uint256"
        }
      ],
      "stateMutability": "view",
      "type": "function"
    },
    {
      "inputs": [],
      "name": "getDefaultRefer",
      "outputs": [
        {
          "internalType": "string",
          "name": "",
          "type": "string"
        }
      ],
      "stateMutability": "view",
      "type": "function"
    },
    {
      "inputs": [
        {
          "internalType": "string",
          "name": "_user",
          "type": "string"
        }
      ],
      "name": "getDirectTeamUsers",
      "outputs": [
        {
          "components": [
            {
              "internalType": "address",
              "name": "account",
              "type": "address"
            },
            {
              "internalType": "string",
              "name": "id",
              "type": "string"
            },
            {
              "internalType": "string",
              "name": "referrer",
              "type": "string"
            },
            {
              "internalType": "string",
              "name": "upline",
              "type": "string"
            },
            {
              "internalType": "uint8",
              "name": "layer",
              "type": "uint8"
            },
            {
              "internalType": "uint256",
              "name": "start",
              "type": "uint256"
            },
            {
              "internalType": "uint256",
              "name": "level",
              "type": "uint256"
            },
            {
              "internalType": "uint256",
              "name": "directTeam",
              "type": "uint256"
            },
            {
              "internalType": "string[]",
              "name": "directTeamMembers",
              "type": "string[]"
            },
            {
              "internalType": "uint256",
              "name": "totalMatrixTeam",
              "type": "uint256"
            },
            {
              "internalType": "uint256",
              "name": "totalIncome",
              "type": "uint256"
            },
            {
              "internalType": "uint256",
              "name": "totalDeposit",
              "type": "uint256"
            },
            {
              "internalType": "uint256",
              "name": "royaltyIncome",
              "type": "uint256"
            },
            {
              "internalType": "uint256",
              "name": "referralIncome",
              "type": "uint256"
            },
            {
              "internalType": "uint256",
              "name": "levelIncome",
              "type": "uint256"
            }
          ],
          "internalType": "struct Findup.User[]",
          "name": "",
          "type": "tuple[]"
        }
      ],
      "stateMutability": "view",
      "type": "function"
    },
    {
      "inputs": [
        {
          "internalType": "string",
          "name": "_user",
          "type": "string"
        }
      ],
      "name": "getIncome",
      "outputs": [
        {
          "components": [
            {
              "internalType": "string",
              "name": "id",
              "type": "string"
            },
            {
              "internalType": "uint256",
              "name": "layer",
              "type": "uint256"
            },
            {
              "internalType": "uint256",
              "name": "amount",
              "type": "uint256"
            },
            {
              "internalType": "uint256",
              "name": "time",
              "type": "uint256"
            }
          ],
          "internalType": "struct Findup.Income[]",
          "name": "",
          "type": "tuple[]"
        }
      ],
      "stateMutability": "view",
      "type": "function"
    },
    {
      "inputs": [
        {
          "internalType": "uint256",
          "name": "_level",
          "type": "uint256"
        }
      ],
      "name": "getLevelCost",
      "outputs": [
        {
          "internalType": "uint256",
          "name": "",
          "type": "uint256"
        }
      ],
      "stateMutability": "view",
      "type": "function"
    },
    {
      "inputs": [
        {
          "internalType": "string",
          "name": "_id",
          "type": "string"
        }
      ],
      "name": "getLevelIncome",
      "outputs": [
        {
          "internalType": "uint256[12]",
          "name": "",
          "type": "uint256[12]"
        }
      ],
      "stateMutability": "view",
      "type": "function"
    },
    {
      "inputs": [],
      "name": "getLevels",
      "outputs": [
        {
          "internalType": "uint256[12]",
          "name": "",
          "type": "uint256[12]"
        },
        {
          "internalType": "uint256[12]",
          "name": "",
          "type": "uint256[12]"
        }
      ],
      "stateMutability": "view",
      "type": "function"
    },
    {
      "inputs": [
        {
          "internalType": "string",
          "name": "_user",
          "type": "string"
        }
      ],
      "name": "getMatrixDirect",
      "outputs": [
        {
          "internalType": "string[]",
          "name": "",
          "type": "string[]"
        }
      ],
      "stateMutability": "view",
      "type": "function"
    },
    {
      "inputs": [
        {
          "internalType": "string",
          "name": "_user",
          "type": "string"
        },
        {
          "internalType": "uint256",
          "name": "_layer",
          "type": "uint256"
        }
      ],
      "name": "getMatrixUsers",
      "outputs": [
        {
          "components": [
            {
              "internalType": "address",
              "name": "account",
              "type": "address"
            },
            {
              "internalType": "string",
              "name": "id",
              "type": "string"
            },
            {
              "internalType": "string",
              "name": "referrer",
              "type": "string"
            },
            {
              "internalType": "string",
              "name": "upline",
              "type": "string"
            },
            {
              "internalType": "uint8",
              "name": "layer",
              "type": "uint8"
            },
            {
              "internalType": "uint256",
              "name": "start",
              "type": "uint256"
            },
            {
              "internalType": "uint256",
              "name": "level",
              "type": "uint256"
            },
            {
              "internalType": "uint256",
              "name": "directTeam",
              "type": "uint256"
            },
            {
              "internalType": "string[]",
              "name": "directTeamMembers",
              "type": "string[]"
            },
            {
              "internalType": "uint256",
              "name": "totalMatrixTeam",
              "type": "uint256"
            },
            {
              "internalType": "uint256",
              "name": "totalIncome",
              "type": "uint256"
            },
            {
              "internalType": "uint256",
              "name": "totalDeposit",
              "type": "uint256"
            },
            {
              "internalType": "uint256",
              "name": "royaltyIncome",
              "type": "uint256"
            },
            {
              "internalType": "uint256",
              "name": "referralIncome",
              "type": "uint256"
            },
            {
              "internalType": "uint256",
              "name": "levelIncome",
              "type": "uint256"
            }
          ],
          "internalType": "struct Findup.User[]",
          "name": "",
          "type": "tuple[]"
        }
      ],
      "stateMutability": "view",
      "type": "function"
    },
    {
      "inputs": [],
      "name": "getNoblegiftWallet",
      "outputs": [
        {
          "internalType": "address",
          "name": "",
          "type": "address"
        }
      ],
      "stateMutability": "view",
      "type": "function"
    },
    {
      "inputs": [],
      "name": "getPlatformIncome",
      "outputs": [
        {
          "internalType": "uint256",
          "name": "",
          "type": "uint256"
        }
      ],
      "stateMutability": "view",
      "type": "function"
    },
    {
      "inputs": [
        {
          "internalType": "uint256",
          "name": "_num",
          "type": "uint256"
        }
      ],
      "name": "getRecentActivities",
      "outputs": [
        {
          "components": [
            {
              "internalType": "string",
              "name": "id",
              "type": "string"
            },
            {
              "internalType": "uint256",
              "name": "level",
              "type": "uint256"
            }
          ],
          "internalType": "struct Findup.Activity[]",
          "name": "",
          "type": "tuple[]"
        }
      ],
      "stateMutability": "view",
      "type": "function"
    },
    {
      "inputs": [
        {
          "internalType": "string",
          "name": "_userId",
          "type": "string"
        }
      ],
      "name": "getRoyaltyIncome",
      "outputs": [
        {
          "internalType": "uint256",
          "name": "",
          "type": "uint256"
        }
      ],
      "stateMutability": "view",
      "type": "function"
    },
    {
      "inputs": [
        {
          "internalType": "uint256",
          "name": "_level",
          "type": "uint256"
        }
      ],
      "name": "getRoyaltyUsers",
      "outputs": [
        {
          "internalType": "string[]",
          "name": "",
          "type": "string[]"
        }
      ],
      "stateMutability": "view",
      "type": "function"
    },
    {
      "inputs": [],
      "name": "getSharefee",
      "outputs": [
        {
          "internalType": "address",
          "name": "",
          "type": "address"
        }
      ],
      "stateMutability": "view",
      "type": "function"
    },
    {
      "inputs": [
        {
          "internalType": "string",
          "name": "_userId",
          "type": "string"
        }
      ],
      "name": "getUserIncomeBreakdown",
      "outputs": [
        {
          "internalType": "uint256",
          "name": "referralIncome",
          "type": "uint256"
        },
        {
          "internalType": "uint256",
          "name": "uplineIncome",
          "type": "uint256"
        },
        {
          "internalType": "uint256",
          "name": "sponsorIncomeAmount",
          "type": "uint256"
        },
        {
          "internalType": "uint256",
          "name": "noblegiftIncome",
          "type": "uint256"
        },
        {
          "internalType": "uint256",
          "name": "royaltyIncomeReturn",
          "type": "uint256"
        }
      ],
      "stateMutability": "view",
      "type": "function"
    },
    {
      "inputs": [
        {
          "internalType": "uint256",
          "name": "",
          "type": "uint256"
        }
      ],
      "name": "globalUsers",
      "outputs": [
        {
          "internalType": "string",
          "name": "",
          "type": "string"
        }
      ],
      "stateMutability": "view",
      "type": "function"
    },
    {
      "inputs": [
        {
          "internalType": "address",
          "name": "",
          "type": "address"
        }
      ],
      "name": "id",
      "outputs": [
        {
          "internalType": "string",
          "name": "",
          "type": "string"
        }
      ],
      "stateMutability": "view",
      "type": "function"
    },
    {
      "inputs": [
        {
          "internalType": "string",
          "name": "",
          "type": "string"
        },
        {
          "internalType": "uint256",
          "name": "",
          "type": "uint256"
        }
      ],
      "name": "incomeInfo",
      "outputs": [
        {
          "internalType": "string",
          "name": "id",
          "type": "string"
        },
        {
          "internalType": "uint256",
          "name": "layer",
          "type": "uint256"
        },
        {
          "internalType": "uint256",
          "name": "amount",
          "type": "uint256"
        },
        {
          "internalType": "uint256",
          "name": "time",
          "type": "uint256"
        }
      ],
      "stateMutability": "view",
      "type": "function"
    },
    {
      "inputs": [
        {
          "internalType": "string",
          "name": "",
          "type": "string"
        }
      ],
      "name": "matrixDirect",
      "outputs": [
        {
          "internalType": "uint256",
          "name": "",
          "type": "uint256"
        }
      ],
      "stateMutability": "view",
      "type": "function"
    },
    {
      "inputs": [],
      "name": "nextUserId",
      "outputs": [
        {
          "internalType": "uint256",
          "name": "",
          "type": "uint256"
        }
      ],
      "stateMutability": "view",
      "type": "function"
    },
    {
      "inputs": [],
      "name": "owner",
      "outputs": [
        {
          "internalType": "address",
          "name": "",
          "type": "address"
        }
      ],
      "stateMutability": "view",
      "type": "function"
    },
    {
      "inputs": [],
      "name": "platformIncome",
      "outputs": [
        {
          "internalType": "uint256",
          "name": "",
          "type": "uint256"
        }
      ],
      "stateMutability": "view",
      "type": "function"
    },
    {
      "inputs": [
        {
          "internalType": "string",
          "name": "_ref",
          "type": "string"
        },
        {
          "internalType": "address",
          "name": "_newAcc",
          "type": "address"
        }
      ],
      "name": "register",
      "outputs": [],
      "stateMutability": "payable",
      "type": "function"
    },
    {
      "inputs": [],
      "name": "renounceOwnership",
      "outputs": [],
      "stateMutability": "nonpayable",
      "type": "function"
    },
    {
      "inputs": [
        {
          "internalType": "uint256",
          "name": "",
          "type": "uint256"
        }
      ],
      "name": "royalty",
      "outputs": [
        {
          "internalType": "uint256",
          "name": "",
          "type": "uint256"
        }
      ],
      "stateMutability": "view",
      "type": "function"
    },
    {
      "inputs": [
        {
          "internalType": "string",
          "name": "",
          "type": "string"
        }
      ],
      "name": "royaltyIncome",
      "outputs": [
        {
          "internalType": "uint256",
          "name": "",
          "type": "uint256"
        }
      ],
      "stateMutability": "view",
      "type": "function"
    },
    {
      "inputs": [],
      "name": "royaltyLastDist",
      "outputs": [
        {
          "internalType": "uint256",
          "name": "",
          "type": "uint256"
        }
      ],
      "stateMutability": "view",
      "type": "function"
    },
    {
      "inputs": [],
      "name": "royaltyPool",
      "outputs": [
        {
          "internalType": "uint256",
          "name": "",
          "type": "uint256"
        }
      ],
      "stateMutability": "view",
      "type": "function"
    },
    {
      "inputs": [
        {
          "internalType": "uint256",
          "name": "",
          "type": "uint256"
        },
        {
          "internalType": "uint256",
          "name": "",
          "type": "uint256"
        }
      ],
      "name": "royaltyUsers",
      "outputs": [
        {
          "internalType": "string",
          "name": "",
          "type": "string"
        }
      ],
      "stateMutability": "view",
      "type": "function"
    },
    {
      "inputs": [
        {
          "internalType": "string",
          "name": "_newDefaultReferralId",
          "type": "string"
        }
      ],
      "name": "setDefaultReferralId",
      "outputs": [],
      "stateMutability": "nonpayable",
      "type": "function"
    },
    {
      "inputs": [
        {
          "internalType": "address",
          "name": "_newNoblegiftWallet",
          "type": "address"
        }
      ],
      "name": "setNoblegiftWallet",
      "outputs": [],
      "stateMutability": "nonpayable",
      "type": "function"
    },
    {
      "inputs": [
        {
          "internalType": "address",
          "name": "_newSharefee",
          "type": "address"
        }
      ],
      "name": "setSharefee",
      "outputs": [],
      "stateMutability": "nonpayable",
      "type": "function"
    },
    {
      "inputs": [],
      "name": "startTime",
      "outputs": [
        {
          "internalType": "uint256",
          "name": "",
          "type": "uint256"
        }
      ],
      "stateMutability": "view",
      "type": "function"
    },
    {
      "inputs": [
        {
          "internalType": "string",
          "name": "",
          "type": "string"
        },
        {
          "internalType": "uint256",
          "name": "",
          "type": "uint256"
        },
        {
          "internalType": "uint256",
          "name": "",
          "type": "uint256"
        }
      ],
      "name": "teams",
      "outputs": [
        {
          "internalType": "string",
          "name": "",
          "type": "string"
        }
      ],
      "stateMutability": "view",
      "type": "function"
    },
    {
      "inputs": [
        {
          "internalType": "string",
          "name": "_userId",
          "type": "string"
        }
      ],
      "name": "totalNobleGiftDonations",
      "outputs": [
        {
          "internalType": "uint256",
          "name": "",
          "type": "uint256"
        }
      ],
      "stateMutability": "view",
      "type": "function"
    },
    {
      "inputs": [],
      "name": "totalUsers",
      "outputs": [
        {
          "internalType": "uint256",
          "name": "",
          "type": "uint256"
        }
      ],
      "stateMutability": "view",
      "type": "function"
    },
    {
      "inputs": [
        {
          "internalType": "address",
          "name": "newOwner",
          "type": "address"
        }
      ],
      "name": "transferOwnership",
      "outputs": [],
      "stateMutability": "nonpayable",
      "type": "function"
    },
    {
      "inputs": [
        {
          "internalType": "string",
          "name": "_id",
          "type": "string"
        },
        {
          "internalType": "uint256",
          "name": "_lvls",
          "type": "uint256"
        }
      ],
      "name": "upgrade",
      "outputs": [],
      "stateMutability": "payable",
      "type": "function"
    },
    {
      "inputs": [
        {
          "internalType": "string",
          "name": "",
          "type": "string"
        }
      ],
      "name": "userIds",
      "outputs": [
        {
          "internalType": "address",
          "name": "",
          "type": "address"
        }
      ],
      "stateMutability": "view",
      "type": "function"
    },
    {
      "inputs": [
        {
          "internalType": "string",
          "name": "",
          "type": "string"
        }
      ],
      "name": "userInfo",
      "outputs": [
        {
          "internalType": "address",
          "name": "account",
          "type": "address"
        },
        {
          "internalType": "string",
          "name": "id",
          "type": "string"
        },
        {
          "internalType": "string",
          "name": "referrer",
          "type": "string"
        },
        {
          "internalType": "string",
          "name": "upline",
          "type": "string"
        },
        {
          "internalType": "uint8",
          "name": "layer",
          "type": "uint8"
        },
        {
          "internalType": "uint256",
          "name": "start",
          "type": "uint256"
        },
        {
          "internalType": "uint256",
          "name": "level",
          "type": "uint256"
        },
        {
          "internalType": "uint256",
          "name": "directTeam",
          "type": "uint256"
        },
        {
          "internalType": "uint256",
          "name": "totalMatrixTeam",
          "type": "uint256"
        },
        {
          "internalType": "uint256",
          "name": "totalIncome",
          "type": "uint256"
        },
        {
          "internalType": "uint256",
          "name": "totalDeposit",
          "type": "uint256"
        },
        {
          "internalType": "uint256",
          "name": "royaltyIncome",
          "type": "uint256"
        },
        {
          "internalType": "uint256",
          "name": "referralIncome",
          "type": "uint256"
        },
        {
          "internalType": "uint256",
          "name": "levelIncome",
          "type": "uint256"
        }
      ],
      "stateMutability": "view",
      "type": "function"
    },
    {
      "inputs": [
        {
          "internalType": "string",
          "name": "",
          "type": "string"
        },
        {
          "internalType": "uint256",
          "name": "",
          "type": "uint256"
        }
      ],
      "name": "userLevelIncome",
      "outputs": [
        {
          "internalType": "uint256",
          "name": "",
          "type": "uint256"
        }
      ],
      "stateMutability": "view",
      "type": "function"
    },
    {
      "inputs": [
        {
          "internalType": "address payable",
          "name": "_to",
          "type": "address"
        }
      ],
      "name": "withdrawRemainingFunds",
      "outputs": [],
      "stateMutability": "nonpayable",
      "type": "function"
    },
    {
      "stateMutability": "payable",
      "type": "receive"
    }
  ],
  "bytecode": "0x60806040523461002e5761001d61001461018c565b92919091610732565b604051615acf610d0c8239615acf90f35b600080fd5b634e487b7160e01b600052604160045260246000fd5b90601f01601f191681019081106001600160401b0382111761006a57604052565b610033565b9061008361007c60405190565b9283610049565b565b6001600160401b03811161006a57602090601f01601f19160190565b0190565b60005b8381106100b85750506000910152565b81810151838201526020016100a8565b909291926100dd6100d882610085565b61006f565b938185528183011161002e576100839160208501906100a5565b9080601f8301121561002e578151610111926020016100c8565b90565b6001600160a01b031690565b6001600160a01b0381160361002e57565b9050519061008382610120565b60808183031261002e5780516001600160401b03811161002e57826101649183016100f7565b926101116101758460208501610131565b9360606101858260408701610131565b9401610131565b6101aa6167db8038038061019f8161006f565b92833981019061013e565b90919293565b6001600160401b03811161006a5760200290565b6100d8610111916101b0565b6101dd6101116101119290565b60ff1690565b9052565b9160001960089290920291821b911b5b9181191691161790565b6101116101116101119290565b919061021f61011161022793610201565b9083546101e7565b9055565b6100839160009161020e565b818110610242575050565b80610250600060019361022b565b01610237565b91909182821061026557505050565b6100839281019101610237565b9068010000000000000000811161006a576100839160055b90610256565b6005916102aa6102a66001926101118686610272565b9290565b92049160005b8381106102bd5750505050565b60019060206102d0610111865160ff1690565b94019381840155016102b0565b9061008391610290565b6102f46101116101119290565b6001600160401b031690565b9068010000000000000000811161006a5761008391600c61028a565b600c916103326102a66001926101118686610300565b92049160005b8381106103455750505050565b600190602061035e61011186516001600160401b031690565b9401938184015501610338565b906100839161031c565b600c9161038b6102a66001926101118686610300565b92049160005b83811061039e5750505050565b60019060206103b1610111865160ff1690565b9401938184015501610391565b9061008391610375565b90600019906101f7565b906103e261011161022792610201565b82546103c8565b6101146101116101119290565b610111906103e9565b1561040657565b60405162461bcd60e51b815260206004820152601860248201527f496e76616c6964207368617265666565206164647265737300000000000000006044820152606490fd5b0390fd5b1561045657565b60405162461bcd60e51b81528061044b600482016020808252818101527f496e76616c6964206e6f626c65676966742077616c6c65742061646472657373604082015260600190565b634e487b7160e01b600052602260045260246000fd5b90600160028304921680156104d5575b60208310146104d057565b61049f565b91607f16916104c5565b8181106104ea575050565b806104f8600060019361022b565b016104df565b9190601f811161050d57505050565b61051f61008393600052602060002090565b906020601f840181900483019310610541575b6020601f9091010401906104df565b9091508190610532565b90610554815190565b906001600160401b03821161006a576105778261057185546104b5565b856104fe565b602090601f83116001146105b2576102279291600091836105a7575b5050600019600883021c1916906002021790565b015190503880610593565b601f198316916105c785600052602060002090565b9260005b818110610605575091600293918560019694106105ec575b50505002019055565b01516000196008601f8516021c191690553880806105e3565b919360206001819287870151815501950192016105cb565b906100839161054b565b906001600160a01b03906101f7565b61011190610114906001600160a01b031682565b61011190610636565b6101119061064a565b9061066c61011161022792610653565b8254610627565b9061067d90610653565b600052602052604060002090565b6100a16106a39260209261069d815190565b94859290565b938491016100a5565b6106bc6100a1916020949361068b565b918252565b6106d66106cd60405190565b928392836106ac565b03902090565b610111916106c1565b6101e390610201565b60408082526014908201527f436f6e7374727563746f72204465706c6f796564000000000000000000000000606082015260808101929161008391602001906106e5565b83610b69610b6e92610b2f610b28610aa896610b0d6100839a99610754610bd2565b61085061076160056101c4565b61077561076e601c6101d0565b60ff168252565b61078c61078260196101d0565b60ff166020830152565b6107a361079960146101d0565b60ff166040830152565b6107ba6107b0600f6101d0565b60ff166060830152565b6107d86107c7600c6101d0565b60ff811660808401529160066102dd565b6108496107e560056101c4565b916107fa6107f360086101d0565b60ff168452565b61081161080760096101d0565b60ff166020850152565b61082861081e600a6101d0565b60ff166040850152565b61083f610835600b6101d0565b60ff166060850152565b60ff166080830152565b600b6102dd565b610a1061085d600c6101c4565b61087d610870660fa1c6d50300006102e7565b6001600160401b03168252565b6108a06108906619945ca26200006102e7565b6001600160401b03166020830152565b6108c36108b3662aa1efb94e00006102e7565b6001600160401b03166040830152565b6108e66108d6665fec5b60ef80006102e7565b6001600160401b03166060830152565b6109096108f966b30e8870ae00006102e7565b6001600160401b03166080830152565b61092d61091d67016a6075a71700006102e7565b6001600160401b031660a0830152565b61095161094167026a2c13feeb00006102e7565b6001600160401b031660c0830152565b6109756109656704547258d1ec00006102e7565b6001600160401b031660e0830152565b61099a610989670b5303ad38b800006102e7565b6001600160401b0316610100830152565b6109bf6109ae6714a6701dc1c800006102e7565b6001600160401b0316610120830152565b6109e46109d367264d7d607c1400006102e7565b6001600160401b0316610140830152565b610a096109f8674c9afac0f82800006102e7565b6001600160401b0316610160830152565b601061036b565b610b06610a1d600c6101c4565b9360009b8c95610a38610a2f886101d0565b60ff1682890152565b610aa1610a4560506101d0565b60ff8116602084018190526040840152610a6261083560326101d0565b60ff166080830181905260a0830181905260c0830181905260e08301819052610100830181905261012083018190526101408301819052610160830152565b601c6103be565b610af4610ae3610ac56122b997610ac08960296103d2565b6103f6565b6101146001600160a01b0382166001600160a01b03861614156103ff565b6001600160a01b038516141561044f565b610aff88600561061d565b600261065c565b600361065c565b610b184260346103d2565b610b2342602a6103d2565b610201565b60296103d2565b610b4e610b3b86610201565b610b4560016101d0565b90858480610c37565b610b6281610b5d85603a610673565b61061d565b603b6106dc565b61065c565b610b82610b7b6001610201565b602b6103d2565b7fddb9b4fa58ddb64773d9983027c8e9855dd1dee8c8034344c9af0d198513dc38610bca610bb7610bb230610653565b610653565b92610bc160405190565b918291826106ee565b0390a2610cb9565b610bda610be3565b61008333610cb9565b610083610bf5565b6101116001610201565b610083610c00610beb565b60006103d2565b9060ff906101f7565b6101dd6101116101119260ff1690565b90610c3061011161022792610c10565b8254610c07565b906100839493610c74600494610c6e610ca094610c65610c5b6101118960356106dc565b976001890161061d565b6002870161061d565b8461065c565b610c8142600585016103d2565b610c97610c8e6001610201565b600685016103d2565b600b83016103d2565b01610c20565b61011190610114565b6101119054610ca6565b610cda610cd4610cc96001610caf565b610bb284600161065c565b91610653565b907f8be0079c531659141344cd1fd0a4f28419497f9722a3daafe3b4186f6b6457e0610d0560405190565b600090a356fe6080604052600436101561001b575b361561001957600080fd5b005b60003560e01c80630c1a64331461030b5780630c394a60146103065780630d6709bc146103015780631e59c529146102fc57806324222dc6146102f75780632707161b146102f257806329b785f9146102ed5780632b6e4da0146102e85780633bca11ee146102e35780633ff868ea146102de578063431a2568146102d95780634a2deb7b146102d457806350312c9e146102cf578063691a87f9146102ca5780636a8d0592146102c5578063713ce3d3146102c0578063715018a6146102bb578063715e8ca4146102b657806376c4c1fd146102b157806378e97925146102ac5780637a3ab2ca146102a75780637c3f0c7b146102a25780638955defb1461029d5780638da5cb5b14610298578063900e92c4146102935780639c7a35ce1461028e578063a06e5d2f14610289578063a1e6a25514610284578063afd827da1461027f578063b3b5a9c91461027a578063bb4bbbca14610275578063bed989c914610270578063bff1f9e11461026b578063cb9bf50714610266578063d2831c9614610261578063d2b412291461025c578063def9635c14610257578063e10dc5be14610252578063e55645ef1461024d578063e814cb7114610248578063ee8f232814610243578063f2fde38b1461023e578063f6abd4e914610239578063f8b2cb4f14610234578063fb93c8541461022f578063fc8c35041461022a5763ffb988a30361000e576115d8565b6115ad565b611595565b61157b565b61154d565b6114d4565b6114ad565b6113f3565b6113a9565b61138e565b611363565b61134f565b611337565b61131c565b611301565b6112da565b611298565b6111e3565b6111be565b6111a3565b61117c565b611155565b611131565b61110c565b6110f1565b611091565b611048565b611006565b610fde565b610f56565b610e88565b610e60565b610c6b565b610bb2565b6109b6565b61099e565b610963565b61092b565b610788565b61076d565b61071f565b610626565b6105d3565b61057d565b6104fc565b6103e4565b610331565b600091031261031b57565b600080fd5b6001600160a01b031690565b90565b565b3461031b57610341366004610310565b6103706103566002546001600160a01b031690565b604051918291826001600160a01b03909116815260200190565b0390f35b0190565b61038c610388600c9390565b9390565b9190565b6000915b83831061039d5750505050565b6103b76103b06001928451815260200190565b9260200190565b92019190610390565b9161018061032f9294936103dd6103008201966000830190610378565b0190610378565b3461031b576103f4366004610310565b6103fc6116b7565b9061037061040960405190565b928392836103c0565b634e487b7160e01b600052604160045260246000fd5b90601f01601f1916810190811067ffffffffffffffff82111761044a57604052565b610412565b9061032f61045c60405190565b9283610428565b67ffffffffffffffff811161044a57602090601f01601f19160190565b90826000939282370152565b909291926104a161049c82610463565b61044f565b938185528183011161031b5761032f916020850190610480565b9080601f8301121561031b5781602061032c9335910161048c565b9060208282031261031b57813567ffffffffffffffff811161031b5761032c92016104bb565b3461031b576103706105176105123660046104d6565b6116de565b6040515b9182918290815260200190565b6001600160a01b0381165b0361031b57565b9050359061032f82610528565b919060408382031261031b5782359067ffffffffffffffff821161031b5760206105768261032c9487016104bb565b940161053a565b61059161058b366004610547565b90611e75565b604051005b9095949261032f946105c86105cf926105c16080966105ba60a088019c6000890152565b6020870152565b6040850152565b6060830152565b0152565b3461031b576103706105ee6105e93660046104d6565b61211d565b916105fb95939560405190565b95869586610596565b61032c916008021c81565b9061032c9154610604565b61032c6000602861060f565b3461031b57610636366004610310565b61037061051761061a565b60005b8381106106545750506000910152565b8181015183820152602001610644565b61068561068e60209361037493610679815190565b80835293849260200190565b95869101610641565b601f01601f191690565b9061032c91610664565b906106b86106ae835190565b8083529160200190565b90816106ca6020830284019460200190565b926000915b8383106106de57505050505090565b909192939460206107016106fa83856001950387528951610698565b9760200190565b93019301919392906106cf565b602080825261032c929101906106a2565b3461031b5761037061073a6107353660046104d6565b612340565b6040519182918261070e565b80610533565b9050359061032f82610746565b9060208282031261031b5761032c9161074c565b3461031b57610370610517610783366004610759565b61239d565b3461031b5761037061073a61079e366004610759565b612440565b634e487b7160e01b600052603260045260246000fd5b80548210156107dc576107d3600191600052602060002090565b91020190600090565b6107a3565b634e487b7160e01b600052600060045260246000fd5b634e487b7160e01b600052602260045260246000fd5b906001600283049216801561082d575b602083101461082857565b6107f7565b91607f169161081d565b8054600093929161085461084a8361080d565b8085529360200190565b91600181169081156108a6575060011461086d57505050565b6108809192939450600052602060002090565b916000925b8184106108925750500190565b805484840152602090930192600101610885565b92949550505060ff1916825215156020020190565b9061032c91610837565b9061032f6108df926108d660405190565b938480926108bb565b0383610428565b906000106108f75761032c906108c5565b6107e1565b60315481101561031b5761091461032c9160316107b9565b906108e6565b602080825261032c92910190610664565b3461031b57610370610946610941366004610759565b6108fc565b6040519182918261091a565b6101808101929161032f9190610378565b3461031b5761037061097e6109793660046104d6565b612550565b60405191829182610952565b9060208282031261031b5761032c9161053a565b3461031b576105916109b136600461098a565b6125e9565b3461031b576109c6366004610310565b6103706105176125f2565b6103746109e9926020926109e3815190565b94859290565b93849101610641565b610a0261037491602094936109d1565b918252565b610a1c610a1360405190565b928392836109f2565b03902090565b61032c91610a07565b61032c905b60ff1690565b61032c9054610a2b565b61032c9081565b61032c9054610a40565b610a5c906035610a22565b90610a6e82546001600160a01b031690565b91610a7b600182016108c5565b91610a88600283016108c5565b91610a95600382016108c5565b91610aa260048301610a36565b91610aaf60058201610a47565b91610abc60068301610a47565b91610ac960078201610a47565b91610ad660098301610a47565b91610ae3600a8201610a47565b91610af0600b8301610a47565b91610afd600c8201610a47565b9161032c600e610b0f600d8501610a47565b9301610a47565b949e9d9c9a989694809c9a9896949392916101c0820191600001610b41916001600160a01b03169052565b8c810360208e0152610b5291610664565b8b810360408d0152610b6391610664565b8a810360608c0152610b7491610664565b60ff909c1660808a015260a089015260c088015260e08701526101008601526101208501526101408401526101608301526101808201526101a00152565b3461031b57610370610bcd610bc83660046104d6565b610a51565b9a610be99e9c9e9a919a99929998939897949796959660405190565b9e8f9e8f610b16565b919060408382031261031b5782359067ffffffffffffffff821161031b576020610c218261032c9487016104bb565b940161074c565b61032c61032c61032c9290565b90610c3f90610c28565b600052602052604060002090565b610c6661032c92610c61600093603d610a22565b610c35565b61060f565b3461031b57610370610517610c81366004610bf2565b90610c4d565b90610c936106ae835190565b9081610ca56020830284019460200190565b926000915b838310610cb957505050505090565b90919293946020610cd56106fa83856001950387528951610698565b9301930191939290610caa565b80516001600160a01b031682529061032c906101c080610d8d610d3f610d2d610d1b6101e0870160208a015188820360208a0152610664565b60408901518782036040890152610664565b60608801518682036060880152610664565b60808781015160ff1690860152610d5b60a088015160a0870152565b610d6a60c088015160c0870152565b610d7960e088015160e0870152565b610100870151858203610100870152610c87565b94610d9f610120820151610120860152565b610db0610140820151610140860152565b610dc1610160820151610160860152565b610dd2610180820151610180860152565b610de36101a08201516101a0860152565b0151910152565b9061032c91610ce2565b90610e006106ae835190565b9081610e126020830284019460200190565b926000915b838310610e2657505050505090565b90919293946020610e426106fa83856001950387528951610dea565b9301930191939290610e17565b602080825261032c92910190610df4565b3461031b57610370610e7c610e76366004610bf2565b906126b6565b60405191829182610e4f565b3461031b57610e98366004610310565b61059161275c565b9061032c90606080610ec16080840160008701518582036000870152610664565b94610ed160208201516020860152565b610de360408201516040860152565b9061032c91610ea0565b90610ef66106ae835190565b9081610f086020830284019460200190565b926000915b838310610f1c57505050505090565b90919293946020610f386106fa83856001950387528951610ee0565b9301930191939290610f0d565b602080825261032c92910190610eea565b3461031b57610370610f71610f6c3660046104d6565b61281c565b60405191829182610f45565b909160608284031261031b57813567ffffffffffffffff811161031b57610fa98461032c9285016104bb565b936040610c21826020870161074c565b90610c61610fc8926038610a22565b805482101561031b5761032c91610914916107b9565b3461031b57610370610946610ff4366004610f7d565b91610fb9565b61032c6000602a61060f565b3461031b57611016366004610310565b610370610517610ffa565b919060408382031261031b5761032c906020610c21828661074c565b610fc8906032610c35565b3461031b5761037061094661105e366004611021565b9061103d565b61032c916008021c610320565b9061032c9154611064565b600061108c61032c92603b610a22565b611071565b3461031b576103706103566110a73660046104d6565b61107c565b61032c90610320906001600160a01b031682565b61032c906110ac565b61032c906110c0565b90610c3f906110c9565b60006110ec61032c92603a6110d2565b6108e6565b3461031b5761037061094661110736600461098a565b6110dc565b3461031b5761111c366004610310565b6103706103566001546001600160a01b031690565b3461031b57611141366004610310565b610591612a7d565b61032c6000603461060f565b3461031b57611165366004610310565b610370610517611149565b61032c6000600461060f565b3461031b5761118c366004610310565b610370610517611170565b61032c6000602961060f565b3461031b576111b3366004610310565b610370610517611197565b3461031b576111ce366004610310565b6103706103566003546001600160a01b031690565b3461031b576105916111f636600461098a565b612cd4565b80548210156107dc576107d3600491600052602060002090565b611220906036610a22565b90611229825490565b81101561031b57611239916111fb565b5090611244826108c5565b9161125160018201610a47565b9161032c6003610b0f60028501610a47565b6105cf61032f946112916112896060959998969960808601908682036000880152610664565b986020850152565b6040830152565b3461031b576103706112b46112ae366004610bf2565b90611215565b906112c194929460405190565b94859485611263565b6000610c6661032c92603c610a22565b3461031b576103706105176112f03660046104d6565b6112ca565b61032c6000602b61060f565b3461031b57611311366004610310565b6103706105176112f5565b3461031b5761132c366004610310565b610370610946612cdd565b3461031b5761059161134a36600461098a565b612d43565b61059161135d366004610bf2565b90613081565b3461031b57611373366004610310565b61037061051761308b565b6000610c6661032c926033610a22565b3461031b576103706105176113a43660046104d6565b61137e565b3461031b57610370610e7c6113bf3660046104d6565b613095565b60055b8210156107dc576001906107d3565b600581101561031b576113ed61032c91602c6113c4565b9061060f565b3461031b57610370610517611409366004610759565b6113d6565b9061032c9060208061142f6040840160008701518582036000870152610664565b940151910152565b9061032c9161140e565b9061144d6106ae835190565b908161145f6020830284019460200190565b926000915b83831061147357505050505090565b9091929394602061148f6106fa83856001950387528951611437565b9301930191939290611464565b602080825261032c92910190611441565b3461031b576103706114c86114c3366004610759565b6131bd565b6040519182918261149c565b3461031b576105916114e736600461098a565b61335b565b80548210156107dc576107d3600291600052602060002090565b60375481101561031b5761151b9060376114ec565b509061032c6001610b0f846108c5565b9291602061154861032f9360408701908782036000890152610664565b940152565b3461031b57611565611560366004610759565b611506565b9061037061157260405190565b9283928361152b565b3461031b5761037061051761159136600461098a565b3190565b3461031b576105916115a83660046104d6565b613401565b3461031b576103706105176115c33660046104d6565b61340a565b6000610c6661032c926039610a22565b3461031b576103706105176115ee3660046104d6565b6115c8565b67ffffffffffffffff811161044a5760200290565b61049c61032c916115f3565b369037565b9061032f61162f61162984611608565b936115f3565b83611614565b61032c600c611619565b61164b610388600c9390565b6000915b83831061165c5750505050565b61167d61167660019261166e85610a47565b815260200190565b9260010190565b9201919061164f565b90610374816101809361163f565b9061032f6108df926116a560405190565b93848092611686565b61032c90611694565b6116bf611635565b506116c8611635565b506116d360106116ae565b9061032c601c6116ae565b6116f561032c916116ed600090565b506033610a22565b610a47565b9061170c916117076134f9565b611c08565b61032f61352b565b61032061032c61032c9290565b61032c90611714565b1561173157565b60405162461bcd60e51b815260206004820152600f60248201526e496e76616c6964206164647265737360881b6044820152606490fd5b0390fd5b61032c905461080d565b1561177d57565b60405162461bcd60e51b8152602060048201526012602482015271105b1c9958591e48149959da5cdd195c995960721b6044820152606490fd5b805460009392916117ca61084a8361080d565b91600181169081156108a657506001146117e357505050565b6117f69192939450600052602060002090565b916000925b8184106118085750500190565b8054848401526020909301926001016117fb565b9061032c916117b7565b9061032f6108df9261183760405190565b9384809261181c565b61032c90611826565b1561185057565b60405162461bcd60e51b815260206004820152601060248201526f24b73b30b634b2102932b332b93932b960811b6044820152606490fd5b1561188f57565b60405162461bcd60e51b815260206004820152601b60248201527f52656665727265722049442063616e6e6f7420626520656d70747900000000006044820152606490fd5b634e487b7160e01b600052601160045260246000fd5b91906118f5565b9290565b820391821161190057565b6118d4565b60001981146119005760010190565b90600019905b9181191691161790565b9061193461032c61193b92610c28565b8254611914565b9055565b600c6113c7565b1561194d57565b60405162461bcd60e51b815260206004820152600d60248201526c496e76616c69642076616c756560981b6044820152606490fd5b610a3061032c61032c9290565b61199e9060ff165b9160ff1690565b019060ff821161190057565b61032c6018611982565b805460009392916119c76103848361080d565b9160018116908115611a1857506001146119e057505050565b6119f39192939450600052602060002090565b6000905b838210611a045750500190565b6001816020925484860152019101906119f7565b60ff191683525050811515909102019150565b610a0261037491602094936119b4565b610a1c611a4760405190565b92839283611a2b565b61032c91611a3b565b9160001960089290920291821b911b61191a565b9190611a7e61032c61193b93610c28565b908354611a59565b61032f91600091611a6d565b818110611a9d575050565b80611aab6000600193611a86565b01611a92565b9190601f8111611ac057505050565b611ad261032f93600052602060002090565b906020601f840181900483019310611af5575b6020601f909101045b0190611a92565b9091508190611ae5565b600019600883021c1916906002021790565b90611b1a815190565b9067ffffffffffffffff821161044a57611b3e82611b38855461080d565b85611ab1565b602090601f8311600114611b6c5761193b929160009183611b61575b5050611aff565b015190503880611b5a565b601f19831691611b8185600052602060002090565b9260005b818110611bc057509160029391856001969410611ba6575b50505002019055565b01516000196008601f8516021c19165b9055388080611b9d565b91936020600181928787015181550195019201611b85565b9061032f91611b11565b906001600160a01b039061191a565b90611c0161032c61193b926110c9565b8254611be2565b90611da361032f92611d88600091611c37611c2561032085611721565b6001600160a01b0387165b141561172a565b611c62611c50611c4b61032c88603a6110d2565b61176c565b611c5c61038886610c28565b14611776565b611d826035611c79611c4b60016103748685610a22565b611c8561038887610c28565b118015611e4c575b611c9690611849565b82611cb4611ca2825190565b611cae61038889610c28565b11611888565b611cc96103206001546001600160a01b031690565b33149182611e19575b611d72611d7c91611d0d6113ed611ce96029610a47565b9a611d06611cff611cfa6029610a47565b611905565b6029611924565b601061193f565b938515611e09575b611d27611d20825190565b9160200190565b20611d4c610388611d3d6005611840565b611840565b611d48611d20825190565b2090565b14908115611da8576004611d646005611d6a93611a50565b01610a36565b985b8961358e565b96828a878a613624565b856137f4565b82613af9565b611d9c81611d9785603a6110d2565b611bd8565b603b610a22565b611bf1565b87611dcb611dbb6004611d648486610a22565b611dc56001611982565b9061198f565b91611dd46119aa565b92611de160ff8516611997565b1115611df05750505b98611d6c565b611e049250611d64611dbb92600492610a22565b611dea565b611e14853414611946565b611d15565b9150611d7c611d72611e34611e2e602a610a47565b426118ea565b611e42610388612a30610c28565b1093915050611cd2565b50611c9683611e5c611d20825190565b20611e6d610388611d3d6005611840565b149050611c8d565b9061032f916116fa565b67ffffffffffffffff811161044a5760208091020190565b90610a0261049c83611e7f565b61032c906108c5565b90611eb6825490565b611ebf81611e97565b92611ed36020850191600052602060002090565b6000915b838310611ee45750505050565b600160208192611ef385611ea4565b815201920192019190611ed7565b61032c6101e061044f565b9061032f61206c600e611f1d611f01565b94611f3f611f3282546001600160a01b031690565b6001600160a01b03168752565b611f55611f4e600183016108c5565b6020880152565b611f6b611f64600283016108c5565b6040880152565b611f81611f7a600383016108c5565b6060880152565b611f9a611f9060048301610a36565b60ff166080880152565b611fb0611fa960058301610a47565b60a0880152565b611fc6611fbf60068301610a47565b60c0880152565b611fdc611fd560078301610a47565b60e0880152565b611ff3611feb60088301611ead565b610100880152565b61200a61200260098301610a47565b610120880152565b612021612019600a8301610a47565b610140880152565b612038612030600b8301610a47565b610160880152565b61204f612047600c8301610a47565b610180880152565b61206661205e600d8301610a47565b6101a0880152565b01610a47565b6101c0840152565b61032c90611f0c565b1561208457565b60405162461bcd60e51b815260206004820152600f60248201526e125b9d985b1a59081d5cd95c881251608a1b6044820152606490fd5b61032c6001611982565b61032c61032c61032c9260ff1690565b61032c600a611982565b9190820180921161190057565b5190565b9050519061032f82610746565b9060208282031261031b5761032c916120f0565b6040513d6000823e3d90fd5b9061213161212c836035610a22565b612074565b9161214383516001600160a01b031690565b9261216d60009461216661215961032088611721565b916001600160a01b031690565b141561207d565b61217684610c28565b908194825b603661219161032c61218d8884610a22565b5490565b85101561225557806121b960016121b2886121ad8b8097610a22565b6111fb565b5001610a47565b6121cc6103886121c76120bb565b6120c5565b036121fe57916121eb60026121b2886121ad6121f1966121f898610a22565b906120df565b9360010190565b9261217b565b9060016121b2876121ad61221594869a979a610a22565b6122236103886121c76120d5565b1015612233575b506001016121f8565b81976121eb60026121b26121f8956121ad8b61224e97610a22565b969061222a565b5094916122cf9491935060209061229e6122716101a083015190565b9561228f61228a61228a6003546001600160a01b031690565b6110c9565b9201516001600160a01b031690565b906122a860405190565b968792839182916358c6db3960e11b5b83526001600160a01b031660048301526024820190565b03915afa938415612332576000946122f9575b506116f56122f1916033610a22565b919493929190565b6122f19194506123236116f59160203d60201161232b575b61231b8183610428565b8101906120fd565b9491506122e2565b503d612311565b612111565b61032c90611ead565b61235c6000610c6161032c93612354606090565b506038610a22565b612337565b1561236857565b60405162461bcd60e51b815260206004820152600d60248201526c125b9d985b1a59081b195d995b609a1b6044820152606490fd5b6113ed611d0661032c926123af600090565b506123ba6000610c28565b8111806123db575b6123cb90612361565b6123d56001610c28565b906118ea565b50600c8111156123c2565b60005b8281106123f557505050565b6060828201526020016123e9565b9061032f61241961241384611e97565b93611e7f565b601f1901602084016123e6565b9061242f825190565b8110156107dc576020809102010190565b9060329161245961245461218d8386610c35565b612403565b6124636000610c28565b90815b61247661032c61218d8689610c35565b8110156124e1576124996124938261248e878a610c35565b6107b9565b50611ea4565b6124a38582613bb7565b6124b6575b50600101612466565b612466565b836124da916124c96124b1949686612426565b526124d48185612426565b50611905565b92906124a8565b50915092506124ef83612403565b916124fa6000610c28565b845b81101561253857612531816125146124fc9386612426565b5161251f8288612426565b5261252a8187612426565b5060010190565b90506124fa565b5092505090565b90600c8110156107dc576020020190565b612558611635565b50612561611635565b9061256c6000610c28565b612576600c610c28565b8110156125ae57806125a36125966116f56125a994610c6187603d610a22565b6125a0838761253f565b52565b60010190565b61256c565b505090565b61032f906125bf613caa565b61032f906125e26125d36103206000611721565b6001600160a01b038316611c30565b6003611bf1565b61032f906125b3565b611591306110c9565b612603611f01565b9060008252602082016060815260200160608152602001606081526020016000815260200160008152602001600081526020016000815260200160608152602001600081526020016000815260200160008152602001600081526020016000815260200160009052565b61032c6125fb565b60005b82811061268457505050565b60209061268f61266d565b8184015201612678565b9061032f6126a961241384611e97565b601f190160208401612675565b91906038906126d46126cf61218d83610c618887610a22565b612699565b936126df6000610c28565b6126f361032c61218d85610c618689610a22565b811015612739576127349061271f61212c60356127188461248e89610c618a8d610a22565b5090611a50565b6127298289612426565b5261252a8188612426565b6126df565b50505050565b612747613caa565b61032f61032f6127576000611721565b613cd1565b61032f61273f565b61032c608061044f565b9061032f6127ae600361277f612764565b9461279061278c826108c5565b8752565b61279f611f4e60018301610a47565b612066611f6460028301610a47565b6060840152565b61032c9061276e565b906127c7825490565b6127d081611e97565b926127e46020850191600052602060002090565b6000915b8383106127f55750505050565b60046020600192612805856127b5565b8152019201920191906127e8565b61032c906127be565b61283361032c9161282b606090565b506036610a22565b612813565b6128406134f9565b61170c61295e565b1561284f57565b60405162461bcd60e51b815260206004820152600e60248201526d149959da5cdd195c88119a5c9cdd60921b6044820152606490fd5b1561288c57565b60405162461bcd60e51b81526020600482015260136024820152724e6f20726f79616c747920746f20636c61696d60681b6044820152606490fd5b90610a0261049c83610463565b3d156128ee576128e33d6128c7565b903d6000602084013e565b606090565b156128fa57565b60405162461bcd60e51b815260206004820152601d60248201527f526f79616c747920636c61696d207472616e73666572206661696c65640000006044820152606490fd5b61032c916109d1565b610a1c9061295560405190565b9182918261293f565b61297161296c33603a6110d2565b611ea4565b7f61cec2b02198a9b8b52634497aa655ef0f5fdbf6aad87f8c9baae9eaa1659e2f612a78612a6e6129a0845190565b936129ba6000956129b361038888610c28565b1415612848565b612a696033956129e26129d06116f5858a610a22565b6129dc61038884610c28565b11612885565b612a0b6129f26116f5858a610a22565b97612a0685612a0085610c28565b92610a22565b611924565b612a34600a612a1b856035610a22565b01612a2e89612a2983610a47565b6120df565b90611924565b612a44600c612a1b856035610a22565b80612a5161228a336110c9565b6040516000918a905af1612a636128d4565b506128f3565b612948565b9261051b60405190565b0390a2565b61032f612838565b61032f90612a91613caa565b61170c90612a9d6134f9565b612bfe565b15612aa957565b60405162461bcd60e51b815260206004820152601960248201527f496e76616c696420726563697069656e742061646472657373000000000000006044820152606490fd5b15612af557565b60405162461bcd60e51b815260206004820152601e60248201527f4e6f2066756e647320617661696c61626c6520746f20776974686472617700006044820152606490fd5b6040808252601f908201527f57697468647261772052656d61696e696e672046756e6473204265666f7265006060820152919061032f90602060808501940152565b15612b8357565b60405162461bcd60e51b815260206004820152601160248201527015da5d1a191c985dd85b0819985a5b1959607a1b6044820152606490fd5b6040808252601e908201527f57697468647261772052656d61696e696e672046756e647320416674657200006060820152919061032f90602060808501940152565b612c1e612c0e6103206000611721565b612c17836110c9565b1415612aa2565b612c27306110c9565b3190612c3d612c366000610c28565b8311612aee565b612a78612c58600080516020615a5a833981519152926110c9565b928383612c6460405190565b80612c6f8582612b3a565b0390a2612c96600080612c8160405190565b60009085895af1612c906128d4565b50612b7c565b837feaff4b37086828766ad3268786972c0cd24259d4c87a80f9d3963a3c3d999b0d612cc160405190565b838152602090a260405191829182612bbc565b61032f90612a85565b61032c6005611ea4565b61032f90612cf3613caa565b612d1290612d076125d36103206000611721565b61228a816002611bf1565b7fe84239d1fcd552716f4af8cb045d11b09d63d02a349df8c6c17cf34a41a95b6d612d3c60405190565b8080612a78565b61032f90612ce7565b9061170c91612d596134f9565b612e65565b15612d6557565b60405162461bcd60e51b815260206004820152600e60248201526d496e76616c6964204c6576656c7360901b6044820152606490fd5b15612da257565b60405162461bcd60e51b815260206004820152600960248201526827b7363c902ab9b2b960b91b6044820152606490fd5b15612dda57565b60405162461bcd60e51b8152602060048201526014602482015273125b9cdd59999a58da595b9d081c185e5b595b9d60621b6044820152606490fd5b15612e1d57565b60405162461bcd60e51b815260206004820152600d60248201526c1499599d5b990819985a5b1959609a1b6044820152606490fd5b90815260408101929161032f9160200152565b9190612e7561032c846035610a22565b90612e826002830161176c565b93612e9b600095612e9561038888610c28565b11612848565b612ea485610c28565b82118061305a575b612eb590612d5e565b612ed5612ece610320878601546001600160a01b031690565b3314612d9b565b612ede85610c28565b94855b83871015612f1b57612f0e612f15916121eb6113ed6010612f088c612a2960068d01610a47565b9061193f565b9660010190565b95612ee1565b92955090939091612f2e81341015612dd3565b612f3881346118ea565b83612f4281610c28565b8211613023575b612f539150610c28565b865b811015612fd257612fcb612f55916125a3612fc56010612f93612f826113ed60068d0193612f0885610a47565b612a2e600b8d0191612a2983610a47565b612fa689612fa083610a47565b8d61415b565b6116f5612fbf612fb66001610c28565b612a2984610a47565b82611924565b896147d9565b9050612f53565b509150935061300d61300760067fabe62dd4fa462661aab93cebe531696b98c0bef1572fc2332548d618735770859401610a47565b93612948565b92612a7861301a60405190565b92839283612e52565b806130539261303461228a336110c9565b9061303e60405190565b90818003925af161304d6128d4565b50612e16565b3883612f49565b50612eb561306e83612a2960068701610a47565b613078600c610388565b11159050612eac565b9061032f91612d4c565b61032c6028610a47565b60356130ae6126cf60086130a98585610a22565b015490565b916130b96000610c28565b6130cb61032c60086130a98587610a22565b81101561311357806130f961212c6130f261310e9460086130ec888a610a22565b016107b9565b5086611a50565b6131038287612426565b5261252a8186612426565b6130b9565b50505090565b61032c604061044f565b61312b613119565b906060825260006020830152565b61032c613123565b60005b82811061315057505050565b60209061315b613139565b8184015201613144565b9061032f61317561241384611e97565b601f190160208401613141565b9061032f6131a06001613193613119565b9461206661278c826108c5565b6020840152565b61032c90613182565b8015611900576000190190565b603780548210156132ba576131d182613165565b906131da815490565b831015613270576131eb6000610c28565b936131f4825490565b945b61320a61032c86613205865490565b6118ea565b8611156132675761032c61325e61325861320a9361324361323d6132376132316001610c28565b8d6118ea565b896114ec565b506131a7565b61324d828a612426565b526124d48189612426565b976131b0565b969150506131f6565b50935050905090565b90915061327d6000610c28565b61328861032c835490565b8110156125ae57806132a061323d6132b593856114ec565b6132aa8286612426565b5261252a8185612426565b61327d565b6131d16132c5825490565b613165565b61032f906132d6613caa565b613336565b156132e257565b60405162461bcd60e51b815260206004820152602660248201527f4f776e61626c653a206e6577206f776e657220697320746865207a65726f206160448201526564647265737360d01b6064820152608490fd5b61032f9061275761334a6103206000611721565b6001600160a01b03831614156132db565b61032f906132ca565b61032f90613370613caa565b6133c1565b1561337c57565b60405162461bcd60e51b815260206004820152601b60248201527f496e76616c69642064656661756c7420726566657272616c20494400000000006044820152606490fd5b61032f906133fa6133e36133d683603b610a22565b546001600160a01b031690565b6133f36121596103206000611721565b1415613375565b6005611bd8565b61032f90613364565b60206134266133d66134749361341e600090565b50603b610a22565b6134456134366103206000611721565b6001600160a01b038316612166565b61345d61228a61228a6003546001600160a01b031690565b604051938492839182916358c6db3960e11b6122b8565b03915afa9081156123325760009161348a575090565b61032c915060203d60201161232b5761231b8183610428565b61032c6002610c28565b156134b457565b60405162461bcd60e51b815260206004820152601f60248201527f5265656e7472616e637947756172643a207265656e7472616e742063616c6c006044820152606490fd5b61032f6135066000610a47565b61351a6135116134a3565b918214156134ad565b6000611924565b61032c6001610c28565b61032f61351a613521565b61354060026128c7565b612ba960f11b602082015290565b61032c613536565b61356060026128c7565b61272960f11b602082015290565b61032c613556565b9161358861032c9493613588936109d1565b906109d1565b61032c926135b06135aa61032c936135a4606090565b506148e3565b936149d4565b90156135e6576135be61356e565b925b6135da6135cc60405190565b948593602085019384613576565b90810382520382610428565b6135ee61354e565b926135c0565b9060ff9061191a565b610a3061032c61032c9260ff1690565b9061361d61032c61193b926135fd565b82546135f4565b9061032f949361366160049461365b61368d9461365261364861032c896035610a22565b9760018901611bd8565b60028701611bd8565b84611bf1565b61366e4260058501611924565b61368461367b6001610c28565b60068501611924565b600b8301611924565b0161360d565b8181029291811591840414171561190057565b634e487b7160e01b600052601260045260246000fd5b81156136c6570490565b6136a6565b156136d257565b60405162461bcd60e51b815260206004820152601860248201527f526566657272616c207472616e73666572206661696c656400000000000000006044820152606490fd5b6003613769606061032f94613736613730600083015190565b86611bd8565b61374d613744602083015190565b60018701611924565b61376461375b604083015190565b60028701611924565b015190565b9101611924565b91906108f75761032f91613717565b90815491600160401b83101561044a57826137a291600161032f950181556111fb565b90613770565b156137af57565b60405162461bcd60e51b815260206004820152601860248201527f5368617265666565207472616e73666572206661696c656400000000000000006044820152606490fd5b906138536138499361384f61382561381561380f605b610c28565b86613693565b61381f6064610c28565b906136bc565b95869461320561384161381561383b6003610c28565b84613693565b9889926118ea565b95614ac0565b1590565b61385c57505050565b6035613870611d3860026103748685610a22565b61387b611d20825190565b2061388c610388611d3d6005611840565b03613931575061389c91926120df565b906138d46000806138bb61228a61228a6002546001600160a01b031690565b6040518681805b03925af16138ce6128d4565b506137a8565b6138ec6138e583612a296028610a47565b6028611924565b600080516020615a7a83398151915261392c61392261391c6139166002546001600160a01b031690565b94612948565b936110c9565b9361051b60405190565b0390a3565b6138d4916139b1600d61395c61032c613955600261394f8a89610a22565b01611ea4565b8096610a22565b61398f60008061397761228a8086546001600160a01b031690565b60405160009189905af16139896128d4565b506136cb565b6139a3600a8201612a2e86612a2983610a47565b01612a2e83612a2983610a47565b6139bc82603d610a22565b916139d96139cc60008095610c35565b612a2e84612a2983610a47565b613a246139ea61032c836036610a22565b6139f2612764565b906139fd8887840152565b613a096131a087610c28565b613a14856040840152565b613a1f426060840152565b61377f565b7f37c37a8bcd7ef5be3bb12b89324bcf6d806d2dc4b31890406ca7bb77059bbaa3613a5461392261300788612948565b0390a3806138bb61228a61228a6002546001600160a01b031690565b91906108f75761032f91611b11565b90815491600160401b83101561044a5782613aa291600161032f950181556107b9565b90613a70565b6001613769602061032f94613764613730600083015190565b91906108f75761032f91613aa8565b90815491600160401b83101561044a5782613af391600161032f950181556114ec565b90613ac1565b61032f91613b07602b610a47565b613b146103886000610c28565b1180613b88575b613b6e575b50613b31816031613a7f565b613a7f565b613b3b6001610c28565b613b53613b4c82612a29602b610a47565b602b611924565b613b696037916131a0613b64613119565b948552565b613ad0565b80613b7c613b829284614b43565b82614bbf565b38613b20565b5080613b95611d20825190565b20613ba6610388611d3d6005611840565b1415613b1b565b61032c60c8610c28565b61212c613bce91613bc6600090565b506035610a22565b90613bee61038861032c6113ed613be660c087015190565b94600b6113c4565b149081613c37575b81613bff575090565b9050613c3361038861032c613815613c25610160613c1f61018088015190565b96015190565b613c2d613bad565b90613693565b1090565b9050613c4460e082015190565b613c5261038861032c6134a3565b101590613bf6565b15613c6157565b60405162461bcd60e51b815280611768600482016020808252818101527f4f776e61626c653a2063616c6c6572206973206e6f7420746865206f776e6572604082015260600190565b61032f613cbf6001546001600160a01b031690565b613ccb61215933610320565b14613c5a565b613cfa613cf4613ce96001546001600160a01b031690565b61228a846001611bf1565b916110c9565b907f8be0079c531659141344cd1fd0a4f28419497f9722a3daafe3b4186f6b6457e0613d2560405190565b808061392c565b6040808252600f908201526e436f6e7472616374204265666f726560881b6060820152919061032f90602060808501940152565b80546000939291613d7361084a8361080d565b91600181169081156108a65750600114613d8c57505050565b613d9f9192939450600052602060002090565b916000925b818410613db15750500190565b805484840152602090930192600101613da4565b9061032c91613d60565b9061032f6108df92613de060405190565b93848092613dc5565b61032c90613dcf565b15613df957565b60405162461bcd60e51b8152602060048201526012602482015271125b9d985b1a59081cdc1bdb9cdbdc88125160721b6044820152606490fd5b15613e3a57565b60405162461bcd60e51b815260206004820152602a60248201527f53706f6e736f72204944206e6f74206173736f636961746564207769746820616044820152691b9e481858d8dbdd5b9d60b21b6064820152608490fd5b60408082526022908201527f53706f6e736f7220746f2044656661756c74205265666572726572204265666f606082015261726560f01b6080820152919061032f90602060a08501940152565b15613ee657565b60405162461bcd60e51b815260206004820152602c60248201527f44656661756c74207265666572726572207472616e7366657220666f7220737060448201526b1bdb9cdbdc8819985a5b195960a21b6064820152608490fd5b61032c916119b4565b610a1c90613f5660405190565b91829182613f40565b60408082526021908201527f53706f6e736f7220746f2044656661756c7420526566657272657220416674656060820152603960f91b6080820152919061032f90602060a08501940152565b60408082526010908201526f4e6f626c6567696674204265666f726560801b6060820152919061032f90602060808501940152565b6001600160a01b03909116815260408101929161032f9160200152565b1561400457565b60405162461bcd60e51b815260206004820152601960248201527f4e6f626c6567696674207472616e73666572206661696c6564000000000000006044820152606490fd5b6040808252600f908201526e2737b13632b3b4b33a1020b33a32b960891b6060820152919061032f90602060808501940152565b6040808252600f908201526e5368617265666565204265666f726560881b6060820152919061032f90602060808501940152565b6040808252600e908201526d29b430b932b332b29020b33a32b960911b6060820152919061032f90602060808501940152565b6040808252600e908201526d21b7b73a3930b1ba1020b33a32b960911b6060820152919061032f90602060808501940152565b1561411e57565b60405162461bcd60e51b8152602060048201526015602482015274088d2e6e8e4d2c4eae8d2dedc40dad2e6dac2e8c6d605b1b6044820152606490fd5b9115614165575050565b6143db6103886118f184612a2961032f96612a296141876113ed89601061193f565b97612a296141958285614d9a565b918a61426f600080516020615a5a8339815191526143d36141c36141bd6113ed87601c61193f565b85613693565b966143ab6141d660649961381f8b610c28565b956141f66141ed6141e7600a610c28565b83613693565b61381f8c610c28565b9761421061420761383b6003610c28565b61381f8d610c28565b9a61421b6003610c28565b82600091036147c7575061423f9061381f61423961380f601e610c28565b91610c28565b9c8d915b8a61424d306110c9565b9687318a61425a8a6110c9565b9c8d9261426660405190565b91829182613d2c565b0390a28080516142826103886000610c28565b141590816147a1575b5015614796576142a460026103746142a9936035610a22565b613de9565b806142c86142b5825190565b6142c26103886000610c28565b11613df2565b6142f06142d96133d684603b610a22565b6142e96121596103206000611721565b1415613e33565b6142fb611d20825190565b2060059061430e610388611d3d84611840565b1461460f575061431e8682615269565b61434961432f61032c836036610a22565b614337612764565b868152905b613a096131a06001610c28565b7fc2fd92276608b9587eb5b4460dc173d46f1ed7c9082e81f25ed959e31f77dbd861437961392261300787612948565b0390a35b6143868d614ac0565b6143906000610c28565b83116144a1575b50506123d590612a298c612a298c8c6120df565b809c6143b76000610c28565b82116143e1575b5050316143ca60405190565b918291826140e4565b0390a26120df565b14614117565b6143f661228a6002546001600160a01b031690565b8561440060405190565b8061440b868261407d565b0390a261442c6000806138bb61228a61228a6002546001600160a01b031690565b600080516020615a7a83398151915261445661392261391c6139166002546001600160a01b031690565b0390a38b8361448661447361228a6002546001600160a01b031690565b9261447d60405190565b918291826140b1565b0390a261449a6138e58d612a296028610a47565b8b386143be565b613a14614607936144bd61228a6003546001600160a01b031690565b8a6144c760405190565b806144d28582613fab565b0390a2614560600080836144f461228a61228a6003546001600160a01b031690565b614548614514846145068c6035610a22565b01546001600160a01b031690565b61453961452060405190565b637de9aa0760e01b602082015294859260248401613fe0565b60208201810382520383610428565b85602083519301915af161455a6128d4565b50613ffd565b6003546001600160a01b0316614578613cf486612948565b907fd9675ff1874b241ff5e257dbda1ccaf1ebab3395281bda4c42853289b79f6f316145a360405190565b848152602090a36145bf61228a6003546001600160a01b031690565b8a6145c960405190565b806145d48582614049565b0390a26146006145e861032c866036610a22565b936145f96145f4612764565b968752565b6020860152565b6040840152565b8b8e38614397565b61479192915061032c8161462a6133d661477594603b611a50565b61468760008061466f61228a61463f866110c9565b95600080516020615a5a83398151915287906146678d61465e60405190565b91829182613e92565b0390a26110c9565b6040516000918a905af16146816128d4565b50613edf565b8061469189612948565b600080516020615a7a8339815191526146a960405190565b888152602090a36146b988612948565b6146c283613f49565b907fc2fd92276608b9587eb5b4460dc173d46f1ed7c9082e81f25ed959e31f77dbd86146ed60405190565b888152602090a36146fd88612948565b61470683613f49565b907f17d8016c3c26678014f98164f16ad29fdc9d92eb9d20c75149a06a4febbf13df61473160405190565b888152602090a38d61474260405190565b8061474d8882613f5f565b0390a261476e600a614760836035611a50565b01612a2e86612a2983610a47565b6036611a50565b613a14614780612764565b868152926146006145f96001610c28565b61437d565b506142a96005613de9565b90506147ae611d20825190565b206147bf610388611d3d6005611840565b14153861428b565b6147d19150610c28565b9c8d91614243565b9190916147e66000610c28565b600b600582101561483357906148249161481961038861032c6113ed8561481360066120668b6035610a22565b956113c4565b146148295760010190565b6147e6565b6125a38184615649565b50509190916148426000610c28565b600b9060058110156127395761486161032c6113ed8361486d956113c4565b84146148725760010190565b614842565b6125a383613b2c61032c846032610c35565b1561488b57565b60405162461bcd60e51b815260206004820152600d60248201526c24b73b30b634b2103630bcb2b960991b6044820152606490fd5b6148d66148d061032c9260ff1690565b60f81b90565b6001600160f81b03191690565b61492961492461032c926148f5606090565b506149006001611982565b60ff8216101580614955575b61491590614884565b61491f6040611982565b61198f565b6148c0565b61032c61493560405190565b80926135da602083019182610374816001936001600160f81b0319169052565b50614915614964610a306119aa565b60ff83161115905061490c565b61497b60016128c7565b600360fc1b602082015290565b61032c614971565b9061032f6149a66149a0846128c7565b93610463565b601f190160208401611614565b81156136c6570690565b906149c6825190565b8110156107dc570160200190565b9060006149e081610c28565b8314614a98579091908160005b6149f683610c28565b8414614a1957614a08614a1391611905565b9361381f600a610c28565b926149ed565b91939250614a2682614990565b915b614a3185610c28565b821115614a8d57614a44614a87916131b0565b9161381f600a84614a81614a78614924614a73614a69614a6387610c28565b896149b3565b612a296030610c28565b611982565b8a1a91886149bd565b53610c28565b90614a28565b505061032c91925090565b50905061032c614988565b90815260608101939261032f9290916040916105cf906020830152565b614ac86156dc565b614ad26000610c28565b811115614b2a579081614b0e614b097f10c2ec0656820298144929d1742d9014c606d85a89de8e7dcdd2695a44ebcb6694846136bc565b615716565b614b25614b1a60405190565b928392429184614aa3565b0390a1565b50614b3c61032f91612a296004610a47565b6004611924565b90614b4d90615750565b8051614b5c6103886000610c28565b03614b65575050565b81614bba61032f93613b2c6008610374866035614b8e826003614b888985610a22565b01611bd8565b614bb5614b9b6001610c28565b612a2e6007614baa8686610a22565b0191612a2983610a47565b610a22565b61588a565b9061032c614bce916035610a22565b90614bd96000610c28565b60088301614be861032c825490565b821015614c2d57611d38614bff83614c03936107b9565b5090565b614c0e611d20825190565b20614c1b61038884611d3d565b14614c2857600101614bd9565b505050565b505090614c4161032f92613b2c6008840190565b612a2e6007614c506001610c28565b920191612a2983610a47565b60408082526019908201527f55706c696e6520746f205368617265666565204265666f7265000000000000006060820152919061032f90602060808501940152565b60408082526018908201527f55706c696e6520746f20536861726566656520416674657200000000000000006060820152919061032f90602060808501940152565b61032c60006128c7565b61032c614ce0565b6040808252600d908201526c55706c696e65204265666f726560981b6060820152919061032f90602060808501940152565b15614d2b57565b60405162461bcd60e51b8152602060048201526016602482015275155c1b1a5b99481d1c985b9cd9995c8819985a5b195960521b6044820152606490fd5b6040808252600c908201526b2ab83634b7329020b33a32b960a11b6060820152919061032f90602060808501940152565b91603592614dad600361394f8387610a22565b92614dd0613815614dc26113ed84601061193f565b613c2d6113ed85601c61193f565b845192600093614de261038886610c28565b1461512857945b808051614df861038887610c28565b14159081615102575b501561500d57614e1461032c8289610a22565b614e2060068201610a47565b614e3961038861032c614e336001610c28565b886120df565b101580614fec575b614e5a5750600361394f614e559289610a22565b614de9565b8196614fbd600e614faf869561032c9a9c613a1498614f7a61228a8d614ef9816146009c019180614e9284546001600160a01b031690565b96614eab600080516020615a5a833981519152986110c9565b88614eb560405190565b80614ec08582614cf2565b0390a2614eda61228a61228a87546001600160a01b031690565b90614ee460405190565b90818003925af1614ef36128d4565b50614d24565b8b614f038b612948565b7f37d11e1e687f0a1785e3ed734d76992ef822b2da59dc4e7959fc1826395fb12e614f306139228a612948565b0390a38b614f3d8b612948565b7ffd330dda4e0651d3628c621aa708c409a15b22620a141c9acf39fc3a0a8cf67c614f6a6139228a612948565b0390a3546001600160a01b031690565b90614f8460405190565b80614f8f8c82614d69565b0390a2614bb5600a614fa18484610a22565b01612a2e8a612a2983610a47565b01612a2e85612a2983610a47565b6145f9614fdd614fd161032c8b6036610a22565b966121eb6121c76120d5565b91614fe6612764565b97880152565b50614ff960078201610a47565b6150066103886002610c28565b1015614e41565b509190506138e59294506150fa936150856150306002546001600160a01b031690565b92615049600080516020615a5a833981519152946110c9565b8461505360405190565b8061505e8982614c5c565b0390a28061507a61228a61228a6002546001600160a01b031690565b6040518781806138c2565b6150a3613cf461509d6002546001600160a01b031690565b92612948565b90600080516020615a7a8339815191526150bc60405190565b858152602090a36150d861228a6002546001600160a01b031690565b906150e260405190565b806150ed8582614c9e565b0390a2612a296028610a47565b61032c614cea565b905061510f611d20825190565b20615120610388611d3d6005611840565b141538614e01565b909291506138e59395506150fa94506150856150306002546001600160a01b031690565b1561515357565b60405162461bcd60e51b815260206004820152601460248201527314dc1bdb9cdbdc881251081b9bdd08199bdd5b9960621b6044820152606490fd5b60408082526018908201527f53706f6e736f7220746f2055706c696e65204265666f726500000000000000006060820152919061032f90602060808501940152565b156151d857565b60405162461bcd60e51b815260206004820152601760248201527f53706f6e736f72207472616e73666572206661696c65640000000000000000006044820152606490fd5b60408082526017908201527f53706f6e736f7220746f2055706c696e652041667465720000000000000000006060820152919061032f90602060808501940152565b6040518080610a1c565b9061381561527b91613c2d600a610c28565b9061528f61228a6000614506846035610a22565b6152af61529f6103206000611721565b6152a8836110c9565b141561514c565b6152c7600080516020615a5a833981519152916110c9565b9081816152d360405190565b806152de888261518f565b0390a26153056000806152f060405190565b60009088875af16152ff6128d4565b506151d1565b60405180615313868261521d565b0390a2615334600a615326836035610a22565b01612a2e84612a2983610a47565b61535d61534561032c836036610a22565b61534d612764565b9061433c615359614cea565b8352565b7f17d8016c3c26678014f98164f16ad29fdc9d92eb9d20c75149a06a4febbf13df61392c61392261300761525f565b9080821461545c5761539d8161176c565b9067ffffffffffffffff821161044a576153bb82611b38855461080d565b600090601f83116001146153e85761193b9291600091836153dd575050611aff565b015490503880611b5a565b906153fd601f19841692600052602060002090565b9061540d85600052602060002090565b92815b818110615444575091600293918560019694106154305750505002019055565b01546000196008601f8516021c1916611bb6565b91936001806020928787015481550195019201615410565b5050565b91906108f75761032f9161538c565b634e487b7160e01b600052603160045260246000fd5b9061549890600019906020036008021c90565b8154169055565b906000916154bd6154b582600052602060002090565b928354611aff565b905555565b919290602082101561551a57601f84116001146154e45761193b929350611aff565b509061551561032f93600161550c61550185600052602060002090565b92601f602091010490565b82019101611a92565b61549f565b506155538293615531600194600052602060002090565b611aee6020601f860104820192601f86168061555b575b50601f602091010490565b600202179055565b61556790888603615485565b38615548565b929091600160401b821161044a57602011156155b45760208110156155955761193b91611aff565b60019160ff19166155ab84600052602060002090565b55600202019055565b60019150600202019055565b9081546155cc8161080d565b908183116155f4575b8183106155e25750505050565b6155eb936154c2565b38808080612739565b6156008383838761556d565b6155d5565b600061032f916155c0565b906000036108f75761032f90615605565b8054801561564457600019019061564161563b83836107b9565b90615610565b55565b61546f565b9061032c615658916032610c35565b6156626000610c28565b61566d61032c835490565b811015614c2857615684611d38614bff83856107b9565b61568f611d20825190565b2061569c61038885611d3d565b146156a957600101615662565b61032f92506156d7906156d16156c96156c36123cb865490565b856107b9565b5091846107b9565b90615460565b615621565b6156e66000610c28565b805b60058210156157115761570461570b916121eb6120ec85612440565b9160010190565b906156e8565b905090565b906157216000610c28565b600581101561573d57806125a38461573893615945565b615721565b509050565b60ff81116119005760020a90565b60356157626007612066846035610a22565b906002916157736103886002610c28565b106125ae576000916157856000610c28565b6157906121c76119aa565b81101561587d5760386157a38682610a22565b906157c561218d6001936157bf6157b986610c28565b876120df565b90610c35565b6157df61038861032c6157da614e3389610c28565b615742565b101561587357816157ef87610c28565b905b615808575b5050506158039060010190565b615785565b61581c61032c61218d86610c618c87610a22565b81101561586e576158386124938261248e87610c618d88610a22565b6158476007612066838a610a22565b61585361038888610c28565b106158625750600101826157f1565b97505050505050505090565b6157f6565b5050600101615785565b505050505061032c614cea565b91909160009161589a6000610c28565b935b6158a76121c76119aa565b851015615919578080516158bd61038887610c28565b14908115615920575b506159195761590c600361394f615913936158e16001610c28565b6158f6603591612a2e6009614baa8686610a22565b614bb588613b2c61032c8d610c61876038610a22565b9460010190565b9361589c565b5092505050565b905061592d611d20825190565b2061593e610388611d3d6005611840565b14386158c6565b61595190929192612440565b61595b6000610c28565b61596661032c835190565b81101561598a57806125a38561597f6159859486612426565b51615990565b61595b565b50509050565b6159bf6159a161032c836035610a22565b6123d5600c6159b8613815613c25600b8601610a47565b9201610a47565b80831115615a4e576159f890915b6159e86159db826033610a22565b612a2e85612a2983610a47565b612a69600c614faf836035610a22565b7f906553627142e1d8b6a97ef3da2b55d3f7a8c72d485a7920f47ba49f7f38321d615a2260405190565b838152602090a2808211615a34575050565b615a44614b3c9161032f936118ea565b612a296004610a47565b506159f882916159cd56feddb9b4fa58ddb64773d9983027c8e9855dd1dee8c8034344c9af0d198513dc3817cde573ef387f02883bed2a94566f91db79ac27b8730ed1c556cbff295f62efa2646970667358221220df1dfd4f1ad4092a15dcc9cbfa88a144ce204db40d12c57a818eaea5a7599ea464736f6c634300081a0033",
  "linkReferences": {},
  "deployedLinkReferences": {}
}