{
  "_format": "hh-sol-artifact-1",
  "contractName": "MynnGift",
  "sourceName": "contracts/mynnGift.sol",
  "abi": [
    {
      "inputs": [
        {
          "internalType": "address",
          "name": "",
          "type": "address"
        },
        {
          "internalType": "address",
          "name": "_platformWallet",
          "type": "address"
        },
        {
          "internalType": "address",
          "name": "_mynnCryptContract",
          "type": "address"
        }
      ],
      "stateMutability": "nonpayable",
      "type": "constructor"
    },
    {
      "anonymous": false,
      "inputs": [
        {
          "indexed": false,
          "internalType": "string",
          "name": "userId",
          "type": "string"
        },
        {
          "indexed": true,
          "internalType": "uint8",
          "name": "newRank",
          "type": "uint8"
        },
        {
          "indexed": false,
          "internalType": "uint256",
          "name": "amount",
          "type": "uint256"
        }
      ],
      "name": "AutoPromotedToNextRank",
      "type": "event"
    },
    {
      "anonymous": false,
      "inputs": [
        {
          "indexed": false,
          "internalType": "string",
          "name": "message",
          "type": "string"
        },
        {
          "indexed": false,
          "internalType": "address",
          "name": "user",
          "type": "address"
        },
        {
          "indexed": false,
          "internalType": "uint256",
          "name": "amount",
          "type": "uint256"
        },
        {
          "indexed": false,
          "internalType": "uint256",
          "name": "msgValue",
          "type": "uint256"
        }
      ],
      "name": "DebugInfo",
      "type": "event"
    },
    {
      "anonymous": false,
      "inputs": [
        {
          "indexed": false,
          "internalType": "string",
          "name": "userId",
          "type": "string"
        },
        {
          "indexed": true,
          "internalType": "uint8",
          "name": "rank",
          "type": "uint8"
        },
        {
          "indexed": false,
          "internalType": "uint256",
          "name": "amount",
          "type": "uint256"
        }
      ],
      "name": "DonationReceived",
      "type": "event"
    },
    {
      "anonymous": false,
      "inputs": [
        {
          "indexed": true,
          "internalType": "address",
          "name": "user",
          "type": "address"
        },
        {
          "indexed": false,
          "internalType": "uint256",
          "name": "amount",
          "type": "uint256"
        }
      ],
      "name": "GasSubsidyPaid",
      "type": "event"
    },
    {
      "anonymous": false,
      "inputs": [
        {
          "indexed": false,
          "internalType": "uint256",
          "name": "newBalance",
          "type": "uint256"
        },
        {
          "indexed": false,
          "internalType": "string",
          "name": "action",
          "type": "string"
        }
      ],
      "name": "GasSubsidyPoolUpdated",
      "type": "event"
    },
    {
      "anonymous": false,
      "inputs": [
        {
          "indexed": false,
          "internalType": "uint256",
          "name": "totalAmount",
          "type": "uint256"
        },
        {
          "indexed": true,
          "internalType": "uint8",
          "name": "rank",
          "type": "uint8"
        }
      ],
      "name": "NoReceiverAllFundsToPlatform",
      "type": "event"
    },
    {
      "anonymous": false,
      "inputs": [
        {
          "indexed": true,
          "internalType": "address",
          "name": "previousOwner",
          "type": "address"
        },
        {
          "indexed": true,
          "internalType": "address",
          "name": "newOwner",
          "type": "address"
        }
      ],
      "name": "OwnershipTransferred",
      "type": "event"
    },
    {
      "anonymous": false,
      "inputs": [
        {
          "indexed": true,
          "internalType": "address",
          "name": "wallet",
          "type": "address"
        },
        {
          "indexed": false,
          "internalType": "uint256",
          "name": "amount",
          "type": "uint256"
        }
      ],
      "name": "PlatformFundsTransferred",
      "type": "event"
    },
    {
      "anonymous": false,
      "inputs": [
        {
          "indexed": false,
          "internalType": "uint256",
          "name": "newBalance",
          "type": "uint256"
        },
        {
          "indexed": false,
          "internalType": "string",
          "name": "action",
          "type": "string"
        }
      ],
      "name": "PromotionPoolUpdated",
      "type": "event"
    },
    {
      "anonymous": false,
      "inputs": [
        {
          "indexed": true,
          "internalType": "address",
          "name": "user",
          "type": "address"
        },
        {
          "indexed": false,
          "internalType": "string",
          "name": "operation",
          "type": "string"
        }
      ],
      "name": "Rank8UserBlocked",
      "type": "event"
    },
    {
      "anonymous": false,
      "inputs": [
        {
          "indexed": true,
          "internalType": "uint8",
          "name": "rank",
          "type": "uint8"
        },
        {
          "indexed": false,
          "internalType": "uint256",
          "name": "cycleNumber",
          "type": "uint256"
        },
        {
          "indexed": false,
          "internalType": "address[]",
          "name": "donors",
          "type": "address[]"
        }
      ],
      "name": "RankCycleCompleted",
      "type": "event"
    },
    {
      "anonymous": false,
      "inputs": [
        {
          "indexed": true,
          "internalType": "uint8",
          "name": "rank",
          "type": "uint8"
        },
        {
          "indexed": false,
          "internalType": "uint256",
          "name": "totalDonors",
          "type": "uint256"
        }
      ],
      "name": "RankReset",
      "type": "event"
    },
    {
      "anonymous": false,
      "inputs": [
        {
          "indexed": false,
          "internalType": "string",
          "name": "userId",
          "type": "string"
        },
        {
          "indexed": true,
          "internalType": "uint8",
          "name": "rank",
          "type": "uint8"
        },
        {
          "indexed": false,
          "internalType": "uint256",
          "name": "amount",
          "type": "uint256"
        }
      ],
      "name": "ReceiverStatusUpdated",
      "type": "event"
    },
    {
      "anonymous": false,
      "inputs": [
        {
          "indexed": true,
          "internalType": "address",
          "name": "user",
          "type": "address"
        },
        {
          "indexed": false,
          "internalType": "string",
          "name": "userId",
          "type": "string"
        }
      ],
      "name": "UserCompletedRank8",
      "type": "event"
    },
    {
      "anonymous": false,
      "inputs": [
        {
          "indexed": true,
          "internalType": "address",
          "name": "user",
          "type": "address"
        },
        {
          "indexed": false,
          "internalType": "string",
          "name": "userId",
          "type": "string"
        }
      ],
      "name": "UserIdCacheUpdated",
      "type": "event"
    },
    {
      "anonymous": false,
      "inputs": [
        {
          "indexed": false,
          "internalType": "string",
          "name": "userId",
          "type": "string"
        },
        {
          "indexed": true,
          "internalType": "uint8",
          "name": "rank",
          "type": "uint8"
        },
        {
          "indexed": false,
          "internalType": "uint256",
          "name": "position",
          "type": "uint256"
        }
      ],
      "name": "WaitingQueueJoined",
      "type": "event"
    },
    {
      "inputs": [],
      "name": "FEE_SHARE",
      "outputs": [
        {
          "internalType": "uint256",
          "name": "",
          "type": "uint256"
        }
      ],
      "stateMutability": "view",
      "type": "function"
    },
    {
      "inputs": [],
      "name": "GAS_SUBSIDY_PERCENT",
      "outputs": [
        {
          "internalType": "uint256",
          "name": "",
          "type": "uint256"
        }
      ],
      "stateMutability": "view",
      "type": "function"
    },
    {
      "inputs": [],
      "name": "MAX_DONORS_PER_RANK",
      "outputs": [
        {
          "internalType": "uint8",
          "name": "",
          "type": "uint8"
        }
      ],
      "stateMutability": "view",
      "type": "function"
    },
    {
      "inputs": [],
      "name": "MAX_RANK",
      "outputs": [
        {
          "internalType": "uint8",
          "name": "",
          "type": "uint8"
        }
      ],
      "stateMutability": "view",
      "type": "function"
    },
    {
      "inputs": [],
      "name": "MAX_SUBSIDY_PER_TX",
      "outputs": [
        {
          "internalType": "uint256",
          "name": "",
          "type": "uint256"
        }
      ],
      "stateMutability": "view",
      "type": "function"
    },
    {
      "inputs": [],
      "name": "MIN_GAS_SUBSIDY_POOL",
      "outputs": [
        {
          "internalType": "uint256",
          "name": "",
          "type": "uint256"
        }
      ],
      "stateMutability": "view",
      "type": "function"
    },
    {
      "inputs": [],
      "name": "PROMOTION_SHARE",
      "outputs": [
        {
          "internalType": "uint256",
          "name": "",
          "type": "uint256"
        }
      ],
      "stateMutability": "view",
      "type": "function"
    },
    {
      "inputs": [],
      "name": "RECEIVER_SHARE",
      "outputs": [
        {
          "internalType": "uint256",
          "name": "",
          "type": "uint256"
        }
      ],
      "stateMutability": "view",
      "type": "function"
    },
    {
      "inputs": [
        {
          "internalType": "enum MynnGift.Stream",
          "name": "",
          "type": "uint8"
        },
        {
          "internalType": "uint8",
          "name": "",
          "type": "uint8"
        }
      ],
      "name": "currentRankCycle",
      "outputs": [
        {
          "internalType": "uint256",
          "name": "",
          "type": "uint256"
        }
      ],
      "stateMutability": "view",
      "type": "function"
    },
    {
      "inputs": [],
      "name": "gasSubsidyPool",
      "outputs": [
        {
          "internalType": "uint256",
          "name": "",
          "type": "uint256"
        }
      ],
      "stateMutability": "view",
      "type": "function"
    },
    {
      "inputs": [],
      "name": "getContractBalance",
      "outputs": [
        {
          "internalType": "uint256",
          "name": "",
          "type": "uint256"
        }
      ],
      "stateMutability": "view",
      "type": "function"
    },
    {
      "inputs": [
        {
          "internalType": "uint8",
          "name": "rank",
          "type": "uint8"
        },
        {
          "internalType": "enum MynnGift.Stream",
          "name": "stream",
          "type": "uint8"
        }
      ],
      "name": "getCurrentRankCycle",
      "outputs": [
        {
          "internalType": "uint256",
          "name": "",
          "type": "uint256"
        }
      ],
      "stateMutability": "view",
      "type": "function"
    },
    {
      "inputs": [
        {
          "internalType": "uint8",
          "name": "rank",
          "type": "uint8"
        },
        {
          "internalType": "enum MynnGift.Stream",
          "name": "stream",
          "type": "uint8"
        }
      ],
      "name": "getCurrentRankStatus",
      "outputs": [
        {
          "internalType": "string[]",
          "name": "currentDonors",
          "type": "string[]"
        },
        {
          "internalType": "uint256",
          "name": "currentFunds",
          "type": "uint256"
        },
        {
          "internalType": "uint256",
          "name": "targetFunds",
          "type": "uint256"
        },
        {
          "internalType": "uint256",
          "name": "remainingSlots",
          "type": "uint256"
        }
      ],
      "stateMutability": "view",
      "type": "function"
    },
    {
      "inputs": [
        {
          "internalType": "uint8",
          "name": "rank",
          "type": "uint8"
        },
        {
          "internalType": "address",
          "name": "user",
          "type": "address"
        },
        {
          "internalType": "enum MynnGift.Stream",
          "name": "stream",
          "type": "uint8"
        }
      ],
      "name": "getDetailedQueuePosition",
      "outputs": [
        {
          "internalType": "uint256",
          "name": "position",
          "type": "uint256"
        },
        {
          "internalType": "bool",
          "name": "isInQueue",
          "type": "bool"
        },
        {
          "internalType": "bool",
          "name": "isActiveRankDonor",
          "type": "bool"
        },
        {
          "internalType": "uint256",
          "name": "estimatedWaitTime",
          "type": "uint256"
        }
      ],
      "stateMutability": "view",
      "type": "function"
    },
    {
      "inputs": [],
      "name": "getGasSubsidyPoolBalance",
      "outputs": [
        {
          "internalType": "uint256",
          "name": "",
          "type": "uint256"
        }
      ],
      "stateMutability": "view",
      "type": "function"
    },
    {
      "inputs": [],
      "name": "getPlatformIncome",
      "outputs": [
        {
          "internalType": "uint256",
          "name": "",
          "type": "uint256"
        }
      ],
      "stateMutability": "view",
      "type": "function"
    },
    {
      "inputs": [],
      "name": "getPlatformIncome_StreamA",
      "outputs": [
        {
          "internalType": "uint256",
          "name": "",
          "type": "uint256"
        }
      ],
      "stateMutability": "view",
      "type": "function"
    },
    {
      "inputs": [],
      "name": "getPlatformIncome_StreamB",
      "outputs": [
        {
          "internalType": "uint256",
          "name": "",
          "type": "uint256"
        }
      ],
      "stateMutability": "view",
      "type": "function"
    },
    {
      "inputs": [],
      "name": "getPromotionPoolBalance",
      "outputs": [
        {
          "internalType": "uint256",
          "name": "",
          "type": "uint256"
        }
      ],
      "stateMutability": "view",
      "type": "function"
    },
    {
      "inputs": [
        {
          "internalType": "uint8",
          "name": "rank",
          "type": "uint8"
        },
        {
          "internalType": "enum MynnGift.Stream",
          "name": "stream",
          "type": "uint8"
        }
      ],
      "name": "getQueueStatus",
      "outputs": [
        {
          "internalType": "uint256",
          "name": "queueLength",
          "type": "uint256"
        },
        {
          "internalType": "uint256",
          "name": "activeDonors",
          "type": "uint256"
        },
        {
          "internalType": "uint256",
          "name": "totalDonationsInRank",
          "type": "uint256"
        },
        {
          "internalType": "uint256",
          "name": "cycleNumber",
          "type": "uint256"
        }
      ],
      "stateMutability": "view",
      "type": "function"
    },
    {
      "inputs": [
        {
          "internalType": "uint8",
          "name": "rank",
          "type": "uint8"
        },
        {
          "internalType": "enum MynnGift.Stream",
          "name": "stream",
          "type": "uint8"
        }
      ],
      "name": "getRankDonationCount",
      "outputs": [
        {
          "internalType": "uint256",
          "name": "",
          "type": "uint256"
        }
      ],
      "stateMutability": "view",
      "type": "function"
    },
    {
      "inputs": [
        {
          "internalType": "uint8",
          "name": "rank",
          "type": "uint8"
        },
        {
          "internalType": "enum MynnGift.Stream",
          "name": "stream",
          "type": "uint8"
        }
      ],
      "name": "getRankDonorHistory",
      "outputs": [
        {
          "internalType": "string[]",
          "name": "",
          "type": "string[]"
        }
      ],
      "stateMutability": "view",
      "type": "function"
    },
    {
      "inputs": [
        {
          "internalType": "uint8",
          "name": "rank",
          "type": "uint8"
        }
      ],
      "name": "getRankDonors",
      "outputs": [
        {
          "internalType": "string[]",
          "name": "",
          "type": "string[]"
        }
      ],
      "stateMutability": "view",
      "type": "function"
    },
    {
      "inputs": [
        {
          "internalType": "uint8",
          "name": "rank",
          "type": "uint8"
        },
        {
          "internalType": "enum MynnGift.Stream",
          "name": "stream",
          "type": "uint8"
        }
      ],
      "name": "getRankReceiverHistory",
      "outputs": [
        {
          "internalType": "string[]",
          "name": "",
          "type": "string[]"
        }
      ],
      "stateMutability": "view",
      "type": "function"
    },
    {
      "inputs": [
        {
          "internalType": "uint8",
          "name": "rank",
          "type": "uint8"
        }
      ],
      "name": "getRankWaitingQueue",
      "outputs": [
        {
          "internalType": "string[]",
          "name": "",
          "type": "string[]"
        }
      ],
      "stateMutability": "view",
      "type": "function"
    },
    {
      "inputs": [
        {
          "internalType": "uint8",
          "name": "rank",
          "type": "uint8"
        },
        {
          "internalType": "enum MynnGift.Stream",
          "name": "stream",
          "type": "uint8"
        }
      ],
      "name": "getRankWaitingQueueByStream",
      "outputs": [
        {
          "internalType": "string[]",
          "name": "",
          "type": "string[]"
        }
      ],
      "stateMutability": "view",
      "type": "function"
    },
    {
      "inputs": [],
      "name": "getTotalReceivers",
      "outputs": [
        {
          "internalType": "uint256",
          "name": "",
          "type": "uint256"
        }
      ],
      "stateMutability": "view",
      "type": "function"
    },
    {
      "inputs": [
        {
          "internalType": "address",
          "name": "user",
          "type": "address"
        }
      ],
      "name": "getUserIncomeBreakdown",
      "outputs": [
        {
          "internalType": "uint256[8]",
          "name": "",
          "type": "uint256[8]"
        }
      ],
      "stateMutability": "view",
      "type": "function"
    },
    {
      "inputs": [
        {
          "internalType": "address",
          "name": "user",
          "type": "address"
        }
      ],
      "name": "getUserIncomeBreakdown_StreamA",
      "outputs": [
        {
          "internalType": "uint256[8]",
          "name": "",
          "type": "uint256[8]"
        }
      ],
      "stateMutability": "view",
      "type": "function"
    },
    {
      "inputs": [
        {
          "internalType": "address",
          "name": "user",
          "type": "address"
        }
      ],
      "name": "getUserIncomeBreakdown_StreamB",
      "outputs": [
        {
          "internalType": "uint256[8]",
          "name": "",
          "type": "uint256[8]"
        }
      ],
      "stateMutability": "view",
      "type": "function"
    },
    {
      "inputs": [
        {
          "internalType": "address",
          "name": "user",
          "type": "address"
        },
        {
          "internalType": "uint8",
          "name": "rank",
          "type": "uint8"
        }
      ],
      "name": "getUserIncomePerRank",
      "outputs": [
        {
          "internalType": "uint256",
          "name": "",
          "type": "uint256"
        }
      ],
      "stateMutability": "view",
      "type": "function"
    },
    {
      "inputs": [
        {
          "internalType": "address",
          "name": "user",
          "type": "address"
        }
      ],
      "name": "getUserRank",
      "outputs": [
        {
          "internalType": "uint8",
          "name": "",
          "type": "uint8"
        }
      ],
      "stateMutability": "view",
      "type": "function"
    },
    {
      "inputs": [
        {
          "internalType": "address",
          "name": "user",
          "type": "address"
        }
      ],
      "name": "getUserRank_StreamA",
      "outputs": [
        {
          "internalType": "uint8",
          "name": "",
          "type": "uint8"
        }
      ],
      "stateMutability": "view",
      "type": "function"
    },
    {
      "inputs": [
        {
          "internalType": "address",
          "name": "user",
          "type": "address"
        }
      ],
      "name": "getUserRank_StreamB",
      "outputs": [
        {
          "internalType": "uint8",
          "name": "",
          "type": "uint8"
        }
      ],
      "stateMutability": "view",
      "type": "function"
    },
    {
      "inputs": [
        {
          "internalType": "address",
          "name": "user",
          "type": "address"
        }
      ],
      "name": "getUserStatus",
      "outputs": [
        {
          "internalType": "string",
          "name": "",
          "type": "string"
        }
      ],
      "stateMutability": "view",
      "type": "function"
    },
    {
      "inputs": [
        {
          "internalType": "address",
          "name": "user",
          "type": "address"
        }
      ],
      "name": "getUserTotalDonation",
      "outputs": [
        {
          "internalType": "uint256",
          "name": "",
          "type": "uint256"
        }
      ],
      "stateMutability": "view",
      "type": "function"
    },
    {
      "inputs": [
        {
          "internalType": "address",
          "name": "user",
          "type": "address"
        }
      ],
      "name": "getUserTotalDonation_StreamA",
      "outputs": [
        {
          "internalType": "uint256",
          "name": "",
          "type": "uint256"
        }
      ],
      "stateMutability": "view",
      "type": "function"
    },
    {
      "inputs": [
        {
          "internalType": "address",
          "name": "user",
          "type": "address"
        }
      ],
      "name": "getUserTotalDonation_StreamB",
      "outputs": [
        {
          "internalType": "uint256",
          "name": "",
          "type": "uint256"
        }
      ],
      "stateMutability": "view",
      "type": "function"
    },
    {
      "inputs": [
        {
          "internalType": "address",
          "name": "user",
          "type": "address"
        }
      ],
      "name": "getUserTotalIncome",
      "outputs": [
        {
          "internalType": "uint256",
          "name": "",
          "type": "uint256"
        }
      ],
      "stateMutability": "view",
      "type": "function"
    },
    {
      "inputs": [
        {
          "internalType": "address",
          "name": "user",
          "type": "address"
        }
      ],
      "name": "getUserTotalIncome_StreamA",
      "outputs": [
        {
          "internalType": "uint256",
          "name": "",
          "type": "uint256"
        }
      ],
      "stateMutability": "view",
      "type": "function"
    },
    {
      "inputs": [
        {
          "internalType": "address",
          "name": "user",
          "type": "address"
        }
      ],
      "name": "getUserTotalIncome_StreamB",
      "outputs": [
        {
          "internalType": "uint256",
          "name": "",
          "type": "uint256"
        }
      ],
      "stateMutability": "view",
      "type": "function"
    },
    {
      "inputs": [
        {
          "internalType": "uint8",
          "name": "rank",
          "type": "uint8"
        },
        {
          "internalType": "address",
          "name": "user",
          "type": "address"
        },
        {
          "internalType": "enum MynnGift.Stream",
          "name": "stream",
          "type": "uint8"
        }
      ],
      "name": "getWaitingQueuePosition",
      "outputs": [
        {
          "internalType": "uint256",
          "name": "",
          "type": "uint256"
        }
      ],
      "stateMutability": "view",
      "type": "function"
    },
    {
      "inputs": [
        {
          "internalType": "address",
          "name": "",
          "type": "address"
        }
      ],
      "name": "hasStartedStreamA",
      "outputs": [
        {
          "internalType": "bool",
          "name": "",
          "type": "bool"
        }
      ],
      "stateMutability": "view",
      "type": "function"
    },
    {
      "inputs": [
        {
          "internalType": "address",
          "name": "",
          "type": "address"
        }
      ],
      "name": "hasStartedStreamB",
      "outputs": [
        {
          "internalType": "bool",
          "name": "",
          "type": "bool"
        }
      ],
      "stateMutability": "view",
      "type": "function"
    },
    {
      "inputs": [
        {
          "internalType": "address",
          "name": "",
          "type": "address"
        }
      ],
      "name": "isDonor",
      "outputs": [
        {
          "internalType": "bool",
          "name": "",
          "type": "bool"
        }
      ],
      "stateMutability": "view",
      "type": "function"
    },
    {
      "inputs": [
        {
          "internalType": "address",
          "name": "",
          "type": "address"
        }
      ],
      "name": "isDonor_StreamA",
      "outputs": [
        {
          "internalType": "bool",
          "name": "",
          "type": "bool"
        }
      ],
      "stateMutability": "view",
      "type": "function"
    },
    {
      "inputs": [
        {
          "internalType": "address",
          "name": "",
          "type": "address"
        }
      ],
      "name": "isDonor_StreamB",
      "outputs": [
        {
          "internalType": "bool",
          "name": "",
          "type": "bool"
        }
      ],
      "stateMutability": "view",
      "type": "function"
    },
    {
      "inputs": [
        {
          "internalType": "address",
          "name": "",
          "type": "address"
        }
      ],
      "name": "isRank8Completed_StreamA",
      "outputs": [
        {
          "internalType": "bool",
          "name": "",
          "type": "bool"
        }
      ],
      "stateMutability": "view",
      "type": "function"
    },
    {
      "inputs": [
        {
          "internalType": "address",
          "name": "",
          "type": "address"
        }
      ],
      "name": "isRank8Completed_StreamB",
      "outputs": [
        {
          "internalType": "bool",
          "name": "",
          "type": "bool"
        }
      ],
      "stateMutability": "view",
      "type": "function"
    },
    {
      "inputs": [
        {
          "internalType": "address",
          "name": "",
          "type": "address"
        }
      ],
      "name": "isReceiver",
      "outputs": [
        {
          "internalType": "bool",
          "name": "",
          "type": "bool"
        }
      ],
      "stateMutability": "view",
      "type": "function"
    },
    {
      "inputs": [
        {
          "internalType": "address",
          "name": "",
          "type": "address"
        }
      ],
      "name": "isReceiver_StreamA",
      "outputs": [
        {
          "internalType": "bool",
          "name": "",
          "type": "bool"
        }
      ],
      "stateMutability": "view",
      "type": "function"
    },
    {
      "inputs": [
        {
          "internalType": "address",
          "name": "",
          "type": "address"
        }
      ],
      "name": "isReceiver_StreamB",
      "outputs": [
        {
          "internalType": "bool",
          "name": "",
          "type": "bool"
        }
      ],
      "stateMutability": "view",
      "type": "function"
    },
    {
      "inputs": [
        {
          "internalType": "uint8",
          "name": "rank",
          "type": "uint8"
        },
        {
          "internalType": "enum MynnGift.Stream",
          "name": "stream",
          "type": "uint8"
        }
      ],
      "name": "joinWaitingQueue",
      "outputs": [],
      "stateMutability": "nonpayable",
      "type": "function"
    },
    {
      "inputs": [],
      "name": "mynnCryptContract",
      "outputs": [
        {
          "internalType": "address",
          "name": "",
          "type": "address"
        }
      ],
      "stateMutability": "view",
      "type": "function"
    },
    {
      "inputs": [],
      "name": "owner",
      "outputs": [
        {
          "internalType": "address",
          "name": "",
          "type": "address"
        }
      ],
      "stateMutability": "view",
      "type": "function"
    },
    {
      "inputs": [],
      "name": "platformIncome",
      "outputs": [
        {
          "internalType": "uint256",
          "name": "",
          "type": "uint256"
        }
      ],
      "stateMutability": "view",
      "type": "function"
    },
    {
      "inputs": [],
      "name": "platformIncome_StreamA",
      "outputs": [
        {
          "internalType": "uint256",
          "name": "",
          "type": "uint256"
        }
      ],
      "stateMutability": "view",
      "type": "function"
    },
    {
      "inputs": [],
      "name": "platformIncome_StreamB",
      "outputs": [
        {
          "internalType": "uint256",
          "name": "",
          "type": "uint256"
        }
      ],
      "stateMutability": "view",
      "type": "function"
    },
    {
      "inputs": [],
      "name": "platformWallet",
      "outputs": [
        {
          "internalType": "address",
          "name": "",
          "type": "address"
        }
      ],
      "stateMutability": "view",
      "type": "function"
    },
    {
      "inputs": [],
      "name": "promotionPool",
      "outputs": [
        {
          "internalType": "uint256",
          "name": "",
          "type": "uint256"
        }
      ],
      "stateMutability": "view",
      "type": "function"
    },
    {
      "inputs": [
        {
          "internalType": "enum MynnGift.Stream",
          "name": "",
          "type": "uint8"
        },
        {
          "internalType": "uint8",
          "name": "",
          "type": "uint8"
        }
      ],
      "name": "rankDonationCount",
      "outputs": [
        {
          "internalType": "uint256",
          "name": "",
          "type": "uint256"
        }
      ],
      "stateMutability": "view",
      "type": "function"
    },
    {
      "inputs": [
        {
          "internalType": "uint8",
          "name": "",
          "type": "uint8"
        }
      ],
      "name": "rankDonationValues",
      "outputs": [
        {
          "internalType": "uint256",
          "name": "",
          "type": "uint256"
        }
      ],
      "stateMutability": "view",
      "type": "function"
    },
    {
      "inputs": [
        {
          "internalType": "enum MynnGift.Stream",
          "name": "",
          "type": "uint8"
        },
        {
          "internalType": "uint8",
          "name": "",
          "type": "uint8"
        }
      ],
      "name": "rankDonationValues_ByStream",
      "outputs": [
        {
          "internalType": "uint256",
          "name": "",
          "type": "uint256"
        }
      ],
      "stateMutability": "view",
      "type": "function"
    },
    {
      "inputs": [
        {
          "internalType": "enum MynnGift.Stream",
          "name": "",
          "type": "uint8"
        },
        {
          "internalType": "uint8",
          "name": "",
          "type": "uint8"
        },
        {
          "internalType": "uint256",
          "name": "",
          "type": "uint256"
        }
      ],
      "name": "rankDonorHistory",
      "outputs": [
        {
          "internalType": "address",
          "name": "",
          "type": "address"
        }
      ],
      "stateMutability": "view",
      "type": "function"
    },
    {
      "inputs": [
        {
          "internalType": "enum MynnGift.Stream",
          "name": "",
          "type": "uint8"
        },
        {
          "internalType": "uint8",
          "name": "",
          "type": "uint8"
        },
        {
          "internalType": "uint256",
          "name": "",
          "type": "uint256"
        }
      ],
      "name": "rankReceiverHistory",
      "outputs": [
        {
          "internalType": "address",
          "name": "",
          "type": "address"
        }
      ],
      "stateMutability": "view",
      "type": "function"
    },
    {
      "inputs": [
        {
          "internalType": "uint8",
          "name": "",
          "type": "uint8"
        }
      ],
      "name": "ranks",
      "outputs": [
        {
          "internalType": "uint256",
          "name": "totalFunds",
          "type": "uint256"
        }
      ],
      "stateMutability": "view",
      "type": "function"
    },
    {
      "inputs": [
        {
          "internalType": "uint8",
          "name": "",
          "type": "uint8"
        }
      ],
      "name": "ranks_StreamA",
      "outputs": [
        {
          "internalType": "uint256",
          "name": "totalFunds",
          "type": "uint256"
        }
      ],
      "stateMutability": "view",
      "type": "function"
    },
    {
      "inputs": [
        {
          "internalType": "uint8",
          "name": "",
          "type": "uint8"
        }
      ],
      "name": "ranks_StreamB",
      "outputs": [
        {
          "internalType": "uint256",
          "name": "totalFunds",
          "type": "uint256"
        }
      ],
      "stateMutability": "view",
      "type": "function"
    },
    {
      "inputs": [
        {
          "internalType": "address",
          "name": "user",
          "type": "address"
        },
        {
          "internalType": "uint256",
          "name": "amount",
          "type": "uint256"
        }
      ],
      "name": "receiveFromMynnCrypt",
      "outputs": [],
      "stateMutability": "payable",
      "type": "function"
    },
    {
      "inputs": [],
      "name": "renounceOwnership",
      "outputs": [],
      "stateMutability": "nonpayable",
      "type": "function"
    },
    {
      "inputs": [
        {
          "internalType": "address",
          "name": "_newMynnCryptContract",
          "type": "address"
        }
      ],
      "name": "setMynnCryptContract",
      "outputs": [],
      "stateMutability": "nonpayable",
      "type": "function"
    },
    {
      "inputs": [
        {
          "internalType": "address",
          "name": "_newPlatformWallet",
          "type": "address"
        }
      ],
      "name": "setPlatformWallet",
      "outputs": [],
      "stateMutability": "nonpayable",
      "type": "function"
    },
    {
      "inputs": [
        {
          "internalType": "address",
          "name": "user",
          "type": "address"
        },
        {
          "internalType": "bool",
          "name": "completed",
          "type": "bool"
        },
        {
          "internalType": "enum MynnGift.Stream",
          "name": "stream",
          "type": "uint8"
        }
      ],
      "name": "setRank8Completed",
      "outputs": [],
      "stateMutability": "nonpayable",
      "type": "function"
    },
    {
      "inputs": [],
      "name": "totalReceivers",
      "outputs": [
        {
          "internalType": "uint256",
          "name": "",
          "type": "uint256"
        }
      ],
      "stateMutability": "view",
      "type": "function"
    },
    {
      "inputs": [
        {
          "internalType": "address",
          "name": "newOwner",
          "type": "address"
        }
      ],
      "name": "transferOwnership",
      "outputs": [],
      "stateMutability": "nonpayable",
      "type": "function"
    },
    {
      "inputs": [
        {
          "internalType": "address",
          "name": "user",
          "type": "address"
        }
      ],
      "name": "updateUserIdCache",
      "outputs": [],
      "stateMutability": "nonpayable",
      "type": "function"
    },
    {
      "inputs": [
        {
          "internalType": "address",
          "name": "",
          "type": "address"
        },
        {
          "internalType": "uint8",
          "name": "",
          "type": "uint8"
        }
      ],
      "name": "userIncomePerRank",
      "outputs": [
        {
          "internalType": "uint256",
          "name": "",
          "type": "uint256"
        }
      ],
      "stateMutability": "view",
      "type": "function"
    },
    {
      "inputs": [
        {
          "internalType": "address",
          "name": "",
          "type": "address"
        },
        {
          "internalType": "uint8",
          "name": "",
          "type": "uint8"
        }
      ],
      "name": "userIncomePerRank_StreamA",
      "outputs": [
        {
          "internalType": "uint256",
          "name": "",
          "type": "uint256"
        }
      ],
      "stateMutability": "view",
      "type": "function"
    },
    {
      "inputs": [
        {
          "internalType": "address",
          "name": "",
          "type": "address"
        },
        {
          "internalType": "uint8",
          "name": "",
          "type": "uint8"
        }
      ],
      "name": "userIncomePerRank_StreamB",
      "outputs": [
        {
          "internalType": "uint256",
          "name": "",
          "type": "uint256"
        }
      ],
      "stateMutability": "view",
      "type": "function"
    },
    {
      "inputs": [
        {
          "internalType": "address",
          "name": "",
          "type": "address"
        }
      ],
      "name": "userRank",
      "outputs": [
        {
          "internalType": "uint8",
          "name": "",
          "type": "uint8"
        }
      ],
      "stateMutability": "view",
      "type": "function"
    },
    {
      "inputs": [
        {
          "internalType": "address",
          "name": "",
          "type": "address"
        }
      ],
      "name": "userRank_StreamA",
      "outputs": [
        {
          "internalType": "uint8",
          "name": "",
          "type": "uint8"
        }
      ],
      "stateMutability": "view",
      "type": "function"
    },
    {
      "inputs": [
        {
          "internalType": "address",
          "name": "",
          "type": "address"
        }
      ],
      "name": "userRank_StreamB",
      "outputs": [
        {
          "internalType": "uint8",
          "name": "",
          "type": "uint8"
        }
      ],
      "stateMutability": "view",
      "type": "function"
    },
    {
      "inputs": [
        {
          "internalType": "address",
          "name": "",
          "type": "address"
        }
      ],
      "name": "userTotalDonation",
      "outputs": [
        {
          "internalType": "uint256",
          "name": "",
          "type": "uint256"
        }
      ],
      "stateMutability": "view",
      "type": "function"
    },
    {
      "inputs": [
        {
          "internalType": "address",
          "name": "",
          "type": "address"
        }
      ],
      "name": "userTotalDonation_StreamA",
      "outputs": [
        {
          "internalType": "uint256",
          "name": "",
          "type": "uint256"
        }
      ],
      "stateMutability": "view",
      "type": "function"
    },
    {
      "inputs": [
        {
          "internalType": "address",
          "name": "",
          "type": "address"
        }
      ],
      "name": "userTotalDonation_StreamB",
      "outputs": [
        {
          "internalType": "uint256",
          "name": "",
          "type": "uint256"
        }
      ],
      "stateMutability": "view",
      "type": "function"
    },
    {
      "inputs": [
        {
          "internalType": "address",
          "name": "",
          "type": "address"
        }
      ],
      "name": "userTotalIncome",
      "outputs": [
        {
          "internalType": "uint256",
          "name": "",
          "type": "uint256"
        }
      ],
      "stateMutability": "view",
      "type": "function"
    },
    {
      "inputs": [
        {
          "internalType": "address",
          "name": "",
          "type": "address"
        }
      ],
      "name": "userTotalIncome_StreamA",
      "outputs": [
        {
          "internalType": "uint256",
          "name": "",
          "type": "uint256"
        }
      ],
      "stateMutability": "view",
      "type": "function"
    },
    {
      "inputs": [
        {
          "internalType": "address",
          "name": "",
          "type": "address"
        }
      ],
      "name": "userTotalIncome_StreamB",
      "outputs": [
        {
          "internalType": "uint256",
          "name": "",
          "type": "uint256"
        }
      ],
      "stateMutability": "view",
      "type": "function"
    },
    {
      "inputs": [
        {
          "internalType": "uint256",
          "name": "amount",
          "type": "uint256"
        }
      ],
      "name": "withdrawExcessGasSubsidy",
      "outputs": [],
      "stateMutability": "nonpayable",
      "type": "function"
    },
    {
      "inputs": [
        {
          "internalType": "uint256",
          "name": "amount",
          "type": "uint256"
        }
      ],
      "name": "withdrawExcessPromotionPool",
      "outputs": [],
      "stateMutability": "nonpayable",
      "type": "function"
    },
    {
      "inputs": [],
      "name": "withdrawRemainingBalance",
      "outputs": [],
      "stateMutability": "nonpayable",
      "type": "function"
    },
    {
      "stateMutability": "payable",
      "type": "receive"
    }
  ],
  "bytecode": "0x60806040523461002b5761001a6100146100df565b916102ac565b6040516154066105c9823961540690f35b600080fd5b634e487b7160e01b600052604160045260246000fd5b90601f01601f191681019081106001600160401b0382111761006757604052565b610030565b9061008061007960405190565b9283610046565b565b6001600160a01b031690565b90565b6001600160a01b0381160361002b57565b9050519061008082610091565b909160608284031261002b5761008e6100c884846100a2565b9360406100d882602087016100a2565b94016100a2565b6100fd6159cf803803806100f28161006c565b9283398101906100af565b909192565b61008261008e61008e9290565b61008e90610102565b1561011f57565b60405162461bcd60e51b815260206004820152601f60248201527f496e76616c696420706c6174666f726d2077616c6c65742061646472657373006044820152606490fd5b1561016b57565b60405162461bcd60e51b815260206004820152602260248201527f496e76616c6964206d796e6e437279707420636f6e7472616374206164647265604482015261737360f01b6064820152608490fd5b906001600160a01b03905b9181191691161790565b61008e90610082906001600160a01b031682565b61008e906101d0565b61008e906101e4565b9061020661008e61020d926101ed565b82546101bb565b9055565b61008e61008e61008e9290565b61022b61008e61008e9290565b60ff1690565b9061023b9061021e565b600052602052604060002090565b90600019906101c6565b9061026361008e61020d92610211565b8254610249565b634e487b7160e01b600052602160045260246000fd5b6002111561028a57565b61026a565b9061008082610280565b61008e9061028f565b9061023b90610299565b509061030361030a926102bd610529565b6102fc6102eb6102cd600061010f565b6100826001600160a01b0382166001600160a01b0386161415610118565b6001600160a01b0385161415610164565b60246101f6565b60256101f6565b61008061031d661cc6e836ae4000610211565b61040b60096103376001936103328584610231565b610253565b61035561034a664db2a62d3ce000610211565b610332600284610231565b61037361036866d1c8c0ad579000610211565b610332600384610231565b6103926103876702366ad507393800610211565b610332600484610231565b6103b16103a66705f953a59380e400610211565b610332600584610231565b6103d06103c56710212ea574a8ce00610211565b610332600684610231565b6103ef6103e4672b8ccabec0f0da00610211565b610332600784610231565b6103326008610405677595bd02df378c00610211565b92610231565b610332600861043961042467014c88b43efa0000610211565b9361043e600d9561033283610439818a6102a2565b610231565b6104616104526703804e996d180000610211565b6103326002610439858a6102a2565b6104846104756709729bfbece6a000610211565b6103326003610439858a6102a2565b6104a7610498671982f8a861d31000610211565b6103326004610439858a6102a2565b6104ca6104bb6744f3c49ebe843000610211565b6103326005610439858a6102a2565b6104ed6104de67ba28df4a39019000610211565b6103326006610439858a6102a2565b6105116105026801f7366ae948b6f000610211565b6103326007610439858a6102a2565b610523680551711a3b4dddd000610211565b946102a2565b61053161053a565b61008033610571565b61008061054c565b61008e6001610211565b610080610557610542565b6000610253565b61008e90610082565b61008e905461055e565b6105976105916105816001610567565b61058c8460016101f6565b6101ed565b916101ed565b907f8be0079c531659141344cd1fd0a4f28419497f9722a3daafe3b4186f6b6457e06105c260405190565b600090a356fe60806040526004361015610023575b361561001957600080fd5b610021613d3e565b005b60003560e01c8062955281146105d257806302477e84146105cd578063027b0df3146105c85780630ab61957146105c357806312a4cc1b146105be578063176cd601146105b957806318382de5146105b45780631bb91c2c146105af57806324f0ccd3146105aa57806326505a8a146105a55780632707161b146105a0578063276bc93f1461059b57806328fa2b45146105965780632bc3d7aa1461059157806336b43e551461058c57806337492e1d14610587578063392243e1146105825780633e0426b61461057d5780633e94c4851461057857806342ebca3f14610573578063455b2eee1461056e5780634628b6fd1461056957806347be985a146105645780634c02cacf1461055f5780634c55ec921461055a57806351057dbe1461055557806351d83767146105505780635bbf4bba1461054b5780635c814614146105465780635e7ab4d51461054157806362ac9b9e1461053c57806368987352146105375780636b92150c146105325780636f9fb98a1461052d578063715018a614610528578063716b8c2814610523578063728757d31461051e57806373f58a971461051957806375b5104c1461051457806378ba71591461050f5780637fbb51961461050a5780638720487e1461050557806387977de0146105005780638831e9cf146104fb578063885aa0e5146104f65780638aef16b8146104f15780638c4f4b83146104ec5780638da5cb5b146104e757806390936362146104e2578063922fb350146104dd5780639428f3fc146104d857806395ce40d3146104d357806397a6299b146104ce5780639e3bcb8d146104c9578063a10bc63f146104c4578063a3de08ff146104bf578063aff989b8146104ba578063b0532f33146104b5578063b18db672146104b0578063b2d1573f146104ab578063b7a03385146104a6578063b7c83f59146104a1578063b821a3c21461049c578063b91d53c614610497578063bfaa451f14610492578063bfb6f4cd1461048d578063c1b3724514610488578063c8e1f16314610483578063cd6b40be1461047e578063d0aeb82014610479578063d1b785dd14610474578063d56c55291461046f578063d6b0633f1461046a578063dbf63c2114610465578063def9635c14610460578063e304c1c31461045b578063e6512a9d14610456578063e96e930314610451578063ea0d5dcd1461044c578063ebf8d04214610447578063ecd0d2c414610442578063eda044a51461043d578063edc1eed014610438578063eec1083c14610433578063f0dcdd671461042e578063f16e4b8814610429578063f265848a14610424578063f2fde38b1461041f578063fa2af9da1461041a578063fbb73238146104155763feb5c1de0361000e57611836565b61180f565b6117e8565b6117c4565b6117a8565b61178d565b611760565b61172b565b611710565b6116e5565b6116ba565b61169f565b611667565b61163b565b611620565b6115f9565b6115ce565b6115b3565b611598565b61156d565b611541565b611512565b6114f7565b6114ce565b611475565b61145a565b61142f565b611407565b6113eb565b6113b9565b611378565b61134b565b611330565b611315565b6112e7565b6112cc565b6112a1565b611276565b61123c565b611220565b6111da565b61118a565b61115d565b611132565b61111e565b6110ea565b6110cf565b6110a7565b61108c565b61105e565b611043565b611006565b610fea565b610fbb565b610f90565b610f69565b610f2a565b610f0f565b610ef3565b610ec4565b610ea9565b610e7d565b610e32565b610e17565b610dd1565b610d58565b610d3c565b610d12565b610ce7565b610cbc565b610ca1565b610c79565b610c5e565b610c36565b610c07565b610bdc565b610bc3565b610ba8565b610b7d565b610b60565b610b45565b610b1e565b610b03565b610ad6565b610a9e565b610981565b6108b9565b6107ad565b61077e565b6106ea565b610635565b60009103126105e257565b600080fd5b6105fc916008021c5b6001600160a01b031690565b90565b906105fc91546105e7565b6105fc600060256105ff565b61061f906105f0565b9052565b6020810192916106339190610616565b565b346105e2576106453660046105d7565b61065c61065061060a565b60405191829182610623565b0390f35b610669816105f0565b036105e257565b9050359061063382610660565b906020828203126105e2576105fc91610670565b0190565b6106a56106a160089390565b9190565b6000915b8383106106b65750505050565b6106d06106c96001928451815260200190565b9260200190565b920191906106a9565b610100810192916106339190610695565b346105e25761065c61070561070036600461067d565b61195c565b604051918291826106d9565b6105fc906105f0906001600160a01b031682565b6105fc90610711565b6105fc90610725565b906107419061072e565b600052602052604060002090565b6105fc916008021c5b60ff1690565b906105fc915461074f565b60006107796105fc92600f610737565b61075e565b346105e25761065c61079961079436600461067d565b610769565b6040519182918260ff909116815260200190565b346105e25761065c6107c86107c336600461067d565b6119f2565b6040515b9182918290815260200190565b600211156105e257565b90503590610633826107d9565b60ff8116610669565b90503590610633826107f0565b91906040838203126105e2576105fc90602061082282866107e3565b94016107f9565b634e487b7160e01b600052602160045260246000fd5b6002111561084957565b610829565b906106338261083f565b6105fc9061084e565b9061074190610858565b6107586105fc6105fc9260ff1690565b906107419061086b565b6105fc916008021c81565b906105fc9154610885565b6108b46105fc926108af600093600b610861565b61087b565b610890565b346105e25761065c6107c86108cf366004610806565b9061089b565b80610669565b90503590610633826108d5565b90916060828403126105e2576105fc61090184846107e3565b93604061091182602087016107f9565b94016108db565b634e487b7160e01b600052603260045260246000fd5b805482101561095157610948600191600052602060002090565b91020190600090565b610918565b906108af610965926020610861565b80548210156105e2576105fc9161097b9161092e565b906105ff565b346105e25761065c6106506109973660046108e8565b91610956565b91906040838203126105e2576105fc9060206109b982866107f9565b94016107e3565b60005b8381106109d35750506000910152565b81810151838201526020016109c3565b610a04610a0d602093610691936109f8815190565b80835293849260200190565b958691016109c0565b601f01601f191690565b906105fc916109e3565b90610a37610a2d835190565b8083529160200190565b9081610a496020830284019460200190565b926000915b838310610a5d57505050505090565b90919293946020610a80610a7983856001950387528951610a17565b9760200190565b9301930191939290610a4e565b60208082526105fc92910190610a21565b346105e25761065c610aba610ab436600461099d565b90611d0c565b60405191829182610a8d565b60006107796105fc92601d610737565b346105e25761065c610af1610aec36600461067d565b610ac6565b60405191829182901515815260200190565b346105e257610b133660046105d7565b61065c6107c8611f1d565b346105e25761065c6107c8610b3436600461067d565b611f27565b6105fc60006027610890565b346105e257610b553660046105d7565b61065c6107c8610b39565b346105e257610b78610b7336600461067d565b612007565b604051005b346105e257610b8d3660046105d7565b61065c6107c8612010565b60006107796105fc92601e610737565b346105e25761065c610af1610bbe36600461067d565b610b98565b346105e257610b78610bd636600461099d565b90612393565b346105e257610bec3660046105d7565b61065c6107c861239d565b60006107796105fc92601f610737565b346105e25761065c610af1610c1d36600461067d565b610bf7565b906020828203126105e2576105fc916108db565b346105e257610b78610c49366004610c22565b6125b6565b60006107796105fc926005610737565b346105e25761065c610af1610c7436600461067d565b610c4e565b346105e25761065c610aba610c8f36600461099d565b906125bf565b6105fc60006029610890565b346105e257610cb13660046105d7565b61065c6107c8610c95565b346105e257610ccc3660046105d7565b61065c6107c8612746565b60006108b46105fc926012610737565b346105e25761065c6107c8610cfd36600461067d565b610cd7565b60006108b46105fc926014610737565b346105e25761065c6107c8610d2836600461067d565b610d02565b906108af61096592600a610861565b346105e25761065c610650610d523660046108e8565b91610d2d565b346105e257610d683660046105d7565b61065c6107c8612750565b90916060828403126105e2576105fc610d8c84846107f9565b9360406109b98260208701610670565b610dcd61063394610dc4606094989795610dbb608086019a6000870152565b15156020850152565b15156040830152565b0152565b346105e25761065c610ded610de7366004610d73565b9161279f565b90610dfa94929460405190565b94859485610d9c565b906020828203126105e2576105fc916107f9565b346105e25761065c610aba610e2d366004610e03565b612906565b346105e25761065c610705610e4836600461067d565b612a52565b91906040838203126105e2576105fc9060206108228286610670565b6108b46105fc926108af6000936017610737565b346105e25761065c6107c8610e93366004610e4d565b90610e69565b60006107796105fc92601a610737565b346105e25761065c610af1610ebf36600461067d565b610e99565b346105e25761065c610799610eda36600461067d565b612ab2565b6108b46105fc926108af6000936019610737565b346105e25761065c6107c8610f09366004610e4d565b90610edf565b346105e257610f1f3660046105d7565b61065c6107c8612ac9565b346105e257610f3a3660046105d7565b610b78612af3565b6105fc9081565b6105fc9054610f42565b6002610f636105fc92600761087b565b01610f49565b346105e25761065c6107c8610f7f366004610e03565b610f53565b6105fc60006028610890565b346105e257610fa03660046105d7565b61065c6107c8610f84565b60006107796105fc926004610737565b346105e25761065c610af1610fd136600461067d565b610fab565b6108b46105fc926108af6000936018610737565b346105e25761065c6107c8611000366004610e4d565b90610fd6565b346105e257610b7861101936600461067d565b612db5565b6105fc6105fc6105fc9290565b6105fc662386f26fc1000061101e565b6105fc61102b565b346105e2576110533660046105d7565b61065c6107c861103b565b346105e25761065c610aba61107436600461099d565b90612dbe565b6105fc600a61101e565b6105fc61107a565b346105e25761109c3660046105d7565b61065c6107c8611084565b346105e257610b786110ba36600461067d565b612f34565b60006108b46105fc926016610737565b346105e25761065c6107c86110e536600461067d565b6110bf565b346105e257610b786110fd366004610c22565b61302a565b91906040838203126105e2576105fc9060206109118286610670565b610b7861112c366004611102565b906131be565b346105e2576111423660046105d7565b61065c61065061335e565b60006108b46105fc926011610737565b346105e25761065c6107c861117336600461067d565b61114d565b6105fc600561101e565b6105fc611178565b346105e25761119a3660046105d7565b61065c6107c8611182565b610dcd610633946111d36111cb6060959998969960808601908682036000880152610a21565b986020850152565b6040830152565b346105e25761065c6111f66111f036600461099d565b90613368565b9061120394929460405190565b948594856111a5565b6108b46105fc926108af600093600d610861565b346105e25761065c6107c8611236366004610806565b9061120c565b346105e25761065c6107c861125236600461067d565b613564565b6107586105fc6105fc9290565b6105fc6008611257565b6105fc611264565b346105e2576112863660046105d7565b61065c61079961126e565b60006108b46105fc926015610737565b346105e25761065c6107c86112b736600461067d565b611291565b6002610f636105fc92600661087b565b346105e25761065c6107c86112e2366004610e03565b6112bc565b346105e25761065c6107c86112fd36600461099d565b9061357b565b6105fc603261101e565b6105fc611303565b346105e2576113253660046105d7565b61065c6107c861130d565b346105e25761065c6107c861134636600461067d565b613596565b346105e25761065c61079961136136600461067d565b6135ad565b6105fc602d61101e565b6105fc611366565b346105e2576113883660046105d7565b61065c6107c8611370565b610dcd610633946111d36060949897956113b2608086019a6000870152565b6020850152565b346105e25761065c6113d56113cf36600461099d565b906135c4565b906113e294929460405190565b94859485611393565b346105e25761065c6107c861140136600461099d565b90613634565b346105e2576114173660046105d7565b610b7861374d565b60006108b46105fc926013610737565b346105e25761065c6107c861144536600461067d565b61141f565b60006107796105fc926002610737565b346105e25761065c610af161147036600461067d565b61144a565b346105e25761065c61070561148b36600461067d565b613755565b801515610669565b9050359061063382611490565b90916060828403126105e2576105fc6114be8484610670565b9360406109b98260208701611498565b346105e257610b786114e13660046114a5565b916137f2565b60006107796105fc92600e610737565b346105e25761065c61079961150d36600461067d565b6114e7565b346105e25761065c610aba611528366004610e03565b6137fd565b6108b46105fc926108af600093600c610861565b346105e25761065c6107c8611557366004610806565b9061152d565b60006107796105fc92601c610737565b346105e25761065c610af161158336600461067d565b61155d565b60006108b46105fc92600961087b565b346105e25761065c6107c86115ae366004610e03565b611588565b346105e25761065c6107996115c936600461067d565b613941565b346105e2576115de3660046105d7565b61065c6107c8613958565b6002610f636105fc92600861087b565b346105e25761065c6107c861160f366004610e03565b6115e9565b6105fc60006026610890565b346105e2576116303660046105d7565b61065c6107c8611614565b346105e25761065c6107c861165136600461067d565b613962565b60208082526105fc929101906109e3565b346105e25761065c61168261167d36600461067d565b613a0e565b6040515b91829182611656565b60006107796105fc926003610737565b346105e25761065c610af16116b536600461067d565b61168f565b346105e25761065c6107c86116d036600461067d565b613b9b565b60006107796105fc92601b610737565b346105e25761065c610af16116fb36600461067d565b6116d5565b60006107796105fc926010610737565b346105e25761065c61079961172636600461067d565b611700565b346105e25761065c6107c8611741366004610d73565b91613bb2565b6105fc67016345785d8a000061101e565b6105fc611747565b346105e2576117703660046105d7565b61065c6107c8611758565b6105fc6006611257565b6105fc61177b565b346105e25761179d3660046105d7565b61065c610799611785565b346105e25761065c6107c86117be366004610e4d565b90613c4f565b346105e257610b786117d736600461067d565b613d35565b6105fc600060246105ff565b346105e2576117f83660046105d7565b61065c6106506117dc565b6105fc60006023610890565b346105e25761181f3660046105d7565b61065c6107c8611803565b6105fc60006022610890565b346105e2576118463660046105d7565b61065c6107c861182a565b634e487b7160e01b600052604160045260246000fd5b90601f01601f1916810190811067ffffffffffffffff82111761188957604052565b611851565b9061063361189b60405190565b9283611867565b67ffffffffffffffff81116118895760200290565b6118c36105fc916118a2565b61188e565b369037565b906106336118e36118dd846118b7565b936118a2565b836118c8565b6105fc60086118cd565b634e487b7160e01b600052601160045260246000fd5b60ff1660ff811461191a5760010190565b6118f3565b61192e9060ff165b9160ff1690565b90039060ff821161191a57565b906008811015610951576020020190565b6105fc6105fc6105fc9260ff1690565b6119646118e9565b5061196d6118e9565b906001809161197c6001611257565b915b611989575b50505090565b611994610758611264565b60ff8316116119ed576119e7826119e26119bc6119b787966108af876018610737565b610f49565b6119df6119d96119d46119ce89611257565b8661191f565b61194c565b8961193b565b52565b611909565b9161197e565b611983565b6119b76105fc91611a01600090565b506016610737565b9061069181602093610616565b6105fc906105f0565b6105fc9054611a16565b90611a4e611a42611a38845490565b8084529260200190565b92600052602060002090565b9060005b818110611a5f5750505090565b909192611a80611a79600192611a7487611a1f565b611a09565b9460010190565b929101611a52565b906105fc91611a29565b90610633611aac92611aa360405190565b93848092611a88565b0383611867565b6105fc90611a92565b67ffffffffffffffff81116118895760208091020190565b90611ae16118c383611abc565b918252565b60005b828110611af557505050565b606082820152602001611ae9565b90610633611b19611b1384611ad4565b93611abc565b601f190160208401611ae6565b90611b2f825190565b811015610951576020809102010190565b6105fc90516105f0565b634e487b7160e01b600052602260045260246000fd5b9060016002830492168015611b80575b6020831014611b7b57565b611b4a565b91607f1691611b70565b80546000939291611ba7611b9d83611b60565b8085529360200190565b9160018116908115611bf95750600114611bc057505050565b611bd39192939450600052602060002090565b916000925b818410611be55750500190565b805484840152602090930192600101611bd8565b92949550505060ff1916825215156020020190565b906105fc91611b8a565b90610633611aac92611c2960405190565b93848092611c0e565b6105fc90611c18565b67ffffffffffffffff811161188957602090601f01601f19160190565b90929192611c686118c382611c3b565b93818552818301116105e2576106339160208501906109c0565b9080601f830112156105e25781516105fc92602001611c58565b906020828203126105e257815167ffffffffffffffff81116105e2576105fc9201611c82565b6040513d6000823e3d90fd5b610691611ce692602092611ce0815190565b94859290565b938491016109c0565b67556e6b6e6f776e5f60c01b81526105fc91906008015b90611cce565b6001611d4c91939293611d1d606090565b50600094611d33611d2d8761084e565b9161084e565b03611f0a576105fc611d4691600661087b565b01611ab3565b611d5c611d57825190565b611b03565b611d658461101e565b611d706105fc845190565b811015611f0457611d9c611d976021611d91611d8c8588611b26565b611b40565b90610737565b611c32565b611da68284611b26565b52611db18183611b26565b50611dc4611dc0808385611b26565b5190565b611dd06106a18761101e565b14611de3575b600101611d65565b611d65565b611e2e9085611dfd611df8611df86025611a1f565b61072e565b611e0a611d8c8488611b26565b90611e1460405190565b948592839182916365f68c8960e01b835260048301610623565b03915afa8015611eff57611dde92600091611edd575b50611e4f8285611b26565b52611e5a8184611b26565b50611e69611dc0808386611b26565b611e756106a18861101e565b14611e82575b9050611dd6565b611ec2611e9a611e95611d8c8488611b26565b613e1d565b6105fc611ea660405190565b8092611eb6602083019182611cef565b90810382520382611867565b611ecc8285611b26565b52611ed78184611b26565b50611e7b565b611ef991503d8089833e611ef18183611867565b810190611c9c565b38611e44565b611cc2565b50925050565b6105fc611f1891600761087b565b611d46565b6105fc6029610f49565b6119b76105fc91611f36600090565b506012610737565b61063390611f4a61403b565b611fd7565b6105f06105fc6105fc9290565b6105fc90611f4f565b15611f6c57565b60405162461bcd60e51b815260206004820152600f60248201526e496e76616c6964206164647265737360881b6044820152606490fd5b0390fd5b906001600160a01b03905b9181191691161790565b90611fcc6105fc611fd39261072e565b8254611fa7565b9055565b61063390612000611ff0611feb6000611f5c565b6105f0565b611ff9836105f0565b1415611f65565b6025611fbc565b61063390611f3e565b6105fc6026610f49565b9061202c916120276140ae565b6121d0565b6106336140e0565b1561203b57565b60405162461bcd60e51b815260206004820152600c60248201526b496e76616c69642072616e6b60a01b6044820152606490fd5b6105fc90610758565b6105fc905461206f565b1561208957565b60405162461bcd60e51b8152602060048201526015602482015274135d5cdd081899481848191bdb9bdc88199a5c9cdd605a1b6044820152606490fd5b156120cd57565b60405162461bcd60e51b815260206004820152601260248201527120b63932b0b23c9030903932b1b2b4bb32b960711b6044820152606490fd5b1561210e57565b60405162461bcd60e51b815260206004820152601860248201527f416c726561647920696e2077616974696e6720717565756500000000000000006044820152606490fd5b916001600160a01b0360089290920291821b911b611fb2565b919061217d6105fc611fd39361072e565b908354612153565b90815491600160401b83101561188957826121a89160016106339501815561092e565b9061216c565b929160206121cb61063393604087019087820360008901526109e3565b940152565b6121da6001611257565b60ff8216101580612377575b6121ef90612034565b61220a61220561220033601e610737565b612078565b612082565b61222761222261221e61220033601f610737565b1590565b6120c6565b612231600061084e565b61223a8361084e565b036123635761224d6105fc82600661087b565b915b61226561226061221e8533866140eb565b612107565b612272611d2d600061084e565b0361235057612285612200336002610737565b6122ed577f75923699577285aeee0f2452cc72e4bb265c34236afa949e38f10bac9d043c50906122d26122cc60016122bc3361415b565b95016122c83382612185565b5490565b9161086b565b926122e86122df60405190565b928392836121ae565b0390a2565b50506122f83361072e565b7fe75c9ee29599690e44dc56b1f00d3447c63d81b97494a1acba06cfbe86f21ac661232260405190565b60208082526010908201526f6a6f696e57616974696e67517565756560801b604082015280606081016122e8565b61235e612200336003610737565b612285565b6123716105fc82600761087b565b9161224f565b506121ef612386610758611264565b60ff8316111590506121e6565b906106339161201a565b6105fc6023610f49565b610633906123b361403b565b61202c906123bf6140ae565b6124fa565b156123cb57565b60405162461bcd60e51b815280611fa3600482016020808252818101527f416d6f756e74206d7573742062652067726561746572207468616e207a65726f604082015260600190565b1561241b57565b60405162461bcd60e51b815260206004820152601b60248201527f496e73756666696369656e742070726f6d6f74696f6e20706f6f6c00000000006044820152606490fd5b9190820391821161191a57565b9060001990611fb2565b906124876105fc611fd39261101e565b825461246d565b90611ae16118c383611c3b565b3d156124b5576124aa3d61248e565b903d6000602084013e565b606090565b156124c157565b60405162461bcd60e51b815260206004820152601160248201527015da5d1a191c985dd85b0819985a5b1959607a1b6044820152606490fd5b60008061255d9261251461250d8361101e565b82116123c4565b6125296125216023610f49565b821115612414565b61254661253f8261253a6023610f49565b612460565b6023612477565b604051600091335af161255761249b565b506124ba565b6000805160206153b18339815191526125b16125796023610f49565b604051918291829081526040602082018190526010908201526f22bc31b2b9b9902bb4ba34323930bbb760811b606082015260800190565b0390a1565b610633906123a7565b6125df6125e4919392936125d1606090565b506108af6020956020610861565b611ab3565b916125f0611d57845190565b6000936125fc8561101e565b6126076105fc835190565b81101561273e57612623611d976021611d91611d8c8587611b26565b61262d8285611b26565b526126388184611b26565b50612647611dc0808386611b26565b6126536106a18861101e565b14612666575b6001016125fc565b6125fc565b612688908661267b611df8611df86025611a1f565b611e0a611d8c8487611b26565b03915afa8015611eff5761266192600091612725575b506126a98286611b26565b526126b48185611b26565b506126c3611dc0808387611b26565b6126cf6106a18961101e565b146126dc575b9050612659565b61270a6126ef611e95611d8c8487611b26565b6105fc6126fb60405190565b8092611eb68a83019182611cef565b6127148286611b26565b5261271f8185611b26565b506126d5565b612738913d8091833e611ef18183611867565b3861269e565b509093505050565b6105fc6022610f49565b6105fc6028610f49565b9190820180921161191a57565b634e487b7160e01b600052601260045260246000fd5b8115612787570490565b612767565b8181029291811591840414171561191a57565b909290916000916127af8361084e565b6127b88361084e565b036128f2576127cb6105fc85600661087b565b935b6127d68461101e565b92839685855b600189016127eb6105fc825490565b8210156128ea5761097b826127ff9261092e565b61281161280b856105f0565b916105f0565b1461281e576001016127dc565b9850506128366001986128308a61101e565b9061275a565b97955b80865b818a0161284a6105fc825490565b8210156128db5761097b8261285e9261092e565b61286a61280b866105f0565b146128775760010161283c565b505050509091929394506001935b808711806128be575b156128b857506128ac6119b76105fc936108af6128b294600c610861565b4261277d565b8561278c565b91505090565b50806128d56105fc6119b7866108af87600c610861565b1161288e565b50505095965050909192612885565b505095612839565b6129006105fc85600761087b565b936127cd565b6001611d4661291f92612917606090565b50600861087b565b9061292b611d57835190565b916000926129388461101e565b6129436105fc845190565b811015611f045761295f611d976021611d91611d8c8588611b26565b6129698284611b26565b526129748183611b26565b50612983611dc0808385611b26565b61298f6106a18761101e565b146129a2575b600101612938565b612938565b6129b79085611dfd611df8611df86025611a1f565b03915afa8015611eff5761299d92600091612a39575b506129d88285611b26565b526129e38184611b26565b506129f2611dc0808386611b26565b6129fe6106a18861101e565b14612a0b575b9050612995565b612a1e611e9a611e95611d8c8488611b26565b612a288285611b26565b52612a338184611b26565b50612a04565b612a4c913d8091833e611ef18183611867565b386129cd565b612a5a6118e9565b50612a636118e9565b9060018091612a726001611257565b915b612a7e5750505090565b612a89610758611264565b60ff8316116119ed57612aac826119e26119bc6119b787966108af876017610737565b91612a74565b6122006105fc91612ac1600090565b50600f610737565b612ad23061072e565b3190565b612ade61403b565b610633610633612aee6000611f5c565b61418c565b610633612ad6565b61202c90612b076140ae565b612ca4565b634e487b7160e01b600052600060045260246000fd5b9160001960089290920291821b911b611fb2565b9190612b476105fc611fd39361101e565b908354612b22565b61063391600091612b36565b818110612b66575050565b80612b746000600193612b4f565b01612b5b565b9190601f8111612b8957505050565b612b9b61063393600052602060002090565b906020601f840181900483019310612bbd575b6020601f909101040190612b5b565b9091508190612bae565b90612bd0815190565b9067ffffffffffffffff821161188957612bf482612bee8554611b60565b85612b7a565b602090601f8311600114612c2f57611fd3929160009183612c24575b5050600019600883021c1916906002021790565b015190503880612c10565b601f19831691612c4485600052602060002090565b9260005b818110612c8257509160029391856001969410612c69575b50505002019055565b01516000196008601f8516021c19169055388080612c60565b91936020600181928787015181550195019201612c48565b9061063391612bc7565b612cb4611ff0611feb6000611f5c565b612cc4611df8611df86025611a1f565b906000612cd060405190565b9283906365f68c8960e01b82528180612cec8660048301610623565b03915afa918215611eff57600092612d9a575b508151612d0f6106a1600061101e565b14612d5b575b6122e8612d5182611df885612d4c7ff945ca509f254b56a456af10be8ee84da7722c7f32f9ee3eae336529525dc39a966021610737565b612c9a565b9261168660405190565b90507ff945ca509f254b56a456af10be8ee84da7722c7f32f9ee3eae336529525dc39a6122e8612d51612d90611e9a85613e1d565b9392505050612d15565b612dae91923d8091833e611ef18183611867565b9038612cff565b61063390612afb565b6125df906108af612dd993612dd1606090565b50600a610861565b90612de5611d57835190565b91600092612df28461101e565b612dfd6105fc845190565b811015611f0457612e19611d976021611d91611d8c8588611b26565b612e238284611b26565b52612e2e8183611b26565b50612e3d611dc0808385611b26565b612e496106a18761101e565b14612e5c575b600101612df2565b612df2565b612e719085611dfd611df8611df86025611a1f565b03915afa8015611eff57612e5792600091612ef3575b50612e928285611b26565b52612e9d8184611b26565b50612eac611dc0808386611b26565b612eb86106a18861101e565b14612ec5575b9050612e4f565b612ed8611e9a611e95611d8c8488611b26565b612ee28285611b26565b52612eed8184611b26565b50612ebe565b612f0791503d8089833e611ef18183611867565b38612e87565b61063390612f1961403b565b61063390612f2d611ff0611feb6000611f5c565b6024611fbc565b61063390612f0d565b61063390612f4961403b565b61202c90612f556140ae565b612fa6565b15612f6157565b60405162461bcd60e51b815260206004820152601960248201527f496e73756666696369656e74206578636573732066756e6473000000000000006044820152606490fd5b600080612ffc92612fb961250d8361101e565b612fe4612fc66022610f49565b612fdd6106a16105fc85612fd8611747565b61275a565b1015612f5a565b612546612ff58261253a6022610f49565b6022612477565b7fdffdcf1650221d40ebc28c7dee9c29c0c25d60f62413f22fc2f40232f0570c926125b16125796022610f49565b61063390612f3d565b6080808252601b908201527f7265636569766546726f6d4d796e6e43727970742063616c6c6564000000000060a0820152909392610633929091606091610dcd906111d360c084015b986020850190610616565b1561308e57565b60405162461bcd60e51b815260206004820152600e60248201526d125b9d985b1a5908185b5bdd5b9d60921b6044820152606490fd5b60808082526018908201527f416d6f756e742076616c69646174696f6e20706173736564000000000000000060a0820152909392610633929091606091610dcd906111d360c0840161307c565b60808082526010908201526f155cd95c881251081bd89d185a5b995960821b60a0820152909392610633929091606091610dcd906111d360c0840161307c565b9060ff90611fb2565b9061316a6105fc611fd392151590565b8254613151565b6080808252601e908201527f7265636569766546726f6d4d796e6e437279707420636f6d706c65746564000060a0820152909392610633929091606091610dcd906111d360c0840161307c565b7f1452f9ee684da2ce4da9741b18a974453693b1ed9f66d0256f7e03dd1f8d065d91826131ea60405190565b806131f734858784613033565b0390a1613205813414613087565b8261320f60405190565b8061321c348587846130c4565b0390a161322f661cc6e836ae400061101e565b81036132fb5760005b7f79c48e52778f336d71fd7205d9bbb6344ff7f03a36e5c99ba233c768c684f5c6826132638561415b565b8661326d60405190565b8061327a34868b84613111565b0390a1613287600061084e565b6132908561084e565b036132e6576132aa60016132a5886004610737565b61315a565b6132c06132b76001611257565b948388876141de565b6132cc6122df60405190565b0390a26125b16132db60405190565b928392349184613171565b6132f660016132a5886005610737565b6132aa565b61330c67014c88b43efa000061101e565b8103613319576001613238565b60405162461bcd60e51b815260206004820152601d60248201527f496e76616c6964206d796e6e4769667420656e74727920616d6f756e740000006044820152606490fd5b6105fc6001611a1f565b600092916133758461084e565b61337e8261084e565b03613550576133916105fc83600661087b565b925b848401926133a2611d57855490565b926133ac8761101e565b6133b76105fc875490565b8110156134d3576133d3611d976021611d9161097b858b61092e565b6133dd8287611b26565b526133e88186611b26565b506133f7611dc0808388611b26565b6134036106a18a61101e565b14613416575b6001016133ac565b6133ac565b613438908861342b611df8611df86025611a1f565b611e0a61097b848b61092e565b03915afa8015611eff57613411926000916134ba575b506134598288611b26565b526134648187611b26565b50613473611dc0808389611b26565b61347f6106a18b61101e565b1461348c575b9050613409565b61349f611e9a611e9561097b848b61092e565b6134a98288611b26565b526134b48187611b26565b50613485565b6134cd913d8091833e611ef18183611867565b3861344e565b506134f2611d2d6134ec60026135319697989901610f49565b9861084e565b03613538576119b761350591600961087b565b61253a61352b61352661351661177b565b936135208561194c565b9061278c565b965490565b9161194c565b9193929190565b6119b761354b916108af6001600d610861565b613505565b61355e6105fc83600761087b565b92613393565b6119b76105fc91613573600090565b506013610737565b6119b7906108af6105fc9361358e600090565b50600b610861565b6119b76105fc916135a5600090565b506015610737565b6122006105fc916135bc600090565b506010610737565b6135ce600061084e565b6135d78361084e565b03613620576135ea6105fc82600661087b565b925b6135316119b76135fd600187015490565b936108af613618600261361160008b015490565b9901610f49565b96600c610861565b61362e6105fc82600761087b565b926135ec565b6119b7906108af6105fc93613647600090565b50600c610861565b61365761403b565b6106336136626140ae565b61202c6136ba565b1561367157565b60405162461bcd60e51b815280611fa3600482016020808252818101527f4e6f2072656d61696e696e672062616c616e636520746f207769746864726177604082015260600190565b6136e46136c63061072e565b316136de6136d46023610f49565b6128306022610f49565b90612460565b6136f86136f1600061101e565b821161366a565b61371660008061370760405190565b60009085335af161255761249b565b7fbdada6c6710e8442230a121675c891b033d6f380375fe10ebee0d13fa56698716122e86137433361072e565b926107cc60405190565b61063361364f565b61375d6118e9565b506137666118e9565b90600180916137756001611257565b915b6137815750505090565b61378c610758611264565b60ff8316116119ed576137af826119e26119bc6119b787966108af876019610737565b91613777565b9061063392916137c361403b565b916137d1611d2d600061084e565b036137e4576132a5610633926002610737565b6132a5610633926003610737565b9061063392916137b5565b6000611d4661380e92612917606090565b9061381a611d57835190565b916000926138278461101e565b6138326105fc845190565b811015611f045761384e611d976021611d91611d8c8588611b26565b6138588284611b26565b526138638183611b26565b50613872611dc0808385611b26565b61387e6106a18761101e565b14613891575b600101613827565b613827565b6138a69085611dfd611df8611df86025611a1f565b03915afa8015611eff5761388c92600091613928575b506138c78285611b26565b526138d28184611b26565b506138e1611dc0808386611b26565b6138ed6106a18861101e565b146138fa575b9050613884565b61390d611e9a611e95611d8c8488611b26565b6139178285611b26565b526139228184611b26565b506138f3565b61393b913d8091833e611ef18183611867565b386138bc565b6122006105fc91613950600090565b50600e610737565b6105fc6027610f49565b6119b76105fc91613971600090565b506011610737565b71088dedcdee4404c40a0cadccae4d2dac240560731b81526105fc916139a191601201611d06565b602960f81b815260010190565b66088dedcdee440560cb1b81526105fc916139a191600701611d06565b690a0cadccae4d2dac240560b31b81526105fc916139a191600a01611d06565b6c0a8d2c8c2d64082d6e8d2cc405609b1b81526105fc916139a191600d01611d06565b613a1c611d97826021610737565b90613a25825190565b613a326106a1600061101e565b14613b0a575b613a4661220082601e610737565b80613af6575b613ad557613a5e61220082601e610737565b613ab457612200613a7091601f610737565b613a94576105fc906105fc613a8460405190565b8092611eb66020830191826139eb565b6105fc906105fc613aa460405190565b8092611eb66020830191826139cb565b506105fc906105fc613ac560405190565b8092611eb66020830191826139ae565b506105fc906105fc613ae660405190565b8092611eb6602083019182613979565b50613b0561220082601f610737565b613a4c565b9050613b1c611df8611df86025611a1f565b906000613b2860405190565b9283906365f68c8960e01b82528180613b448660048301610623565b03915afa918215611eff57600092613b80575b508151613b676106a1600061101e565b03613a38579050613b7a611e9a82613e1d565b90613a38565b613b9491923d8091833e611ef18183611867565b9038613b57565b6119b76105fc91613baa600090565b506014610737565b9091613bc1611d2d600061084e565b03613c3b576105fc613bd491600661087b565b905b613be0600061101e565b60018301613bef6105fc825490565b821015613c2d5761097b82613c039261092e565b613c0f61280b846105f0565b14613c1c57600101613be0565b90506105fc9150612830600161101e565b505050506105fc600061101e565b6105fc613c4991600761087b565b90613bd6565b6105fc916108af6119b792613c62600090565b50613c6d6001611257565b60ff8416101580613c89575b613c8290612034565b6019610737565b50613c82613c98610758611264565b60ff851611159050613c79565b61063390613cb161403b565b613d11565b15613cbd57565b60405162461bcd60e51b815260206004820152602660248201527f4f776e61626c653a206e6577206f776e657220697320746865207a65726f206160448201526564647265737360d01b6064820152608490fd5b61063390612aee613d25611feb6000611f5c565b613d2e836105f0565b1415613cb6565b61063390613ca5565b613d496000346142be565b613d56611df86024611a1f565b7fbdada6c6710e8442230a121675c891b033d6f380375fe10ebee0d13fa5669871613d8060405190565b34815280602081016122e8565b613d97601061248e565b6f181899199a1a9b1b9c1cb0b131b232b360811b602082015290565b6105fc613d8d565b90610633613dd1613dcb8461248e565b93611c3b565b601f1901602084016118c8565b90613de7825190565b811015610951570160200190565b6105fc9081906001600160a01b031681565b6105fc90613e186106a16105fc9490565b901c90565b90613e26613db3565b613e38613e33602a61101e565b613dbb565b906000906030613e50613e4a8461101e565b85613dde565b53613e80613e7b600f60fb1b96600197851a613e75613e6f600161101e565b88613dde565b53610725565b613df5565b9085613e8b8461101e565b905b613e9f575b505050506105fc91925090565b613ea9601461101e565b811015613fe6576013600882613ebe8361101e565b90613ec891612460565b613ed18261101e565b90613edb9161278c565b613ee5600461101e565b613eee9161275a565b613ef89086613e07565b9083600f92613f068461101e565b16613f119087613dde565b516001600160f81b03191693600294613f298661101e565b613f33908461278c565b613f3c8761101e565b90613f469161275a565b908a1a90613f54908c613dde565b53613f5e9061101e565b90613f6891612460565b90613f729061101e565b90613f7c9161278c565b613f869086613e07565b90613f909061101e565b16613f9b9084613dde565b516001600160f81b03191690613fb09061101e565b613fba908361278c565b613fc4600361101e565b90613fce9161275a565b90851a90613fdc9087613dde565b5360010186613e8d565b613e92565b15613ff257565b60405162461bcd60e51b815280611fa3600482016020808252818101527f4f776e61626c653a2063616c6c6572206973206e6f7420746865206f776e6572604082015260600190565b61063361404661335e565b61405261280b336105f0565b14613feb565b6105fc600261101e565b1561406957565b60405162461bcd60e51b815260206004820152601f60248201527f5265656e7472616e637947756172643a207265656e7472616e742063616c6c006044820152606490fd5b6106336140bb6000610f49565b6140cf6140c6614058565b91821415614062565b6000612477565b6105fc600161101e565b6106336140cf6140d6565b506140f6600061101e565b600183016141056105fc825490565b82101561413a5761097b826141199261092e565b61412561280b846105f0565b14614132576001016140f6565b505050600190565b50505050600090565b64544553545f60d81b81526105fc9190600501611d06565b6141706105fc9161416a606090565b50613e1d565b6105fc61417c60405190565b8092611eb6602083019182614143565b6141ad6141a761419c6001611a1f565b611df8846001611fbc565b9161072e565b907f8be0079c531659141344cd1fd0a4f28419497f9722a3daafe3b4186f6b6457e06141d860405190565b600090a3565b919092614227906141ef600061084e565b6141f88261084e565b03614253578361420c6105fc82600661087b565b61422283868361421b8b61415b565b9a866143aa565b6145e6565b7f79c48e52778f336d71fd7205d9bbb6344ff7f03a36e5c99ba233c768c684f5c6926122d2915061086b565b836142626105fc82600761087b565b61420c565b1561426e57565b60405162461bcd60e51b815260206004820152602260248201527f5472616e7366657220746f20706c6174666f726d2077616c6c6574206661696c604482015261195960f21b6064820152608490fd5b906142c9600061101e565b82116142d3575050565b6142eb6142e483612fd86027610f49565b6027612477565b6142f8611d2d600061084e565b0361436e5761431561430e82612fd86028610f49565b6028612477565b61433d6000806143256024611a1f565b60405160009186905af161433761249b565b50614267565b7fbdada6c6710e8442230a121675c891b033d6f380375fe10ebee0d13fa56698716122e8613743611df86024611a1f565b61438661437f82612fd86029610f49565b6029612477565b614315565b9061316a6105fc611fd39261086b565b600019811461191a5760010190565b926144df908461448494610633976143cb866143c66000850190565b612185565b61440e6000926143da8461084e565b6143e38461084e565b036145c85761440860026143fb6119b788600961087b565b925b0191612fd883610f49565b90612477565b61441a611d2d8361084e565b0361452c576144b7916108af6144a69261443a60016132a58a601a610737565b614455614448896011610737565b61440888612fd883610f49565b614489600e6144676122008b83610737565b61447360ff8716611927565b101561451b576144848a8692610737565b61438b565b61449f886143c66105fc866108af86600a610861565b600b610861565b6144086144b282610f49565b61439b565b6144c760016132a585601e610737565b6144086144d5846015610737565b91612fd883610f49565b6010926144ef6122008386610737565b6144fb60ff8316611927565b10156145075792610737565b506145156122008285610737565b92610737565b6144848a6145156122008285610737565b505061453e60016132a585601b610737565b61455961454c846012610737565b61440883612fd883610f49565b614588600f61456b6122008683610737565b61457760ff8916611927565b10156145b757614484858892610737565b61459f836143c66105fc886108af6001600a610861565b6145b26144a6866108af6001600b610861565b6144b7565b614484856145156122008285610737565b61440860026145e06119b7886108af6001600d610861565b926143fd565b80546145f66106a16119d461177b565b036149095761460760028201610f49565b916001820191614615835490565b936000946146256106a18761101e565b036147685761463486826142be565b7f2fbf8158f1441d3df02ca4d624b44312c8832e1c8e11e99f12ccac753ef091f56146616137438561086b565b0390a25b61466e8461101e565b84820161467c6105fc825490565b821015614753579061469461097b826146ce9461092e565b61469d8761084e565b6146a68961084e565b03614742576146bc61221e612200836002610737565b8061472e575b6146d3575b5060010190565b61466e565b6146e66146df8261415b565b9187612185565b7f75923699577285aeee0f2452cc72e4bb265c34236afa949e38f10bac9d043c5061470f875490565b6147188761086b565b926147256122df60405190565b0390a2386146c7565b5061473d61221e8583886140eb565b6146c2565b6146bc61221e612200836003610737565b5050909150614763939250614dac565b600190565b856147a76148d882868561487661253f6147f36147ec6147d16147c86147bf6147b66147ad61479e614798611303565b8b61278c565b60649e8f61101e565b9061277d565b98613520611366565b6147a78d61101e565b9c613520611178565b6147a78b61101e565b986147a76147e66147e061107a565b8c61278c565b9161101e565b8098612460565b98614806612ff58b99612fd86022610f49565b7fdffdcf1650221d40ebc28c7dee9c29c0c25d60f62413f22fc2f40232f0570c926148696148346022610f49565b60405191829182908152604060208201819052600d908201526c14dd589cda591e481059191959609a1b606082015260800190565b0390a1612fd86023610f49565b6000805160206153b18339815191526148cf6148926023610f49565b6040519182918290815260406020820181905260159082015274141c9bdb5bdd1a5bdb8814da185c99481059191959605a1b606082015260800190565b0390a18761494f565b6148f3936148e58961101e565b82116148f8575b50506142be565b614665565b614902925061275a565b38806148ec565b505050600090565b1561491857565b60405162461bcd60e51b815260206004820152600f60248201526e151c985b9cd9995c8819985a5b1959608a1b6044820152606490fd5b909290600181019061495f825490565b9360009461496f6106a18761101e565b1161497c57505050505090565b61499061097b86859799949598969861092e565b938461499b8961084e565b6149a48961084e565b03614cb5576122006149b7916002610737565b9490945b8080614c9f575b15614a3357506149e4906149de6149d88a61101e565b86614f02565b86612185565b6149f161097b888761092e565b93846149fc8961084e565b614a058961084e565b03614a2057612200614a18916002610737565b9490946149bb565b612200614a2e916003610737565b614a18565b90929795509593909295614c8857614a4a8261415b565b94614a548161084e565b614a5d8661084e565b03614c3c57614a7260016132a585601c610737565b614a8d614a80846013610737565b61440884612fd883610f49565b614a9f614a80856108af866017610737565b614ab5836143c66105fc876108af866020610861565b600191614ac7836132a586601f610737565b614ad561454c856016610737565b614ae761454c866108af876019610737565b614b07614b00614af68561101e565b612fd86026610f49565b6026612477565b614b1a614b138361101e565b8099614f02565b614b438280614b2b611df88861072e565b60405160009186905af1614b3d61249b565b50614911565b7f939437a4ca54745f0091a433139d20b352bc6017fded2fd246fb962daffcf7dd614b91614b7d614b78612200886010610737565b61086b565b92614b8760405190565b9182918b836121ae565b0390a2614b9c611264565b60ff811660ff86161015614bb7575050506105fc9350614ffe565b919493909291614bc99060ff16611927565b14614bd7575b505050505090565b7fd9b361bf47fe2618337a293b75315fa7bbdbf002954171bd524823ec6698574e93614c2093614c0c611d2d612d519561084e565b03614c2d57611df8906132a5836002610737565b0390a23880808080614bcf565b611df8906132a5836003610737565b614c4c60016132a585601d610737565b614c5a614a80846014610737565b614c6c614a80856108af866018610737565b614c83836143c66105fc876108af60016020610861565b614ab5565b9492505050614c996105fc9261101e565b90614f02565b508654614caf6106a1600161101e565b116149c2565b612200614a18916003610737565b90614cd26106c9611a38845190565b9060005b818110614ce35750505090565b909192614cfd614cf66001928651611a09565b9460200190565b929101614cd6565b9081526040602082018190526105fc92910190614cc3565b818110614d28575050565b80614d366000600193612b4f565b01614d1d565b919091828210614d4b57505050565b6106339291614d609091600052602060002090565b9182019101614d1d565b90600160401b81116118895781614d82610633935490565b90828155614d3c565b600061063391614d6a565b90600003614da75761063390614d8b565b612b0c565b906000614e6991614e427f8fd30f9875f939ce22bfbb821d5511184258442cd8ea4739ae1a7184a5f902ea61063396614ded6144a6856108af84600c610861565b614e4c6119b7868901956108af614e0388611ab3565b94614e0c865190565b7f4139a9525f08064b4ecf5a22fed43ad96f5c36beded45f12e36b7c6c9c7ea601614e368561086b565b998a926107cc60405190565b0390a2600c610861565b614e61614e5860405190565b92839283614d05565b0390a2614d96565b6002614e75600061101e565b9101612477565b15614e8357565b60405162461bcd60e51b815260206004820152600d60248201526c092dcecc2d8d2c840d2dcc8caf609b1b6044820152606490fd5b634e487b7160e01b600052603160045260246000fd5b6106339160009161216c565b80548015614efd576000190190614efa614ef4838361092e565b90614ece565b55565b614eb8565b9190916001810192614f1f614f186105fc865490565b8210614e7c565b8354614f336105fc6001926136de8461101e565b821015614f785790614f6d826121a883614f6761097b614f61614f5b614f73998b019661101e565b8461275a565b8561092e565b9261092e565b60010190565b614f1f565b50505090614f866106339190565b614eda565b614f979060ff16611927565b019060ff821161191a57565b15614faa57565b60405162461bcd60e51b815260206004820152602660248201527f496e73756666696369656e742066756e647320696e20676173207375627369646044820152651e481c1bdbdb60d21b6064820152608490fd5b9161501460019261500e84611257565b90614f8b565b61501c611264565b9360ff851660ff83161115615033575b5050505050565b60009161503f8361084e565b6150488561084e565b0361539d5761505b612200836002610737565b61533a576150688361084e565b6150718561084e565b03615322576150846119b782600961087b565b955b61508f8361415b565b9661509a6023610f49565b81116151b7576150b161253f8261253a6023610f49565b6150bd868286866141de565b61515f91611927917fda692c94204f345b3571e5068d01d3ba5feb073181536206d2ec90648b2a50696150ef8661086b565b918b6150fd6122df60405190565b0390a26000805160206153b183398151915261515661511c6023610f49565b6040519182918290815260406020820181905260129082015271141c9bdb5bdd1a5bdb881119591d58dd195960721b606082015260800190565b0390a160ff1690565b14615175575b50505050505b388080808061502c565b7fd9b361bf47fe2618337a293b75315fa7bbdbf002954171bd524823ec6698574e936151aa93614c0c611d2d612d519561084e565b0390a23880808080615165565b6151fb612ff56151d06151ca6023610f49565b84612460565b6151e56151dd6022610f49565b821115614fa3565b6151f161253f8961101e565b61253a6022610f49565b615207868286866141de565b6152d091611927917fda692c94204f345b3571e5068d01d3ba5feb073181536206d2ec90648b2a50696152398661086b565b918b6152476122df60405190565b0390a26000805160206153b183398151915261526661511c6023610f49565b0390a17fdffdcf1650221d40ebc28c7dee9c29c0c25d60f62413f22fc2f40232f0570c926151566152976022610f49565b604051918291829081526040602082018190526011908201527014da1bdc9d19985b1b0810dbdd995c9959607a1b606082015260800190565b146152e0575b505050505061516b565b7fd9b361bf47fe2618337a293b75315fa7bbdbf002954171bd524823ec6698574e9361531593614c0c611d2d612d519561084e565b0390a238808080806152d6565b6153346119b7826108af88600d610861565b95615086565b5092505050615349915061072e565b7fe75c9ee29599690e44dc56b1f00d3447c63d81b97494a1acba06cfbe86f21ac661537360405190565b6020808252600c908201526b5f6175746f50726f6d6f746560a01b604082015280606081016122e8565b6153ab612200836003610737565b61505b56fefd2ea02a0529b94bb7faea0148f0e6cfcbf8adefa48aba6ca43399da68e81a50a26469706673582212203132d0f3489b440f5ddd3af52d2afc6c72b1b3cb653d921a097d8e4b6086762564736f6c634300081a0033",
  "linkReferences": {},
  "deployedLinkReferences": {}
}