{
  "_format": "hh-sol-artifact-1",
  "contractName": "MynnGift",
  "sourceName": "contracts/mynnGift.sol",
  "abi": [
    {
      "inputs": [
        {
          "internalType": "address",
          "name": "",
          "type": "address"
        },
        {
          "internalType": "address",
          "name": "_platformWallet",
          "type": "address"
        },
        {
          "internalType": "address",
          "name": "_mynnCryptContract",
          "type": "address"
        }
      ],
      "stateMutability": "nonpayable",
      "type": "constructor"
    },
    {
      "anonymous": false,
      "inputs": [
        {
          "indexed": false,
          "internalType": "string",
          "name": "userId",
          "type": "string"
        },
        {
          "indexed": true,
          "internalType": "uint8",
          "name": "newRank",
          "type": "uint8"
        },
        {
          "indexed": false,
          "internalType": "uint256",
          "name": "amount",
          "type": "uint256"
        }
      ],
      "name": "AutoPromotedToNextRank",
      "type": "event"
    },
    {
      "anonymous": false,
      "inputs": [
        {
          "indexed": false,
          "internalType": "string",
          "name": "message",
          "type": "string"
        },
        {
          "indexed": false,
          "internalType": "address",
          "name": "user",
          "type": "address"
        },
        {
          "indexed": false,
          "internalType": "uint256",
          "name": "amount",
          "type": "uint256"
        },
        {
          "indexed": false,
          "internalType": "uint256",
          "name": "msgValue",
          "type": "uint256"
        }
      ],
      "name": "DebugInfo",
      "type": "event"
    },
    {
      "anonymous": false,
      "inputs": [
        {
          "indexed": false,
          "internalType": "string",
          "name": "userId",
          "type": "string"
        },
        {
          "indexed": true,
          "internalType": "uint8",
          "name": "rank",
          "type": "uint8"
        },
        {
          "indexed": false,
          "internalType": "uint256",
          "name": "amount",
          "type": "uint256"
        }
      ],
      "name": "DonationReceived",
      "type": "event"
    },
    {
      "anonymous": false,
      "inputs": [
        {
          "indexed": true,
          "internalType": "address",
          "name": "user",
          "type": "address"
        },
        {
          "indexed": false,
          "internalType": "uint256",
          "name": "amount",
          "type": "uint256"
        }
      ],
      "name": "GasSubsidyPaid",
      "type": "event"
    },
    {
      "anonymous": false,
      "inputs": [
        {
          "indexed": false,
          "internalType": "uint256",
          "name": "newBalance",
          "type": "uint256"
        },
        {
          "indexed": false,
          "internalType": "string",
          "name": "action",
          "type": "string"
        }
      ],
      "name": "GasSubsidyPoolUpdated",
      "type": "event"
    },
    {
      "anonymous": false,
      "inputs": [
        {
          "indexed": false,
          "internalType": "uint256",
          "name": "totalAmount",
          "type": "uint256"
        },
        {
          "indexed": true,
          "internalType": "uint8",
          "name": "rank",
          "type": "uint8"
        }
      ],
      "name": "NoReceiverAllFundsToPlatform",
      "type": "event"
    },
    {
      "anonymous": false,
      "inputs": [
        {
          "indexed": true,
          "internalType": "address",
          "name": "previousOwner",
          "type": "address"
        },
        {
          "indexed": true,
          "internalType": "address",
          "name": "newOwner",
          "type": "address"
        }
      ],
      "name": "OwnershipTransferred",
      "type": "event"
    },
    {
      "anonymous": false,
      "inputs": [
        {
          "indexed": true,
          "internalType": "address",
          "name": "wallet",
          "type": "address"
        },
        {
          "indexed": false,
          "internalType": "uint256",
          "name": "amount",
          "type": "uint256"
        }
      ],
      "name": "PlatformFundsTransferred",
      "type": "event"
    },
    {
      "anonymous": false,
      "inputs": [
        {
          "indexed": false,
          "internalType": "uint256",
          "name": "newBalance",
          "type": "uint256"
        },
        {
          "indexed": false,
          "internalType": "string",
          "name": "action",
          "type": "string"
        }
      ],
      "name": "PromotionPoolUpdated",
      "type": "event"
    },
    {
      "anonymous": false,
      "inputs": [
        {
          "indexed": true,
          "internalType": "address",
          "name": "user",
          "type": "address"
        },
        {
          "indexed": false,
          "internalType": "string",
          "name": "operation",
          "type": "string"
        }
      ],
      "name": "Rank8UserBlocked",
      "type": "event"
    },
    {
      "anonymous": false,
      "inputs": [
        {
          "indexed": true,
          "internalType": "uint8",
          "name": "rank",
          "type": "uint8"
        },
        {
          "indexed": false,
          "internalType": "uint256",
          "name": "cycleNumber",
          "type": "uint256"
        },
        {
          "indexed": false,
          "internalType": "address[]",
          "name": "donors",
          "type": "address[]"
        }
      ],
      "name": "RankCycleCompleted",
      "type": "event"
    },
    {
      "anonymous": false,
      "inputs": [
        {
          "indexed": true,
          "internalType": "uint8",
          "name": "rank",
          "type": "uint8"
        },
        {
          "indexed": false,
          "internalType": "uint256",
          "name": "totalDonors",
          "type": "uint256"
        }
      ],
      "name": "RankReset",
      "type": "event"
    },
    {
      "anonymous": false,
      "inputs": [
        {
          "indexed": false,
          "internalType": "string",
          "name": "userId",
          "type": "string"
        },
        {
          "indexed": true,
          "internalType": "uint8",
          "name": "rank",
          "type": "uint8"
        },
        {
          "indexed": false,
          "internalType": "uint256",
          "name": "amount",
          "type": "uint256"
        }
      ],
      "name": "ReceiverStatusUpdated",
      "type": "event"
    },
    {
      "anonymous": false,
      "inputs": [
        {
          "indexed": true,
          "internalType": "address",
          "name": "user",
          "type": "address"
        },
        {
          "indexed": false,
          "internalType": "string",
          "name": "userId",
          "type": "string"
        }
      ],
      "name": "UserCompletedRank8",
      "type": "event"
    },
    {
      "anonymous": false,
      "inputs": [
        {
          "indexed": true,
          "internalType": "address",
          "name": "user",
          "type": "address"
        },
        {
          "indexed": false,
          "internalType": "string",
          "name": "userId",
          "type": "string"
        }
      ],
      "name": "UserIdCacheUpdated",
      "type": "event"
    },
    {
      "anonymous": false,
      "inputs": [
        {
          "indexed": false,
          "internalType": "string",
          "name": "userId",
          "type": "string"
        },
        {
          "indexed": true,
          "internalType": "uint8",
          "name": "rank",
          "type": "uint8"
        },
        {
          "indexed": false,
          "internalType": "uint256",
          "name": "position",
          "type": "uint256"
        }
      ],
      "name": "WaitingQueueJoined",
      "type": "event"
    },
    {
      "inputs": [],
      "name": "FEE_SHARE",
      "outputs": [
        {
          "internalType": "uint256",
          "name": "",
          "type": "uint256"
        }
      ],
      "stateMutability": "view",
      "type": "function"
    },
    {
      "inputs": [],
      "name": "GAS_SUBSIDY_PERCENT",
      "outputs": [
        {
          "internalType": "uint256",
          "name": "",
          "type": "uint256"
        }
      ],
      "stateMutability": "view",
      "type": "function"
    },
    {
      "inputs": [],
      "name": "MAX_DONORS_PER_RANK",
      "outputs": [
        {
          "internalType": "uint8",
          "name": "",
          "type": "uint8"
        }
      ],
      "stateMutability": "view",
      "type": "function"
    },
    {
      "inputs": [],
      "name": "MAX_RANK",
      "outputs": [
        {
          "internalType": "uint8",
          "name": "",
          "type": "uint8"
        }
      ],
      "stateMutability": "view",
      "type": "function"
    },
    {
      "inputs": [],
      "name": "MAX_SUBSIDY_PER_TX",
      "outputs": [
        {
          "internalType": "uint256",
          "name": "",
          "type": "uint256"
        }
      ],
      "stateMutability": "view",
      "type": "function"
    },
    {
      "inputs": [],
      "name": "MIN_GAS_SUBSIDY_POOL",
      "outputs": [
        {
          "internalType": "uint256",
          "name": "",
          "type": "uint256"
        }
      ],
      "stateMutability": "view",
      "type": "function"
    },
    {
      "inputs": [],
      "name": "PROMOTION_SHARE",
      "outputs": [
        {
          "internalType": "uint256",
          "name": "",
          "type": "uint256"
        }
      ],
      "stateMutability": "view",
      "type": "function"
    },
    {
      "inputs": [],
      "name": "RECEIVER_SHARE",
      "outputs": [
        {
          "internalType": "uint256",
          "name": "",
          "type": "uint256"
        }
      ],
      "stateMutability": "view",
      "type": "function"
    },
    {
      "inputs": [
        {
          "internalType": "enum MynnGift.Stream",
          "name": "",
          "type": "uint8"
        },
        {
          "internalType": "uint8",
          "name": "",
          "type": "uint8"
        }
      ],
      "name": "currentRankCycle",
      "outputs": [
        {
          "internalType": "uint256",
          "name": "",
          "type": "uint256"
        }
      ],
      "stateMutability": "view",
      "type": "function"
    },
    {
      "inputs": [],
      "name": "gasSubsidyPool",
      "outputs": [
        {
          "internalType": "uint256",
          "name": "",
          "type": "uint256"
        }
      ],
      "stateMutability": "view",
      "type": "function"
    },
    {
      "inputs": [],
      "name": "getContractBalance",
      "outputs": [
        {
          "internalType": "uint256",
          "name": "",
          "type": "uint256"
        }
      ],
      "stateMutability": "view",
      "type": "function"
    },
    {
      "inputs": [
        {
          "internalType": "uint8",
          "name": "rank",
          "type": "uint8"
        },
        {
          "internalType": "enum MynnGift.Stream",
          "name": "stream",
          "type": "uint8"
        }
      ],
      "name": "getCurrentRankCycle",
      "outputs": [
        {
          "internalType": "uint256",
          "name": "",
          "type": "uint256"
        }
      ],
      "stateMutability": "view",
      "type": "function"
    },
    {
      "inputs": [
        {
          "internalType": "uint8",
          "name": "rank",
          "type": "uint8"
        },
        {
          "internalType": "enum MynnGift.Stream",
          "name": "stream",
          "type": "uint8"
        }
      ],
      "name": "getCurrentRankStatus",
      "outputs": [
        {
          "internalType": "string[]",
          "name": "currentDonors",
          "type": "string[]"
        },
        {
          "internalType": "uint256",
          "name": "currentFunds",
          "type": "uint256"
        },
        {
          "internalType": "uint256",
          "name": "targetFunds",
          "type": "uint256"
        },
        {
          "internalType": "uint256",
          "name": "remainingSlots",
          "type": "uint256"
        }
      ],
      "stateMutability": "view",
      "type": "function"
    },
    {
      "inputs": [
        {
          "internalType": "uint8",
          "name": "rank",
          "type": "uint8"
        },
        {
          "internalType": "address",
          "name": "user",
          "type": "address"
        },
        {
          "internalType": "enum MynnGift.Stream",
          "name": "stream",
          "type": "uint8"
        }
      ],
      "name": "getDetailedQueuePosition",
      "outputs": [
        {
          "internalType": "uint256",
          "name": "position",
          "type": "uint256"
        },
        {
          "internalType": "bool",
          "name": "isInQueue",
          "type": "bool"
        },
        {
          "internalType": "bool",
          "name": "isActiveRankDonor",
          "type": "bool"
        },
        {
          "internalType": "uint256",
          "name": "estimatedWaitTime",
          "type": "uint256"
        }
      ],
      "stateMutability": "view",
      "type": "function"
    },
    {
      "inputs": [],
      "name": "getGasSubsidyPoolBalance",
      "outputs": [
        {
          "internalType": "uint256",
          "name": "",
          "type": "uint256"
        }
      ],
      "stateMutability": "view",
      "type": "function"
    },
    {
      "inputs": [],
      "name": "getPlatformIncome",
      "outputs": [
        {
          "internalType": "uint256",
          "name": "",
          "type": "uint256"
        }
      ],
      "stateMutability": "view",
      "type": "function"
    },
    {
      "inputs": [],
      "name": "getPromotionPoolBalance",
      "outputs": [
        {
          "internalType": "uint256",
          "name": "",
          "type": "uint256"
        }
      ],
      "stateMutability": "view",
      "type": "function"
    },
    {
      "inputs": [
        {
          "internalType": "uint8",
          "name": "rank",
          "type": "uint8"
        },
        {
          "internalType": "enum MynnGift.Stream",
          "name": "stream",
          "type": "uint8"
        }
      ],
      "name": "getQueueStatus",
      "outputs": [
        {
          "internalType": "uint256",
          "name": "queueLength",
          "type": "uint256"
        },
        {
          "internalType": "uint256",
          "name": "activeDonors",
          "type": "uint256"
        },
        {
          "internalType": "uint256",
          "name": "totalDonationsInRank",
          "type": "uint256"
        },
        {
          "internalType": "uint256",
          "name": "cycleNumber",
          "type": "uint256"
        }
      ],
      "stateMutability": "view",
      "type": "function"
    },
    {
      "inputs": [
        {
          "internalType": "uint8",
          "name": "rank",
          "type": "uint8"
        },
        {
          "internalType": "enum MynnGift.Stream",
          "name": "stream",
          "type": "uint8"
        }
      ],
      "name": "getRankDonationCount",
      "outputs": [
        {
          "internalType": "uint256",
          "name": "",
          "type": "uint256"
        }
      ],
      "stateMutability": "view",
      "type": "function"
    },
    {
      "inputs": [
        {
          "internalType": "uint8",
          "name": "rank",
          "type": "uint8"
        },
        {
          "internalType": "enum MynnGift.Stream",
          "name": "stream",
          "type": "uint8"
        }
      ],
      "name": "getRankDonorHistory",
      "outputs": [
        {
          "internalType": "string[]",
          "name": "",
          "type": "string[]"
        }
      ],
      "stateMutability": "view",
      "type": "function"
    },
    {
      "inputs": [
        {
          "internalType": "uint8",
          "name": "rank",
          "type": "uint8"
        }
      ],
      "name": "getRankDonors",
      "outputs": [
        {
          "internalType": "string[]",
          "name": "",
          "type": "string[]"
        }
      ],
      "stateMutability": "view",
      "type": "function"
    },
    {
      "inputs": [
        {
          "internalType": "uint8",
          "name": "rank",
          "type": "uint8"
        },
        {
          "internalType": "enum MynnGift.Stream",
          "name": "stream",
          "type": "uint8"
        }
      ],
      "name": "getRankReceiverHistory",
      "outputs": [
        {
          "internalType": "string[]",
          "name": "",
          "type": "string[]"
        }
      ],
      "stateMutability": "view",
      "type": "function"
    },
    {
      "inputs": [
        {
          "internalType": "uint8",
          "name": "rank",
          "type": "uint8"
        }
      ],
      "name": "getRankWaitingQueue",
      "outputs": [
        {
          "internalType": "string[]",
          "name": "",
          "type": "string[]"
        }
      ],
      "stateMutability": "view",
      "type": "function"
    },
    {
      "inputs": [
        {
          "internalType": "uint8",
          "name": "rank",
          "type": "uint8"
        },
        {
          "internalType": "enum MynnGift.Stream",
          "name": "stream",
          "type": "uint8"
        }
      ],
      "name": "getRankWaitingQueueByStream",
      "outputs": [
        {
          "internalType": "string[]",
          "name": "",
          "type": "string[]"
        }
      ],
      "stateMutability": "view",
      "type": "function"
    },
    {
      "inputs": [],
      "name": "getTotalReceivers",
      "outputs": [
        {
          "internalType": "uint256",
          "name": "",
          "type": "uint256"
        }
      ],
      "stateMutability": "view",
      "type": "function"
    },
    {
      "inputs": [
        {
          "internalType": "address",
          "name": "user",
          "type": "address"
        }
      ],
      "name": "getUserIncomeBreakdown",
      "outputs": [
        {
          "internalType": "uint256[8]",
          "name": "",
          "type": "uint256[8]"
        }
      ],
      "stateMutability": "view",
      "type": "function"
    },
    {
      "inputs": [
        {
          "internalType": "address",
          "name": "user",
          "type": "address"
        },
        {
          "internalType": "uint8",
          "name": "rank",
          "type": "uint8"
        }
      ],
      "name": "getUserIncomePerRank",
      "outputs": [
        {
          "internalType": "uint256",
          "name": "",
          "type": "uint256"
        }
      ],
      "stateMutability": "view",
      "type": "function"
    },
    {
      "inputs": [
        {
          "internalType": "address",
          "name": "user",
          "type": "address"
        }
      ],
      "name": "getUserRank",
      "outputs": [
        {
          "internalType": "uint8",
          "name": "",
          "type": "uint8"
        }
      ],
      "stateMutability": "view",
      "type": "function"
    },
    {
      "inputs": [
        {
          "internalType": "address",
          "name": "user",
          "type": "address"
        }
      ],
      "name": "getUserStatus",
      "outputs": [
        {
          "internalType": "string",
          "name": "",
          "type": "string"
        }
      ],
      "stateMutability": "view",
      "type": "function"
    },
    {
      "inputs": [
        {
          "internalType": "address",
          "name": "user",
          "type": "address"
        }
      ],
      "name": "getUserTotalDonation",
      "outputs": [
        {
          "internalType": "uint256",
          "name": "",
          "type": "uint256"
        }
      ],
      "stateMutability": "view",
      "type": "function"
    },
    {
      "inputs": [
        {
          "internalType": "address",
          "name": "user",
          "type": "address"
        }
      ],
      "name": "getUserTotalIncome",
      "outputs": [
        {
          "internalType": "uint256",
          "name": "",
          "type": "uint256"
        }
      ],
      "stateMutability": "view",
      "type": "function"
    },
    {
      "inputs": [
        {
          "internalType": "uint8",
          "name": "rank",
          "type": "uint8"
        },
        {
          "internalType": "address",
          "name": "user",
          "type": "address"
        },
        {
          "internalType": "enum MynnGift.Stream",
          "name": "stream",
          "type": "uint8"
        }
      ],
      "name": "getWaitingQueuePosition",
      "outputs": [
        {
          "internalType": "uint256",
          "name": "",
          "type": "uint256"
        }
      ],
      "stateMutability": "view",
      "type": "function"
    },
    {
      "inputs": [
        {
          "internalType": "address",
          "name": "",
          "type": "address"
        }
      ],
      "name": "hasStartedStreamA",
      "outputs": [
        {
          "internalType": "bool",
          "name": "",
          "type": "bool"
        }
      ],
      "stateMutability": "view",
      "type": "function"
    },
    {
      "inputs": [
        {
          "internalType": "address",
          "name": "",
          "type": "address"
        }
      ],
      "name": "hasStartedStreamB",
      "outputs": [
        {
          "internalType": "bool",
          "name": "",
          "type": "bool"
        }
      ],
      "stateMutability": "view",
      "type": "function"
    },
    {
      "inputs": [
        {
          "internalType": "address",
          "name": "",
          "type": "address"
        }
      ],
      "name": "isDonor",
      "outputs": [
        {
          "internalType": "bool",
          "name": "",
          "type": "bool"
        }
      ],
      "stateMutability": "view",
      "type": "function"
    },
    {
      "inputs": [
        {
          "internalType": "address",
          "name": "",
          "type": "address"
        }
      ],
      "name": "isDonor_StreamA",
      "outputs": [
        {
          "internalType": "bool",
          "name": "",
          "type": "bool"
        }
      ],
      "stateMutability": "view",
      "type": "function"
    },
    {
      "inputs": [
        {
          "internalType": "address",
          "name": "",
          "type": "address"
        }
      ],
      "name": "isDonor_StreamB",
      "outputs": [
        {
          "internalType": "bool",
          "name": "",
          "type": "bool"
        }
      ],
      "stateMutability": "view",
      "type": "function"
    },
    {
      "inputs": [
        {
          "internalType": "address",
          "name": "",
          "type": "address"
        }
      ],
      "name": "isRank8Completed_StreamA",
      "outputs": [
        {
          "internalType": "bool",
          "name": "",
          "type": "bool"
        }
      ],
      "stateMutability": "view",
      "type": "function"
    },
    {
      "inputs": [
        {
          "internalType": "address",
          "name": "",
          "type": "address"
        }
      ],
      "name": "isRank8Completed_StreamB",
      "outputs": [
        {
          "internalType": "bool",
          "name": "",
          "type": "bool"
        }
      ],
      "stateMutability": "view",
      "type": "function"
    },
    {
      "inputs": [
        {
          "internalType": "address",
          "name": "",
          "type": "address"
        }
      ],
      "name": "isReceiver",
      "outputs": [
        {
          "internalType": "bool",
          "name": "",
          "type": "bool"
        }
      ],
      "stateMutability": "view",
      "type": "function"
    },
    {
      "inputs": [
        {
          "internalType": "address",
          "name": "",
          "type": "address"
        }
      ],
      "name": "isReceiver_StreamA",
      "outputs": [
        {
          "internalType": "bool",
          "name": "",
          "type": "bool"
        }
      ],
      "stateMutability": "view",
      "type": "function"
    },
    {
      "inputs": [
        {
          "internalType": "address",
          "name": "",
          "type": "address"
        }
      ],
      "name": "isReceiver_StreamB",
      "outputs": [
        {
          "internalType": "bool",
          "name": "",
          "type": "bool"
        }
      ],
      "stateMutability": "view",
      "type": "function"
    },
    {
      "inputs": [
        {
          "internalType": "uint8",
          "name": "rank",
          "type": "uint8"
        },
        {
          "internalType": "enum MynnGift.Stream",
          "name": "stream",
          "type": "uint8"
        }
      ],
      "name": "joinWaitingQueue",
      "outputs": [],
      "stateMutability": "nonpayable",
      "type": "function"
    },
    {
      "inputs": [],
      "name": "mynnCryptContract",
      "outputs": [
        {
          "internalType": "address",
          "name": "",
          "type": "address"
        }
      ],
      "stateMutability": "view",
      "type": "function"
    },
    {
      "inputs": [],
      "name": "owner",
      "outputs": [
        {
          "internalType": "address",
          "name": "",
          "type": "address"
        }
      ],
      "stateMutability": "view",
      "type": "function"
    },
    {
      "inputs": [],
      "name": "platformIncome",
      "outputs": [
        {
          "internalType": "uint256",
          "name": "",
          "type": "uint256"
        }
      ],
      "stateMutability": "view",
      "type": "function"
    },
    {
      "inputs": [],
      "name": "platformWallet",
      "outputs": [
        {
          "internalType": "address",
          "name": "",
          "type": "address"
        }
      ],
      "stateMutability": "view",
      "type": "function"
    },
    {
      "inputs": [],
      "name": "promotionPool",
      "outputs": [
        {
          "internalType": "uint256",
          "name": "",
          "type": "uint256"
        }
      ],
      "stateMutability": "view",
      "type": "function"
    },
    {
      "inputs": [
        {
          "internalType": "enum MynnGift.Stream",
          "name": "",
          "type": "uint8"
        },
        {
          "internalType": "uint8",
          "name": "",
          "type": "uint8"
        }
      ],
      "name": "rankDonationCount",
      "outputs": [
        {
          "internalType": "uint256",
          "name": "",
          "type": "uint256"
        }
      ],
      "stateMutability": "view",
      "type": "function"
    },
    {
      "inputs": [
        {
          "internalType": "uint8",
          "name": "",
          "type": "uint8"
        }
      ],
      "name": "rankDonationValues",
      "outputs": [
        {
          "internalType": "uint256",
          "name": "",
          "type": "uint256"
        }
      ],
      "stateMutability": "view",
      "type": "function"
    },
    {
      "inputs": [
        {
          "internalType": "enum MynnGift.Stream",
          "name": "",
          "type": "uint8"
        },
        {
          "internalType": "uint8",
          "name": "",
          "type": "uint8"
        },
        {
          "internalType": "uint256",
          "name": "",
          "type": "uint256"
        }
      ],
      "name": "rankDonorHistory",
      "outputs": [
        {
          "internalType": "address",
          "name": "",
          "type": "address"
        }
      ],
      "stateMutability": "view",
      "type": "function"
    },
    {
      "inputs": [
        {
          "internalType": "enum MynnGift.Stream",
          "name": "",
          "type": "uint8"
        },
        {
          "internalType": "uint8",
          "name": "",
          "type": "uint8"
        },
        {
          "internalType": "uint256",
          "name": "",
          "type": "uint256"
        }
      ],
      "name": "rankReceiverHistory",
      "outputs": [
        {
          "internalType": "address",
          "name": "",
          "type": "address"
        }
      ],
      "stateMutability": "view",
      "type": "function"
    },
    {
      "inputs": [
        {
          "internalType": "uint8",
          "name": "",
          "type": "uint8"
        }
      ],
      "name": "ranks",
      "outputs": [
        {
          "internalType": "uint256",
          "name": "totalFunds",
          "type": "uint256"
        }
      ],
      "stateMutability": "view",
      "type": "function"
    },
    {
      "inputs": [
        {
          "internalType": "uint8",
          "name": "",
          "type": "uint8"
        }
      ],
      "name": "ranks_StreamA",
      "outputs": [
        {
          "internalType": "uint256",
          "name": "totalFunds",
          "type": "uint256"
        }
      ],
      "stateMutability": "view",
      "type": "function"
    },
    {
      "inputs": [
        {
          "internalType": "uint8",
          "name": "",
          "type": "uint8"
        }
      ],
      "name": "ranks_StreamB",
      "outputs": [
        {
          "internalType": "uint256",
          "name": "totalFunds",
          "type": "uint256"
        }
      ],
      "stateMutability": "view",
      "type": "function"
    },
    {
      "inputs": [
        {
          "internalType": "address",
          "name": "user",
          "type": "address"
        },
        {
          "internalType": "uint256",
          "name": "amount",
          "type": "uint256"
        }
      ],
      "name": "receiveFromMynnCrypt",
      "outputs": [],
      "stateMutability": "payable",
      "type": "function"
    },
    {
      "inputs": [],
      "name": "renounceOwnership",
      "outputs": [],
      "stateMutability": "nonpayable",
      "type": "function"
    },
    {
      "inputs": [
        {
          "internalType": "address",
          "name": "_newMynnCryptContract",
          "type": "address"
        }
      ],
      "name": "setMynnCryptContract",
      "outputs": [],
      "stateMutability": "nonpayable",
      "type": "function"
    },
    {
      "inputs": [
        {
          "internalType": "address",
          "name": "_newPlatformWallet",
          "type": "address"
        }
      ],
      "name": "setPlatformWallet",
      "outputs": [],
      "stateMutability": "nonpayable",
      "type": "function"
    },
    {
      "inputs": [
        {
          "internalType": "address",
          "name": "user",
          "type": "address"
        },
        {
          "internalType": "bool",
          "name": "completed",
          "type": "bool"
        },
        {
          "internalType": "enum MynnGift.Stream",
          "name": "stream",
          "type": "uint8"
        }
      ],
      "name": "setRank8Completed",
      "outputs": [],
      "stateMutability": "nonpayable",
      "type": "function"
    },
    {
      "inputs": [],
      "name": "totalReceivers",
      "outputs": [
        {
          "internalType": "uint256",
          "name": "",
          "type": "uint256"
        }
      ],
      "stateMutability": "view",
      "type": "function"
    },
    {
      "inputs": [
        {
          "internalType": "address",
          "name": "newOwner",
          "type": "address"
        }
      ],
      "name": "transferOwnership",
      "outputs": [],
      "stateMutability": "nonpayable",
      "type": "function"
    },
    {
      "inputs": [
        {
          "internalType": "address",
          "name": "user",
          "type": "address"
        }
      ],
      "name": "updateUserIdCache",
      "outputs": [],
      "stateMutability": "nonpayable",
      "type": "function"
    },
    {
      "inputs": [
        {
          "internalType": "address",
          "name": "",
          "type": "address"
        },
        {
          "internalType": "uint8",
          "name": "",
          "type": "uint8"
        }
      ],
      "name": "userIncomePerRank",
      "outputs": [
        {
          "internalType": "uint256",
          "name": "",
          "type": "uint256"
        }
      ],
      "stateMutability": "view",
      "type": "function"
    },
    {
      "inputs": [
        {
          "internalType": "address",
          "name": "",
          "type": "address"
        },
        {
          "internalType": "uint8",
          "name": "",
          "type": "uint8"
        }
      ],
      "name": "userIncomePerRank_StreamA",
      "outputs": [
        {
          "internalType": "uint256",
          "name": "",
          "type": "uint256"
        }
      ],
      "stateMutability": "view",
      "type": "function"
    },
    {
      "inputs": [
        {
          "internalType": "address",
          "name": "",
          "type": "address"
        },
        {
          "internalType": "uint8",
          "name": "",
          "type": "uint8"
        }
      ],
      "name": "userIncomePerRank_StreamB",
      "outputs": [
        {
          "internalType": "uint256",
          "name": "",
          "type": "uint256"
        }
      ],
      "stateMutability": "view",
      "type": "function"
    },
    {
      "inputs": [
        {
          "internalType": "address",
          "name": "",
          "type": "address"
        }
      ],
      "name": "userRank",
      "outputs": [
        {
          "internalType": "uint8",
          "name": "",
          "type": "uint8"
        }
      ],
      "stateMutability": "view",
      "type": "function"
    },
    {
      "inputs": [
        {
          "internalType": "address",
          "name": "",
          "type": "address"
        }
      ],
      "name": "userRank_StreamA",
      "outputs": [
        {
          "internalType": "uint8",
          "name": "",
          "type": "uint8"
        }
      ],
      "stateMutability": "view",
      "type": "function"
    },
    {
      "inputs": [
        {
          "internalType": "address",
          "name": "",
          "type": "address"
        }
      ],
      "name": "userRank_StreamB",
      "outputs": [
        {
          "internalType": "uint8",
          "name": "",
          "type": "uint8"
        }
      ],
      "stateMutability": "view",
      "type": "function"
    },
    {
      "inputs": [
        {
          "internalType": "address",
          "name": "",
          "type": "address"
        }
      ],
      "name": "userTotalDonation",
      "outputs": [
        {
          "internalType": "uint256",
          "name": "",
          "type": "uint256"
        }
      ],
      "stateMutability": "view",
      "type": "function"
    },
    {
      "inputs": [
        {
          "internalType": "address",
          "name": "",
          "type": "address"
        }
      ],
      "name": "userTotalDonation_StreamA",
      "outputs": [
        {
          "internalType": "uint256",
          "name": "",
          "type": "uint256"
        }
      ],
      "stateMutability": "view",
      "type": "function"
    },
    {
      "inputs": [
        {
          "internalType": "address",
          "name": "",
          "type": "address"
        }
      ],
      "name": "userTotalDonation_StreamB",
      "outputs": [
        {
          "internalType": "uint256",
          "name": "",
          "type": "uint256"
        }
      ],
      "stateMutability": "view",
      "type": "function"
    },
    {
      "inputs": [
        {
          "internalType": "address",
          "name": "",
          "type": "address"
        }
      ],
      "name": "userTotalIncome",
      "outputs": [
        {
          "internalType": "uint256",
          "name": "",
          "type": "uint256"
        }
      ],
      "stateMutability": "view",
      "type": "function"
    },
    {
      "inputs": [
        {
          "internalType": "address",
          "name": "",
          "type": "address"
        }
      ],
      "name": "userTotalIncome_StreamA",
      "outputs": [
        {
          "internalType": "uint256",
          "name": "",
          "type": "uint256"
        }
      ],
      "stateMutability": "view",
      "type": "function"
    },
    {
      "inputs": [
        {
          "internalType": "address",
          "name": "",
          "type": "address"
        }
      ],
      "name": "userTotalIncome_StreamB",
      "outputs": [
        {
          "internalType": "uint256",
          "name": "",
          "type": "uint256"
        }
      ],
      "stateMutability": "view",
      "type": "function"
    },
    {
      "inputs": [
        {
          "internalType": "uint256",
          "name": "amount",
          "type": "uint256"
        }
      ],
      "name": "withdrawExcessGasSubsidy",
      "outputs": [],
      "stateMutability": "nonpayable",
      "type": "function"
    },
    {
      "inputs": [
        {
          "internalType": "uint256",
          "name": "amount",
          "type": "uint256"
        }
      ],
      "name": "withdrawExcessPromotionPool",
      "outputs": [],
      "stateMutability": "nonpayable",
      "type": "function"
    },
    {
      "inputs": [],
      "name": "withdrawRemainingBalance",
      "outputs": [],
      "stateMutability": "nonpayable",
      "type": "function"
    },
    {
      "stateMutability": "payable",
      "type": "receive"
    }
  ],
  "bytecode": "0x60806040523461002b5761001a6100146100df565b9161026a565b604051614f616104658239614f6190f35b600080fd5b634e487b7160e01b600052604160045260246000fd5b90601f01601f191681019081106001600160401b0382111761006757604052565b610030565b9061008061007960405190565b9283610046565b565b6001600160a01b031690565b90565b6001600160a01b0381160361002b57565b9050519061008082610091565b909160608284031261002b5761008e6100c884846100a2565b9360406100d882602087016100a2565b94016100a2565b6100fd6153c6803803806100f28161006c565b9283398101906100af565b909192565b61008261008e61008e9290565b61008e90610102565b1561011f57565b60405162461bcd60e51b815260206004820152601f60248201527f496e76616c696420706c6174666f726d2077616c6c65742061646472657373006044820152606490fd5b1561016b57565b60405162461bcd60e51b815260206004820152602260248201527f496e76616c6964206d796e6e437279707420636f6e7472616374206164647265604482015261737360f01b6064820152608490fd5b906001600160a01b03905b9181191691161790565b61008e90610082906001600160a01b031682565b61008e906101d0565b61008e906101e4565b9061020661008e61020d926101ed565b82546101bb565b9055565b61008e61008e61008e9290565b61022b61008e61008e9290565b60ff1690565b9061023b9061021e565b600052602052604060002090565b90600019906101c6565b9061026361008e61020d92610211565b8254610249565b50906102c16102c89261027b6103c5565b6102ba6102a961028b600061010f565b6100826001600160a01b0382166001600160a01b0386161415610118565b6001600160a01b0385161415610164565b60236101f6565b60246101f6565b6100806102db661cc6e836ae4000610211565b6102f16009916102ec600184610231565b610253565b61030f610304664db2a62d3ce000610211565b6102ec600284610231565b61032d61032266d1c8c0ad579000610211565b6102ec600384610231565b61034c6103416702366ad507393800610211565b6102ec600484610231565b61036b6103606705f953a59380e400610211565b6102ec600584610231565b61038a61037f6710212ea574a8ce00610211565b6102ec600684610231565b6103a961039e672b8ccabec0f0da00610211565b6102ec600784610231565b6102ec60086103bf677595bd02df378c00610211565b92610231565b6103cd6103d6565b6100803361040d565b6100806103e8565b61008e6001610211565b6100806103f36103de565b6000610253565b61008e90610082565b61008e90546103fa565b61043361042d61041d6001610403565b6104288460016101f6565b6101ed565b916101ed565b907f8be0079c531659141344cd1fd0a4f28419497f9722a3daafe3b4186f6b6457e061045e60405190565b600090a356fe60806040526004361015610023575b361561001957600080fd5b61002161398b565b005b60003560e01c806295528114610502578063027b0df3146104fd5780630ab61957146104f857806312a4cc1b146104f3578063176cd601146104ee57806318382de5146104e95780631bb91c2c146104e45780632707161b146104df578063276bc93f146104da57806328fa2b45146104d55780632bc3d7aa146104d057806336b43e55146104cb57806337492e1d146104c6578063392243e1146104c15780633e0426b6146104bc5780633e94c485146104b757806342ebca3f146104b25780634628b6fd146104ad57806347be985a146104a85780634c02cacf146104a35780634c55ec921461049e57806351d83767146104995780635bbf4bba146104945780635e7ab4d51461048f57806362ac9b9e1461048a5780636b92150c146104855780636f9fb98a14610480578063715018a61461047b578063716b8c281461047657806373f58a971461047157806375b5104c1461046c57806378ba7159146104675780637fbb5196146104625780638720487e1461045d57806387977de0146104585780638831e9cf14610453578063885aa0e51461044e5780638aef16b8146104495780638c4f4b83146104445780638da5cb5b1461043f578063909363621461043a578063922fb350146104355780639428f3fc146104305780639e3bcb8d1461042b578063a10bc63f14610426578063a3de08ff14610421578063aff989b81461041c578063b0532f3314610417578063b18db67214610412578063b2d1573f1461040d578063b7a0338514610408578063b7c83f5914610403578063b821a3c2146103fe578063b91d53c6146103f9578063bfaa451f146103f4578063bfb6f4cd146103ef578063c1b37245146103ea578063c8e1f163146103e5578063cd6b40be146103e0578063d0aeb820146103db578063d1b785dd146103d6578063d56c5529146103d1578063d6b0633f146103cc578063def9635c146103c7578063e304c1c3146103c2578063e6512a9d146103bd578063ea0d5dcd146103b8578063ebf8d042146103b3578063eda044a5146103ae578063edc1eed0146103a9578063eec1083c146103a4578063f0dcdd671461039f578063f16e4b881461039a578063f265848a14610395578063f2fde38b14610390578063fa2af9da1461038b578063fbb73238146103865763feb5c1de0361000e576115da565b6115b3565b61158c565b611568565b61154c565b611531565b611504565b6114cf565b6114b4565b611489565b61145e565b611426565b6113fa565b6113d3565b6113a8565b61138d565b611362565b611336565b611307565b6112ec565b6112c3565b61125e565b6111ee565b6111c3565b61119b565b61117f565b61114d565b61110c565b6110df565b6110c4565b6110a9565b61107b565b611060565b611035565b61100a565b610fb9565b610f69565b610f3c565b610f11565b610efd565b610ec9565b610eae565b610e86565b610e6b565b610e3d565b610e22565b610de5565b610dc9565b610d9a565b610d6f565b610d30565b610d15565b610cf9565b610cca565b610c9e565b610c53565b610c0d565b610b93565b610b69565b610b3e565b610b13565b610af7565b610adc565b610ab4565b610a85565b610a5a565b610a41565b610a26565b6109fb565b6109de565b6109c3565b61098a565b610952565b610831565b610769565b61065d565b61062e565b610565565b600091031261051257565b600080fd5b61052c916008021c5b6001600160a01b031690565b90565b9061052c9154610517565b61052c6000602461052f565b61054f90610520565b9052565b6020810192916105639190610546565b565b3461051257610575366004610507565b61058c61058061053a565b60405191829182610553565b0390f35b61059981610520565b0361051257565b9050359061056382610590565b906020828203126105125761052c916105a0565b61052c90610520906001600160a01b031682565b61052c906105c1565b61052c906105d5565b906105f1906105de565b600052602052604060002090565b61052c916008021c5b60ff1690565b9061052c91546105ff565b600061062961052c92600e6105e7565b61060e565b346105125761058c6106496106443660046105ad565b610619565b6040519182918260ff909116815260200190565b346105125761058c6106786106733660046105ad565b6115f5565b6040515b9182918290815260200190565b6002111561051257565b9050359061056382610689565b60ff8116610599565b90503590610563826106a0565b91906040838203126105125761052c9060206106d28286610693565b94016106a9565b634e487b7160e01b600052602160045260246000fd5b600211156106f957565b6106d9565b90610563826106ef565b61052c906106fe565b906105f190610708565b61060861052c61052c9260ff1690565b906105f19061071b565b61052c916008021c81565b9061052c9154610735565b61076461052c9261075f600093600b610711565b61072b565b610740565b346105125761058c61067861077f3660046106b6565b9061074b565b80610599565b9050359061056382610785565b90916060828403126105125761052c6107b18484610693565b9360406107c182602087016106a9565b940161078b565b634e487b7160e01b600052603260045260246000fd5b8054821015610801576107f8600191600052602060002090565b91020190600090565b6107c8565b9061075f61081592601f610711565b80548210156105125761052c9161082b916107de565b9061052f565b346105125761058c610580610847366004610798565b91610806565b91906040838203126105125761052c90602061086982866106a9565b9401610693565b60005b8381106108835750506000910152565b8181015183820152602001610873565b6108b46108bd6020936108c7936108a8815190565b80835293849260200190565b95869101610870565b601f01601f191690565b0190565b9061052c91610893565b906108eb6108e1835190565b8083529160200190565b90816108fd6020830284019460200190565b926000915b83831061091157505050505090565b9091929394602061093461092d838560019503875289516108cb565b9760200190565b9301930191939290610902565b602080825261052c929101906108d5565b346105125761058c61096e61096836600461084d565b9061196a565b60405191829182610941565b600061062961052c92601c6105e7565b346105125761058c6109a56109a03660046105ad565b61097a565b60405191829182901515815260200190565b61052c60006026610740565b34610512576109d3366004610507565b61058c6106786109b7565b34610512576109f66109f13660046105ad565b611c40565b604051005b3461051257610a0b366004610507565b61058c610678611c49565b600061062961052c92601d6105e7565b346105125761058c6109a5610a3c3660046105ad565b610a16565b34610512576109f6610a5436600461084d565b90611fcc565b3461051257610a6a366004610507565b61058c610678611fd6565b600061062961052c92601e6105e7565b346105125761058c6109a5610a9b3660046105ad565b610a75565b906020828203126105125761052c9161078b565b34610512576109f6610ac7366004610aa0565b61220a565b600061062961052c9260056105e7565b346105125761058c6109a5610af23660046105ad565b610acc565b346105125761058c61096e610b0d36600461084d565b90612213565b3461051257610b23366004610507565b61058c610678612370565b600061076461052c9260116105e7565b346105125761058c610678610b543660046105ad565b610b2e565b600061076461052c9260136105e7565b346105125761058c610678610b7f3660046105ad565b610b59565b9061075f61081592600a610711565b346105125761058c610580610ba9366004610798565b91610b84565b90916060828403126105125761052c610bc884846106a9565b93604061086982602087016105a0565b610c0961056394610c00606094989795610bf7608086019a6000870152565b15156020850152565b15156040830152565b0152565b346105125761058c610c29610c23366004610baf565b916123bf565b90610c3694929460405190565b94859485610bd8565b906020828203126105125761052c916106a9565b346105125761058c61096e610c69366004610c3f565b612526565b91906040838203126105125761052c9060206106d282866105a0565b61076461052c9261075f60009360166105e7565b346105125761058c610678610cb4366004610c6e565b90610c8a565b600061062961052c9260196105e7565b346105125761058c6109a5610ce03660046105ad565b610cba565b61076461052c9261075f60009360186105e7565b346105125761058c610678610d0f366004610c6e565b90610ce5565b3461051257610d25366004610507565b61058c61067861267d565b3461051257610d40366004610507565b6109f66126a7565b61052c9081565b61052c9054610d48565b6002610d6961052c92600761072b565b01610d4f565b346105125761058c610678610d85366004610c3f565b610d59565b600061062961052c9260046105e7565b346105125761058c6109a5610db03660046105ad565b610d8a565b61076461052c9261075f60009360176105e7565b346105125761058c610678610ddf366004610c6e565b90610db5565b34610512576109f6610df83660046105ad565b612985565b61052c61052c61052c9290565b61052c662386f26fc10000610dfd565b61052c610e0a565b3461051257610e32366004610507565b61058c610678610e1a565b346105125761058c61096e610e5336600461084d565b9061298e565b61052c600a610dfd565b61052c610e59565b3461051257610e7b366004610507565b61058c610678610e63565b34610512576109f6610e993660046105ad565b612b0d565b600061076461052c9260156105e7565b346105125761058c610678610ec43660046105ad565b610e9e565b34610512576109f6610edc366004610aa0565b612c03565b91906040838203126105125761052c9060206107c182866105a0565b6109f6610f0b366004610ee1565b90612d97565b3461051257610f21366004610507565b61058c610580612f37565b600061076461052c9260106105e7565b346105125761058c610678610f523660046105ad565b610f2c565b61052c6005610dfd565b61052c610f57565b3461051257610f79366004610507565b61058c610678610f61565b610c0961056394610fb2610faa60609599989699608086019086820360008801526108d5565b986020850152565b6040830152565b346105125761058c610fd5610fcf36600461084d565b90612f51565b90610fe294929460405190565b94859485610f84565b61060861052c61052c9290565b61052c6008610feb565b61052c610ff8565b346105125761101a366004610507565b61058c610649611002565b600061076461052c9260146105e7565b346105125761058c61067861104b3660046105ad565b611025565b6002610d6961052c92600661072b565b346105125761058c610678611076366004610c3f565b611050565b346105125761058c61067861109136600461084d565b9061312b565b61052c6032610dfd565b61052c611097565b34610512576110b9366004610507565b61058c6106786110a1565b346105125761058c6106786110da3660046105ad565b613146565b346105125761058c6106496110f53660046105ad565b61315d565b61052c602d610dfd565b61052c6110fa565b346105125761111c366004610507565b61058c610678611104565b610c0961056394610fb2606094989795611146608086019a6000870152565b6020850152565b346105125761058c61116961116336600461084d565b90613174565b9061117694929460405190565b94859485611127565b346105125761058c61067861119536600461084d565b906131e4565b34610512576111ab366004610507565b6109f66132fd565b600061076461052c9260126105e7565b346105125761058c6106786111d93660046105ad565b6111b3565b600061062961052c9260026105e7565b346105125761058c6109a56112043660046105ad565b6111de565b61121961121560089390565b9190565b6000915b83831061122a5750505050565b61124461123d6001928451815260200190565b9260200190565b9201919061121d565b610100810192916105639190611209565b346105125761058c6112796112743660046105ad565b61338f565b6040519182918261124d565b801515610599565b9050359061056382611285565b90916060828403126105125761052c6112b384846105a0565b936040610869826020870161128d565b34610512576109f66112d636600461129a565b9161345d565b600061062961052c92600d6105e7565b346105125761058c6106496113023660046105ad565b6112dc565b346105125761058c61096e61131d366004610c3f565b613468565b61076461052c9261075f600093600c610711565b346105125761058c61067861134c3660046106b6565b90611322565b600061062961052c92601b6105e7565b346105125761058c6109a56113783660046105ad565b611352565b600061076461052c92600961072b565b346105125761058c6106786113a3366004610c3f565b61137d565b34610512576113b8366004610507565b61058c6106786135b6565b6002610d6961052c92600861072b565b346105125761058c6106786113e9366004610c3f565b6113c3565b61052c60006025610740565b346105125761140a366004610507565b61058c6106786113ee565b602080825261052c92910190610893565b346105125761058c61144161143c3660046105ad565b613655565b6040515b91829182611415565b600061062961052c9260036105e7565b346105125761058c6109a56114743660046105ad565b61144e565b600061062961052c92601a6105e7565b346105125761058c6109a561149f3660046105ad565b611479565b600061062961052c92600f6105e7565b346105125761058c6106496114ca3660046105ad565b6114a4565b346105125761058c6106786114e5366004610baf565b916137ff565b61052c67016345785d8a0000610dfd565b61052c6114eb565b3461051257611514366004610507565b61058c6106786114fc565b61052c6006610feb565b61052c61151f565b3461051257611541366004610507565b61058c610649611529565b346105125761058c610678611562366004610c6e565b9061389c565b34610512576109f661157b3660046105ad565b613982565b61052c6000602361052f565b346105125761159c366004610507565b61058c610580611580565b61052c60006022610740565b34610512576115c3366004610507565b61058c6106786115a7565b61052c60006021610740565b34610512576115ea366004610507565b61058c6106786115ce565b61160c61052c91611604600090565b5060156105e7565b610d4f565b906108c781602093610546565b61052c90610520565b61052c905461161e565b9061165661164a611640845490565b8084529260200190565b92600052602060002090565b9060005b8181106116675750505090565b90919261168861168160019261167c87611627565b611611565b9460010190565b92910161165a565b9061052c91611631565b634e487b7160e01b600052604160045260246000fd5b90601f01601f1916810190811067ffffffffffffffff8211176116d257604052565b61169a565b906105636116f1926116e860405190565b93848092611690565b03836116b0565b61052c906116d7565b9061056361170e60405190565b92836116b0565b67ffffffffffffffff81116116d25760208091020190565b9061173f61173a83611715565b611701565b918252565b60005b82811061175357505050565b606082820152602001611747565b906105636117776117718461172d565b93611715565b601f190160208401611744565b9061178d825190565b811015610801576020809102010190565b61052c9051610520565b634e487b7160e01b600052602260045260246000fd5b90600160028304921680156117de575b60208310146117d957565b6117a8565b91607f16916117ce565b805460009392916118056117fb836117be565b8085529360200190565b9160018116908115611857575060011461181e57505050565b6118319192939450600052602060002090565b916000925b8184106118435750500190565b805484840152602090930192600101611836565b92949550505060ff1916825215156020020190565b9061052c916117e8565b906105636116f19261188760405190565b9384809261186c565b61052c90611876565b67ffffffffffffffff81116116d257602090601f01601f19160190565b909291926118c661173a82611899565b938185528183011161051257610563916020850190610870565b9080601f8301121561051257815161052c926020016118b6565b9060208282031261051257815167ffffffffffffffff81116105125761052c92016118e0565b6040513d6000823e3d90fd5b6108c76119449260209261193e815190565b94859290565b93849101610870565b67556e6b6e6f776e5f60c01b815261052c91906008015b9061192c565b60016119aa9193929361197b606090565b5060009461199161198b876106fe565b916106fe565b03611b645761052c6119a491600661072b565b016116f8565b6119ba6119b5825190565b611761565b6119c384610dfd565b6119ce61052c845190565b811015611b5e576020906119fb6119f66119f06119eb8488611784565b61179e565b846105e7565b611890565b611a058285611784565b52611a108184611784565b50611a23611a1f808386611784565b5190565b611a2f61121588610dfd565b14611a44575b60010190506119c3565b6119c3565b611a8f9186611a5e611a59611a596024611627565b6105de565b611a6b6119eb8589611784565b90611a7560405190565b958692839182916365f68c8960e01b835260048301610553565b03915afa8015611b5957611a3f93600091611b38575b50611ab08386611784565b52611abb8285611784565b50611aca611a1f808487611784565b611ad661121589610dfd565b14611ae2575b50611a35565b611b1061052c611b1c92611b01611afc6119eb878b611784565b613a68565b6040519384928301918261194d565b908103825203826116b0565b611b268285611784565b52611b318184611784565b5038611adc565b611b53913d8091833e611b4b81836116b0565b8101906118fa565b38611aa5565b611920565b50925050565b61052c611b7291600761072b565b6119a4565b61056390611b83613c86565b611c10565b61052061052c61052c9290565b61052c90611b88565b15611ba557565b60405162461bcd60e51b815260206004820152600f60248201526e496e76616c6964206164647265737360881b6044820152606490fd5b0390fd5b906001600160a01b03905b9181191691161790565b90611c0561052c611c0c926105de565b8254611be0565b9055565b61056390611c39611c29611c246000611b95565b610520565b611c3283610520565b1415611b9e565b6024611bf5565b61056390611b77565b61052c6025610d4f565b90611c6591611c60613cf9565b611e09565b610563613d2b565b15611c7457565b60405162461bcd60e51b815260206004820152600c60248201526b496e76616c69642072616e6b60a01b6044820152606490fd5b61052c90610608565b61052c9054611ca8565b15611cc257565b60405162461bcd60e51b8152602060048201526015602482015274135d5cdd081899481848191bdb9bdc88199a5c9cdd605a1b6044820152606490fd5b15611d0657565b60405162461bcd60e51b815260206004820152601260248201527120b63932b0b23c9030903932b1b2b4bb32b960711b6044820152606490fd5b15611d4757565b60405162461bcd60e51b815260206004820152601860248201527f416c726561647920696e2077616974696e6720717565756500000000000000006044820152606490fd5b916001600160a01b0360089290920291821b911b611beb565b9190611db661052c611c0c936105de565b908354611d8c565b90815491600160401b8310156116d25782611de1916001610563950181556107de565b90611da5565b92916020611e046105639360408701908782036000890152610893565b940152565b611e136001610feb565b60ff8216101580611fb0575b611e2890611c6d565b611e43611e3e611e3933601d6105e7565b611cb1565b611cbb565b611e60611e5b611e57611e3933601e6105e7565b1590565b611cff565b611e6a60006106fe565b611e73836106fe565b03611f9c57611e8661052c82600661072b565b915b611e9e611e99611e57853386613d36565b611d40565b611eab61198b60006106fe565b03611f8957611ebe611e393360026105e7565b611f26577f75923699577285aeee0f2452cc72e4bb265c34236afa949e38f10bac9d043c5090611f0b611f056001611ef533613da6565b9501611f013382611dbe565b5490565b9161071b565b92611f21611f1860405190565b92839283611de7565b0390a2565b5050611f31336105de565b7fe75c9ee29599690e44dc56b1f00d3447c63d81b97494a1acba06cfbe86f21ac6611f5b60405190565b60208082526010908201526f6a6f696e57616974696e67517565756560801b60408201528060608101611f21565b611f97611e393360036105e7565b611ebe565b611faa61052c82600761072b565b91611e88565b50611e28611fbf610608610ff8565b60ff831611159050611e1f565b9061056391611c53565b61052c6022610d4f565b61056390611fec613c86565b611c6590611ff8613cf9565b61214e565b1561200457565b60405162461bcd60e51b815280611bdc600482016020808252818101527f416d6f756e74206d7573742062652067726561746572207468616e207a65726f604082015260600190565b1561205457565b60405162461bcd60e51b815260206004820152601b60248201527f496e73756666696369656e742070726f6d6f74696f6e20706f6f6c00000000006044820152606490fd5b634e487b7160e01b600052601160045260246000fd5b919082039182116120bc57565b612099565b9060001990611beb565b906120db61052c611c0c92610dfd565b82546120c1565b9061173f61173a83611899565b3d15612109576120fe3d6120e2565b903d6000602084013e565b606090565b1561211557565b60405162461bcd60e51b815260206004820152601160248201527015da5d1a191c985dd85b0819985a5b1959607a1b6044820152606490fd5b6000806121b19261216861216183610dfd565b8211611ffd565b61217d6121756022610d4f565b82111561204d565b61219a6121938261218e6022610d4f565b6120af565b60226120cb565b604051600091335af16121ab6120ef565b5061210e565b600080516020614f0c8339815191526122056121cd6022610d4f565b604051918291829081526040602082018190526010908201526f22bc31b2b9b9902bb4ba34323930bbb760811b606082015260800190565b0390a1565b61056390611fe0565b61222e9061075f61223393612226606090565b50601f610711565b6116f8565b9061223f6119b5835190565b9160009261224c84610dfd565b61225761052c845190565b811015611b5e576020906122746119f66119f06119eb8488611784565b61227e8285611784565b526122898184611784565b50612298611a1f808386611784565b6122a461121588610dfd565b146122b9575b600101905061224c565b61224c565b6122ce9186611a5e611a59611a596024611627565b03915afa8015611b59576122b493600091612357575b506122ef8386611784565b526122fa8285611784565b50612309611a1f808487611784565b61231561121589610dfd565b14612321575b506122aa565b611b1061052c61233b92611b01611afc6119eb878b611784565b6123458285611784565b526123508184611784565b503861231b565b61236a913d8091833e611b4b81836116b0565b386122e4565b61052c6021610d4f565b919082018092116120bc57565b634e487b7160e01b600052601260045260246000fd5b81156123a7570490565b612387565b818102929181159184041417156120bc57565b909290916000916123cf836106fe565b6123d8836106fe565b03612512576123eb61052c85600661072b565b935b6123f684610dfd565b92839685855b6001890161240b61052c825490565b82101561250a5761082b8261241f926107de565b61243161242b85610520565b91610520565b1461243e576001016123fc565b9850506124566001986124508a610dfd565b9061237a565b97955b80865b818a0161246a61052c825490565b8210156124fb5761082b8261247e926107de565b61248a61242b86610520565b146124975760010161245c565b505050509091929394506001935b808711806124de575b156124d857506124cc61160c61052c9361075f6124d294600c610711565b4261239d565b856123ac565b91505090565b50806124f561052c61160c8661075f87600c610711565b116124ae565b505050959650509091926124a5565b505095612459565b61252061052c85600761072b565b936123ed565b60016119a461253f92612537606090565b50600861072b565b9061254b6119b5835190565b9160009261255884610dfd565b61256361052c845190565b811015611b5e576020906125806119f66119f06119eb8488611784565b61258a8285611784565b526125958184611784565b506125a4611a1f808386611784565b6125b061121588610dfd565b146125c5575b6001019050612558565b612558565b6125da9186611a5e611a59611a596024611627565b03915afa8015611b59576125c093600091612663575b506125fb8386611784565b526126068285611784565b50612615611a1f808487611784565b61262161121589610dfd565b1461262d575b506125b6565b611b1061052c61264792611b01611afc6119eb878b611784565b6126518285611784565b5261265c8184611784565b5038612627565b61267791503d808a833e611b4b81836116b0565b386125f0565b612686306105de565b3190565b612692613c86565b6105636105636126a26000611b95565b613dd7565b61056361268a565b611c65906126bb613cf9565b612858565b634e487b7160e01b600052600060045260246000fd5b9160001960089290920291821b911b611beb565b91906126fb61052c611c0c93610dfd565b9083546126d6565b610563916000916126ea565b81811061271a575050565b806127286000600193612703565b0161270f565b9190601f811161273d57505050565b61274f61056393600052602060002090565b906020601f840181900483019310612771575b6020601f90910104019061270f565b9091508190612762565b90612784815190565b9067ffffffffffffffff82116116d2576127a8826127a285546117be565b8561272e565b602090601f83116001146127e357611c0c9291600091836127d8575b5050600019600883021c1916906002021790565b0151905038806127c4565b601f198316916127f885600052602060002090565b9260005b8181106128365750916002939185600196941061281d575b50505002019055565b01516000196008601f8516021c19169055388080612814565b919360206001819287870151815501950192016127fc565b906105639161277b565b612868611c29611c246000611b95565b612878611a59611a596024611627565b90600061288460405190565b9283906365f68c8960e01b825281806128a08660048301610553565b03915afa918215611b595760009261296a575b5081516128c36112156000610dfd565b1461290f575b611f2161290582611a59856129007ff945ca509f254b56a456af10be8ee84da7722c7f32f9ee3eae336529525dc39a9660206105e7565b61284e565b9261144560405190565b90507ff945ca509f254b56a456af10be8ee84da7722c7f32f9ee3eae336529525dc39a611f2161290561296061294485613a68565b61052c61295060405190565b8092611b1060208301918261194d565b93925050506128c9565b61297e91923d8091833e611b4b81836116b0565b90386128b3565b610563906126af565b61222e9061075f6129a9936129a1606090565b50600a610711565b906129b56119b5835190565b916000926129c284610dfd565b6129cd61052c845190565b811015611b5e576020906129ea6119f66119f06119eb8488611784565b6129f48285611784565b526129ff8184611784565b50612a0e611a1f808386611784565b612a1a61121588610dfd565b14612a2f575b60010190506129c2565b6129c2565b612a449186611a5e611a59611a596024611627565b03915afa8015611b5957612a2a93600091612acd575b50612a658386611784565b52612a708285611784565b50612a7f611a1f808487611784565b612a8b61121589610dfd565b14612a97575b50612a20565b611b1061052c612ab192611b01611afc6119eb878b611784565b612abb8285611784565b52612ac68184611784565b5038612a91565b612ae0913d8091833e611b4b81836116b0565b38612a5a565b61056390612af2613c86565b61056390612b06611c29611c246000611b95565b6023611bf5565b61056390612ae6565b61056390612b22613c86565b611c6590612b2e613cf9565b612b7f565b15612b3a57565b60405162461bcd60e51b815260206004820152601960248201527f496e73756666696369656e74206578636573732066756e6473000000000000006044820152606490fd5b600080612bd592612b9261216183610dfd565b612bbd612b9f6021610d4f565b612bb661121561052c85612bb16114eb565b61237a565b1015612b33565b61219a612bce8261218e6021610d4f565b60216120cb565b7fdffdcf1650221d40ebc28c7dee9c29c0c25d60f62413f22fc2f40232f0570c926122056121cd6021610d4f565b61056390612b16565b6080808252601b908201527f7265636569766546726f6d4d796e6e43727970742063616c6c6564000000000060a0820152909392610563929091606091610c0990610fb260c084015b986020850190610546565b15612c6757565b60405162461bcd60e51b815260206004820152600e60248201526d125b9d985b1a5908185b5bdd5b9d60921b6044820152606490fd5b60808082526018908201527f416d6f756e742076616c69646174696f6e20706173736564000000000000000060a0820152909392610563929091606091610c0990610fb260c08401612c55565b60808082526010908201526f155cd95c881251081bd89d185a5b995960821b60a0820152909392610563929091606091610c0990610fb260c08401612c55565b9060ff90611beb565b90612d4361052c611c0c92151590565b8254612d2a565b6080808252601e908201527f7265636569766546726f6d4d796e6e437279707420636f6d706c65746564000060a0820152909392610563929091606091610c0990610fb260c08401612c55565b7f1452f9ee684da2ce4da9741b18a974453693b1ed9f66d0256f7e03dd1f8d065d9182612dc360405190565b80612dd034858784612c0c565b0390a1612dde813414612c60565b82612de860405190565b80612df534858784612c9d565b0390a1612e08661cc6e836ae4000610dfd565b8103612ed45760005b7f79c48e52778f336d71fd7205d9bbb6344ff7f03a36e5c99ba233c768c684f5c682612e3c85613da6565b86612e4660405190565b80612e5334868b84612cea565b0390a1612e6060006106fe565b612e69856106fe565b03612ebf57612e836001612e7e8860046105e7565b612d33565b612e99612e906001610feb565b94838887613e29565b612ea5611f1860405190565b0390a2612205612eb460405190565b928392349184612d4a565b612ecf6001612e7e8860056105e7565b612e83565b612ee567014c88b43efa0000610dfd565b8103612ef2576001612e11565b60405162461bcd60e51b815260206004820152601d60248201527f496e76616c6964206d796e6e4769667420656e74727920616d6f756e740000006044820152606490fd5b61052c6001611627565b61052c61052c61052c9260ff1690565b60009291612f6161198b856106fe565b0361311757612f7461052c82600661072b565b915b83830191612f856119b5845490565b91612f8f86610dfd565b612f9a61052c865490565b8110156130c057602090612fb76119f66119f061082b848a6107de565b612fc18287611784565b52612fcc8186611784565b50612fdb611a1f808388611784565b612fe76112158a610dfd565b14612ffc575b6001019050612f8f565b612f8f565b61301e9188613011611a59611a596024611627565b611a6b61082b858b6107de565b03915afa8015611b5957612ff7936000916130a7575b5061303f8388611784565b5261304a8287611784565b50613059611a1f808489611784565b6130656112158b610dfd565b14613071575b50612fed565b611b1061052c61308b92611b01611afc61082b878d6107de565b6130958287611784565b526130a08186611784565b503861306b565b6130ba913d8091833e611b4b81836116b0565b38613034565b5091929361311091955061160c6130dc60026130e49301610d4f565b96600961072b565b61218e61310a6131056130f561151f565b936130ff85612f41565b906123ac565b965490565b91612f41565b9193929190565b61312561052c82600761072b565b91612f76565b61160c9061075f61052c9361313e600090565b50600b610711565b61160c61052c91613155600090565b5060146105e7565b611e3961052c9161316c600090565b50600f6105e7565b61317e60006106fe565b613187836106fe565b036131d05761319a61052c82600661072b565b925b61311061160c6131ad600187015490565b9361075f6131c860026131c160008b015490565b9901610d4f565b96600c610711565b6131de61052c82600761072b565b9261319c565b61160c9061075f61052c936131f7600090565b50600c610711565b613207613c86565b610563613212613cf9565b611c6561326a565b1561322157565b60405162461bcd60e51b815280611bdc600482016020808252818101527f4e6f2072656d61696e696e672062616c616e636520746f207769746864726177604082015260600190565b613294613276306105de565b3161328e6132846022610d4f565b6124506021610d4f565b906120af565b6132a86132a16000610dfd565b821161321a565b6132c66000806132b760405190565b60009085335af16121ab6120ef565b7fbdada6c6710e8442230a121675c891b033d6f380375fe10ebee0d13fa5669871611f216132f3336105de565b9261067c60405190565b6105636131ff565b67ffffffffffffffff81116116d25760200290565b61173a61052c91613305565b369037565b9061056361334161333b8461331a565b93613305565b83613326565b61052c600861332b565b60ff1660ff81146120bc5760010190565b6133719060ff165b9160ff1690565b90039060ff82116120bc57565b906008811015610801576020020190565b613397613347565b506133a0613347565b90600180916133af6001610feb565b915b6133bc575b50505090565b6133c7610608610ff8565b60ff83161161341b57613415826134106133ea61160c879661075f8760186105e7565b61340d6134076134026133fc89610feb565b86613362565b612f41565b8961337e565b52565b613351565b916133b1565b6133b6565b90610563929161342e613c86565b9161343c61198b60006106fe565b0361344f57612e7e6105639260026105e7565b612e7e6105639260036105e7565b906105639291613420565b60006119a461347992612537606090565b906134856119b5835190565b9160009261349284610dfd565b61349d61052c845190565b811015611b5e576020906134ba6119f66119f06119eb8488611784565b6134c48285611784565b526134cf8184611784565b506134de611a1f808386611784565b6134ea61121588610dfd565b146134ff575b6001019050613492565b613492565b6135149186611a5e611a59611a596024611627565b03915afa8015611b59576134fa9360009161359d575b506135358386611784565b526135408285611784565b5061354f611a1f808487611784565b61355b61121589610dfd565b14613567575b506134f0565b611b1061052c61358192611b01611afc6119eb878b611784565b61358b8285611784565b526135968184611784565b5038613561565b6135b0913d8091833e611b4b81836116b0565b3861352a565b61052c6026610d4f565b71088dedcdee4404c40a0cadccae4d2dac240560731b815261052c916135e891601201611964565b602960f81b815260010190565b66088dedcdee440560cb1b815261052c916135e891600701611964565b690a0cadccae4d2dac240560b31b815261052c916135e891600a01611964565b6c0a8d2c8c2d64082d6e8d2cc405609b1b815261052c916135e891600d01611964565b6020906136656119f682846105e7565b9061366e825190565b61367b6112156000610dfd565b14613753575b61368f611e3982601d6105e7565b8061373f575b61371e576136a7611e3982601d6105e7565b6136fd57611e396136b991601e6105e7565b6136dd5761052c61052c92611b10926136d160405190565b93849283019182613632565b61052c61052c92611b10926136f160405190565b93849283019182613612565b5061052c61052c92611b109261371260405190565b938492830191826135f5565b5061052c61052c92611b109261373360405190565b938492830191826135c0565b5061374e611e3982601e6105e7565b613695565b9050613765611a59611a596024611627565b90600061377160405190565b9283906365f68c8960e01b8252818061378d8660048301610553565b03915afa918215611b59576000926137e4575b5081516137b06112156000610dfd565b036136815790506137de6137c382613a68565b61052c6137cf60405190565b8092611b10878301918261194d565b90613681565b6137f891923d8091833e611b4b81836116b0565b90386137a0565b909161380e61198b60006106fe565b036138885761052c61382191600661072b565b905b61382d6000610dfd565b6001830161383c61052c825490565b82101561387a5761082b82613850926107de565b61385c61242b84610520565b146138695760010161382d565b905061052c91506124506001610dfd565b5050505061052c6000610dfd565b61052c61389691600761072b565b90613823565b61052c9161075f61160c926138af600090565b506138ba6001610feb565b60ff84161015806138d6575b6138cf90611c6d565b60186105e7565b506138cf6138e5610608610ff8565b60ff8516111590506138c6565b610563906138fe613c86565b61395e565b1561390a57565b60405162461bcd60e51b815260206004820152602660248201527f4f776e61626c653a206e6577206f776e657220697320746865207a65726f206160448201526564647265737360d01b6064820152608490fd5b610563906126a2613972611c246000611b95565b61397b83610520565b1415613903565b610563906138f2565b61399434613f09565b6139a1611a596023611627565b7fbdada6c6710e8442230a121675c891b033d6f380375fe10ebee0d13fa56698716139cb60405190565b3481528060208101611f21565b6139e260106120e2565b6f181899199a1a9b1b9c1cb0b131b232b360811b602082015290565b61052c6139d8565b90610563613a1c613a16846120e2565b93611899565b601f190160208401613326565b90613a32825190565b811015610801570160200190565b61052c9081906001600160a01b031681565b61052c90613a6361121561052c9490565b901c90565b90613a716139fe565b613a83613a7e602a610dfd565b613a06565b906000906030613a9b613a9584610dfd565b85613a29565b53613acb613ac6600f60fb1b96600197851a613ac0613aba6001610dfd565b88613a29565b536105d5565b613a40565b9085613ad684610dfd565b905b613aea575b5050505061052c91925090565b613af46014610dfd565b811015613c31576013600882613b0983610dfd565b90613b13916120af565b613b1c82610dfd565b90613b26916123ac565b613b306004610dfd565b613b399161237a565b613b439086613a52565b9083600f92613b5184610dfd565b16613b5c9087613a29565b516001600160f81b03191693600294613b7486610dfd565b613b7e90846123ac565b613b8787610dfd565b90613b919161237a565b908a1a90613b9f908c613a29565b53613ba990610dfd565b90613bb3916120af565b90613bbd90610dfd565b90613bc7916123ac565b613bd19086613a52565b90613bdb90610dfd565b16613be69084613a29565b516001600160f81b03191690613bfb90610dfd565b613c0590836123ac565b613c0f6003610dfd565b90613c199161237a565b90851a90613c279087613a29565b5360010186613ad8565b613add565b15613c3d57565b60405162461bcd60e51b815280611bdc600482016020808252818101527f4f776e61626c653a2063616c6c6572206973206e6f7420746865206f776e6572604082015260600190565b610563613c91612f37565b613c9d61242b33610520565b14613c36565b61052c6002610dfd565b15613cb457565b60405162461bcd60e51b815260206004820152601f60248201527f5265656e7472616e637947756172643a207265656e7472616e742063616c6c006044820152606490fd5b610563613d066000610d4f565b613d1a613d11613ca3565b91821415613cad565b60006120cb565b61052c6001610dfd565b610563613d1a613d21565b50613d416000610dfd565b60018301613d5061052c825490565b821015613d855761082b82613d64926107de565b613d7061242b84610520565b14613d7d57600101613d41565b505050600190565b50505050600090565b64544553545f60d81b815261052c9190600501611964565b613dbb61052c91613db5606090565b50613a68565b61052c613dc760405190565b8092611b10602083019182613d8e565b613df8613df2613de76001611627565b611a59846001611bf5565b916105de565b907f8be0079c531659141344cd1fd0a4f28419497f9722a3daafe3b4186f6b6457e0613e2360405190565b600090a3565b919092613e7290613e3a60006106fe565b613e43826106fe565b03613e9e5783613e5761052c82600661072b565b613e6d838683613e668b613da6565b9a86613fac565b614174565b7f79c48e52778f336d71fd7205d9bbb6344ff7f03a36e5c99ba233c768c684f5c692611f0b915061071b565b83613ead61052c82600761072b565b613e57565b15613eb957565b60405162461bcd60e51b815260206004820152602260248201527f5472616e7366657220746f20706c6174666f726d2077616c6c6574206661696c604482015261195960f21b6064820152608490fd5b613f136000610dfd565b8111613f1c5750565b613f34613f2d82612bb16026610d4f565b60266120cb565b613f5c600080613f446023611627565b60405160009186905af1613f566120ef565b50613eb2565b7fbdada6c6710e8442230a121675c891b033d6f380375fe10ebee0d13fa5669871611f216132f3611a596023611627565b90612d4361052c611c0c9261071b565b60001981146120bc5760010190565b926140c89061056395613ff461406095613fcf86613fca6000840190565b611dbe565b613fee6002613fe261160c8b600961072b565b920191612bb183610d4f565b906120cb565b61400161198b60006106fe565b03614115576140166001612e7e8560196105e7565b6140316140248460106105e7565b613fee83612bb183610d4f565b614065600d614043611e3986836105e7565b61404f60ff891661336a565b1015614104576140608588926105e7565b613f8d565b61407c83613fca61052c8861075f6000600a610711565b6140a061408f8661075f6000600b610711565b613fee61409b82610d4f565b613f9d565b6140b06001612e7e85601d6105e7565b613fee6140be8460146105e7565b91612bb183610d4f565b600f926140d8611e3983866105e7565b6140e460ff831661336a565b10156140f057926105e7565b506140fe611e3982856105e7565b926105e7565b614060856140fe611e3982856105e7565b6141256001612e7e85601a6105e7565b6141336140248460116105e7565b614145600e614043611e3986836105e7565b61415c83613fca61052c8861075f6001600a610711565b61416f61408f8661075f6001600b610711565b6140a0565b805461418461121561340261151f565b036144945761419560028201610d4f565b9160018201916141a3835490565b936000946141b361121587610dfd565b036142f5576141c181613f09565b7f2fbf8158f1441d3df02ca4d624b44312c8832e1c8e11e99f12ccac753ef091f56141ee6132f38561071b565b0390a25b6141fb84610dfd565b84820161420961052c825490565b8210156142e0579061422161082b8261425b946107de565b61422a876106fe565b614233896106fe565b036142cf57614249611e57611e398360026105e7565b806142bb575b614260575b5060010190565b6141fb565b61427361426c82613da6565b9187611dbe565b7f75923699577285aeee0f2452cc72e4bb265c34236afa949e38f10bac9d043c5061429c875490565b6142a58761071b565b926142b2611f1860405190565b0390a238614254565b506142ca611e57858388613d36565b61424f565b614249611e57611e398360036105e7565b50509091506142f0939250614937565b600190565b614306614300611097565b826123ac565b614463878561432060649461431a86610dfd565b9061239d565b61440161219361437e61437761435c61435361434a6143418d6130ff6110fa565b61431a8d610dfd565b9b6130ff610f57565b61431a8b610dfd565b9861431a61437161436b610e59565b8c6123ac565b91610dfd565b80986120af565b97614391612bce8a99612bb16021610d4f565b7fdffdcf1650221d40ebc28c7dee9c29c0c25d60f62413f22fc2f40232f0570c926143f46143bf6021610d4f565b60405191829182908152604060208201819052600d908201526c14dd589cda591e481059191959609a1b606082015260800190565b0390a1612bb16022610d4f565b600080516020614f0c83398151915261445a61441d6022610d4f565b6040519182918290815260406020820181905260159082015274141c9bdb5bdd1a5bdb8814da185c99481059191959605a1b606082015260800190565b0390a1866144da565b61447e9261447088610dfd565b8211614483575b5050613f09565b6141f2565b61448d925061237a565b3880614477565b505050600090565b156144a357565b60405162461bcd60e51b815260206004820152600f60248201526e151c985b9cd9995c8819985a5b1959608a1b6044820152606490fd5b90929060018101906144ea825490565b936000946144fa61121587610dfd565b1161450757505050505090565b61451b61082b8685979994959896986107de565b9384614526896106fe565b61452f896106fe565b0361484057611e396145429160026105e7565b9490945b808061482a575b156145be575061456f906145696145638a610dfd565b86614a8d565b86611dbe565b61457c61082b88876107de565b9384614587896106fe565b614590896106fe565b036145ab57611e396145a39160026105e7565b949094614546565b611e396145b99160036105e7565b6145a3565b90929795509593909295614813576145d582613da6565b946145df816106fe565b6145e8866106fe565b036147c7576145fd6001612e7e85601b6105e7565b61461861460b8460126105e7565b613fee84612bb183610d4f565b61462a61460b8561075f8660166105e7565b61464083613fca61052c8761075f86601f610711565b60019161465283612e7e86601e6105e7565b6146606140248560156105e7565b6146726140248661075f8760186105e7565b61469261468b61468185610dfd565b612bb16025610d4f565b60256120cb565b6146a561469e83610dfd565b8099614a8d565b6146ce82806146b6611a59886105de565b60405160009186905af16146c86120ef565b5061449c565b7f939437a4ca54745f0091a433139d20b352bc6017fded2fd246fb962daffcf7dd61471c614708614703611e3988600f6105e7565b61071b565b9261471260405190565b9182918b83611de7565b0390a2614727610ff8565b60ff811660ff861610156147425750505061052c9350614b89565b9194939092916147549060ff1661336a565b14614762575b505050505090565b7fd9b361bf47fe2618337a293b75315fa7bbdbf002954171bd524823ec6698574e936147ab9361479761198b612905956106fe565b036147b857611a5990612e7e8360026105e7565b0390a2388080808061475a565b611a5990612e7e8360036105e7565b6147d76001612e7e85601c6105e7565b6147e561460b8460136105e7565b6147f761460b8561075f8660176105e7565b61480e83613fca61052c8761075f6001601f610711565b614640565b949250505061482461052c92610dfd565b90614a8d565b50865461483a6112156001610dfd565b1161454d565b611e396145a39160036105e7565b9061485d61123d611640845190565b9060005b81811061486e5750505090565b9091926148886148816001928651611611565b9460200190565b929101614861565b90815260406020820181905261052c9291019061484e565b8181106148b3575050565b806148c16000600193612703565b016148a8565b9190918282106148d657505050565b61056392916148eb9091600052602060002090565b91820191016148a8565b90600160401b81116116d2578161490d610563935490565b908281556148c7565b6000610563916148f5565b906000036149325761056390614916565b6126c0565b9060006149f4916149cd7f8fd30f9875f939ce22bfbb821d5511184258442cd8ea4739ae1a7184a5f902ea6105639661497861408f8561075f84600c610711565b6149d761160c8689019561075f61498e886116f8565b94614997865190565b7f4139a9525f08064b4ecf5a22fed43ad96f5c36beded45f12e36b7c6c9c7ea6016149c18561071b565b998a9261067c60405190565b0390a2600c610711565b6149ec6149e360405190565b92839283614890565b0390a2614921565b6002614a006000610dfd565b91016120cb565b15614a0e57565b60405162461bcd60e51b815260206004820152600d60248201526c092dcecc2d8d2c840d2dcc8caf609b1b6044820152606490fd5b634e487b7160e01b600052603160045260246000fd5b61056391600091611da5565b80548015614a88576000190190614a85614a7f83836107de565b90614a59565b55565b614a43565b9190916001810192614aaa614aa361052c865490565b8210614a07565b8354614abe61052c60019261328e84610dfd565b821015614b035790614af882611de183614af261082b614aec614ae6614afe998b0196610dfd565b8461237a565b856107de565b926107de565b60010190565b614aaa565b50505090614b116105639190565b614a65565b614b229060ff1661336a565b019060ff82116120bc57565b15614b3557565b60405162461bcd60e51b815260206004820152602660248201527f496e73756666696369656e742066756e647320696e20676173207375627369646044820152651e481c1bdbdb60d21b6064820152608490fd5b91614b9f600192614b9984610feb565b90614b16565b614ba7610ff8565b9360ff851660ff83161115614bbe575b5050505050565b600091614bca836106fe565b614bd3856106fe565b03614ef857614be6611e398360026105e7565b614e9557614bf861160c82600961072b565b95614c0283613da6565b96614c0d6022610d4f565b8111614d2a57614c246121938261218e6022610d4f565b614c3086828686613e29565b614cd29161336a917fda692c94204f345b3571e5068d01d3ba5feb073181536206d2ec90648b2a5069614c628661071b565b918b614c70611f1860405190565b0390a2600080516020614f0c833981519152614cc9614c8f6022610d4f565b6040519182918290815260406020820181905260129082015271141c9bdb5bdd1a5bdb881119591d58dd195960721b606082015260800190565b0390a160ff1690565b14614ce8575b50505050505b3880808080614bb7565b7fd9b361bf47fe2618337a293b75315fa7bbdbf002954171bd524823ec6698574e93614d1d9361479761198b612905956106fe565b0390a23880808080614cd8565b614d6e612bce614d43614d3d6022610d4f565b846120af565b614d58614d506021610d4f565b821115614b2e565b614d6461219389610dfd565b61218e6021610d4f565b614d7a86828686613e29565b614e439161336a917fda692c94204f345b3571e5068d01d3ba5feb073181536206d2ec90648b2a5069614dac8661071b565b918b614dba611f1860405190565b0390a2600080516020614f0c833981519152614dd9614c8f6022610d4f565b0390a17fdffdcf1650221d40ebc28c7dee9c29c0c25d60f62413f22fc2f40232f0570c92614cc9614e0a6021610d4f565b604051918291829081526040602082018190526011908201527014da1bdc9d19985b1b0810dbdd995c9959607a1b606082015260800190565b14614e53575b5050505050614cde565b7fd9b361bf47fe2618337a293b75315fa7bbdbf002954171bd524823ec6698574e93614e889361479761198b612905956106fe565b0390a23880808080614e49565b5092505050614ea491506105de565b7fe75c9ee29599690e44dc56b1f00d3447c63d81b97494a1acba06cfbe86f21ac6614ece60405190565b6020808252600c908201526b5f6175746f50726f6d6f746560a01b60408201528060608101611f21565b614f06611e398360036105e7565b614be656fefd2ea02a0529b94bb7faea0148f0e6cfcbf8adefa48aba6ca43399da68e81a50a26469706673582212209fc904a0ba2dc3482e5b458a383c44eb185619ff703e09b560b6086e988d11bb64736f6c634300081a0033",
  "linkReferences": {},
  "deployedLinkReferences": {}
}