{
  "_format": "hh-sol-artifact-1",
  "contractName": "MynnCrypt",
  "sourceName": "contracts/mynnCrypt.sol",
  "abi": [
    {
      "inputs": [
        {
          "internalType": "string",
          "name": "_defaultReferralId",
          "type": "string"
        },
        {
          "internalType": "address",
          "name": "_sharefee",
          "type": "address"
        },
        {
          "internalType": "address",
          "name": "_mynnGiftWallet",
          "type": "address"
        },
        {
          "internalType": "address",
          "name": "_owner",
          "type": "address"
        }
      ],
      "stateMutability": "nonpayable",
      "type": "constructor"
    },
    {
      "anonymous": false,
      "inputs": [
        {
          "indexed": false,
          "internalType": "string",
          "name": "purpose",
          "type": "string"
        },
        {
          "indexed": true,
          "internalType": "address",
          "name": "to",
          "type": "address"
        },
        {
          "indexed": false,
          "internalType": "uint256",
          "name": "amount",
          "type": "uint256"
        }
      ],
      "name": "DebugTransfer",
      "type": "event"
    },
    {
      "anonymous": false,
      "inputs": [
        {
          "indexed": false,
          "internalType": "string",
          "name": "userId",
          "type": "string"
        },
        {
          "indexed": false,
          "internalType": "string",
          "name": "uplineId",
          "type": "string"
        },
        {
          "indexed": false,
          "internalType": "uint256",
          "name": "amount",
          "type": "uint256"
        },
        {
          "indexed": false,
          "internalType": "bool",
          "name": "success",
          "type": "bool"
        }
      ],
      "name": "DebugUpline",
      "type": "event"
    },
    {
      "anonymous": false,
      "inputs": [
        {
          "indexed": true,
          "internalType": "address",
          "name": "to",
          "type": "address"
        },
        {
          "indexed": false,
          "internalType": "uint256",
          "name": "amount",
          "type": "uint256"
        }
      ],
      "name": "FundsDistributed",
      "type": "event"
    },
    {
      "anonymous": false,
      "inputs": [
        {
          "indexed": true,
          "internalType": "address",
          "name": "to",
          "type": "address"
        },
        {
          "indexed": false,
          "internalType": "uint256",
          "name": "amount",
          "type": "uint256"
        }
      ],
      "name": "FundsWithdrawn",
      "type": "event"
    },
    {
      "anonymous": false,
      "inputs": [
        {
          "indexed": true,
          "internalType": "address",
          "name": "previousOwner",
          "type": "address"
        },
        {
          "indexed": true,
          "internalType": "address",
          "name": "newOwner",
          "type": "address"
        }
      ],
      "name": "OwnershipTransferred",
      "type": "event"
    },
    {
      "anonymous": false,
      "inputs": [
        {
          "indexed": true,
          "internalType": "string",
          "name": "userId",
          "type": "string"
        },
        {
          "indexed": true,
          "internalType": "string",
          "name": "referrerId",
          "type": "string"
        },
        {
          "indexed": false,
          "internalType": "uint256",
          "name": "amount",
          "type": "uint256"
        }
      ],
      "name": "ReferralDistribution",
      "type": "event"
    },
    {
      "anonymous": false,
      "inputs": [
        {
          "indexed": true,
          "internalType": "string",
          "name": "userId",
          "type": "string"
        },
        {
          "indexed": false,
          "internalType": "uint256",
          "name": "amount",
          "type": "uint256"
        }
      ],
      "name": "RoyaltyClaimed",
      "type": "event"
    },
    {
      "anonymous": false,
      "inputs": [
        {
          "indexed": true,
          "internalType": "string",
          "name": "userId",
          "type": "string"
        },
        {
          "indexed": false,
          "internalType": "uint256",
          "name": "amount",
          "type": "uint256"
        }
      ],
      "name": "RoyaltyReward",
      "type": "event"
    },
    {
      "anonymous": false,
      "inputs": [
        {
          "indexed": true,
          "internalType": "string",
          "name": "userId",
          "type": "string"
        },
        {
          "indexed": true,
          "internalType": "address",
          "name": "sharefee",
          "type": "address"
        },
        {
          "indexed": false,
          "internalType": "uint256",
          "name": "amount",
          "type": "uint256"
        }
      ],
      "name": "SharefeeDistribution",
      "type": "event"
    },
    {
      "anonymous": false,
      "inputs": [
        {
          "indexed": true,
          "internalType": "address",
          "name": "newSharefee",
          "type": "address"
        }
      ],
      "name": "SharefeeUpdated",
      "type": "event"
    },
    {
      "anonymous": false,
      "inputs": [
        {
          "indexed": true,
          "internalType": "string",
          "name": "userId",
          "type": "string"
        },
        {
          "indexed": true,
          "internalType": "string",
          "name": "sponsorId",
          "type": "string"
        },
        {
          "indexed": false,
          "internalType": "uint256",
          "name": "amount",
          "type": "uint256"
        }
      ],
      "name": "SponsorDistribution",
      "type": "event"
    },
    {
      "anonymous": false,
      "inputs": [
        {
          "indexed": true,
          "internalType": "string",
          "name": "userId",
          "type": "string"
        },
        {
          "indexed": true,
          "internalType": "string",
          "name": "sponsorId",
          "type": "string"
        },
        {
          "indexed": false,
          "internalType": "uint256",
          "name": "amount",
          "type": "uint256"
        }
      ],
      "name": "SponsorReward",
      "type": "event"
    },
    {
      "anonymous": false,
      "inputs": [
        {
          "indexed": false,
          "internalType": "uint256",
          "name": "totalAmount",
          "type": "uint256"
        },
        {
          "indexed": false,
          "internalType": "uint256",
          "name": "totalRecipients",
          "type": "uint256"
        },
        {
          "indexed": false,
          "internalType": "uint256",
          "name": "timestamp",
          "type": "uint256"
        }
      ],
      "name": "TotalRoyaltyDistributed",
      "type": "event"
    },
    {
      "anonymous": false,
      "inputs": [
        {
          "indexed": true,
          "internalType": "string",
          "name": "id",
          "type": "string"
        },
        {
          "indexed": false,
          "internalType": "uint256",
          "name": "newLevel",
          "type": "uint256"
        },
        {
          "indexed": false,
          "internalType": "uint256",
          "name": "cost",
          "type": "uint256"
        }
      ],
      "name": "Upgraded",
      "type": "event"
    },
    {
      "anonymous": false,
      "inputs": [
        {
          "indexed": true,
          "internalType": "string",
          "name": "userId",
          "type": "string"
        },
        {
          "indexed": true,
          "internalType": "string",
          "name": "uplineId",
          "type": "string"
        },
        {
          "indexed": false,
          "internalType": "uint256",
          "name": "amount",
          "type": "uint256"
        }
      ],
      "name": "UplineDistribution",
      "type": "event"
    },
    {
      "anonymous": false,
      "inputs": [
        {
          "indexed": true,
          "internalType": "string",
          "name": "userId",
          "type": "string"
        },
        {
          "indexed": true,
          "internalType": "string",
          "name": "uplineId",
          "type": "string"
        },
        {
          "indexed": false,
          "internalType": "uint256",
          "name": "amount",
          "type": "uint256"
        }
      ],
      "name": "UplineReward",
      "type": "event"
    },
    {
      "anonymous": false,
      "inputs": [
        {
          "indexed": true,
          "internalType": "string",
          "name": "userId",
          "type": "string"
        },
        {
          "indexed": false,
          "internalType": "uint256",
          "name": "newLevel",
          "type": "uint256"
        },
        {
          "indexed": false,
          "internalType": "uint256",
          "name": "amount",
          "type": "uint256"
        }
      ],
      "name": "UserUpgraded",
      "type": "event"
    },
    {
      "anonymous": false,
      "inputs": [
        {
          "indexed": true,
          "internalType": "string",
          "name": "userId",
          "type": "string"
        },
        {
          "indexed": true,
          "internalType": "address",
          "name": "receiver",
          "type": "address"
        },
        {
          "indexed": false,
          "internalType": "uint256",
          "name": "amount",
          "type": "uint256"
        }
      ],
      "name": "mynnGiftDistribution",
      "type": "event"
    },
    {
      "inputs": [
        {
          "internalType": "uint256",
          "name": "",
          "type": "uint256"
        }
      ],
      "name": "activity",
      "outputs": [
        {
          "internalType": "string",
          "name": "id",
          "type": "string"
        },
        {
          "internalType": "uint256",
          "name": "level",
          "type": "uint256"
        }
      ],
      "stateMutability": "view",
      "type": "function"
    },
    {
      "inputs": [],
      "name": "checkContractBalance",
      "outputs": [
        {
          "internalType": "uint256",
          "name": "",
          "type": "uint256"
        }
      ],
      "stateMutability": "view",
      "type": "function"
    },
    {
      "inputs": [],
      "name": "claimRoyalty",
      "outputs": [],
      "stateMutability": "nonpayable",
      "type": "function"
    },
    {
      "inputs": [
        {
          "internalType": "string",
          "name": "",
          "type": "string"
        }
      ],
      "name": "claimableRoyalty",
      "outputs": [
        {
          "internalType": "uint256",
          "name": "",
          "type": "uint256"
        }
      ],
      "stateMutability": "view",
      "type": "function"
    },
    {
      "inputs": [
        {
          "internalType": "address",
          "name": "_address",
          "type": "address"
        }
      ],
      "name": "getBalance",
      "outputs": [
        {
          "internalType": "uint256",
          "name": "",
          "type": "uint256"
        }
      ],
      "stateMutability": "view",
      "type": "function"
    },
    {
      "inputs": [],
      "name": "getDefaultRefer",
      "outputs": [
        {
          "internalType": "string",
          "name": "",
          "type": "string"
        }
      ],
      "stateMutability": "view",
      "type": "function"
    },
    {
      "inputs": [
        {
          "internalType": "string",
          "name": "_user",
          "type": "string"
        }
      ],
      "name": "getDirectTeamUsers",
      "outputs": [
        {
          "components": [
            {
              "internalType": "uint256",
              "name": "totalIncome",
              "type": "uint256"
            },
            {
              "internalType": "uint256",
              "name": "totalDeposit",
              "type": "uint256"
            },
            {
              "internalType": "uint256",
              "name": "royaltyIncome",
              "type": "uint256"
            },
            {
              "internalType": "uint256",
              "name": "referralIncome",
              "type": "uint256"
            },
            {
              "internalType": "uint256",
              "name": "levelIncome",
              "type": "uint256"
            },
            {
              "internalType": "uint256",
              "name": "sponsorIncome",
              "type": "uint256"
            },
            {
              "internalType": "uint256",
              "name": "start",
              "type": "uint256"
            },
            {
              "internalType": "uint256",
              "name": "level",
              "type": "uint256"
            },
            {
              "internalType": "uint256",
              "name": "directTeam",
              "type": "uint256"
            },
            {
              "internalType": "uint256",
              "name": "totalMatrixTeam",
              "type": "uint256"
            },
            {
              "internalType": "uint8",
              "name": "layer",
              "type": "uint8"
            },
            {
              "internalType": "address",
              "name": "account",
              "type": "address"
            },
            {
              "internalType": "string",
              "name": "id",
              "type": "string"
            },
            {
              "internalType": "string",
              "name": "referrer",
              "type": "string"
            },
            {
              "internalType": "string",
              "name": "upline",
              "type": "string"
            },
            {
              "internalType": "string[]",
              "name": "directTeamMembers",
              "type": "string[]"
            }
          ],
          "internalType": "struct MynnCrypt.User[]",
          "name": "",
          "type": "tuple[]"
        }
      ],
      "stateMutability": "view",
      "type": "function"
    },
    {
      "inputs": [
        {
          "internalType": "address",
          "name": "_address",
          "type": "address"
        }
      ],
      "name": "getId",
      "outputs": [
        {
          "internalType": "string",
          "name": "",
          "type": "string"
        }
      ],
      "stateMutability": "view",
      "type": "function"
    },
    {
      "inputs": [
        {
          "internalType": "string",
          "name": "_user",
          "type": "string"
        }
      ],
      "name": "getIncome",
      "outputs": [
        {
          "components": [
            {
              "internalType": "string",
              "name": "id",
              "type": "string"
            },
            {
              "internalType": "uint256",
              "name": "layer",
              "type": "uint256"
            },
            {
              "internalType": "uint256",
              "name": "amount",
              "type": "uint256"
            },
            {
              "internalType": "uint256",
              "name": "time",
              "type": "uint256"
            }
          ],
          "internalType": "struct MynnCrypt.Income[]",
          "name": "",
          "type": "tuple[]"
        }
      ],
      "stateMutability": "view",
      "type": "function"
    },
    {
      "inputs": [
        {
          "internalType": "uint256",
          "name": "_level",
          "type": "uint256"
        }
      ],
      "name": "getLevelCost",
      "outputs": [
        {
          "internalType": "uint256",
          "name": "",
          "type": "uint256"
        }
      ],
      "stateMutability": "view",
      "type": "function"
    },
    {
      "inputs": [
        {
          "internalType": "string",
          "name": "_id",
          "type": "string"
        }
      ],
      "name": "getLevelIncome",
      "outputs": [
        {
          "internalType": "uint256[12]",
          "name": "",
          "type": "uint256[12]"
        }
      ],
      "stateMutability": "view",
      "type": "function"
    },
    {
      "inputs": [],
      "name": "getLevels",
      "outputs": [
        {
          "internalType": "uint256[12]",
          "name": "",
          "type": "uint256[12]"
        },
        {
          "internalType": "uint256[12]",
          "name": "",
          "type": "uint256[12]"
        }
      ],
      "stateMutability": "view",
      "type": "function"
    },
    {
      "inputs": [
        {
          "internalType": "string",
          "name": "_user",
          "type": "string"
        }
      ],
      "name": "getMatrixDirect",
      "outputs": [
        {
          "internalType": "string[]",
          "name": "",
          "type": "string[]"
        }
      ],
      "stateMutability": "view",
      "type": "function"
    },
    {
      "inputs": [
        {
          "internalType": "string",
          "name": "_user",
          "type": "string"
        },
        {
          "internalType": "uint256",
          "name": "_layer",
          "type": "uint256"
        }
      ],
      "name": "getMatrixUsers",
      "outputs": [
        {
          "components": [
            {
              "internalType": "uint256",
              "name": "totalIncome",
              "type": "uint256"
            },
            {
              "internalType": "uint256",
              "name": "totalDeposit",
              "type": "uint256"
            },
            {
              "internalType": "uint256",
              "name": "royaltyIncome",
              "type": "uint256"
            },
            {
              "internalType": "uint256",
              "name": "referralIncome",
              "type": "uint256"
            },
            {
              "internalType": "uint256",
              "name": "levelIncome",
              "type": "uint256"
            },
            {
              "internalType": "uint256",
              "name": "sponsorIncome",
              "type": "uint256"
            },
            {
              "internalType": "uint256",
              "name": "start",
              "type": "uint256"
            },
            {
              "internalType": "uint256",
              "name": "level",
              "type": "uint256"
            },
            {
              "internalType": "uint256",
              "name": "directTeam",
              "type": "uint256"
            },
            {
              "internalType": "uint256",
              "name": "totalMatrixTeam",
              "type": "uint256"
            },
            {
              "internalType": "uint8",
              "name": "layer",
              "type": "uint8"
            },
            {
              "internalType": "address",
              "name": "account",
              "type": "address"
            },
            {
              "internalType": "string",
              "name": "id",
              "type": "string"
            },
            {
              "internalType": "string",
              "name": "referrer",
              "type": "string"
            },
            {
              "internalType": "string",
              "name": "upline",
              "type": "string"
            },
            {
              "internalType": "string[]",
              "name": "directTeamMembers",
              "type": "string[]"
            }
          ],
          "internalType": "struct MynnCrypt.User[]",
          "name": "",
          "type": "tuple[]"
        }
      ],
      "stateMutability": "view",
      "type": "function"
    },
    {
      "inputs": [],
      "name": "getMynnGiftWallet",
      "outputs": [
        {
          "internalType": "address",
          "name": "",
          "type": "address"
        }
      ],
      "stateMutability": "view",
      "type": "function"
    },
    {
      "inputs": [],
      "name": "getPlatformIncome",
      "outputs": [
        {
          "internalType": "uint256",
          "name": "",
          "type": "uint256"
        }
      ],
      "stateMutability": "view",
      "type": "function"
    },
    {
      "inputs": [
        {
          "internalType": "uint256",
          "name": "_num",
          "type": "uint256"
        }
      ],
      "name": "getRecentActivities",
      "outputs": [
        {
          "components": [
            {
              "internalType": "string",
              "name": "id",
              "type": "string"
            },
            {
              "internalType": "uint256",
              "name": "level",
              "type": "uint256"
            }
          ],
          "internalType": "struct MynnCrypt.Activity[]",
          "name": "",
          "type": "tuple[]"
        }
      ],
      "stateMutability": "view",
      "type": "function"
    },
    {
      "inputs": [
        {
          "internalType": "string",
          "name": "_userId",
          "type": "string"
        }
      ],
      "name": "getRoyaltyIncome",
      "outputs": [
        {
          "internalType": "uint256",
          "name": "",
          "type": "uint256"
        }
      ],
      "stateMutability": "view",
      "type": "function"
    },
    {
      "inputs": [
        {
          "internalType": "uint256",
          "name": "_level",
          "type": "uint256"
        }
      ],
      "name": "getRoyaltyUsers",
      "outputs": [
        {
          "internalType": "string[]",
          "name": "",
          "type": "string[]"
        }
      ],
      "stateMutability": "view",
      "type": "function"
    },
    {
      "inputs": [],
      "name": "getSharefee",
      "outputs": [
        {
          "internalType": "address",
          "name": "",
          "type": "address"
        }
      ],
      "stateMutability": "view",
      "type": "function"
    },
    {
      "inputs": [
        {
          "internalType": "string",
          "name": "_userId",
          "type": "string"
        }
      ],
      "name": "getUserIncomeBreakdown",
      "outputs": [
        {
          "internalType": "uint256",
          "name": "",
          "type": "uint256"
        },
        {
          "internalType": "uint256",
          "name": "",
          "type": "uint256"
        },
        {
          "internalType": "uint256",
          "name": "",
          "type": "uint256"
        },
        {
          "internalType": "uint256",
          "name": "",
          "type": "uint256"
        },
        {
          "internalType": "uint256",
          "name": "",
          "type": "uint256"
        }
      ],
      "stateMutability": "view",
      "type": "function"
    },
    {
      "inputs": [
        {
          "internalType": "uint256",
          "name": "",
          "type": "uint256"
        }
      ],
      "name": "globalUsers",
      "outputs": [
        {
          "internalType": "string",
          "name": "",
          "type": "string"
        }
      ],
      "stateMutability": "view",
      "type": "function"
    },
    {
      "inputs": [
        {
          "internalType": "address",
          "name": "",
          "type": "address"
        }
      ],
      "name": "id",
      "outputs": [
        {
          "internalType": "string",
          "name": "",
          "type": "string"
        }
      ],
      "stateMutability": "view",
      "type": "function"
    },
    {
      "inputs": [
        {
          "internalType": "string",
          "name": "",
          "type": "string"
        },
        {
          "internalType": "uint256",
          "name": "",
          "type": "uint256"
        }
      ],
      "name": "incomeInfo",
      "outputs": [
        {
          "internalType": "string",
          "name": "id",
          "type": "string"
        },
        {
          "internalType": "uint256",
          "name": "layer",
          "type": "uint256"
        },
        {
          "internalType": "uint256",
          "name": "amount",
          "type": "uint256"
        },
        {
          "internalType": "uint256",
          "name": "time",
          "type": "uint256"
        }
      ],
      "stateMutability": "view",
      "type": "function"
    },
    {
      "inputs": [
        {
          "internalType": "string",
          "name": "",
          "type": "string"
        }
      ],
      "name": "matrixDirect",
      "outputs": [
        {
          "internalType": "uint256",
          "name": "",
          "type": "uint256"
        }
      ],
      "stateMutability": "view",
      "type": "function"
    },
    {
      "inputs": [],
      "name": "nextUserId",
      "outputs": [
        {
          "internalType": "uint256",
          "name": "",
          "type": "uint256"
        }
      ],
      "stateMutability": "view",
      "type": "function"
    },
    {
      "inputs": [],
      "name": "owner",
      "outputs": [
        {
          "internalType": "address",
          "name": "",
          "type": "address"
        }
      ],
      "stateMutability": "view",
      "type": "function"
    },
    {
      "inputs": [],
      "name": "platformIncome",
      "outputs": [
        {
          "internalType": "uint256",
          "name": "",
          "type": "uint256"
        }
      ],
      "stateMutability": "view",
      "type": "function"
    },
    {
      "inputs": [
        {
          "internalType": "string",
          "name": "_ref",
          "type": "string"
        },
        {
          "internalType": "address",
          "name": "_newAcc",
          "type": "address"
        }
      ],
      "name": "register",
      "outputs": [],
      "stateMutability": "payable",
      "type": "function"
    },
    {
      "inputs": [],
      "name": "renounceOwnership",
      "outputs": [],
      "stateMutability": "nonpayable",
      "type": "function"
    },
    {
      "inputs": [
        {
          "internalType": "uint256",
          "name": "",
          "type": "uint256"
        }
      ],
      "name": "royalty",
      "outputs": [
        {
          "internalType": "uint256",
          "name": "",
          "type": "uint256"
        }
      ],
      "stateMutability": "view",
      "type": "function"
    },
    {
      "inputs": [
        {
          "internalType": "string",
          "name": "",
          "type": "string"
        }
      ],
      "name": "royaltyIncome",
      "outputs": [
        {
          "internalType": "uint256",
          "name": "",
          "type": "uint256"
        }
      ],
      "stateMutability": "view",
      "type": "function"
    },
    {
      "inputs": [],
      "name": "royaltyLastDist",
      "outputs": [
        {
          "internalType": "uint256",
          "name": "",
          "type": "uint256"
        }
      ],
      "stateMutability": "view",
      "type": "function"
    },
    {
      "inputs": [],
      "name": "royaltyPool",
      "outputs": [
        {
          "internalType": "uint256",
          "name": "",
          "type": "uint256"
        }
      ],
      "stateMutability": "view",
      "type": "function"
    },
    {
      "inputs": [
        {
          "internalType": "uint256",
          "name": "",
          "type": "uint256"
        },
        {
          "internalType": "uint256",
          "name": "",
          "type": "uint256"
        }
      ],
      "name": "royaltyUsers",
      "outputs": [
        {
          "internalType": "string",
          "name": "",
          "type": "string"
        }
      ],
      "stateMutability": "view",
      "type": "function"
    },
    {
      "inputs": [
        {
          "internalType": "string",
          "name": "_newDefaultReferralId",
          "type": "string"
        }
      ],
      "name": "setDefaultReferralId",
      "outputs": [],
      "stateMutability": "nonpayable",
      "type": "function"
    },
    {
      "inputs": [
        {
          "internalType": "address",
          "name": "_newMynnGiftWallet",
          "type": "address"
        }
      ],
      "name": "setMynnGiftWallet",
      "outputs": [],
      "stateMutability": "nonpayable",
      "type": "function"
    },
    {
      "inputs": [
        {
          "internalType": "address",
          "name": "_newSharefee",
          "type": "address"
        }
      ],
      "name": "setSharefee",
      "outputs": [],
      "stateMutability": "nonpayable",
      "type": "function"
    },
    {
      "inputs": [],
      "name": "startTime",
      "outputs": [
        {
          "internalType": "uint256",
          "name": "",
          "type": "uint256"
        }
      ],
      "stateMutability": "view",
      "type": "function"
    },
    {
      "inputs": [
        {
          "internalType": "string",
          "name": "",
          "type": "string"
        },
        {
          "internalType": "uint256",
          "name": "",
          "type": "uint256"
        },
        {
          "internalType": "uint256",
          "name": "",
          "type": "uint256"
        }
      ],
      "name": "teams",
      "outputs": [
        {
          "internalType": "string",
          "name": "",
          "type": "string"
        }
      ],
      "stateMutability": "view",
      "type": "function"
    },
    {
      "inputs": [
        {
          "internalType": "string",
          "name": "_userId",
          "type": "string"
        }
      ],
      "name": "totalMynnGiftDonations",
      "outputs": [
        {
          "internalType": "uint256",
          "name": "",
          "type": "uint256"
        }
      ],
      "stateMutability": "view",
      "type": "function"
    },
    {
      "inputs": [],
      "name": "totalUsers",
      "outputs": [
        {
          "internalType": "uint256",
          "name": "",
          "type": "uint256"
        }
      ],
      "stateMutability": "view",
      "type": "function"
    },
    {
      "inputs": [
        {
          "internalType": "address",
          "name": "newOwner",
          "type": "address"
        }
      ],
      "name": "transferOwnership",
      "outputs": [],
      "stateMutability": "nonpayable",
      "type": "function"
    },
    {
      "inputs": [
        {
          "internalType": "string",
          "name": "_id",
          "type": "string"
        },
        {
          "internalType": "uint256",
          "name": "_lvls",
          "type": "uint256"
        }
      ],
      "name": "upgrade",
      "outputs": [],
      "stateMutability": "payable",
      "type": "function"
    },
    {
      "inputs": [
        {
          "internalType": "string",
          "name": "",
          "type": "string"
        }
      ],
      "name": "userIds",
      "outputs": [
        {
          "internalType": "address",
          "name": "",
          "type": "address"
        }
      ],
      "stateMutability": "view",
      "type": "function"
    },
    {
      "inputs": [
        {
          "internalType": "string",
          "name": "",
          "type": "string"
        }
      ],
      "name": "userInfo",
      "outputs": [
        {
          "internalType": "uint256",
          "name": "totalIncome",
          "type": "uint256"
        },
        {
          "internalType": "uint256",
          "name": "totalDeposit",
          "type": "uint256"
        },
        {
          "internalType": "uint256",
          "name": "royaltyIncome",
          "type": "uint256"
        },
        {
          "internalType": "uint256",
          "name": "referralIncome",
          "type": "uint256"
        },
        {
          "internalType": "uint256",
          "name": "levelIncome",
          "type": "uint256"
        },
        {
          "internalType": "uint256",
          "name": "sponsorIncome",
          "type": "uint256"
        },
        {
          "internalType": "uint256",
          "name": "start",
          "type": "uint256"
        },
        {
          "internalType": "uint256",
          "name": "level",
          "type": "uint256"
        },
        {
          "internalType": "uint256",
          "name": "directTeam",
          "type": "uint256"
        },
        {
          "internalType": "uint256",
          "name": "totalMatrixTeam",
          "type": "uint256"
        },
        {
          "internalType": "uint8",
          "name": "layer",
          "type": "uint8"
        },
        {
          "internalType": "address",
          "name": "account",
          "type": "address"
        },
        {
          "internalType": "string",
          "name": "id",
          "type": "string"
        },
        {
          "internalType": "string",
          "name": "referrer",
          "type": "string"
        },
        {
          "internalType": "string",
          "name": "upline",
          "type": "string"
        }
      ],
      "stateMutability": "view",
      "type": "function"
    },
    {
      "inputs": [
        {
          "internalType": "string",
          "name": "",
          "type": "string"
        },
        {
          "internalType": "uint256",
          "name": "",
          "type": "uint256"
        }
      ],
      "name": "userLevelIncome",
      "outputs": [
        {
          "internalType": "uint256",
          "name": "",
          "type": "uint256"
        }
      ],
      "stateMutability": "view",
      "type": "function"
    },
    {
      "inputs": [
        {
          "internalType": "address payable",
          "name": "_to",
          "type": "address"
        }
      ],
      "name": "withdrawRemainingFunds",
      "outputs": [],
      "stateMutability": "nonpayable",
      "type": "function"
    },
    {
      "stateMutability": "payable",
      "type": "receive"
    }
  ],
  "bytecode": "0x60806040523461002e5761001d61001461018c565b9291909161072a565b604051615a79610d3a8239615a7990f35b600080fd5b634e487b7160e01b600052604160045260246000fd5b90601f01601f191681019081106001600160401b0382111761006a57604052565b610033565b9061008361007c60405190565b9283610049565b565b6001600160401b03811161006a57602090601f01601f19160190565b0190565b60005b8381106100b85750506000910152565b81810151838201526020016100a8565b909291926100dd6100d882610085565b61006f565b938185528183011161002e576100839160208501906100a5565b9080601f8301121561002e578151610111926020016100c8565b90565b6001600160a01b031690565b6001600160a01b0381160361002e57565b9050519061008382610120565b60808183031261002e5780516001600160401b03811161002e57826101649183016100f7565b926101116101758460208501610131565b9360606101858260408701610131565b9401610131565b6101aa6167b38038038061019f8161006f565b92833981019061013e565b90919293565b6001600160401b03811161006a5760200290565b6100d8610111916101b0565b6101dd6101116101119290565b60ff1690565b9052565b9160001960089290920291821b911b5b9181191691161790565b6101116101116101119290565b919061021f61011161022793610201565b9083546101e7565b9055565b6100839160009161020e565b818110610242575050565b80610250600060019361022b565b01610237565b91909182821061026557505050565b6100839281019101610237565b9068010000000000000000811161006a576100839160055b90610256565b6005916102aa6102a66001926101118686610272565b9290565b92049160005b8381106102bd5750505050565b60019060206102d0610111865160ff1690565b94019381840155016102b0565b9061008391610290565b6102f46101116101119290565b6001600160401b031690565b9068010000000000000000811161006a5761008391600c61028a565b600c916103326102a66001926101118686610300565b92049160005b8381106103455750505050565b600190602061035e61011186516001600160401b031690565b9401938184015501610338565b906100839161031c565b600c9161038b6102a66001926101118686610300565b92049160005b83811061039e5750505050565b60019060206103b1610111865160ff1690565b9401938184015501610391565b9061008391610375565b90600019906101f7565b906103e261011161022792610201565b82546103c8565b6101146101116101119290565b610111906103e9565b1561040657565b60405162461bcd60e51b815260206004820152601860248201527f496e76616c6964207368617265666565206164647265737300000000000000006044820152606490fd5b1561045257565b60405162461bcd60e51b815260206004820152601f60248201527f496e76616c6964206d796e6e476966742077616c6c65742061646472657373006044820152606490fd5b634e487b7160e01b600052602260045260246000fd5b90600160028304921680156104cd575b60208310146104c857565b610497565b91607f16916104bd565b8181106104e2575050565b806104f0600060019361022b565b016104d7565b9190601f811161050557505050565b61051761008393600052602060002090565b906020601f840181900483019310610539575b6020601f9091010401906104d7565b909150819061052a565b9061054c815190565b906001600160401b03821161006a5761056f8261056985546104ad565b856104f6565b602090601f83116001146105aa5761022792916000918361059f575b5050600019600883021c1916906002021790565b01519050388061058b565b601f198316916105bf85600052602060002090565b9260005b8181106105fd575091600293918560019694106105e4575b50505002019055565b01516000196008601f8516021c191690553880806105db565b919360206001819287870151815501950192016105c3565b9061008391610543565b906001600160a01b03906101f7565b61011190610114906001600160a01b031682565b6101119061062e565b61011190610642565b906106646101116102279261064b565b825461061f565b906106759061064b565b600052602052604060002090565b6100a161069b92602092610695815190565b94859290565b938491016100a5565b6106b46100a19160209493610683565b918252565b6106ce6106c560405190565b928392836106a4565b03902090565b610111916106b9565b6101e390610201565b60408082526014908201527f436f6e7374727563746f72204465706c6f796564000000000000000000000000606082015260808101929161008391602001906106dd565b83610b6e610b7392610b34610b2d610aad96610b126100839a9961074c610bd7565b61084861075960056101c4565b61076d610766601c6101d0565b60ff168252565b61078461077a60196101d0565b60ff166020830152565b61079b61079160146101d0565b60ff166040830152565b6107b26107a8600f6101d0565b60ff166060830152565b6107d06107bf600c6101d0565b60ff811660808401529160066102dd565b6108416107dd60056101c4565b916107f26107eb60086101d0565b60ff168452565b6108096107ff60096101d0565b60ff166020850152565b610820610816600a6101d0565b60ff166040850152565b61083761082d600b6101d0565b60ff166060850152565b60ff166080830152565b600b6102dd565b610a08610855600c6101c4565b610875610868660fa1c6d50300006102e7565b6001600160401b03168252565b6108986108886619945ca26200006102e7565b6001600160401b03166020830152565b6108bb6108ab662aa1efb94e00006102e7565b6001600160401b03166040830152565b6108de6108ce665fec5b60ef80006102e7565b6001600160401b03166060830152565b6109016108f166b30e8870ae00006102e7565b6001600160401b03166080830152565b61092561091567016a6075a71700006102e7565b6001600160401b031660a0830152565b61094961093967026a2c13feeb00006102e7565b6001600160401b031660c0830152565b61096d61095d6704547258d1ec00006102e7565b6001600160401b031660e0830152565b610992610981670b5303ad38b800006102e7565b6001600160401b0316610100830152565b6109b76109a66714a6701dc1c800006102e7565b6001600160401b0316610120830152565b6109dc6109cb67264d7d607c1400006102e7565b6001600160401b0316610140830152565b610a016109f0674c9afac0f82800006102e7565b6001600160401b0316610160830152565b601061036b565b610b0b610a15600c6101c4565b9360009b8c95610a30610a27886101d0565b60ff1682890152565b610aa6610a3d60506101d0565b60ff8116602084018190526040840152610a83610a5a60326101d0565b60ff908116606086018190529083166080860181905260a0860181905260c086015260e0850152565b60ff16610100830181905261012083018190526101408301819052610160830152565b601c6103be565b610af9610ae8610aca6122b997610ac58960296103d2565b6103f6565b6101146001600160a01b0382166001600160a01b03861614156103ff565b6001600160a01b038516141561044b565b610b04886005610615565b6002610654565b6003610654565b610b1d4260346103d2565b610b2842602a6103d2565b610201565b60296103d2565b610b53610b4086610201565b610b4a60016101d0565b90858480610c66565b610b6781610b6285603a61066b565b610615565b603b6106d4565b610654565b610b87610b806001610201565b602b6103d2565b7fddb9b4fa58ddb64773d9983027c8e9855dd1dee8c8034344c9af0d198513dc38610bcf610bbc610bb73061064b565b61064b565b92610bc660405190565b918291826106e6565b0390a2610ce7565b610bdf610be8565b61008333610ce7565b610083610bfa565b6101116001610201565b610083610c05610bf0565b60006103d2565b90610100600160a81b039060081b6101f7565b90610c2f6101116102279261064b565b8254610c0c565b9060ff906101f7565b6101dd6101116101119260ff1690565b90610c5f61011161022792610c3f565b8254610c36565b9260016100839594610c99610ccf94610c90610c866101118560356106d4565b93600b8501610615565b600c8301610615565b610ca7600a82019586610c1f565b610cb442600683016103d2565b610cc9610cc083610201565b600783016103d2565b016103d2565b610c4f565b61011190610114565b6101119054610cd4565b610d08610d02610cf76001610cdd565b610bb7846001610654565b9161064b565b907f8be0079c531659141344cd1fd0a4f28419497f9722a3daafe3b4186f6b6457e0610d3360405190565b600090a356fe6080604052600436101561001b575b361561001957600080fd5b005b60003560e01c80630c1a64331461031b5780630c394a60146103165780630d6709bc146103115780631e59c5291461030c57806324222dc6146103075780632707161b1461030257806329b785f9146102fd5780632b6e4da0146102f8578063329df78e146102f35780633bca11ee146102ee5780633ff868ea146102e9578063431a2568146102e457806350312c9e146102df5780635f151915146102da57806365f68c89146102d5578063691a87f9146102d05780636a8d0592146102cb578063713ce3d3146102c6578063715018a6146102c1578063715e8ca4146102bc57806376c4c1fd146102b757806378e97925146102b25780637a3ab2ca146102ad5780637c3f0c7b146102a85780638955defb146102a35780638da5cb5b1461029e578063900e92c4146102995780639c7a35ce14610294578063a06e5d2f1461028f578063a1e6a2551461028a578063b3b5a9c914610285578063bb4bbbca14610280578063bed989c91461027b578063bff1f9e114610276578063cb9bf50714610271578063d2831c961461026c578063d2b4122914610267578063d2d4dbe714610262578063def9635c1461025d578063e10dc5be14610258578063e55645ef14610253578063e814cb711461024e578063ee8f232814610249578063f2fde38b14610244578063f6abd4e91461023f578063f8b2cb4f1461023a578063fb93c854146102355763ffb988a30361000e57611626565b6115fe565b6115e4565b6115b6565b61153d565b611516565b61145c565b611412565b6113f7565b6113cc565b6113b1565b61139d565b611385565b61136a565b61134f565b611328565b6112e6565b61122a565b61120f565b6111e8565b6111c1565b61119d565b611182565b611167565b611107565b6110be565b61107c565b611054565b610fcc565b610ef7565b610ecf565b610cce565b610c12565b6109f2565b6109d7565b6109bc565b610995565b61095d565b6107ba565b6107a2565b610773565b610725565b61062c565b6105d9565b610583565b610502565b6103ea565b610341565b600091031261032b57565b600080fd5b6001600160a01b031690565b90565b565b3461032b57610351366004610320565b61037661035c611654565b604051918291826001600160a01b03909116815260200190565b0390f35b0190565b61039261038e600c9390565b9390565b9190565b6000915b8383106103a35750505050565b6103bd6103b66001928451815260200190565b9260200190565b92019190610396565b9161018061033f9294936103e3610300820196600083019061037e565b019061037e565b3461032b576103fa366004610320565b610402611722565b9061037661040f60405190565b928392836103c6565b634e487b7160e01b600052604160045260246000fd5b90601f01601f1916810190811067ffffffffffffffff82111761045057604052565b610418565b9061033f61046260405190565b928361042e565b67ffffffffffffffff811161045057602090601f01601f19160190565b90826000939282370152565b909291926104a76104a282610469565b610455565b938185528183011161032b5761033f916020850190610486565b9080601f8301121561032b5781602061033c93359101610492565b9060208282031261032b57813567ffffffffffffffff811161032b5761033c92016104c1565b3461032b5761037661051d6105183660046104dc565b611749565b6040515b9182918290815260200190565b6001600160a01b0381165b0361032b57565b9050359061033f8261052e565b919060408382031261032b5782359067ffffffffffffffff821161032b57602061057c8261033c9487016104c1565b9401610540565b61059761059136600461054d565b90611e9f565b604051005b9095949261033f946105ce6105d5926105c76080966105c060a088019c6000890152565b6020870152565b6040850152565b6060830152565b0152565b3461032b576103766105f46105ef3660046104dc565b612118565b9161060195939560405190565b9586958661059c565b61033c916008021c81565b9061033c915461060a565b61033c60006028610615565b3461032b5761063c366004610320565b61037661051d610620565b60005b83811061065a5750506000910152565b818101518382015260200161064a565b61068b61069460209361037a9361067f815190565b80835293849260200190565b95869101610647565b601f01601f191690565b9061033c9161066a565b906106be6106b4835190565b8083529160200190565b90816106d06020830284019460200190565b926000915b8383106106e457505050505090565b909192939460206107076107008385600195038752895161069e565b9760200190565b93019301919392906106d5565b602080825261033c929101906106a8565b3461032b5761037661074061073b3660046104dc565b61225e565b60405191829182610714565b80610539565b9050359061033f8261074c565b9060208282031261032b5761033c91610752565b3461032b5761037661051d61078936600461075f565b6122bb565b9060208282031261032b5761033c91610540565b3461032b576105976107b536600461078e565b61233a565b3461032b576103766107406107d036600461075f565b61239d565b634e487b7160e01b600052603260045260246000fd5b805482101561080e57610805600191600052602060002090565b91020190600090565b6107d5565b634e487b7160e01b600052600060045260246000fd5b634e487b7160e01b600052602260045260246000fd5b906001600283049216801561085f575b602083101461085a57565b610829565b91607f169161084f565b8054600093929161088661087c8361083f565b8085529360200190565b91600181169081156108d8575060011461089f57505050565b6108b29192939450600052602060002090565b916000925b8184106108c45750500190565b8054848401526020909301926001016108b7565b92949550505060ff1916825215156020020190565b9061033c91610869565b9061033f6109119261090860405190565b938480926108ed565b038361042e565b906000106109295761033c906108f7565b610813565b60315481101561032b5761094661033c9160316107eb565b90610918565b602080825261033c9291019061066a565b3461032b5761037661097861097336600461075f565b61092e565b6040519182918261094c565b6101808101929161033f919061037e565b3461032b576103766109b06109ab3660046104dc565b6124b1565b60405191829182610984565b3461032b576109cc366004610320565b61037661051d612514565b3461032b5761037661051d6109ed3660046104dc565b61251d565b3461032b57610376610978610a0836600461078e565b6125b3565b61037a610a2592602092610a1f815190565b94859290565b93849101610647565b610a3e61037a9160209493610a0d565b918252565b610a58610a4f60405190565b92839283610a2e565b03902090565b61033c91610a43565b61033c9081565b61033c9054610a67565b61033c905b60ff1690565b61033c9054610a78565b61033c9060081c6001600160a01b031690565b61033c9054610a8d565b610ab5906035610a5e565b610abe81610a6e565b91610acb60018301610a6e565b91610ad860028201610a6e565b91610ae560038301610a6e565b91610af260048201610a6e565b91610aff60058301610a6e565b91610b0c60068201610a6e565b91610b1960078301610a6e565b91610b2660088201610a6e565b91610b3360098301610a6e565b91610b40600a8201610a83565b91610b4d600a8301610aa0565b91610b5a600b82016108f7565b9161033c600d610b6c600c85016108f7565b93016108f7565b809e9d9c9a989694929b99979593919b6101e082019c60008301610b95919052565b60208201526040015260608d015260808c015260a08b015260c08a015260e089015261010088015261012087015260ff166101408601526001600160a01b0316610160850152838103610180850152610bed9161066a565b8281036101a0840152610bff9161066a565b90808203906101c0015261033c9161066a565b3461032b57610c223660046104dc565b610c2b90610aaa565b9a610c479e9c9e9a919a99929998939897949796959660405190565b9e8f9e8f9e6103769f610b73565b919060408382031261032b5782359067ffffffffffffffff821161032b576020610c848261033c9487016104c1565b9401610752565b61033c61033c61033c9290565b90610ca290610c8b565b600052602052604060002090565b610cc961033c92610cc4600093603d610a5e565b610c98565b610615565b3461032b5761037661051d610ce4366004610c55565b90610cb0565b90610cf66106b4835190565b9081610d086020830284019460200190565b926000915b838310610d1c57505050505090565b90919293946020610d386107008385600195038752895161069e565b9301930191939290610d0d565b8051825261033c916101e0610e47610e33610e1f6102008501610d6d60208801516020880152565b610d7c60408801516040880152565b610d8b60608801516060880152565b610d9a60808801516080880152565b610da960a088015160a0880152565b610db860c088015160c0880152565b610dc760e088015160e0880152565b610dd8610100880151610100880152565b610de9610120880151610120880152565b6101408781015160ff1690870152610160808801516001600160a01b03169087015261018087015186820361018088015261066a565b6101a08601518582036101a087015261066a565b6101c08501518482036101c086015261066a565b920151906101e0818403910152610cea565b9061033c91610d45565b90610e6f6106b4835190565b9081610e816020830284019460200190565b926000915b838310610e9557505050505090565b90919293946020610eb161070083856001950387528951610e59565b9301930191939290610e86565b602080825261033c92910190610e63565b3461032b57610376610eeb610ee5366004610c55565b90612691565b60405191829182610ebe565b3461032b57610f07366004610320565b610597612737565b9061033c90606080610f30608084016000870151858203600087015261066a565b94610f4060208201516020860152565b610f4f60408201516040860152565b0151910152565b9061033c91610f0f565b90610f6c6106b4835190565b9081610f7e6020830284019460200190565b926000915b838310610f9257505050505090565b90919293946020610fae61070083856001950387528951610f56565b9301930191939290610f83565b602080825261033c92910190610f60565b3461032b57610376610fe7610fe23660046104dc565b6127f9565b60405191829182610fbb565b909160608284031261032b57813567ffffffffffffffff811161032b5761101f8461033c9285016104c1565b936040610c848260208701610752565b90610cc461103e926038610a5e565b805482101561032b5761033c91610946916107eb565b3461032b5761037661097861106a366004610ff3565b9161102f565b61033c6000602a610615565b3461032b5761108c366004610320565b61037661051d611070565b919060408382031261032b5761033c906020610c848286610752565b61103e906032610c98565b3461032b576103766109786110d4366004611097565b906110b3565b61033c916008021c610330565b9061033c91546110da565b600061110261033c92603b610a5e565b6110e7565b3461032b5761037661035c61111d3660046104dc565b6110f2565b61033c90610330906001600160a01b031682565b61033c90611122565b61033c90611136565b90610ca29061113f565b600061116261033c92603a611148565b610918565b3461032b5761037661097861117d36600461078e565b611152565b3461032b57611192366004610320565b61037661035c612815565b3461032b576111ad366004610320565b610597612a6b565b61033c60006034610615565b3461032b576111d1366004610320565b61037661051d6111b5565b61033c60006004610615565b3461032b576111f8366004610320565b61037661051d6111dc565b61033c60006029610615565b3461032b5761121f366004610320565b61037661051d611203565b3461032b5761059761123d36600461078e565b612cc2565b805482101561080e57610805600491600052602060002090565b611267906036610a5e565b90611270825490565b81101561032b5761128091611242565b509061128b826108f7565b9161129860018201610a6e565b9161033c60036112aa60028501610a6e565b9301610a6e565b6105d561033f946112df6112d7606095999896996080860190868203600088015261066a565b986020850152565b6040830152565b3461032b576103766113026112fc366004610c55565b9061125c565b9061130f94929460405190565b948594856112b1565b6000610cc961033c92603c610a5e565b3461032b5761037661051d61133e3660046104dc565b611318565b61033c6000602b610615565b3461032b5761135f366004610320565b61037661051d611343565b3461032b5761137a366004610320565b610376610978612ccb565b3461032b5761059761139836600461078e565b612d31565b6105976113ab366004610c55565b9061308c565b3461032b576113c1366004610320565b61037661035c613096565b3461032b576113dc366004610320565b61037661051d6130a0565b6000610cc961033c926033610a5e565b3461032b5761037661051d61140d3660046104dc565b6113e7565b3461032b57610376610eeb6114283660046104dc565b6130aa565b60055b82101561080e57600190610805565b600581101561032b5761145661033c91602c61142d565b90610615565b3461032b5761037661051d61147236600461075f565b61143f565b9061033c90602080611498604084016000870151858203600087015261066a565b940151910152565b9061033c91611477565b906114b66106b4835190565b90816114c86020830284019460200190565b926000915b8383106114dc57505050505090565b909192939460206114f8610700838560019503875289516114a0565b93019301919392906114cd565b602080825261033c929101906114aa565b3461032b5761037661153161152c36600461075f565b6131d2565b60405191829182611505565b3461032b5761059761155036600461078e565b613370565b805482101561080e57610805600291600052602060002090565b60375481101561032b57611584906037611555565b509061033c60016112aa846108f7565b929160206115b161033f936040870190878203600089015261066a565b940152565b3461032b576115ce6115c936600461075f565b61156f565b906103766115db60405190565b92839283611594565b3461032b5761037661051d6115fa36600461078e565b3190565b3461032b576105976116113660046104dc565b613409565b6000610cc961033c926039610a5e565b3461032b5761037661051d61163c3660046104dc565b611616565b61033c90610330565b61033c9054611641565b61033c600261164a565b67ffffffffffffffff81116104505760200290565b6104a261033c9161165e565b369037565b9061033f61169a61169484611673565b9361165e565b8361167f565b61033c600c611684565b6116b661038e600c9390565b6000915b8383106116c75750505050565b6116e86116e16001926116d985610a6e565b815260200190565b9260010190565b920191906116ba565b9061037a81610180936116aa565b9061033f6109119261171060405190565b938480926116f1565b61033c906116ff565b61172a6116a0565b506117336116a0565b5061173e6010611719565b9061033c601c611719565b61176061033c91611758600090565b506033610a5e565b610a6e565b9061177791611772613468565b611c30565b61033f61349a565b61033061033c61033c9290565b61033c9061177f565b1561179c57565b60405162461bcd60e51b815260206004820152600f60248201526e496e76616c6964206164647265737360881b6044820152606490fd5b0390fd5b61033c905461083f565b156117e857565b60405162461bcd60e51b8152602060048201526012602482015271105b1c9958591e48149959da5cdd195c995960721b6044820152606490fd5b61033c906108f7565b8054600093929161183e61087c8361083f565b91600181169081156108d8575060011461185757505050565b61186a9192939450600052602060002090565b916000925b81841061187c5750500190565b80548484015260209093019260010161186f565b9061033c9161182b565b9061033f610911926118ab60405190565b93848092611890565b61033c9061189a565b156118c457565b60405162461bcd60e51b815260206004820152601060248201526f24b73b30b634b2102932b332b93932b960811b6044820152606490fd5b634e487b7160e01b600052601160045260246000fd5b919061191d565b9290565b820391821161192857565b6118fc565b60001981146119285760010190565b90600019905b9181191691161790565b9061195c61033c61196392610c8b565b825461193c565b9055565b600c611430565b1561197557565b60405162461bcd60e51b815260206004820152600d60248201526c496e76616c69642076616c756560981b6044820152606490fd5b610a7d61033c61033c9290565b6119c69060ff165b9160ff1690565b019060ff821161192857565b61033c60186119aa565b805460009392916119ef61038a8361083f565b9160018116908115611a405750600114611a0857505050565b611a1b9192939450600052602060002090565b6000905b838210611a2c5750500190565b600181602092548486015201910190611a1f565b60ff191683525050811515909102019150565b610a3e61037a91602094936119dc565b610a58611a6f60405190565b92839283611a53565b61033c91611a63565b9160001960089290920291821b911b611942565b9190611aa661033c61196393610c8b565b908354611a81565b61033f91600091611a95565b818110611ac5575050565b80611ad36000600193611aae565b01611aba565b9190601f8111611ae857505050565b611afa61033f93600052602060002090565b906020601f840181900483019310611b1d575b6020601f909101045b0190611aba565b9091508190611b0d565b600019600883021c1916906002021790565b90611b42815190565b9067ffffffffffffffff821161045057611b6682611b60855461083f565b85611ad9565b602090601f8311600114611b9457611963929160009183611b89575b5050611b27565b015190503880611b82565b601f19831691611ba985600052602060002090565b9260005b818110611be857509160029391856001969410611bce575b50505002019055565b01516000196008601f8516021c19165b9055388080611bc5565b91936020600181928787015181550195019201611bad565b9061033f91611b39565b906001600160a01b0390611942565b90611c2961033c6119639261113f565b8254611c0a565b90611dc161033f92600090611c5c611c4a6103308461178c565b6001600160a01b0386165b1415611795565b611c87611c75611c7061033c87603a611148565b6117d7565b611c8161038e85610c8b565b146117e1565b8051611c92565b5190565b611c9e61038e84610c8b565b14611e8a575b611da690611da06035611cbf611c70600b61037a8685610a5e565b611ccb61038e87610c8b565b118015611e61575b611cdc906118bd565b611ce7610330612815565b33149081611e37575b611d9a611d90611d2a611456611d066029610a6e565b99611d23611d1c611d176029610a6e565b61192d565b602961194c565b6010611967565b928415611e27575b86611d45611d3e825190565b9160200190565b20611d6a61038e611d5b60056118b4565b6118b4565b611d66611d3e825190565b2090565b14908115611dc657600a611d826005611d8893611a78565b01610a83565b985b896134fd565b96828a878a6135bd565b8561378f565b82613a76565b611dba81611db585603a611148565b611c00565b603b610a5e565b611c19565b87611de9611dd9600a611d828486610a5e565b611de360016119aa565b906119b7565b91611df26119d2565b92611dff60ff85166119bf565b1115611e0e5750505b98611d8a565b611e229250611d82611dd992600a92610a5e565b611e08565b611e3284341461196e565b611d32565b9050611e4c611e46602a610a6e565b42611912565b611e5a61038e612a30610c8b565b1090611cf0565b50611cdc83611e71611d3e825190565b20611e8261038e611d5b60056118b4565b149050611cd3565b50611da6611e986005611822565b9050611ca4565b9061033f91611765565b67ffffffffffffffff81116104505760208091020190565b90610a3e6104a283611ea9565b90611ed7825490565b611ee081611ec1565b92611ef46020850191600052602060002090565b6000915b838310611f055750505050565b600160208192611f1485611822565b815201920192019190611ef8565b61033c610200610455565b9061033f61209c600e611f3e611f22565b94611f4f611f4b82610a6e565b8752565b611f65611f5e60018301610a6e565b6020880152565b611f7b611f7460028301610a6e565b6040880152565b611f91611f8a60038301610a6e565b6060880152565b611fa7611fa060048301610a6e565b6080880152565b611fbd611fb660058301610a6e565b60a0880152565b611fd3611fcc60068301610a6e565b60c0880152565b611fe9611fe260078301610a6e565b60e0880152565b612000611ff860088301610a6e565b610100880152565b61201761200f60098301610a6e565b610120880152565b612031612026600a8301610a83565b60ff16610140880152565b612051612040600a8301610aa0565b6001600160a01b0316610160880152565b612068612060600b83016108f7565b610180880152565b61207f612077600c83016108f7565b6101a0880152565b61209661208e600d83016108f7565b6101c0880152565b01611ece565b6101e0840152565b61033c90611f2d565b156120b457565b60405162461bcd60e51b815260206004820152600f60248201526e125b9d985b1a59081d5cd95c881251608a1b6044820152606490fd5b9050519061033f8261074c565b9060208282031261032b5761033c916120eb565b6040513d6000823e3d90fd5b906121ed61212f61212a846035610a5e565b6120a4565b9261016084019261216e61214a85516001600160a01b031690565b61216761215a610330600061178c565b916001600160a01b031690565b14156120ad565b61217a60608601611c8e565b91602061219560a061218e60808a01611c8e565b9801611c8e565b956121bc6121ae6121a96121a9600361164a565b61113f565b91516001600160a01b031690565b906121c660405190565b968792839182916358c6db3960e11b5b83526001600160a01b031660048301526024820190565b03915afa93841561225057600094612217575b5061176061220f916033610a5e565b919493929190565b61220f9194506122416117609160203d602011612249575b612239818361042e565b8101906120f8565b949150612200565b503d61222f565b61210c565b61033c90611ece565b61227a6000610cc461033c93612272606090565b506038610a5e565b612255565b1561228657565b60405162461bcd60e51b815260206004820152600d60248201526c125b9d985b1a59081b195d995b609a1b6044820152606490fd5b611456611d2361033c926122cd600090565b506122d86000610c8b565b8111806122f9575b6122e99061227f565b6122f36001610c8b565b90611912565b50600c8111156122e0565b61033f90612310613b7a565b61033f90612333612324610330600061178c565b6001600160a01b038316611c55565b6003611c19565b61033f90612304565b60005b82811061235257505050565b606082820152602001612346565b9061033f61237661237084611ec1565b93611ea9565b601f190160208401612343565b9061238c825190565b81101561080e576020809102010190565b906032916123ba6123b56123b18386610c98565b5490565b612360565b6123c46000610c8b565b90815b6123d761033c6123b18689610c98565b811015612442576123fa6123f4826123ef878a610c98565b6107eb565b50611822565b6124048582613ba1565b612417575b506001016123c7565b6123c7565b8361243b9161242a612412949686612383565b526124358185612383565b5061192d565b9290612409565b509150925061245083612360565b9161245b6000610c8b565b845b811015612499576124928161247561245d9386612383565b516124808288612383565b5261248b8187612383565b5060010190565b905061245b565b5092505090565b90600c81101561080e576020020190565b6124b96116a0565b506124c26116a0565b906124cd6000610c8b565b6124d7600c610c8b565b81101561250f57806125046124f761176061250a94610cc487603d610a5e565b61250183876124a0565b52565b60010190565b6124cd565b505090565b6115fa3061113f565b602061253e61253961258493612531600090565b50603b610a5e565b61164a565b61255d61254e610330600061178c565b6001600160a01b038316612167565b61256d6121a96121a9600361164a565b604051938492839182916358c6db3960e11b6121d6565b03915afa9081156122505760009161259a575090565b61033c915060203d60201161224957612239818361042e565b6125ca61033c916125c2606090565b50603a611148565b611822565b6125d7611f22565b906000825260208201600081526020016000815260200160008152602001600081526020016000815260200160008152602001600081526020016000815260200160008152602001600081526020016000815260200160608152602001606081526020016060815260200160609052565b61033c6125cf565b60005b82811061265f57505050565b60209061266a612648565b8184015201612653565b9061033f61268461237084611ec1565b601f190160208401612650565b91906038906126af6126aa6123b183610cc48887610a5e565b612674565b936126ba6000610c8b565b6126ce61033c6123b185610cc48689610a5e565b8110156127145761270f906126fa61212a60356126f3846123ef89610cc48a8d610a5e565b5090611a78565b6127048289612383565b5261248b8188612383565b6126ba565b50505050565b612722613b7a565b61033f61033f612732600061178c565b613c47565b61033f61271a565b61033c6080610455565b9061033f61278b600361275a61273f565b94612767611f4b826108f7565b612776611f5e60018301610a6e565b612785611f7460028301610a6e565b01610a6e565b6060840152565b61033c90612749565b906127a4825490565b6127ad81611ec1565b926127c16020850191600052602060002090565b6000915b8383106127d25750505050565b600460206001926127e285612792565b8152019201920191906127c5565b61033c9061279b565b61281061033c91612808606090565b506036610a5e565b6127f0565b61033c600161164a565b612827613468565b611777612952565b1561283657565b60405162461bcd60e51b815260206004820152600e60248201526d149959da5cdd195c88119a5c9cdd60921b6044820152606490fd5b1561287357565b60405162461bcd60e51b81526020600482015260136024820152724e6f20726f79616c747920746f20636c61696d60681b6044820152606490fd5b9190820180921161192857565b90610a3e6104a283610469565b3d156128e2576128d73d6128bb565b903d6000602084013e565b606090565b156128ee57565b60405162461bcd60e51b815260206004820152601d60248201527f526f79616c747920636c61696d207472616e73666572206661696c65640000006044820152606490fd5b61033c91610a0d565b610a589061294960405190565b91829182612933565b6129606125ca33603a611148565b7f61cec2b02198a9b8b52634497aa655ef0f5fdbf6aad87f8c9baae9eaa1659e2f612a66612a5c61298f845190565b936129a96000956129a261038e88610c8b565b141561282f565b612a576033956129d16129bf611760858a610a5e565b6129cb61038e84610c8b565b1161286c565b6129fa6129e1611760858a610a5e565b976129f5856129ef85610c8b565b92610a5e565b61194c565b612a2281612a09856035610a5e565b01612a1c89612a1783610a6e565b6128ae565b9061194c565b612a326002612a09856035610a5e565b80612a3f6121a93361113f565b6040516000918a905af1612a516128c8565b506128e7565b61293c565b9261052160405190565b0390a2565b61033f61281f565b61033f90612a7f613b7a565b61177790612a8b613468565b612bec565b15612a9757565b60405162461bcd60e51b815260206004820152601960248201527f496e76616c696420726563697069656e742061646472657373000000000000006044820152606490fd5b15612ae357565b60405162461bcd60e51b815260206004820152601e60248201527f4e6f2066756e647320617661696c61626c6520746f20776974686472617700006044820152606490fd5b6040808252601f908201527f57697468647261772052656d61696e696e672046756e6473204265666f7265006060820152919061033f90602060808501940152565b15612b7157565b60405162461bcd60e51b815260206004820152601160248201527015da5d1a191c985dd85b0819985a5b1959607a1b6044820152606490fd5b6040808252601e908201527f57697468647261772052656d61696e696e672046756e647320416674657200006060820152919061033f90602060808501940152565b612c0c612bfc610330600061178c565b612c058361113f565b1415612a90565b612c153061113f565b3190612c2b612c246000610c8b565b8311612adc565b612a66612c46600080516020615a048339815191529261113f565b928383612c5260405190565b80612c5d8582612b28565b0390a2612c84600080612c6f60405190565b60009085895af1612c7e6128c8565b50612b6a565b837feaff4b37086828766ad3268786972c0cd24259d4c87a80f9d3963a3c3d999b0d612caf60405190565b838152602090a260405191829182612baa565b61033f90612a73565b61033c6005611822565b61033f90612ce1613b7a565b612d0090612cf5612324610330600061178c565b6121a9816002611c19565b7fe84239d1fcd552716f4af8cb045d11b09d63d02a349df8c6c17cf34a41a95b6d612d2a60405190565b8080612a66565b61033f90612cd5565b9061177791612d47613468565b612e53565b15612d5357565b60405162461bcd60e51b815260206004820152600e60248201526d496e76616c6964204c6576656c7360901b6044820152606490fd5b15612d9057565b60405162461bcd60e51b815260206004820152600960248201526827b7363c902ab9b2b960b91b6044820152606490fd5b15612dc857565b60405162461bcd60e51b8152602060048201526014602482015273125b9cdd59999a58da595b9d081c185e5b595b9d60621b6044820152606490fd5b15612e0b57565b60405162461bcd60e51b815260206004820152600d60248201526c1499599d5b990819985a5b1959609a1b6044820152606490fd5b90815260408101929161033f9160200152565b9190612e6361033c846035610a5e565b90612e70600c83016117d7565b93612e89600095612e8361038e88610c8b565b1161282f565b612e9285610c8b565b821180613065575b612ea390612d4c565b612ebc612eb5610330600a8601610aa0565b3314612d89565b612ec585610c8b565b94855b83871015612f0257612ef5612efc9161037a6114566010612eef8c61037a60078d01610a6e565b90611967565b9660010190565b95612ec8565b92955090939091612f1581341015612dc1565b612f1f8134611912565b83612f2981610c8b565b821161302e575b612f3a9150610c8b565b865b811015612fdd57612fd6612f3c91612504612fd0612f81611760612fca612fc1612eef612fbc8f8f908f91612fa190612a1c6010612f95611456600785019d8e610a6e565b9260019a8b94612f9086610c8b565b900390565b92019161037a83610a6e565b612fb6612fad89610a6e565b61037a86610c8b565b90613fe0565b610c8b565b61037a84610a6e565b8261194c565b89614766565b9050612f3a565b509150935061301861301260077fabe62dd4fa462661aab93cebe531696b98c0bef1572fc2332548d618735770859401610a6e565b9361293c565b92612a6661302560405190565b92839283612e40565b8061305e9261303f6121a93361113f565b9061304960405190565b90818003925af16130586128c8565b50612e04565b3883612f30565b50612ea361307983612a1760078701610a6e565b613083600c61038e565b11159050612e9a565b9061033f91612d3a565b61033c600361164a565b61033c6028610a6e565b60356130c36126aa600e6130be8585610a5e565b015490565b916130ce6000610c8b565b6130e061033c600e6130be8587610a5e565b811015613128578061310e61212a61310761312394600e613101888a610a5e565b016107eb565b5086611a78565b6131188287612383565b5261248b8186612383565b6130ce565b50505090565b61033c6040610455565b61314061312e565b906060825260006020830152565b61033c613138565b60005b82811061316557505050565b60209061317061314e565b8184015201613159565b9061033f61318a61237084611ec1565b601f190160208401613156565b9061033f6131b560016131a861312e565b94612785611f4b826108f7565b6020840152565b61033c90613197565b8015611928576000190190565b603780548210156132cf576131e68261317a565b906131ef815490565b831015613285576132006000610c8b565b93613209825490565b945b61321f61033c8661321a865490565b611912565b86111561327c5761033c61327361326d61321f9361325861325261324c6132466001610c8b565b8d611912565b89611555565b506131bc565b613262828a612383565b526124358189612383565b976131c5565b9691505061320b565b50935050905090565b9091506132926000610c8b565b61329d61033c835490565b81101561250f57806132b56132526132ca9385611555565b6132bf8286612383565b5261248b8185612383565b613292565b6131e66132da825490565b61317a565b61033f906132eb613b7a565b61334b565b156132f757565b60405162461bcd60e51b815260206004820152602660248201527f4f776e61626c653a206e6577206f776e657220697320746865207a65726f206160448201526564647265737360d01b6064820152608490fd5b61033f9061273261335f610330600061178c565b6001600160a01b03831614156132f0565b61033f906132df565b61033f90613385613b7a565b6133d6565b1561339157565b60405162461bcd60e51b815260206004820152601b60248201527f496e76616c69642064656661756c7420726566657272616c20494400000000006044820152606490fd5b61033f906134026133eb61253983603b610a5e565b6133fb61215a610330600061178c565b141561338a565b6005611c00565b61033f90613379565b61033c6002610c8b565b1561342357565b60405162461bcd60e51b815260206004820152601f60248201527f5265656e7472616e637947756172643a207265656e7472616e742063616c6c006044820152606490fd5b61033f6134756000610a6e565b613489613480613412565b9182141561341c565b600061194c565b61033c6001610c8b565b61033f613489613490565b6134af60026128bb565b612ba960f11b602082015290565b61033c6134a5565b6134cf60026128bb565b61272960f11b602082015290565b61033c6134c5565b916134f761033c94936134f793610a0d565b90610a0d565b61033c9261351f61351961033c93613513606090565b50614870565b93614961565b90156135555761352d6134dd565b925b61354961353b60405190565b9485936020850193846134e5565b9081038252038261042e565b61355d6134bd565b9261352f565b90610100600160a81b039060081b611942565b9061358661033c6119639261113f565b8254613563565b9060ff90611942565b610a7d61033c61033c9260ff1690565b906135b661033c61196392613596565b825461358d565b92600161033f95946135f0613626946135e76135dd61033c856035610a5e565b93600b8501611c00565b600c8301611c00565b6135fe600a82019586613576565b61360b426006830161194c565b61362061361783610c8b565b6007830161194c565b0161194c565b6135a6565b8181029291811591840414171561192857565b634e487b7160e01b600052601260045260246000fd5b811561365e570490565b61363e565b1561366a57565b60405162461bcd60e51b815260206004820152601860248201527f526566657272616c207472616e73666572206661696c656400000000000000006044820152606490fd5b6003613704606061033f946136ce6136c8600083015190565b86611c00565b6136e66136dd60208301611c8e565b6001870161194c565b6136fe6136f560408301611c8e565b6002870161194c565b01611c8e565b910161194c565b91906109295761033f916136af565b90815491600160401b831015610450578261373d91600161033f95018155611242565b9061370b565b1561374a57565b60405162461bcd60e51b815260206004820152601860248201527f5368617265666565207472616e73666572206661696c656400000000000000006044820152606490fd5b906137ee6137e4936137ea6137c06137b06137aa605b610c8b565b8661362b565b6137ba6064610c8b565b90613654565b95869461321a6137dc6137b06137d66003610c8b565b8461362b565b988992611912565b95614a4d565b1590565b6137f757505050565b603561380b611d56600c61037a8685610a5e565b613816611d3e825190565b2061382761038e611d5b60056118b4565b036138bc575061383791926128ae565b9061386760008061384e6121a96121a9600261164a565b6040518681805b03925af16138616128c8565b50613743565b61387f61387883612a176028610a6e565b602861194c565b600080516020615a248339815191526138b76138ad6138a76138a1600261164a565b9461293c565b9361113f565b9361052160405190565b0390a3565b6138679161393660036138e761033c6138e0600c6138da8a89610a5e565b01611822565b8096610a5e565b6139176000806138ff6121a96121a9600a8701610aa0565b60405160009189905af16139116128c8565b50613663565b61392881612a1c86612a1783610a6e565b01612a1c83612a1783610a6e565b61394182603d610a5e565b9161395e61395160008095610c98565b612a1c84612a1783610a6e565b6139a961396f61033c836036610a5e565b61397761273f565b906139828887840152565b61398e6131b587610c8b565b613999856040840152565b6139a4426060840152565b61371a565b7f37c37a8bcd7ef5be3bb12b89324bcf6d806d2dc4b31890406ca7bb77059bbaa36139d96138ad6130128861293c565b0390a38061384e6121a96121a9600261164a565b91906109295761033f91611b39565b90815491600160401b8310156104505782613a1f91600161033f950181556107eb565b906139ed565b6001613704602061033f946136fe6136c8600083015190565b91906109295761033f91613a25565b90815491600160401b8310156104505782613a7091600161033f95018155611555565b90613a3e565b61033f91613a84602b610a6e565b613a9161038e6000610c8b565b1180613b05575b613aeb575b50613aae8160316139fc565b6139fc565b613ab86001610c8b565b613ad0613ac982612a17602b610a6e565b602b61194c565b613ae66037916131b5613ae161312e565b948552565b613a4d565b80613af9613aff9284614ad0565b82614b4c565b38613a9d565b5080613b12611d3e825190565b20613b2361038e611d5b60056118b4565b1415613a98565b15613b3157565b60405162461bcd60e51b8152806117d3600482016020808252818101527f4f776e61626c653a2063616c6c6572206973206e6f7420746865206f776e6572604082015260600190565b61033f613b85612815565b613b9161215a33610330565b14613b2a565b61033c60c8610c8b565b61212a613bb891613bb0600090565b506035610a5e565b90613bd961038e61033c611456613bd160e08701611c8e565b94600b61142d565b149081613c22575b81613bea575090565b9050613c1e61038e61033c6137b0613c106020613c0960408801611c8e565b9601611c8e565b613c18613b97565b9061362b565b1090565b9050613c316101008201611c8e565b613c3f61038e61033c613412565b101590613be1565b613c68613c62613c57600161164a565b6121a9846001611c19565b9161113f565b907f8be0079c531659141344cd1fd0a4f28419497f9722a3daafe3b4186f6b6457e0613c9360405190565b80806138b7565b80546000939291613cad61087c8361083f565b91600181169081156108d85750600114613cc657505050565b613cd99192939450600052602060002090565b916000925b818410613ceb5750500190565b805484840152602090930192600101613cde565b9061033c91613c9a565b9061033f61091192613d1a60405190565b93848092613cff565b61033c90613d09565b15613d3357565b60405162461bcd60e51b8152602060048201526012602482015271125b9d985b1a59081cdc1bdb9cdbdc88125160721b6044820152606490fd5b15613d7457565b60405162461bcd60e51b815260206004820152602a60248201527f53706f6e736f72204944206e6f74206173736f636961746564207769746820616044820152691b9e481858d8dbdd5b9d60b21b6064820152608490fd5b60408082526022908201527f53706f6e736f7220746f2044656661756c74205265666572726572204265666f606082015261726560f01b6080820152919061033f90602060a08501940152565b15613e2057565b60405162461bcd60e51b815260206004820152602c60248201527f44656661756c74207265666572726572207472616e7366657220666f7220737060448201526b1bdb9cdbdc8819985a5b195960a21b6064820152608490fd5b61033c916119dc565b610a5890613e9060405190565b91829182613e7a565b60408082526021908201527f53706f6e736f7220746f2044656661756c7420526566657272657220416674656060820152603960f91b6080820152919061033f90602060a08501940152565b6001600160a01b03909116815260408101929161033f9160200152565b6040808252600f908201526e5368617265666565204265666f726560881b6060820152919061033f90602060808501940152565b6040808252600e908201526d29b430b932b332b29020b33a32b960911b6060820152919061033f90602060808501940152565b6040808252600e908201526d21b7b73a3930b1ba1020b33a32b960911b6060820152919061033f90602060808501940152565b15613fa357565b60405162461bcd60e51b8152602060048201526015602482015274088d2e6e8e4d2c4eae8d2dedc40dad2e6dac2e8c6d605b1b6044820152606490fd5b929115613fec57509050565b61038e9260019161400b611456611d2361400586610c8b565b84611912565b926140168284614d41565b916140396137aa61145661403261402c86610c8b565b85611912565b601c611967565b916140496064936137ba85610c8b565b9061406961406061405a600a610c8b565b8961362b565b6137ba86610c8b565b9261408961408061407a6003610c8b565b8a61362b565b6137ba87610c8b565b946140946004610c8b565b82148015614754575b6000901561474457506140c6906137ba6140c06140ba601e610c8b565b8c61362b565b91610c8b565b955b8080516140d760009d8e610c8b565b1415908161471e575b5015614713576140f9600c61037a6140fe936035610a5e565b613d23565b8a8161411d61410b825190565b61411761038e85610c8b565b11613d2c565b61414461412e61253985603b610a5e565b61413d61215a6103308661178c565b1415613d6d565b61414f611d3e825190565b2060059061416261038e611d5b846118b4565b1461459b57505061417389826151f2565b6141ae8b61418561033c846036610a5e565b6141978b61419161273f565b93840152565b6141a36131b587610c8b565b613999886040840152565b6141c06141ba8961293c565b9161293c565b907fc2fd92276608b9587eb5b4460dc173d46f1ed7c9082e81f25ed959e31f77dbd86141eb60405190565b878152602090a35b6141fc8a610c8b565b861161436a575b505083612a1784612a17858561033f9c9d6142388d6122f361038e9d61428c9f9c6119199e612a17612a1792612a179f6128ae565b9861424282610c8b565b8a11614292575b50506142543061113f565b600080516020615a0483398151915261428461427183319361113f565b9261427b60405190565b91829182613f69565b0390a26128ae565b14613f9c565b6142f76142be928b6142a4600261164a565b6142d1600080516020615a0483398151915296879261113f565b926142c860405190565b91829182613f02565b0390a2806142e56121a96121a9600261164a565b8d6142ef60405190565b908180613855565b61430d613c62614307600261164a565b9261293c565b90600080516020615a2483398151915261432a8c61052160405190565b0390a361433a6121a9600261164a565b9061434460405190565b8061434f8c82613f36565b0390a261436361387889612a176028610a6e565b3880614249565b61437a6121a96121a9600361164a565b638c4f4b83614395600a61438f8b6035610a5e565b01610aa0565b823b1561032b5788926143bd848f946143c86143b060405190565b9788968795869460e01b90565b845260048401613ee5565b03925af1908161456f575b506144c1575061440d5761038e93612a1761191994612a1761428c9895612a179561033f9c9d5b9d9c509550959850509450819550614203565b8761442561038e61441f611c8e6128c8565b92610c8b565b111561447c5760405162461bcd60e51b8152602060048201526024808201527f6d796e6e47696674207472616e73666572206661696c6564207769746820726560448201526330b9b7b760e11b6064820152608490fd5b60405162461bcd60e51b815260206004820152601860248201527f6d796e6e47696674207472616e73666572206661696c656400000000000000006044820152606490fd5b61038e95915061191994612a178895612a179561033f9c9d61455b61428c9c612a17976144ee600361164a565b6144fa613c628461293c565b907fe825e80cd1509bf147026939a991ecd24c29bf1b205dbec44520d5d1e4a44a526145298d61052160405190565b0390a361455061453d61033c846036610a5e565b916131b561454961273f565b9487860152565b6139998a6040840152565b61456a81612a098b6035610a5e565b6143fa565b61458e908c8d3d10614594575b614586818361042e565b810190610320565b386143d3565b503d61457c565b61470e925061033c816145b56125396146eb94603b611a78565b600080516020615a048339815191528a6146868f61461489806145fc6121a96145dd8a61113f565b998a8a6145e960405190565b806145f48d82613dcc565b0390a261113f565b60405160009188905af161460e6128c8565b50613e19565b8461461e8261293c565b600080516020615a2483398151915261463660405190565b868152602090a36146468161293c565b61464f87613e83565b907fc2fd92276608b9587eb5b4460dc173d46f1ed7c9082e81f25ed959e31f77dbd861467a60405190565b868152602090a361293c565b7f17d8016c3c26678014f98164f16ad29fdc9d92eb9d20c75149a06a4febbf13df6146b36138ad87613e83565b0390a3604051806146c48d82613e99565b0390a26146e4846146d6836035611a78565b01612a1c8b612a1783610a6e565b6036611a78565b6146f78a61419161273f565b6147036131b586610c8b565b613999876040840152565b6141f3565b506140fe6005613d23565b905061472b611d3e825190565b2061473c61038e611d5b60056118b4565b1415386140e0565b61474e9150610c8b565b956140c8565b5061475f6008610c8b565b821461409d565b9190916147736000610c8b565b600b60058210156147c057906147b1916147a661038e61033c611456856147a060076127858b6035610a5e565b9561142d565b146147b65760010190565b614773565b61250481846155e8565b50509190916147cf6000610c8b565b600b906005811015612714576147ee61033c611456836147fa9561142d565b84146147ff5760010190565b6147cf565b61250483613aa961033c846032610c98565b1561481857565b60405162461bcd60e51b815260206004820152600d60248201526c24b73b30b634b2103630bcb2b960991b6044820152606490fd5b61486361485d61033c9260ff1690565b60f81b90565b6001600160f81b03191690565b6148b66148b161033c92614882606090565b5061488d60016119aa565b60ff82161015806148e2575b6148a290614811565b6148ac60406119aa565b6119b7565b61484d565b61033c6148c260405190565b809261354960208301918261037a816001936001600160f81b0319169052565b506148a26148f1610a7d6119d2565b60ff831611159050614899565b61490860016128bb565b600360fc1b602082015290565b61033c6148fe565b9061033f61493361492d846128bb565b93610469565b601f19016020840161167f565b811561365e570690565b90614953825190565b81101561080e570160200190565b90600061496d81610c8b565b8314614a25579091908160005b61498383610c8b565b84146149a6576149956149a09161192d565b936137ba600a610c8b565b9261497a565b919392506149b38261491d565b915b6149be85610c8b565b821115614a1a576149d1614a14916131c5565b916137ba600a84614a0e614a056148b1614a006149f66149f087610c8b565b89614940565b612a176030610c8b565b6119aa565b8a1a918861494a565b53610c8b565b906149b5565b505061033c91925090565b50905061033c614915565b90815260608101939261033f9290916040916105d5906020830152565b614a5561567b565b614a5f6000610c8b565b811115614ab7579081614a9b614a967f10c2ec0656820298144929d1742d9014c606d85a89de8e7dcdd2695a44ebcb669484613654565b6156b5565b614ab2614aa760405190565b928392429184614a30565b0390a1565b50614ac961033f91612a176004610a6e565b600461194c565b90614ada906156ef565b8051614ae961038e6000610c8b565b03614af2575050565b81614b4761033f93613aa9600e61037a866035614b1b82600d614b158985610a5e565b01611c00565b614b42614b286001610c8b565b612a1c6008614b378686610a5e565b0191612a1783610a6e565b610a5e565b615829565b9061033c614b5b916035610a5e565b90614b666000610c8b565b600e8301614b7561033c825490565b821015614bba57611d56614b8c83614b90936107eb565b5090565b614b9b611d3e825190565b20614ba861038e84611d5b565b14614bb557600101614b66565b505050565b505090614bce61033f92613aa9600e840190565b612a1c6008614bdd6001610c8b565b920191612a1783610a6e565b60408082526019908201527f55706c696e6520746f205368617265666565204265666f7265000000000000006060820152919061033f90602060808501940152565b60408082526018908201527f55706c696e6520746f20536861726566656520416674657200000000000000006060820152919061033f90602060808501940152565b61033c60006128bb565b61033c614c6d565b6040808252600d908201526c55706c696e65204265666f726560981b6060820152919061033f90602060808501940152565b15614cb857565b60405162461bcd60e51b8152602060048201526016602482015275155c1b1a5b99481d1c985b9cd9995c8819985a5b195960521b6044820152606490fd5b6040808252600c908201526b2ab83634b7329020b33a32b960a11b6060820152919061033f90602060808501940152565b61033c600a6119aa565b61033c61033c61033c9260ff1690565b60359291614d54600d6138da8487610a5e565b91600194614d8e6137b0614d76611456611d23614d708b610c8b565b88611912565b613c18611456614032614d888c610c8b565b89611912565b93805193600094614da161038e87610c8b565b14614dae5790875b614e7e575b505050614e76939450906138789291614e17614dca600261164a565b92614de3600080516020615a048339815191529461113f565b84614ded60405190565b80614df88982614be9565b0390a280614e0c6121a96121a9600261164a565b604051878180613855565b614e27613c62614307600261164a565b90600080516020615a24833981519152614e4060405190565b858152602090a3614e546121a9600261164a565b90614e5e60405190565b80614e698582614c2b565b0390a2612a176028610a6e565b61033c614c77565b808051614e8d61038e88610c8b565b141590816150af575b50156150aa57614ea961033c8285610a5e565b614eb560078201610a6e565b614ecd61038e61033c614ec78d610c8b565b876128ae565b101580615089575b614ef2575090614eeb600d6138da8a9486610a5e565b9091614da9565b8197985093615041600461503361508294613999978b614fff6121a98d61033c9f9b9d600a614f8691019180614f2784610aa0565b96614f40600080516020615a048339815191529861113f565b88614f4a60405190565b80614f558582614c7f565b0390a2614f676121a96121a987610aa0565b90614f7160405190565b90818003925af1614f806128c8565b50614cb1565b8b614f908b61293c565b7f37d11e1e687f0a1785e3ed734d76992ef822b2da59dc4e7959fc1826395fb12e614fbd6138ad8a61293c565b0390a38b614fca8b61293c565b7ffd330dda4e0651d3628c621aa708c409a15b22620a141c9acf39fc3a0a8cf67c614ff76138ad8a61293c565b0390a3610aa0565b9061500960405190565b806150148c82614cf6565b0390a2614b428b6150258484610a5e565b01612a1c8a612a1783610a6e565b01612a1c85612a1783610a6e565b61507b61506c61505561033c8b6036610a5e565b96615066615061614d27565b614d31565b906128ae565b9161507561273f565b97880152565b6020860152565b6040840152565b5061509660088201610a6e565b6150a361038e6002610c8b565b1015614ed5565b614dae565b90506150bc611d3e825190565b206150cd61038e611d5b60056118b4565b141538614e96565b156150dc57565b60405162461bcd60e51b815260206004820152601460248201527314dc1bdb9cdbdc881251081b9bdd08199bdd5b9960621b6044820152606490fd5b60408082526018908201527f53706f6e736f7220746f2055706c696e65204265666f726500000000000000006060820152919061033f90602060808501940152565b1561516157565b60405162461bcd60e51b815260206004820152601760248201527f53706f6e736f72207472616e73666572206661696c65640000000000000000006044820152606490fd5b60408082526017908201527f53706f6e736f7220746f2055706c696e652041667465720000000000000000006060820152919061033f90602060808501940152565b6040518080610a58565b906137b061520491613c18600a610c8b565b906152c660056152b88360356152226121a9600a61438f8585610a5e565b615242615232610330600061178c565b61523b8361113f565b14156150d5565b61525a600080516020615a048339815191529161113f565b90818161526660405190565b806152718d82615118565b0390a261529860008061528360405190565b6000908d875af16152926128c8565b5061515a565b604051806152a68b826151a6565b0390a2614b426000612a098484610a5e565b01612a1c84612a1783610a6e565b6152fc6152d761033c836036610a5e565b6152df61273f565b906152ef6152eb614c77565b8352565b61398e6131b56001610c8b565b7f17d8016c3c26678014f98164f16ad29fdc9d92eb9d20c75149a06a4febbf13df6138b76138ad6130126151e8565b908082146153fb5761533c816117d7565b9067ffffffffffffffff82116104505761535a82611b60855461083f565b600090601f83116001146153875761196392916000918361537c575050611b27565b015490503880611b82565b9061539c601f19841692600052602060002090565b906153ac85600052602060002090565b92815b8181106153e3575091600293918560019694106153cf5750505002019055565b01546000196008601f8516021c1916611bde565b919360018060209287870154815501950192016153af565b5050565b91906109295761033f9161532b565b634e487b7160e01b600052603160045260246000fd5b9061543790600019906020036008021c90565b8154169055565b9060009161545c61545482600052602060002090565b928354611b27565b905555565b91929060208210156154b957601f841160011461548357611963929350611b27565b50906154b461033f9360016154ab6154a085600052602060002090565b92601f602091010490565b82019101611aba565b61543e565b506154f282936154d0600194600052602060002090565b611b166020601f860104820192601f8616806154fa575b50601f602091010490565b600202179055565b61550690888603615424565b386154e7565b929091600160401b821161045057602011156155535760208110156155345761196391611b27565b60019160ff191661554a84600052602060002090565b55600202019055565b60019150600202019055565b90815461556b8161083f565b90818311615593575b8183106155815750505050565b61558a93615461565b38808080612714565b61559f8383838761550c565b615574565b600061033f9161555f565b906000036109295761033f906155a4565b805480156155e35760001901906155e06155da83836107eb565b906155af565b55565b61540e565b9061033c6155f7916032610c98565b6156016000610c8b565b61560c61033c835490565b811015614bb557615623611d56614b8c83856107eb565b61562e611d3e825190565b2061563b61038e85611d5b565b1461564857600101615601565b61033f9250615676906156706156686156626122e9865490565b856107eb565b5091846107eb565b906153ff565b6155c0565b6156856000610c8b565b805b60058210156156b0576156a36156aa9161037a611c8e8561239d565b9160010190565b90615687565b905090565b906156c06000610c8b565b60058110156156dc5780612504846156d7936158ef565b6156c0565b509050565b60ff81116119285760020a90565b60356157016008612785846035610a5e565b9060029161571261038e6002610c8b565b1061250f576000916157246000610c8b565b61572f6150616119d2565b81101561581c5760386157428682610a5e565b9061575e6123b1600193615758614ec786610c8b565b90610c98565b61577e61038e61033c61577961577389610c8b565b886128ae565b6156e1565b1015615812578161578e87610c8b565b905b6157a7575b5050506157a29060010190565b615724565b6157bb61033c6123b186610cc48c87610a5e565b81101561580d576157d76123f4826123ef87610cc48d88610a5e565b6157e66008612785838a610a5e565b6157f261038e88610c8b565b10615801575060010182615790565b97505050505050505090565b615795565b5050600101615724565b505050505061033c614c77565b9190916000916158396000610c8b565b935b6158466150616119d2565b8510156158c35780805161585c61038e87610c8b565b149081156158ca575b506158c3576158b6600d6138da6158bd936158806001610c8b565b6158a0603591612a1c60096158958686610a5e565b019161037a83610a6e565b614b4288613aa961033c8d610cc4876038610a5e565b9460010190565b9361583b565b5092505050565b90506158d7611d3e825190565b206158e861038e611d5b60056118b4565b1438615865565b6158fb9092919261239d565b6159056000610c8b565b61591061033c835190565b81101561593457806125048561592961592f9486612383565b5161593a565b615905565b50509050565b61596961594b61033c836035610a5e565b6122f360026159626137b0613c1060018601610a6e565b9201610a6e565b808311156159f8576159a290915b615992615985826033610a5e565b612a1c85612a1783610a6e565b612a576002615033836035610a5e565b7f906553627142e1d8b6a97ef3da2b55d3f7a8c72d485a7920f47ba49f7f38321d6159cc60405190565b838152602090a28082116159de575050565b6159ee614ac99161033f93611912565b612a176004610a6e565b506159a2829161597756feddb9b4fa58ddb64773d9983027c8e9855dd1dee8c8034344c9af0d198513dc3817cde573ef387f02883bed2a94566f91db79ac27b8730ed1c556cbff295f62efa26469706673582212202d4d806d0d796cdf7d3f1e62894d3ada7047cbce1ed325585e41a4cedf398fc464736f6c634300081a0033",
  "linkReferences": {},
  "deployedLinkReferences": {}
}