{
  "_format": "hh-sol-artifact-1",
  "contractName": "NobleGift",
  "sourceName": "contracts/noblegift.sol",
  "abi": [
    {
      "inputs": [
        {
          "internalType": "address",
          "name": "",
          "type": "address"
        },
        {
          "internalType": "address",
          "name": "_platformWallet",
          "type": "address"
        },
        {
          "internalType": "address",
          "name": "_findupContract",
          "type": "address"
        }
      ],
      "stateMutability": "nonpayable",
      "type": "constructor"
    },
    {
      "anonymous": false,
      "inputs": [
        {
          "indexed": false,
          "internalType": "string",
          "name": "userId",
          "type": "string"
        },
        {
          "indexed": true,
          "internalType": "uint8",
          "name": "newRank",
          "type": "uint8"
        },
        {
          "indexed": false,
          "internalType": "uint256",
          "name": "amount",
          "type": "uint256"
        }
      ],
      "name": "AutoPromotedToNextRank",
      "type": "event"
    },
    {
      "anonymous": false,
      "inputs": [
        {
          "indexed": false,
          "internalType": "string",
          "name": "userId",
          "type": "string"
        },
        {
          "indexed": true,
          "internalType": "uint8",
          "name": "rank",
          "type": "uint8"
        },
        {
          "indexed": false,
          "internalType": "uint256",
          "name": "amount",
          "type": "uint256"
        }
      ],
      "name": "DonationReceived",
      "type": "event"
    },
    {
      "anonymous": false,
      "inputs": [
        {
          "indexed": true,
          "internalType": "address",
          "name": "user",
          "type": "address"
        },
        {
          "indexed": false,
          "internalType": "uint256",
          "name": "amount",
          "type": "uint256"
        }
      ],
      "name": "GasSubsidyPaid",
      "type": "event"
    },
    {
      "anonymous": false,
      "inputs": [
        {
          "indexed": false,
          "internalType": "uint256",
          "name": "newBalance",
          "type": "uint256"
        },
        {
          "indexed": false,
          "internalType": "string",
          "name": "action",
          "type": "string"
        }
      ],
      "name": "GasSubsidyPoolUpdated",
      "type": "event"
    },
    {
      "anonymous": false,
      "inputs": [
        {
          "indexed": false,
          "internalType": "uint256",
          "name": "totalAmount",
          "type": "uint256"
        },
        {
          "indexed": true,
          "internalType": "uint8",
          "name": "rank",
          "type": "uint8"
        }
      ],
      "name": "NoReceiverAllFundsToPlatform",
      "type": "event"
    },
    {
      "anonymous": false,
      "inputs": [
        {
          "indexed": true,
          "internalType": "address",
          "name": "previousOwner",
          "type": "address"
        },
        {
          "indexed": true,
          "internalType": "address",
          "name": "newOwner",
          "type": "address"
        }
      ],
      "name": "OwnershipTransferred",
      "type": "event"
    },
    {
      "anonymous": false,
      "inputs": [
        {
          "indexed": true,
          "internalType": "address",
          "name": "wallet",
          "type": "address"
        },
        {
          "indexed": false,
          "internalType": "uint256",
          "name": "amount",
          "type": "uint256"
        }
      ],
      "name": "PlatformFundsTransferred",
      "type": "event"
    },
    {
      "anonymous": false,
      "inputs": [
        {
          "indexed": false,
          "internalType": "uint256",
          "name": "newBalance",
          "type": "uint256"
        },
        {
          "indexed": false,
          "internalType": "string",
          "name": "action",
          "type": "string"
        }
      ],
      "name": "PromotionPoolUpdated",
      "type": "event"
    },
    {
      "anonymous": false,
      "inputs": [
        {
          "indexed": true,
          "internalType": "uint8",
          "name": "rank",
          "type": "uint8"
        },
        {
          "indexed": false,
          "internalType": "uint256",
          "name": "cycleNumber",
          "type": "uint256"
        },
        {
          "indexed": false,
          "internalType": "address[]",
          "name": "donors",
          "type": "address[]"
        }
      ],
      "name": "RankCycleCompleted",
      "type": "event"
    },
    {
      "anonymous": false,
      "inputs": [
        {
          "indexed": true,
          "internalType": "uint8",
          "name": "rank",
          "type": "uint8"
        },
        {
          "indexed": false,
          "internalType": "uint256",
          "name": "totalDonors",
          "type": "uint256"
        }
      ],
      "name": "RankReset",
      "type": "event"
    },
    {
      "anonymous": false,
      "inputs": [
        {
          "indexed": false,
          "internalType": "string",
          "name": "userId",
          "type": "string"
        },
        {
          "indexed": true,
          "internalType": "uint8",
          "name": "rank",
          "type": "uint8"
        },
        {
          "indexed": false,
          "internalType": "uint256",
          "name": "amount",
          "type": "uint256"
        }
      ],
      "name": "ReceiverStatusUpdated",
      "type": "event"
    },
    {
      "anonymous": false,
      "inputs": [
        {
          "indexed": true,
          "internalType": "address",
          "name": "user",
          "type": "address"
        },
        {
          "indexed": false,
          "internalType": "string",
          "name": "userId",
          "type": "string"
        }
      ],
      "name": "UserIdCacheUpdated",
      "type": "event"
    },
    {
      "anonymous": false,
      "inputs": [
        {
          "indexed": false,
          "internalType": "string",
          "name": "userId",
          "type": "string"
        },
        {
          "indexed": true,
          "internalType": "uint8",
          "name": "rank",
          "type": "uint8"
        },
        {
          "indexed": false,
          "internalType": "uint256",
          "name": "position",
          "type": "uint256"
        }
      ],
      "name": "WaitingQueueJoined",
      "type": "event"
    },
    {
      "inputs": [],
      "name": "FEE_SHARE",
      "outputs": [
        {
          "internalType": "uint256",
          "name": "",
          "type": "uint256"
        }
      ],
      "stateMutability": "view",
      "type": "function"
    },
    {
      "inputs": [],
      "name": "GAS_SUBSIDY_PERCENT",
      "outputs": [
        {
          "internalType": "uint256",
          "name": "",
          "type": "uint256"
        }
      ],
      "stateMutability": "view",
      "type": "function"
    },
    {
      "inputs": [],
      "name": "MAX_DONORS_PER_RANK",
      "outputs": [
        {
          "internalType": "uint8",
          "name": "",
          "type": "uint8"
        }
      ],
      "stateMutability": "view",
      "type": "function"
    },
    {
      "inputs": [],
      "name": "MAX_RANK",
      "outputs": [
        {
          "internalType": "uint8",
          "name": "",
          "type": "uint8"
        }
      ],
      "stateMutability": "view",
      "type": "function"
    },
    {
      "inputs": [],
      "name": "MAX_SUBSIDY_PER_TX",
      "outputs": [
        {
          "internalType": "uint256",
          "name": "",
          "type": "uint256"
        }
      ],
      "stateMutability": "view",
      "type": "function"
    },
    {
      "inputs": [],
      "name": "MIN_GAS_SUBSIDY_POOL",
      "outputs": [
        {
          "internalType": "uint256",
          "name": "",
          "type": "uint256"
        }
      ],
      "stateMutability": "view",
      "type": "function"
    },
    {
      "inputs": [],
      "name": "PROMOTION_SHARE",
      "outputs": [
        {
          "internalType": "uint256",
          "name": "",
          "type": "uint256"
        }
      ],
      "stateMutability": "view",
      "type": "function"
    },
    {
      "inputs": [],
      "name": "RECEIVER_SHARE",
      "outputs": [
        {
          "internalType": "uint256",
          "name": "",
          "type": "uint256"
        }
      ],
      "stateMutability": "view",
      "type": "function"
    },
    {
      "inputs": [
        {
          "internalType": "uint8",
          "name": "",
          "type": "uint8"
        }
      ],
      "name": "currentRankCycle",
      "outputs": [
        {
          "internalType": "uint256",
          "name": "",
          "type": "uint256"
        }
      ],
      "stateMutability": "view",
      "type": "function"
    },
    {
      "inputs": [
        {
          "internalType": "uint8",
          "name": "rank",
          "type": "uint8"
        }
      ],
      "name": "donateToRank",
      "outputs": [],
      "stateMutability": "payable",
      "type": "function"
    },
    {
      "inputs": [],
      "name": "findupContract",
      "outputs": [
        {
          "internalType": "address",
          "name": "",
          "type": "address"
        }
      ],
      "stateMutability": "view",
      "type": "function"
    },
    {
      "inputs": [],
      "name": "gasSubsidyPool",
      "outputs": [
        {
          "internalType": "uint256",
          "name": "",
          "type": "uint256"
        }
      ],
      "stateMutability": "view",
      "type": "function"
    },
    {
      "inputs": [],
      "name": "getContractBalance",
      "outputs": [
        {
          "internalType": "uint256",
          "name": "",
          "type": "uint256"
        }
      ],
      "stateMutability": "view",
      "type": "function"
    },
    {
      "inputs": [
        {
          "internalType": "uint8",
          "name": "rank",
          "type": "uint8"
        }
      ],
      "name": "getCurrentRankCycle",
      "outputs": [
        {
          "internalType": "uint256",
          "name": "",
          "type": "uint256"
        }
      ],
      "stateMutability": "view",
      "type": "function"
    },
    {
      "inputs": [
        {
          "internalType": "uint8",
          "name": "rank",
          "type": "uint8"
        }
      ],
      "name": "getCurrentRankStatus",
      "outputs": [
        {
          "internalType": "string[]",
          "name": "currentDonors",
          "type": "string[]"
        },
        {
          "internalType": "uint256",
          "name": "currentFunds",
          "type": "uint256"
        },
        {
          "internalType": "uint256",
          "name": "targetFunds",
          "type": "uint256"
        },
        {
          "internalType": "uint256",
          "name": "remainingSlots",
          "type": "uint256"
        }
      ],
      "stateMutability": "view",
      "type": "function"
    },
    {
      "inputs": [
        {
          "internalType": "uint8",
          "name": "rank",
          "type": "uint8"
        },
        {
          "internalType": "address",
          "name": "user",
          "type": "address"
        }
      ],
      "name": "getDetailedQueuePosition",
      "outputs": [
        {
          "internalType": "uint256",
          "name": "position",
          "type": "uint256"
        },
        {
          "internalType": "bool",
          "name": "isInQueue",
          "type": "bool"
        },
        {
          "internalType": "bool",
          "name": "isActiveRankDonor",
          "type": "bool"
        },
        {
          "internalType": "uint256",
          "name": "estimatedWaitTime",
          "type": "uint256"
        }
      ],
      "stateMutability": "view",
      "type": "function"
    },
    {
      "inputs": [],
      "name": "getGasSubsidyPoolBalance",
      "outputs": [
        {
          "internalType": "uint256",
          "name": "",
          "type": "uint256"
        }
      ],
      "stateMutability": "view",
      "type": "function"
    },
    {
      "inputs": [],
      "name": "getPlatformIncome",
      "outputs": [
        {
          "internalType": "uint256",
          "name": "",
          "type": "uint256"
        }
      ],
      "stateMutability": "view",
      "type": "function"
    },
    {
      "inputs": [],
      "name": "getPromotionPoolBalance",
      "outputs": [
        {
          "internalType": "uint256",
          "name": "",
          "type": "uint256"
        }
      ],
      "stateMutability": "view",
      "type": "function"
    },
    {
      "inputs": [
        {
          "internalType": "uint8",
          "name": "rank",
          "type": "uint8"
        }
      ],
      "name": "getQueueStatus",
      "outputs": [
        {
          "internalType": "uint256",
          "name": "queueLength",
          "type": "uint256"
        },
        {
          "internalType": "uint256",
          "name": "activeDonors",
          "type": "uint256"
        },
        {
          "internalType": "uint256",
          "name": "totalDonationsInRank",
          "type": "uint256"
        },
        {
          "internalType": "uint256",
          "name": "cycleNumber",
          "type": "uint256"
        }
      ],
      "stateMutability": "view",
      "type": "function"
    },
    {
      "inputs": [
        {
          "internalType": "uint8",
          "name": "rank",
          "type": "uint8"
        }
      ],
      "name": "getRankDonationCount",
      "outputs": [
        {
          "internalType": "uint256",
          "name": "",
          "type": "uint256"
        }
      ],
      "stateMutability": "view",
      "type": "function"
    },
    {
      "inputs": [
        {
          "internalType": "uint8",
          "name": "rank",
          "type": "uint8"
        }
      ],
      "name": "getRankDonorHistory",
      "outputs": [
        {
          "internalType": "string[]",
          "name": "",
          "type": "string[]"
        }
      ],
      "stateMutability": "view",
      "type": "function"
    },
    {
      "inputs": [
        {
          "internalType": "uint8",
          "name": "rank",
          "type": "uint8"
        }
      ],
      "name": "getRankDonors",
      "outputs": [
        {
          "internalType": "string[]",
          "name": "",
          "type": "string[]"
        }
      ],
      "stateMutability": "view",
      "type": "function"
    },
    {
      "inputs": [
        {
          "internalType": "uint8",
          "name": "rank",
          "type": "uint8"
        }
      ],
      "name": "getRankReceiverHistory",
      "outputs": [
        {
          "internalType": "string[]",
          "name": "",
          "type": "string[]"
        }
      ],
      "stateMutability": "view",
      "type": "function"
    },
    {
      "inputs": [
        {
          "internalType": "uint8",
          "name": "rank",
          "type": "uint8"
        }
      ],
      "name": "getRankWaitingQueue",
      "outputs": [
        {
          "internalType": "string[]",
          "name": "",
          "type": "string[]"
        }
      ],
      "stateMutability": "view",
      "type": "function"
    },
    {
      "inputs": [],
      "name": "getTotalReceivers",
      "outputs": [
        {
          "internalType": "uint256",
          "name": "",
          "type": "uint256"
        }
      ],
      "stateMutability": "view",
      "type": "function"
    },
    {
      "inputs": [
        {
          "internalType": "address",
          "name": "user",
          "type": "address"
        }
      ],
      "name": "getUserIncomeBreakdown",
      "outputs": [
        {
          "internalType": "uint256[8]",
          "name": "",
          "type": "uint256[8]"
        }
      ],
      "stateMutability": "view",
      "type": "function"
    },
    {
      "inputs": [
        {
          "internalType": "address",
          "name": "user",
          "type": "address"
        },
        {
          "internalType": "uint8",
          "name": "rank",
          "type": "uint8"
        }
      ],
      "name": "getUserIncomePerRank",
      "outputs": [
        {
          "internalType": "uint256",
          "name": "",
          "type": "uint256"
        }
      ],
      "stateMutability": "view",
      "type": "function"
    },
    {
      "inputs": [
        {
          "internalType": "address",
          "name": "user",
          "type": "address"
        }
      ],
      "name": "getUserRank",
      "outputs": [
        {
          "internalType": "uint8",
          "name": "",
          "type": "uint8"
        }
      ],
      "stateMutability": "view",
      "type": "function"
    },
    {
      "inputs": [
        {
          "internalType": "address",
          "name": "user",
          "type": "address"
        }
      ],
      "name": "getUserStatus",
      "outputs": [
        {
          "internalType": "string",
          "name": "",
          "type": "string"
        }
      ],
      "stateMutability": "view",
      "type": "function"
    },
    {
      "inputs": [
        {
          "internalType": "address",
          "name": "user",
          "type": "address"
        }
      ],
      "name": "getUserTotalDonation",
      "outputs": [
        {
          "internalType": "uint256",
          "name": "",
          "type": "uint256"
        }
      ],
      "stateMutability": "view",
      "type": "function"
    },
    {
      "inputs": [
        {
          "internalType": "address",
          "name": "user",
          "type": "address"
        }
      ],
      "name": "getUserTotalIncome",
      "outputs": [
        {
          "internalType": "uint256",
          "name": "",
          "type": "uint256"
        }
      ],
      "stateMutability": "view",
      "type": "function"
    },
    {
      "inputs": [
        {
          "internalType": "uint8",
          "name": "rank",
          "type": "uint8"
        },
        {
          "internalType": "address",
          "name": "user",
          "type": "address"
        }
      ],
      "name": "getWaitingQueuePosition",
      "outputs": [
        {
          "internalType": "uint256",
          "name": "",
          "type": "uint256"
        }
      ],
      "stateMutability": "view",
      "type": "function"
    },
    {
      "inputs": [
        {
          "internalType": "address",
          "name": "",
          "type": "address"
        }
      ],
      "name": "isDonor",
      "outputs": [
        {
          "internalType": "bool",
          "name": "",
          "type": "bool"
        }
      ],
      "stateMutability": "view",
      "type": "function"
    },
    {
      "inputs": [
        {
          "internalType": "uint8",
          "name": "rank",
          "type": "uint8"
        },
        {
          "internalType": "address",
          "name": "user",
          "type": "address"
        }
      ],
      "name": "isInWaitingQueue",
      "outputs": [
        {
          "internalType": "bool",
          "name": "",
          "type": "bool"
        }
      ],
      "stateMutability": "view",
      "type": "function"
    },
    {
      "inputs": [
        {
          "internalType": "address",
          "name": "",
          "type": "address"
        }
      ],
      "name": "isReceiver",
      "outputs": [
        {
          "internalType": "bool",
          "name": "",
          "type": "bool"
        }
      ],
      "stateMutability": "view",
      "type": "function"
    },
    {
      "inputs": [
        {
          "internalType": "uint8",
          "name": "rank",
          "type": "uint8"
        }
      ],
      "name": "joinWaitingQueue",
      "outputs": [],
      "stateMutability": "nonpayable",
      "type": "function"
    },
    {
      "inputs": [],
      "name": "owner",
      "outputs": [
        {
          "internalType": "address",
          "name": "",
          "type": "address"
        }
      ],
      "stateMutability": "view",
      "type": "function"
    },
    {
      "inputs": [],
      "name": "platformIncome",
      "outputs": [
        {
          "internalType": "uint256",
          "name": "",
          "type": "uint256"
        }
      ],
      "stateMutability": "view",
      "type": "function"
    },
    {
      "inputs": [],
      "name": "platformWallet",
      "outputs": [
        {
          "internalType": "address",
          "name": "",
          "type": "address"
        }
      ],
      "stateMutability": "view",
      "type": "function"
    },
    {
      "inputs": [],
      "name": "promotionPool",
      "outputs": [
        {
          "internalType": "uint256",
          "name": "",
          "type": "uint256"
        }
      ],
      "stateMutability": "view",
      "type": "function"
    },
    {
      "inputs": [
        {
          "internalType": "uint8",
          "name": "",
          "type": "uint8"
        }
      ],
      "name": "rankDonationCount",
      "outputs": [
        {
          "internalType": "uint256",
          "name": "",
          "type": "uint256"
        }
      ],
      "stateMutability": "view",
      "type": "function"
    },
    {
      "inputs": [
        {
          "internalType": "uint8",
          "name": "",
          "type": "uint8"
        }
      ],
      "name": "rankDonationValues",
      "outputs": [
        {
          "internalType": "uint256",
          "name": "",
          "type": "uint256"
        }
      ],
      "stateMutability": "view",
      "type": "function"
    },
    {
      "inputs": [
        {
          "internalType": "uint8",
          "name": "",
          "type": "uint8"
        },
        {
          "internalType": "uint256",
          "name": "",
          "type": "uint256"
        }
      ],
      "name": "rankDonorHistory",
      "outputs": [
        {
          "internalType": "address",
          "name": "",
          "type": "address"
        }
      ],
      "stateMutability": "view",
      "type": "function"
    },
    {
      "inputs": [
        {
          "internalType": "uint8",
          "name": "",
          "type": "uint8"
        },
        {
          "internalType": "uint256",
          "name": "",
          "type": "uint256"
        }
      ],
      "name": "rankReceiverHistory",
      "outputs": [
        {
          "internalType": "address",
          "name": "",
          "type": "address"
        }
      ],
      "stateMutability": "view",
      "type": "function"
    },
    {
      "inputs": [
        {
          "internalType": "uint8",
          "name": "",
          "type": "uint8"
        }
      ],
      "name": "ranks",
      "outputs": [
        {
          "internalType": "uint256",
          "name": "totalFunds",
          "type": "uint256"
        }
      ],
      "stateMutability": "view",
      "type": "function"
    },
    {
      "inputs": [
        {
          "internalType": "address",
          "name": "user",
          "type": "address"
        },
        {
          "internalType": "uint256",
          "name": "amount",
          "type": "uint256"
        }
      ],
      "name": "receiveFromFindup",
      "outputs": [],
      "stateMutability": "payable",
      "type": "function"
    },
    {
      "inputs": [],
      "name": "renounceOwnership",
      "outputs": [],
      "stateMutability": "nonpayable",
      "type": "function"
    },
    {
      "inputs": [
        {
          "internalType": "address",
          "name": "_newFindupContract",
          "type": "address"
        }
      ],
      "name": "setFindupContract",
      "outputs": [],
      "stateMutability": "nonpayable",
      "type": "function"
    },
    {
      "inputs": [
        {
          "internalType": "address",
          "name": "_newPlatformWallet",
          "type": "address"
        }
      ],
      "name": "setPlatformWallet",
      "outputs": [],
      "stateMutability": "nonpayable",
      "type": "function"
    },
    {
      "inputs": [],
      "name": "totalReceivers",
      "outputs": [
        {
          "internalType": "uint256",
          "name": "",
          "type": "uint256"
        }
      ],
      "stateMutability": "view",
      "type": "function"
    },
    {
      "inputs": [
        {
          "internalType": "address",
          "name": "newOwner",
          "type": "address"
        }
      ],
      "name": "transferOwnership",
      "outputs": [],
      "stateMutability": "nonpayable",
      "type": "function"
    },
    {
      "inputs": [
        {
          "internalType": "address",
          "name": "user",
          "type": "address"
        }
      ],
      "name": "updateUserIdCache",
      "outputs": [],
      "stateMutability": "nonpayable",
      "type": "function"
    },
    {
      "inputs": [
        {
          "internalType": "address",
          "name": "",
          "type": "address"
        },
        {
          "internalType": "uint8",
          "name": "",
          "type": "uint8"
        }
      ],
      "name": "userIncomePerRank",
      "outputs": [
        {
          "internalType": "uint256",
          "name": "",
          "type": "uint256"
        }
      ],
      "stateMutability": "view",
      "type": "function"
    },
    {
      "inputs": [
        {
          "internalType": "address",
          "name": "",
          "type": "address"
        }
      ],
      "name": "userRank",
      "outputs": [
        {
          "internalType": "uint8",
          "name": "",
          "type": "uint8"
        }
      ],
      "stateMutability": "view",
      "type": "function"
    },
    {
      "inputs": [
        {
          "internalType": "address",
          "name": "",
          "type": "address"
        }
      ],
      "name": "userTotalDonation",
      "outputs": [
        {
          "internalType": "uint256",
          "name": "",
          "type": "uint256"
        }
      ],
      "stateMutability": "view",
      "type": "function"
    },
    {
      "inputs": [
        {
          "internalType": "address",
          "name": "",
          "type": "address"
        }
      ],
      "name": "userTotalIncome",
      "outputs": [
        {
          "internalType": "uint256",
          "name": "",
          "type": "uint256"
        }
      ],
      "stateMutability": "view",
      "type": "function"
    },
    {
      "inputs": [
        {
          "internalType": "uint256",
          "name": "amount",
          "type": "uint256"
        }
      ],
      "name": "withdrawExcessGasSubsidy",
      "outputs": [],
      "stateMutability": "nonpayable",
      "type": "function"
    },
    {
      "inputs": [
        {
          "internalType": "uint256",
          "name": "amount",
          "type": "uint256"
        }
      ],
      "name": "withdrawExcessPromotionPool",
      "outputs": [],
      "stateMutability": "nonpayable",
      "type": "function"
    },
    {
      "inputs": [],
      "name": "withdrawRemainingBalance",
      "outputs": [],
      "stateMutability": "nonpayable",
      "type": "function"
    },
    {
      "stateMutability": "payable",
      "type": "receive"
    }
  ],
  "bytecode": "0x60806040523461002b5761001a6100146100df565b9161025f565b60405161426d610459823961426d90f35b600080fd5b634e487b7160e01b600052604160045260246000fd5b90601f01601f191681019081106001600160401b0382111761006757604052565b610030565b9061008061007960405190565b9283610046565b565b6001600160a01b031690565b90565b6001600160a01b0381160361002b57565b9050519061008082610091565b909160608284031261002b5761008e6100c884846100a2565b9360406100d882602087016100a2565b94016100a2565b6100fd6146c6803803806100f28161006c565b9283398101906100af565b909192565b61008261008e61008e9290565b61008e90610102565b1561011f57565b60405162461bcd60e51b815260206004820152601f60248201527f496e76616c696420706c6174666f726d2077616c6c65742061646472657373006044820152606490fd5b1561016b57565b60405162461bcd60e51b815260206004820152601f60248201527f496e76616c69642066696e64757020636f6e74726163742061646472657373006044820152606490fd5b906001600160a01b03905b9181191691161790565b61008e90610082906001600160a01b031682565b61008e906101c5565b61008e906101d9565b906101fb61008e610202926101e2565b82546101b0565b9055565b61008e61008e61008e9290565b61022061008e61008e9290565b60ff1690565b9061023090610213565b600052602052604060002090565b90600019906101bb565b9061025861008e61020292610206565b825461023e565b50906102b66102bd926102706103b9565b6102af61029e610280600061010f565b6100826001600160a01b0382166001600160a01b0386161415610118565b6001600160a01b0385161415610164565b60116101eb565b60126101eb565b6100806102d0661cc6e836ae4000610206565b6102e66003916102e1600184610226565b610248565b6103046102f9664db2a62d3ce000610206565b6102e1600284610226565b61032161031766d1c8c0ad579000610206565b6102e18380610226565b6103406103356702366ad507393800610206565b6102e1600484610226565b61035f6103546705f953a59380e400610206565b6102e1600584610226565b61037e6103736710212ea574a8ce00610206565b6102e1600684610226565b61039d610392672b8ccabec0f0da00610206565b6102e1600784610226565b6102e160086103b3677595bd02df378c00610206565b92610226565b6103c16103ca565b61008033610401565b6100806103dc565b61008e6001610206565b6100806103e76103d2565b6000610248565b61008e90610082565b61008e90546103ee565b61042761042161041160016103f7565b61041c8460016101eb565b6101e2565b916101e2565b907f8be0079c531659141344cd1fd0a4f28419497f9722a3daafe3b4186f6b6457e061045260405190565b600090a356fe60806040526004361015610023575b361561001957600080fd5b6100216130d0565b005b60003560e01c80630ab61957146103e357806315997a8b146103de5780631f713a93146103d95780631feaac31146103d45780632707161b146103cf57806328fa2b45146103ca5780632bc3d7aa146103c557806337492e1d146103c0578063392243e1146103bb57806339981ad1146103b65780633e0426b6146103b1578063447b11bc146103ac57806344cad5b5146103a75780634628b6fd146103a25780635bbf4bba1461039d57806360d50fd3146103985780636b92150c146103935780636f9fb98a1461038e578063700cea8e14610389578063715018a6146103845780637280d5f41461037f5780637745f17b1461037a57806378ba7159146103755780637de9aa07146103705780637fbb51961461036b57806387977de0146103665780638831e9cf14610361578063885aa0e51461035c5780638aef16b8146103575780638da5cb5b14610352578063922fb3501461034d57806394cb4800146103485780639e3bcb8d14610343578063a10bc63f1461033e578063af8b9b1b14610339578063b0532f3314610334578063b18db6721461032f578063b2d1573f1461032a578063b7331c1f14610325578063b7a0338514610320578063b91d53c61461031b578063c1b3724514610316578063d0aeb82014610311578063d6b0633f1461030c578063def9635c14610307578063e0b5ce4314610302578063e304c1c3146102fd578063e6512a9d146102f8578063e85cb747146102f3578063ea0d5dcd146102ee578063edc1eed0146102e9578063f0dcdd67146102e4578063f16e4b88146102df578063f265848a146102da578063f2d1f7de146102d5578063f2fde38b146102d0578063fa2af9da146102cb578063fbb73238146102c6578063fdd57d9d146102c15763feb5c1de0361000e576110a0565b611081565b611066565b61103f565b61101b565b611000565b610fe4565b610fc9565b610f9c565b610f68565b610f30565b610eee565b610ead565b610e86565b610e44565b610e1e565b610e03565b610dd8565b610db1565b610d44565b610d29565b610cfc565b610cd1565b610cb6565b610c9b565b610c57565b610c0b565b610bcc565b610b91565b610b76565b610b49565b610b31565b610b16565b610aee565b610ad3565b610aa6565b610a6d565b610a39565b610a1d565b61097a565b610962565b61094a565b61092f565b610913565b6108bc565b6108a1565b610886565b61086b565b610824565b610807565b6107af565b61075b565b610730565b610703565b61067b565b610660565b610622565b6105d8565b610497565b610431565b6001600160a01b031690565b90565b6001600160a01b0381165b0361040957565b600080fd5b9050359061041b826103f7565b565b90602082820312610409576103f49161040e565b346104095761045d61044c61044736600461041d565b6110bb565b6040515b9182918290815260200190565b0390f35b600091031261040957565b6103f4916008021c6001600160a01b031690565b906103f4915461046c565b6103f460006012610480565b34610409576104a7366004610461565b61045d6104b261048b565b604051918291826001600160a01b03909116815260200190565b60ff8116610402565b9050359061041b826104cc565b90602082820312610409576103f4916104d5565b60005b8381106105095750506000910152565b81810151838201526020016104f9565b61053a61054360209361054d9361052e815190565b80835293849260200190565b958691016104f6565b601f01601f191690565b0190565b906103f491610519565b90610571610567835190565b8083529160200190565b90816105836020830284019460200190565b926000915b83831061059757505050505090565b909192939460206105ba6105b383856001950387528951610551565b9760200190565b9301930191939290610588565b60208082526103f49291019061055b565b346104095761045d6105f36105ee3660046104e2565b611425565b604051918291826105c7565b9190604083820312610409576103f490602061061b82866104d5565b940161040e565b346104095761045d61044c6106383660046105ff565b9061163a565b6103f4916008021c81565b906103f4915461063e565b6103f460006014610649565b3461040957610670366004610461565b61045d61044c610654565b346104095761068b366004610461565b61045d61044c6116cc565b6103f4906103e8906001600160a01b031682565b6103f490610696565b6103f4906106aa565b906106c6906106b3565b600052602052604060002090565b6103f4916008021c5b60ff1690565b906103f491546106d4565b60006106fe6103f492600b6106bc565b6106e3565b346104095761045d61071e61071936600461041d565b6106ee565b60405191829182901515815260200190565b3461040957610740366004610461565b61045d61044c6116d6565b60006106fe6103f492600c6106bc565b346104095761045d61071e61077136600461041d565b61074b565b6107ab61041b946107a461079c606095999896996080860190868203600088015261055b565b986020850152565b6040830152565b0152565b346104095761045d6107ca6107c53660046104e2565b611710565b906107d794929460405190565b94859485610776565b80610402565b9050359061041b826107e0565b90602082820312610409576103f4916107e6565b346104095761081f61081a3660046107f3565b611b0d565b604051005b346104095761081f6108373660046104e2565b611dbd565b6106dd6103f46103f49260ff1690565b906106c69061083c565b60006108666103f492600561084c565b610649565b346104095761045d61044c6108813660046104e2565b610856565b3461040957610896366004610461565b61045d61044c611dc6565b346104095761045d6105f36108b73660046104e2565b611dd0565b346104095761045d61044c6108d23660046104e2565b611f4b565b9190604083820312610409576103f49060206108f3828661040e565b94016104d5565b6108666103f49261090e60009360096106bc565b61084c565b346104095761045d61044c6109293660046108d7565b906108fa565b346104095761093f366004610461565b61045d61044c611f62565b346104095761081f61095d36600461041d565b612026565b3461040957610972366004610461565b61081f61204c565b346104095761045d6105f36109903660046104e2565b612054565b9190604083820312610409576103f49060206109b182866104d5565b94016107e6565b634e487b7160e01b600052603260045260246000fd5b80548210156109f1576109e8600191600052602060002090565b91020190600090565b6109b8565b610a0190600461084c565b8054821015610409576103f491610a17916109ce565b90610480565b346104095761045d6104b2610a33366004610995565b906109f6565b346104095761081f610a4c36600461041d565b61245b565b9190604083820312610409576103f49060206109b1828661040e565b61081f610a7b366004610a51565b9061250a565b6103f46103f46103f49290565b6103f4662386f26fc10000610a81565b6103f4610a8e565b3461040957610ab6366004610461565b61045d61044c610a9e565b6103f4600a610a81565b6103f4610ac1565b3461040957610ae3366004610461565b61045d61044c610acb565b346104095761081f610b0136600461041d565b61253b565b60006108666103f49260086106bc565b346104095761045d61044c610b2c36600461041d565b610b06565b346104095761081f610b443660046107f3565b61261f565b3461040957610b59366004610461565b61045d6104b2612628565b6103f46005610a81565b6103f4610b64565b3461040957610b86366004610461565b61045d61044c610b6e565b346104095761045d61071e610ba73660046105ff565b90612632565b6106dd6103f46103f49290565b6103f46008610bad565b6103f4610bba565b3461040957610bdc366004610461565b61045d610be7610bc4565b6040519182918260ff909116815260200190565b60006108666103f49260076106bc565b346104095761045d61044c610c2136600461041d565b610bfb565b6107ab61041b94610c4e606094989795610c45608086019a6000870152565b15156020850152565b15156040830152565b346104095761045d610c73610c6d3660046105ff565b906126c4565b90610c8094929460405190565b94859485610c26565b6103f46032610a81565b6103f4610c89565b3461040957610cab366004610461565b61045d61044c610c93565b346104095761045d61044c610ccc36600461041d565b6127f2565b346104095761045d610be7610ce736600461041d565b612809565b60006108666103f492600661084c565b346104095761045d61044c610d123660046104e2565b610cec565b6103f4602d610a81565b6103f4610d17565b3461040957610d39366004610461565b61045d61044c610d21565b3461040957610d54366004610461565b61081f61291e565b610d6c610d6860089390565b9190565b6000915b838310610d7d5750505050565b610d97610d906001928451815260200190565b9260200190565b92019190610d70565b6101008101929161041b9190610d5c565b346104095761045d610dcc610dc736600461041d565b6129b0565b60405191829182610da0565b346104095761045d6105f3610dee3660046104e2565b612a41565b60006108666103f492600361084c565b346104095761045d61044c610e193660046104e2565b610df3565b3461040957610e2e366004610461565b61045d61044c612b85565b610a0190600d61084c565b346104095761045d6104b2610e5a366004610995565b90610e39565b6103f49081565b6103f49054610e60565b6002610e806103f4928261084c565b01610e67565b346104095761045d61044c610e9c3660046104e2565b610e71565b6103f460006013610649565b3461040957610ebd366004610461565b61045d61044c610ea1565b6107ab61041b946107a4606094989795610ee7608086019a6000870152565b6020850152565b346104095761045d610f09610f043660046104e2565b612b8f565b90610f1694929460405190565b94859485610ec8565b60208082526103f492910190610519565b346104095761045d610f4b610f4636600461041d565b612c64565b6040515b91829182610f1f565b60006106fe6103f492600a6106bc565b346104095761045d610be7610f7e36600461041d565b610f58565b6103f467016345785d8a0000610a81565b6103f4610f83565b3461040957610fac366004610461565b61045d61044c610f94565b6103f46006610bad565b6103f4610fb7565b3461040957610fd9366004610461565b61045d610be7610fc1565b346104095761045d61044c610ffa3660046108d7565b90612df4565b346104095761045d61044c6110163660046104e2565b612e4a565b346104095761081f61102e36600461041d565b612ef2565b6103f460006011610480565b346104095761104f366004610461565b61045d6104b2611033565b6103f460006010610649565b3461040957611076366004610461565b61045d61044c61105a565b61081f61108f3660046104e2565b6130c7565b6103f46000600f610649565b34610409576110b0366004610461565b61045d61044c611094565b6110d26103f4916110ca600090565b5060086106bc565b610e67565b6103f4906103e8565b6103f490546110d7565b9061110f6111036110f9845490565b8084529260200190565b92600052602060002090565b9060005b8181106111205750505090565b90919261114d611146600192611135876110e0565b6001600160a01b0316815260200190565b9460010190565b929101611113565b906103f4916110ea565b634e487b7160e01b600052604160045260246000fd5b90601f01601f1916810190811067ffffffffffffffff82111761119757604052565b61115f565b9061041b6111b6926111ad60405190565b93848092611155565b0383611175565b6103f49061119c565b9061041b6111d360405190565b9283611175565b67ffffffffffffffff81116111975760208091020190565b906112046111ff836111da565b6111c6565b918252565b60005b82811061121857505050565b60608282015260200161120c565b9061041b61123c611236846111f2565b936111da565b601f190160208401611209565b90611252825190565b8110156109f1576020809102010190565b634e487b7160e01b600052602260045260246000fd5b9060016002830492168015611299575b602083101461129457565b611263565b91607f1691611289565b805460009392916112c06112b683611279565b8085529360200190565b916001811690811561131257506001146112d957505050565b6112ec9192939450600052602060002090565b916000925b8184106112fe5750500190565b8054848401526020909301926001016112f1565b92949550505060ff1916825215156020020190565b906103f4916112a3565b9061041b6111b69261134260405190565b93848092611327565b6103f490611331565b67ffffffffffffffff811161119757602090601f01601f19160190565b909291926113816111ff82611354565b93818552818301116104095761041b9160208501906104f6565b9080601f830112156104095781516103f492602001611371565b9060208282031261040957815167ffffffffffffffff8111610409576103f4920161139b565b6040513d6000823e3d90fd5b61054d6113ff926020926113f9815190565b94859290565b938491016104f6565b67556e6b6e6f776e5f60c01b81526103f491906008015b906113e7565b9061143b611436600493600461084c565b6111bd565b61144b611446825190565b611226565b60009361145785610a81565b6114626103f4855190565b81101561160a57611496611491600e61148b61147e8589611249565b516001600160a01b031690565b906106bc565b61134b565b6114a08285611249565b526114ab8184611249565b506114be6114ba808386611249565b5190565b6114ca610d6888610a81565b146114dd575b600101611457565b611457565b61153590866114f76114f26114f260126110e0565b6106b3565b61150461147e8489611249565b9061150e60405190565b94859283918291638955defb60e01b83528983016001600160a01b03909116815260200190565b03915afa8015611605576114d8926000916115e4575b506115568286611249565b526115618185611249565b506115706114ba808387611249565b61157c610d6889610a81565b14611589575b90506114d0565b6115c96115a161159c61147e8489611249565b6131ad565b6103f46115ad60405190565b80926115bd602083019182611408565b90810382520382611175565b6115d38286611249565b526115de8185611249565b50611582565b6115ff913d8091833e6115f78183611175565b8101906113b5565b3861154b565b6113db565b509093505050565b634e487b7160e01b600052601160045260246000fd5b9190820180921161163557565b611612565b6103f461165191611649600090565b50600261084c565b9061165c6000610a81565b6001830161166b6103f4825490565b8210156116be57610a178261167f926109ce565b61169a6001600160a01b0384165b916001600160a01b031690565b146116a75760010161165c565b90506103f491506116b86001610a81565b90611628565b505050506103f46000610a81565b6103f46013610e67565b6103f46010610e67565b6103f46103f46103f49260ff1690565b8181029291811591840414171561163557565b9190820391821161163557565b9061171f6103f483600261084c565b9061172e611446600084015490565b60009361173a85610a81565b858501906117496103f4835490565b81101561189c57611765611491600e61148b610a1785876109ce565b61176f8286611249565b5261177a8185611249565b506117896114ba808387611249565b611795610d6889610a81565b146117aa575b600101905061173a565b61173a565b6117fc876117be6114f26114f260126110e0565b6117cb610a1785876109ce565b906117d560405190565b93849283918291638955defb60e01b5b83526001600160a01b031660048301526024820190565b03915afa928315611605576117a5938392600091611883575b506118208388611249565b5261182b8287611249565b5061183a6114ba808489611249565b611846610d688b610a81565b14611853575b505061179b565b61159c610a17611866936115a1936109ce565b6118708286611249565b5261187b8185611249565b50803861184c565b611896913d8091833e6115f78183611175565b38611815565b5050936118f3909291926118ee6118e86118c66110d26118be60028a01610e67565b99600361084c565b926118e26118d2610fb7565b946118dc866116e0565b906116f0565b97015490565b916116e0565b611703565b9193929190565b61041b906119066133cb565b6119179061191261343e565b611a56565b61041b613470565b1561192657565b60405162461bcd60e51b81528061196f600482016020808252818101527f416d6f756e74206d7573742062652067726561746572207468616e207a65726f604082015260600190565b0390fd5b1561197a57565b60405162461bcd60e51b815260206004820152601b60248201527f496e73756666696369656e742070726f6d6f74696f6e20706f6f6c00000000006044820152606490fd5b90600019905b9181191691161790565b906119df6103f46119e692610a81565b82546119bf565b9055565b906112046111ff83611354565b3d15611a1157611a063d6119ea565b903d6000602084013e565b606090565b15611a1d57565b60405162461bcd60e51b815260206004820152601160248201527015da5d1a191c985dd85b0819985a5b1959607a1b6044820152606490fd5b600080611ab492611a70611a6983610a81565b821161191f565b611a85611a7d6010610e67565b821115611973565b611a9d611a96826118ee6010610e67565b60106119cf565b604051600091335af1611aae6119f7565b50611a16565b6000805160206141f8833981519152611b08611ad06010610e67565b604051918291829081526040602082018190526010908201526f22bc31b2b9b9902bb4ba34323930bbb760811b606082015260800190565b0390a1565b61041b906118fa565b61191790611b2261343e565b611cc3565b15611b2e57565b60405162461bcd60e51b815260206004820152600c60248201526b496e76616c69642072616e6b60a01b6044820152606490fd5b6103f4906106dd565b6103f49054611b62565b15611b7c57565b60405162461bcd60e51b8152602060048201526015602482015274135d5cdd081899481848191bdb9bdc88199a5c9cdd605a1b6044820152606490fd5b15611bc057565b60405162461bcd60e51b815260206004820152601260248201527120b63932b0b23c9030903932b1b2b4bb32b960711b6044820152606490fd5b15611c0157565b60405162461bcd60e51b815260206004820152601860248201527f416c726561647920696e2077616974696e6720717565756500000000000000006044820152606490fd5b916001600160a01b0360089290920291821b911b6119c5565b9190611c706103f46119e6936106b3565b908354611c46565b90815491600160401b8310156111975782611c9b91600161041b950181556109ce565b90611c5f565b92916020611cbe61041b9360408701908782036000890152610519565b940152565b611ccd6001610bad565b60ff8216101580611da1575b611ce290611b27565b611cfd611cf8611cf333600b6106bc565b611b6b565b611b75565b611d1a611d15611d11611cf333600c6106bc565b1590565b611bb9565b611d2f611d2a611d113384612632565b611bfa565b7f75923699577285aeee0f2452cc72e4bb265c34236afa949e38f10bac9d043c50611d5e6103f483600261084c565b91611d86611d806001611d703361347b565b9501611d7c3382611c78565b5490565b9161083c565b92611d9c611d9360405190565b92839283611ca1565b0390a2565b50611ce2611db06106dd610bba565b60ff831611159050611cd9565b61041b90611b16565b6103f4600f610e67565b6001611de1611de792611649606090565b016111bd565b90611df3611446835190565b91600092611e0084610a81565b611e0b6103f4845190565b811015611f4557611e27611491600e61148b61147e8588611249565b611e318284611249565b52611e3c8183611249565b50611e4b6114ba808385611249565b611e57610d6887610a81565b14611e6a575b600101611e00565b611e00565b611eaa9085611e7f6114f26114f260126110e0565b611e8c61147e8488611249565b90611e9660405190565b94859283918291638955defb60e01b6117e5565b03915afa801561160557611e6592600091611f2c575b50611ecb8285611249565b52611ed68184611249565b50611ee56114ba808386611249565b611ef1610d6888610a81565b14611efe575b9050611e5d565b611f116115a161159c61147e8488611249565b611f1b8285611249565b52611f268184611249565b50611ef7565b611f3f913d8091833e6115f78183611175565b38611ec0565b50925050565b6110d26103f491611f5a600090565b50600661084c565b611f6b306106b3565b3190565b61041b90611f7b6133cb565b611ffa565b6103e86103f46103f49290565b6103f490611f80565b15611f9d57565b60405162461bcd60e51b815260206004820152600f60248201526e496e76616c6964206164647265737360881b6044820152606490fd5b906001600160a01b03906119c5565b90611ff36103f46119e6926106b3565b8254611fd4565b61041b9061201f61200e6103e86000611f8d565b6001600160a01b0383161415611f96565b6012611fe3565b61041b90611f6f565b6120376133cb565b61041b61041b6120476000611f8d565b613584565b61041b61202f565b61143661206b91612063606090565b50600d61084c565b90612077611446835190565b9160009261208484610a81565b61208f6103f4845190565b811015611f45576120ab611491600e61148b61147e8588611249565b6120b58284611249565b526120c08183611249565b506120cf6114ba808385611249565b6120db610d6887610a81565b146120ee575b600101612084565b612084565b6121039085611e7f6114f26114f260126110e0565b03915afa8015611605576120e992600091612185575b506121248285611249565b5261212f8184611249565b5061213e6114ba808386611249565b61214a610d6888610a81565b14612157575b90506120e1565b61216a6115a161159c61147e8488611249565b6121748285611249565b5261217f8184611249565b50612150565b612198913d8091833e6115f78183611175565b38612119565b611917906121aa61343e565b612347565b634e487b7160e01b600052600060045260246000fd5b9160001960089290920291821b911b6119c5565b91906121ea6103f46119e693610a81565b9083546121c5565b61041b916000916121d9565b818110612209575050565b8061221760006001936121f2565b016121fe565b9190601f811161222c57505050565b61223e61041b93600052602060002090565b906020601f840181900483019310612260575b6020601f9091010401906121fe565b9091508190612251565b90612273815190565b9067ffffffffffffffff821161119757612297826122918554611279565b8561221d565b602090601f83116001146122d2576119e69291600091836122c7575b5050600019600883021c1916906002021790565b0151905038806122b3565b601f198316916122e785600052602060002090565b9260005b8181106123255750916002939185600196941061230c575b50505002019055565b01516000196008601f8516021c19169055388080612303565b919360206001819287870151815501950192016122eb565b9061041b9161226a565b61235761200e6103e86000611f8d565b6123676114f26114f260126110e0565b90600061237360405190565b638955defb60e01b81526001600160a01b038316600482015292839060249082905afa91821561160557600092612440575b5081516123b5610d686000610a81565b14612401575b611d9c6123f7826114f2856123f27ff945ca509f254b56a456af10be8ee84da7722c7f32f9ee3eae336529525dc39a96600e6106bc565b61233d565b92610f4f60405190565b90507ff945ca509f254b56a456af10be8ee84da7722c7f32f9ee3eae336529525dc39a611d9c6123f76124366115a1856131ad565b93925050506123bb565b61245491923d8091833e6115f78183611175565b90386123a5565b61041b9061219e565b906119179161247161343e565b6124b3565b1561247d57565b60405162461bcd60e51b815260206004820152600e60248201526d125b9d985b1a5908185b5bdd5b9d60921b6044820152606490fd5b907f79c48e52778f336d71fd7205d9bbb6344ff7f03a36e5c99ba233c768c684f5c6906124e1813414612476565b6124ea8361347b565b6124fe6124f76001610bad565b94856135d6565b611d9c611d9360405190565b9061041b91612464565b61041b906125206133cb565b61041b9061253461200e6103e86000611f8d565b6011611fe3565b61041b90612514565b61041b906125506133cb565b6119179061255c61343e565b6125ad565b1561256857565b60405162461bcd60e51b815260206004820152601960248201527f496e73756666696369656e74206578636573732066756e6473000000000000006044820152606490fd5b600080612603926125c0611a6983610a81565b6125eb6125cd600f610e67565b6125e4610d686103f4856125df610f83565b611628565b1015612561565b611a9d6125fc826118ee600f610e67565b600f6119cf565b600080516020614218833981519152611b08611ad0600f610e67565b61041b90612544565b6103f460016110e0565b6103f461264191611649600090565b9061264c6000610a81565b6001830161265b6103f4825490565b82101561269657610a178261266f926109ce565b6126816001600160a01b03841661168d565b1461268e5760010161264c565b505050600190565b50505050600090565b634e487b7160e01b600052601260045260246000fd5b81156126bf570490565b61269f565b90916126d46103f483600261084c565b916000916126e183610a81565b91829584845b600188016126f66103f4825490565b8210156127ea57610a178261270a926109ce565b61271c6001600160a01b03851661168d565b14612729576001016126e7565b97505061273b6001976116b889610a81565b96945b80855b81890161274f6103f4825490565b8210156127dc57610a1782612763926109ce565b6127756001600160a01b03861661168d565b1461278257600101612741565b5050505090919293506001925b808611806127c3575b156127be57506127b86127b26110d26103f493600661084c565b426126b5565b856116f0565b905090565b50806127d66103f46110d285600661084c565b11612798565b50505094955050909161278f565b50509461273e565b6110d26103f491612801600090565b5060076106bc565b611cf36103f491612818600090565b50600a6106bc565b6128286133cb565b61041b61283361343e565b61191761288b565b1561284257565b60405162461bcd60e51b81528061196f600482016020808252818101527f4e6f2072656d61696e696e672062616c616e636520746f207769746864726177604082015260600190565b6128b5612897306106b3565b316128af6128a56010610e67565b6116b8600f610e67565b90611703565b6128c96128c26000610a81565b821161283b565b6128e76000806128d860405190565b60009085335af1611aae6119f7565b7fbdada6c6710e8442230a121675c891b033d6f380375fe10ebee0d13fa5669871611d9c612914336106b3565b9261045060405190565b61041b612820565b67ffffffffffffffff81116111975760200290565b6111ff6103f491612926565b369037565b9061041b61296261295c8461293b565b93612926565b83612947565b6103f4600861294c565b60ff1660ff81146116355760010190565b6129929060ff165b9160ff1690565b90039060ff821161163557565b9060088110156109f1576020020190565b6129b8612968565b506129c1612968565b90600180916129d06001610bad565b915b6129dd575b50505090565b6129e86106dd610bba565b60ff831611612a3c57612a3682612a31612a0b6110d2879661090e8760096106bc565b612a2e612a28612a23612a1d89610bad565b86612983565b6116e0565b8961299f565b52565b612972565b916129d2565b6129d7565b6000611de1612a5292611649606090565b90612a5e611446835190565b91600092612a6b84610a81565b612a766103f4845190565b811015611f4557612a92611491600e61148b61147e8588611249565b612a9c8284611249565b52612aa78183611249565b50612ab66114ba808385611249565b612ac2610d6887610a81565b14612ad5575b600101612a6b565b612a6b565b612aea9085611e7f6114f26114f260126110e0565b03915afa801561160557612ad092600091612b6c575b50612b0b8285611249565b52612b168184611249565b50612b256114ba808386611249565b612b31610d6888610a81565b14612b3e575b9050612ac8565b612b516115a161159c61147e8488611249565b612b5b8285611249565b52612b668184611249565b50612b37565b612b7f913d8091833e6115f78183611175565b38612b00565b6103f46014610e67565b612b9d6103f482600261084c565b91612ba9600184015490565b906118f36110d2612bc76002612bc0600089015490565b9701610e67565b94600661084c565b71088dedcdee4404c40a0cadccae4d2dac240560731b81526103f491612bf79160120161141f565b602960f81b815260010190565b66088dedcdee440560cb1b81526103f491612bf79160070161141f565b690a0cadccae4d2dac240560b31b81526103f491612bf791600a0161141f565b6c0a8d2c8c2d64082d6e8d2cc405609b1b81526103f491612bf791600d0161141f565b612c7261149182600e6106bc565b90612c7b825190565b612c88610d686000610a81565b14612d60575b612c9c611cf382600b6106bc565b80612d4c575b612d2b57612cb4611cf382600b6106bc565b612d0a57611cf3612cc691600c6106bc565b612cea576103f4906103f4612cda60405190565b80926115bd602083019182612c41565b6103f4906103f4612cfa60405190565b80926115bd602083019182612c21565b506103f4906103f4612d1b60405190565b80926115bd602083019182612c04565b506103f4906103f4612d3c60405190565b80926115bd602083019182612bcf565b50612d5b611cf382600c6106bc565b612ca2565b9050612d726114f26114f260126110e0565b906000612d7e60405190565b638955defb60e01b81526001600160a01b038316600482015292839060249082905afa91821561160557600092612dd9575b508151612dc0610d686000610a81565b03612c8e579050612dd36115a1826131ad565b90612c8e565b612ded91923d8091833e6115f78183611175565b9038612db0565b6103f49161090e6110d292612e07600090565b50612e126001610bad565b60ff8416101580612e2e575b612e2790611b27565b60096106bc565b50612e27612e3d6106dd610bba565b60ff851611159050612e1e565b6110d26103f491612e59600090565b50600561084c565b61041b90612e6d6133cb565b612ecd565b15612e7957565b60405162461bcd60e51b815260206004820152602660248201527f4f776e61626c653a206e6577206f776e657220697320746865207a65726f206160448201526564647265737360d01b6064820152608490fd5b61041b90612047612ee16103e86000611f8d565b6001600160a01b0383161415612e72565b61041b90612e61565b61191790612f0761343e565b612f58565b15612f1357565b60405162461bcd60e51b815260206004820152601960248201527f496e636f727265637420646f6e6174696f6e20616d6f756e74000000000000006044820152606490fd5b612fb6612faf612fc992612fa85a91612f716001610bad565b60ff82161015806130ab575b612f8690611b27565b612fa1612f9a6103f46110d284600361084c565b3414612f0c565b33906135d6565b5a90611703565b3a906116f0565b6116b8612fc3600a610a81565b826126b5565b612fd1610a8e565b90818111156130a457505b612fe6600f610e67565b811115612ff05750565b6130016125fc826118ee600f610e67565b60008061300d60405190565b60009084335af161301c6119f7565b506130245750565b7f6862190088c8652f5c014df9537e28866148f733d7b6f2d926866399f8c0daea613051612914336106b3565b0390a2600080516020614218833981519152611b08613070600f610e67565b60405191829182908152604060208201819052600c908201526b14dd589cda591e4814185a5960a21b606082015260800190565b9050612fdc565b50612f866130ba6106dd610bba565b60ff831611159050612f7d565b61041b90612efb565b6130d93461368c565b6130e66114f260116110e0565b7fbdada6c6710e8442230a121675c891b033d6f380375fe10ebee0d13fa566987161311060405190565b3481528060208101611d9c565b61312760106119ea565b6f181899199a1a9b1b9c1cb0b131b232b360811b602082015290565b6103f461311d565b9061041b61316161315b846119ea565b93611354565b601f190160208401612947565b90613177825190565b8110156109f1570160200190565b6103f49081906001600160a01b031681565b6103f4906131a8610d686103f49490565b901c90565b906131b6613143565b6131c86131c3602a610a81565b61314b565b9060009060306131e06131da84610a81565b8561316e565b5361321061320b600f60fb1b96600197851a6132056131ff6001610a81565b8861316e565b536106aa565b613185565b908561321b84610a81565b905b61322f575b505050506103f491925090565b6132396014610a81565b81101561337657601360088261324e83610a81565b9061325891611703565b61326182610a81565b9061326b916116f0565b6132756004610a81565b61327e91611628565b6132889086613197565b9083600f9261329684610a81565b166132a1908761316e565b516001600160f81b031916936002946132b986610a81565b6132c390846116f0565b6132cc87610a81565b906132d691611628565b908a1a906132e4908c61316e565b536132ee90610a81565b906132f891611703565b9061330290610a81565b9061330c916116f0565b6133169086613197565b9061332090610a81565b1661332b908461316e565b516001600160f81b0319169061334090610a81565b61334a90836116f0565b6133546003610a81565b9061335e91611628565b90851a9061336c908761316e565b536001018661321d565b613222565b1561338257565b60405162461bcd60e51b81528061196f600482016020808252818101527f4f776e61626c653a2063616c6c6572206973206e6f7420746865206f776e6572604082015260600190565b61041b6133d6612628565b6133e261168d336103e8565b1461337b565b6103f46002610a81565b156133f957565b60405162461bcd60e51b815260206004820152601f60248201527f5265656e7472616e637947756172643a207265656e7472616e742063616c6c006044820152606490fd5b61041b61344b6000610e67565b61345f6134566133e8565b918214156133f2565b60006119cf565b6103f46001610a81565b61041b61345f613466565b61348961149182600e6106bc565b8051613498610d686000610a81565b116127be57506134ae6114f26114f260126110e0565b9060006134ba60405190565b638955defb60e01b81526001600160a01b038316600482015292839060249082905afa91821561160557600092613569575b5081516134fc610d686000610a81565b14613550575b806114f2836123f261351594600e6106bc565b7ff945ca509f254b56a456af10be8ee84da7722c7f32f9ee3eae336529525dc39a61353f60405190565b8061354a8582610f1f565b0390a290565b90506135156135616115a1836131ad565b919050613502565b61357d91923d8091833e6115f78183611175565b90386134ec565b6135a561359f61359460016110e0565b6114f2846001611fe3565b916106b3565b907f8be0079c531659141344cd1fd0a4f28419497f9722a3daafe3b4186f6b6457e06135d060405190565b600090a3565b613601816135e86103f482600261084c565b6135fc816135f58761347b565b968461374f565b613842565b507f79c48e52778f336d71fd7205d9bbb6344ff7f03a36e5c99ba233c768c684f5c690611d86611d806110d283600361084c565b1561363c57565b60405162461bcd60e51b815260206004820152602260248201527f5472616e7366657220746f20706c6174666f726d2077616c6c6574206661696c604482015261195960f21b6064820152608490fd5b6136966000610a81565b811161369f5750565b6136b76136b0826125df6014610e67565b60146119cf565b6136df6000806136c760116110e0565b60405160009186905af16136d96119f7565b50613635565b7fbdada6c6710e8442230a121675c891b033d6f380375fe10ebee0d13fa5669871611d9c6129146114f260116110e0565b9060ff906119c5565b906137296103f46119e692151590565b8254613710565b906137296103f46119e69261083c565b60001981146116355760010190565b61041b9261381a92613813916137939061376e8382611c78565b611c78565b61378d60026137816110d288600361084c565b9201916125df83610e67565b906119cf565b6137a860016137a383600b6106bc565b613719565b6137d16137b96110d285600361084c565b61378d6137c78460076106bc565b916125df83610e67565b613805600a6137e3611cf384836106bc565b6137ef60ff871661298b565b101561382b576138008386926106bc565b613730565b6137696103f484600461084c565b600561084c565b61378d61382682610e67565b613740565b6138008361383c611cf382856106bc565b926106bc565b91908254613854610d68612a23610fb7565b03613b2c5761386560028401610e67565b916001840190613873825490565b93600094613883610d6887610a81565b0361399b576138918161368c565b7f2fbf8158f1441d3df02ca4d624b44312c8832e1c8e11e99f12ccac753ef091f56138be6129148661083c565b0390a25b6138cb84610a81565b8486016138d96103f4825490565b82101561398757906138f1610a1782613914946109ce565b613902611d11611cf383600c6106bc565b80613974575b613919575b5060010190565b6138cb565b61392c6139258261347b565b9186611c78565b7f75923699577285aeee0f2452cc72e4bb265c34236afa949e38f10bac9d043c50613955865490565b61395e8861083c565b9261396b611d9360405190565b0390a23861390d565b50613982611d118288612632565b613908565b50509390506139969250613db6565b600190565b6139ac6139a6610c89565b826116f0565b613afb856139c56064936139bf85610a81565b906126b5565b613a99611a96613a28613a21613a066139fd6139f46139eb6139e5610d17565b8d6116f0565b6139bf8c610a81565b9a6118dc610b64565b6139bf8a610a81565b976139bf613a1b613a15610ac1565b8b6116f0565b91610a81565b8097611703565b96613a3b6125fc89986125df600f610e67565b600080516020614218833981519152613a8c613a57600f610e67565b60405191829182908152604060208201819052600d908201526c14dd589cda591e481059191959609a1b606082015260800190565b0390a16125df6010610e67565b6000805160206141f8833981519152613af2613ab56010610e67565b6040519182918290815260406020820181905260159082015274141c9bdb5bdd1a5bdb8814da185c99481059191959605a1b606082015260800190565b0390a189613b71565b613b1692613b0888610a81565b8211613b1b575b505061368c565b6138c2565b613b259250611628565b3880613b0f565b5060009150565b15613b3a57565b60405162461bcd60e51b815260206004820152600f60248201526e151c985b9cd9995c8819985a5b1959608a1b6044820152606490fd5b9160018301805490600091613b88610d6884610a81565b11613b9557505050905090565b613bc3610a17837f939437a4ca54745f0091a433139d20b352bc6017fded2fd246fb962daffcf7dd936109ce565b93613c79613bd08661347b565b93613be160016137a389600c6106bc565b613bfc613bef8860086106bc565b61378d856125df83610e67565b613c0e613bef8761090e8a60096106bc565b613c2f613c28613c1e6001610a81565b6125df6013610e67565b60136119cf565b613c41876137696103f489600d61084c565b613c54613c4d82610a81565b8099613f03565b80613c616114f2896106b3565b60405160009186905af1613c736119f7565b50613b33565b613c8f613c8a611cf387600a6106bc565b61083c565b92613c9c611d9360405190565b0390a2613caa6106dd610bba565b60ff821610613cb857505090565b6103f491613fff565b90613cd0610d906110f9845190565b9060005b818110613ce15750505090565b909192613d07613d0060019286516001600160a01b0316815260200190565b9460200190565b929101613cd4565b9081526040602082018190526103f492910190613cc1565b818110613d32575050565b80613d4060006001936121f2565b01613d27565b919091828210613d5557505050565b61041b9291613d6a9091600052602060002090565b9182019101613d27565b90600160401b81116111975781613d8c61041b935490565b90828155613d46565b600061041b91613d74565b90600003613db15761041b90613d95565b6121af565b613e6a600061041b93613dcd61381a82600661084c565b613e437f8fd30f9875f939ce22bfbb821d5511184258442cd8ea4739ae1a7184a5f902ea83860192613e4d6110d2613e04866111bd565b92613e0d845190565b7f4139a9525f08064b4ecf5a22fed43ad96f5c36beded45f12e36b7c6c9c7ea601613e378361083c565b97889261045060405190565b0390a2600661084c565b613e62613e5960405190565b92839283613d0f565b0390a2613da0565b6002613e766000610a81565b91016119cf565b15613e8457565b60405162461bcd60e51b815260206004820152600d60248201526c092dcecc2d8d2c840d2dcc8caf609b1b6044820152606490fd5b634e487b7160e01b600052603160045260246000fd5b61041b91600091611c5f565b80548015613efe576000190190613efb613ef583836109ce565b90613ecf565b55565b613eb9565b9190916001810192613f20613f196103f4865490565b8210613e7d565b8354613f346103f46001926128af84610a81565b821015613f795790613f6e82611c9b83613f68610a17613f62613f5c613f74998b0196610a81565b84611628565b856109ce565b926109ce565b60010190565b613f20565b50505090613f8761041b9190565b613edb565b613f989060ff1661298b565b019060ff821161163557565b15613fab57565b60405162461bcd60e51b815260206004820152602660248201527f496e73756666696369656e742066756e647320696e20676173207375627369646044820152651e481c1bdbdb60d21b6064820152608490fd5b906140149061400e6001610bad565b90613f8c565b61401f6106dd610bba565b60ff8216111561402d575050565b61403b6110d282600361084c565b6140448361347b565b9261404f6010610e67565b8211614100576140709061406a611a96846118ee6010610e67565b836135d6565b61409a7fda692c94204f345b3571e5068d01d3ba5feb073181536206d2ec90648b2a50699261083c565b926140a7611d9360405190565b0390a26000805160206141f8833981519152611b086140c66010610e67565b6040519182918290815260406020820181905260129082015271141c9bdb5bdd1a5bdb881119591d58dd195960721b606082015260800190565b6141499061406a6125fc61411d6141176010610e67565b86611703565b61413261412a600f610e67565b821115613fa4565b61413f611a966000610a81565b6118ee600f610e67565b6141737fda692c94204f345b3571e5068d01d3ba5feb073181536206d2ec90648b2a50699261083c565b92614180611d9360405190565b0390a26000805160206141f883398151915261419f6140c66010610e67565b0390a1600080516020614218833981519152611b086141be600f610e67565b604051918291829081526040602082018190526011908201527014da1bdc9d19985b1b0810dbdd995c9959607a1b60608201526080019056fefd2ea02a0529b94bb7faea0148f0e6cfcbf8adefa48aba6ca43399da68e81a50dffdcf1650221d40ebc28c7dee9c29c0c25d60f62413f22fc2f40232f0570c92a2646970667358221220ee948bc0c223e411e1ab3d5a639fd3442b34206fcb5eb707b390165c6c9c994364736f6c634300081a0033",
  "linkReferences": {},
  "deployedLinkReferences": {}
}